:020000040040BA
:1000000020140020AD164000A9164000A91640009B
:10001000A9164000A9164000A916400000000000E3
:10002000000000000000000000000000A9164000D1
:10003000A916400000000000A9164000E919400080
:10004000A9164000A9164000A9164000A9164000B4
:10005000A9164000A9164000A9164000A9164000A4
:10006000A9164000A9164000A916400059154000E5
:100070006D15400081154000A9164000A9164000EA
:10008000A9164000A9164000A9164000A916400074
:10009000A9164000F9194000A9164000A916400011
:1000A000A9164000A9164000A9164000A916400054
:1000B000A9164000A9164000A9164000A916400044
:1000C000A916400008B50548054B1B1A062B00D899
:1000D00008BD044B002BFBD09847F9E7AC8B4000E0
:1000E000AF8B40000000000008B50748074B1B1A03
:1000F0009B1003EBD373591000D108BD044A002AAA
:10010000FBD09047F9E700BFAC8B4000AC8B4000C0
:100110000000000010B5064C237843B9FFF7D2FF6A
:10012000044B13B10448AFF300800123237010BDCA
:10013000A809002000000000AC8B400008B5084B67
:100140001BB108480849AFF300800848036813B1A1
:10015000074B03B19847BDE80840FFF7C5BF00BF94
:1001600000000000AC8B4000AC090020AC8B4000CC
:100170000000000010B50446104B98478023236010
:10018000636843F001036360636843F010036360D6
:10019000636823F08003636020460021084B984782
:1001A000636823F002036360636823F00403636001
:1001B00020460021034B984710BD00BFB502400008
:1001C000C5024000DD024000F8B505460C46164663
:1001D00018461449144B98470746284621680022C0
:1001E0001346DFF85CC0E0472846216808220F4B21
:1001F000984728462168FAB20D4B9847284621684F
:1002000008220C4B98472846216872080A4B9847E9
:1002100086F001022846216802F00102074B984748
:10022000F8BD00BF006CDC02C1034000AD0340001C
:10023000D9034000690340002903400049034000FE
:10024000F103400008B5436813F0040F05D00968B6
:100250000F290BD8064B984708BD0B68032B05D810
:10026000012202FA03F1C943014B984708BD00BFC0
:10027000C50240002DE9F0410C46904660B9002AC5
:100280000EDD8F18094E0A4D306821462B689847BD
:100290000134BC42F8D106E04FF0FF30BDE8F081F8
:1002A0000020BDE8F0814046BDE8F081EC0B002065
:1002B000E40B002008B51520014B984708BD00BF8E
:1002C0007D164000436823F47023436043680904AB
:1002D00001F470210B434360704700BF436823F073
:1002E0007F434360436843EA01614160704700BF58
:1002F00030B443F6992401E0013C11D0056915F0B2
:10030000020FF9D0446814F0020F06D0120402F470
:10031000702211430BB141F08071C160002000E0F8
:10032000012030BC704700BF32B100EB8100036B8D
:1003300043F001030363704700EB8100036B23F07C
:1003400001030363704700BF32B100EB8100036B10
:1003500043F002030363704700EB8100036B23F05B
:1003600002030363704700BF042A0AD100EB810037
:10037000036B23F008030363036B43F0040303637D
:10038000704752B900EB8100036B23F0080303634D
:10039000036B23F0040303637047082A05D100EBC5
:1003A0008100036B43F008030363704700EB810196
:1003B0000B6B23F0F0030B630B6B1A430A6370475C
:1003C000431E1944B1FBF0F0431EFE2B94BF80B2D4
:1003D0004FF6FF7000B2704700EB81010B6B23F406
:1003E0007F430B630B6B43EA02220A63704700BF33
:1003F00000EB8101086B80B20863086B40EA03637D
:1004000043EA02420A6370470F4B994219D84900E8
:10041000B2FBF1F2043AFF2A07D900230133520854
:10042000FF2A03D9072BF9D100E00023110289B27A
:100430001B0403F4E0230B43D2B21A4302610020F1
:1004400070470120704700BF801A060038B5044687
:100450000D464FF0FF338362036A80230360036B12
:1004600008230360202303600423036049682A688B
:10047000054B9847012814BF002001206B7A012BFF
:1004800004BF4023236038BD090440002DE9F00378
:100490000446CB688E68002B49D000224260486831
:1004A000000200F4407040F480500D7C2D0405F4EF
:1004B000FE0528436060E2604A685AB10878012A64
:1004C000C4BF4D7845EA0020022A04DD8A7842EA5A
:1004D000002000E00020E060012B04D10322226014
:1004E0004FF0010C2BE0012222604FF0000C26E0BF
:1004F000216A11F4807F1CD1551EE2B12A46012BDE
:1005000005D1BCF1000F02D1C4F80090C44611F02F
:10051000020F04D0226B3270013B01363A46002BA9
:10052000E6D1236A13F0010FFBD0236A14E0012007
:1005300012E0052010E009200EE005200CE0216A01
:1005400011F48070F9D143F697224FF002094FF071
:10055000010843F69827D2E7BDE8F003704700BFD3
:1005600070B40346CA688868002A3FD000245C60E3
:100570000E7C360406F4FE064D682D0205F4407527
:1005800035435D60DC604C685CB10D78012CC4BF04
:100590004E7846EA0525022C04DD897841EA0525D6
:1005A00000E00025DD600BE0196A11F4807F1FD1A7
:1005B00011F0040FF8D010F8011B5963013A07D06D
:1005C000196A11F4807F15D111F0040FF3D1EBE714
:1005D0001A6A12F480700FD112F0040FF8D00222C0
:1005E0001A601A6A12F0010FFBD006E0012004E045
:1005F000052002E0052000E0052070BC704700BF28
:10060000436913F0020F04D0C1F30801C161002057
:1006100070470120704700BF436913F0010F05D0F8
:100620008369C3F308030B60002070470120704703
:1006300030B585B0114B4BF67F325A60F021104A2D
:1006400082F8231000249C6007221A6013200D4BAF
:1006500098470D4B01930D4B02938DF80D400C48BC
:1006600001A90C4B984738B10B480C4B98471925FA
:100670000B4C2846A047FCE705B030BD10E000E079
:1006800000ED00E07D164000006CDC02A086010059
:10069000008001404D044000A4814000392B4000FF
:1006A0008512400000B589B08DF807108DF80C0058
:1006B000012304930DF107020592069353238DF84D
:1006C0001C30034803A9034B984709B05DF804FBAD
:1006D000008001406105400010B531200B210C4C19
:1006E000A0472C200621A0472E208021A0472F20A4
:1006F0007F21A0472D200821A0471F202021A047AF
:100700001E201321A04720208121A04710BD00BF3B
:10071000A506400000B587B08DF8040001230293C0
:100720000391049353238DF81430034801A9034B1C
:10073000984707B05DF804FB008001408D0440003D
:1007400000B589B08DF807100023039307938DF847
:100750000C00012304930DF1070205920693682310
:100760008DF81C30034803A9034B984709B05DF886
:1007700004FB00BF008001406105400010B5162059
:100780001B21064CA04715206321A04717201121EB
:10079000A0473E200021A04710BD00BF41074000F8
:1007A00000B587B00023019305938DF80400012361
:1007B00002930391049368238DF81430034801A930
:1007C000034B984707B05DF804FB00BF0080014071
:1007D0008D04400070B559280DD05A2815D05828DE
:1007E0001DD11C4D1E2029461B4EB0472C781D20C4
:1007F0002946B04714E0174D20202946164EB04731
:100800002C781F202946B0470AE0124D22202946A5
:10081000114EB0472C7821202946B04700E0002433
:100820000C4A107810F0800F0CD044EA0023584294
:10083000C0F30E00094B984709490A4B984700F14D
:10084000004070BD44EA0020044B98470449054B22
:10085000984770BDC4090020A1074000F52640005C
:10086000000066410D29400070B559280DD05A2866
:1008700015D058281DD1264D32202946254EB04787
:100880002C7833202946B04714E0214D34202946E6
:10089000204EB0472C7835202946B0470AE01C4D41
:1008A000362029461B4EB0472C7837202946B047C2
:1008B00000E00024164A107800F0F002F02A12D16D
:1008C00044EA00235842C0F30B00134B9847134BE4
:1008D00098470DA3D3E90023114CA047114B98472B
:1008E00000F1004070BD44EA00200B4B98470B4BD1
:1008F000984705A3D3E90023094CA047094B984723
:1009000070BD00BFAFF300803333333333330F4058
:10091000C509002015074000F52640001D204000B5
:10092000C5204000E92440002DE9F0410E4615465F
:10093000013802280FD892B10024DFF83C800D4F17
:10094000D8F80000315D3B68984700280ADB013485
:10095000A542F5D10AE04FF0FF30BDE8F08100205C
:10096000BDE8F0814FF0FF30BDE8F0812046BDE8E2
:10097000F08100BFE80B0020EC0B002070B483B0C6
:10098000C0F11100102834BF06461026002E08BF03
:10099000012600210F4D4FF4005418206C63019084
:1009A000019B5A1E0192002BFAD12C630190019BEE
:1009B0005A1E0192002BFAD101318E42EED84FF42B
:1009C00000330193019B5A1E0192002BFAD103B010
:1009D00070BC704700120E4082B04FF40052064BBC
:1009E0005A634FF400330193019B5A1E0192002B6E
:1009F000FAD102B0704700BF00120E4082B000234F
:100A00000193019B984211D90021094A0191019B50
:100A1000934205D8019B01330193019B9342F9D97D
:100A2000019B01330193019B8342EFD302B07047D6
:100A30009F86010030B40468AF2C84BFAF240460EB
:100A40001468AF2C84BFAF2414600C68DB2C84BF07
:100A5000DB240C601C68DB2C84BFDB241C60046876
:100A60001568AC4284BF056014600A681868824249
:100A700084BF08601A6030BC704700BF70B506467E
:100A80000B4C2046022100220A4DA8470123236077
:100A90001C20094B98472046314602220023074E6E
:100AA000B0470221216020468022A84770BD00BFC8
:100AB00000800040AD03400085124000F10240007C
:100AC00038B50546074C012323601C20064B984788
:100AD0002046294602220023044DA8470223236012
:100AE00038BD00BF0080004069124000F1024000A4
:100AF00010B50C46024B98472046024B984710BD54
:100B00007D0A4000C10A40002DE9F04182B005464F
:100B10000C46F1B10122104B1A601C200F4B984774
:100B200000230193019B9C4210D9DFF82C800227FF
:100B30000B4E019B404635F813103A460023B04750
:100B4000019B01330193019B9C42F2D80222024B8C
:100B50001A6002B0BDE8F0810080004069124000D8
:100B6000F1024000034BDA699A610122024B1A70CC
:100B7000704700BF00800040280B002008B5072008
:100B800041F21701014B984708BD00BFF10A400030
:100B900008B507200021014B984708BDF10A400025
:100BA00000F47C4100F478031B0A43EA5111C0F3BE
:100BB000C4000143044A931E02F5AF7223F8021FDA
:100BC0009342FBD1704700BFC8090020F8B5064624
:100BD0000D461F46013A11183620C9B2064CA047EF
:100BE0003720F1B2A047013F79193820C9B2A04798
:100BF0003920E9B2A047F8BDF10A400038B50D46EA
:100C0000C1B22020024CA0472120E9B2A04738BD44
:100C1000F10A40002DE9F04385B081464FF002080B
:100C200004AF47F8048D1D205E4CA04740465E4E41
:100C3000B0471D205D4B98471420B0471D20A047AA
:100C40003220B0475A4CC4F80080802323604FF014
:100C500080732360574B4FF40012C3F88020C3F811
:100C60008021002583F815531A602046524B98477F
:100C70000095204639462A46504BDFF85CC1E047D4
:100C8000204639464E4B98470127276067614D4BF8
:100C9000984738464FF48E714B4CA04740464FF46E
:100CA0008071A047032041F23001A047082040F6A0
:100CB0000801A0470C203946A0470F2040F601212B
:100CC000A0472020B021A0472120DC21A0471020F0
:100CD0004FF42061A047112041F23801A047322093
:100CE000B047122041F22111A04713204E21A04706
:100CF000142046F26F71A04730202946A0473120CA
:100D0000DB21A04732202946A04733202946A047AF
:100D10003420DB21A04735202946A0473620B021CA
:100D2000A04737202946A0473820DC21A04739209A
:100D30002946A04750202946A047512040F20A6189
:100D4000A047522040F60A51A047532040F20331F9
:100D5000A047542040F60D21A047552040F606211B
:100D6000A04756202946A047572040F20331A0470C
:100D700058202946A04759202946A04728462946F9
:100D8000D9F80020D9F80430104CA047D9F8080051
:100D90000F4B9847284629460E4B9847284605B0E2
:100DA000BDE8F08369124000FD0940008512400053
:100DB0000080004000E100E07501400020BCBE0062
:100DC00045024000910B4000F10A4000CD0B40006D
:100DD000A10B4000FD0B4000C901400008B5AF2841
:100DE0000ED8DB290ED880B289B2074B9847222053
:100DF000064B9847064B1888064B9847002008BDBD
:100E0000012008BD012008BDFD0B40007D0A400007
:100E1000C8090020C10A40002DE9F04184B00390C8
:100E200002910192009303A802A901AA6B46214CEA
:100E3000A047039A029B01994D1C00994C1C104637
:100E40001946AA1AE31A1C4CA047BDF80C00BDF8BD
:100E500008101A4B98472220194B9847029B009A7A
:100E6000D21A019B03F10108039BC3EB080802FBA4
:100E70000888144CA4FB0834E40907D0124FB026AC
:100E8000124D38463146A847013CFAD10D49A1FB25
:100E90000831C909B0240C4804FB11810B4B984759
:100EA000002001462246DC23034CA04704B0BDE8E5
:100EB000F08100BF350A4000CD0B4000FD0B400023
:100EC0007D0A4000A38B2EBAC8090020090B400000
:100ED0002DE9F04F87B004908B461378002B4AD051
:100EE00003920290254AA2F26B220592DFF89090BD
:100EF0000A2B04D10BF1100B049B029335E003EB9A
:100F000083039B00A3F27F261C4A1644059A1A44C9
:100F10000192DDF80880072437460BEB040A3D46B2
:100F200016F8013C234113F0010F03D04046C4EBF7
:100F30000A01C847013CB4F1FF3FF0D107240BF18F
:100F40000F072B78234113F0010F02D04046391BC5
:100F5000C847013C012CF4D1023608F10108019B7D
:100F60009E42D8D1029A0C320292039A12F8013FA3
:100F70000392002BBCD107B0BDE8F08FCC814000BC
:100F8000DD0D400010B4AC2303600A684B68B2FB6F
:100F9000F3F31B095C1E4FF6FE7294420AD80362FB
:100FA0008B68436040F20223C0F820315023036075
:100FB000002000E001205DF8044B7047436913F006
:100FC000020F02D0C161002070470120704700BFAE
:100FD000436913F0010F03D083690B700020704741
:100FE0000120704710B50E480E4B984700203E2157
:100FF0000D4B98470D4CA0470028FCD00C4B984750
:101000000C4A0D4B9A620D4CA0470028FCD01020D2
:101010000B4B98470B4B98470148024B984710BD24
:10102000006CDC02A1000020F91540004D164000C4
:101030005D164000013F072000040E406D16400081
:10104000951540005D17400010B54FF40042304B3D
:101050005A600B202F4CA0470C20A0470D20A04722
:1010600017204FF060512C4CA0472E204FF06051BC
:10107000A0470F202949A04710202949A047294807
:101080004FF4C0614FF00062274B984700204FF0AB
:101090008051A04708204FF08051A04703204FF017
:1010A0000061A04704204FF00061A0470C204FF0E2
:1010B0000061A0470D204FF00061A0470E204FF0C7
:1010C0000061A0471F204FF00061A0471E204FF095
:1010D0008051A0470C204FF00061A0470D204FF039
:1010E0000061A0470E204FF00061A0471E204FF086
:1010F0008051A0471C204FF06051A0471D204FF0A9
:101100006051A0474D204FF06051A04710BD00BF77
:1011100050140E407D164000C51240007900002892
:1011200059000028000E0E40E913400010B442643C
:10113000B1F1C05F2ED008D8B1F1006F14D0B1F179
:10114000805F1DD0002935D135E0B1F1205F32D06C
:1011500003D8B1F1005F27D02CE0B1F1405F2AD075
:10116000B1F1605F27D025E0016F046FD3432140C8
:1011700019400167416F446F21400B40436719E0FC
:10118000036F13430367436F416F0B4023EA02036E
:1011900043670FE0036F016F0B4023EA020303670D
:1011A000436F1343436705E0036F13430367436FC4
:1011B0001343436742605DF8044B7047416412F08B
:1011C000010F14BF4166016612F00A0F14BF0162DD
:1011D000416212F0020F02D0C0F8801004E012F059
:1011E000080F18BFC0F8841041610160704700BF4C
:1011F00010B44164019C0CB1416600E001660BB182
:10120000016500E041650AB1016300E041630161ED
:1012100001605DF8044B704712B1C0F8941070473C
:10122000C0F89010704700BF12F0100F10D0C0F837
:10123000B01012F0200F14BFC0F8D410C0F8D010B6
:1012400012F0400F14BFC0F8C010C0F8C4107047AF
:10125000C0F8B410704700BFC36C0164704700BF92
:10126000C06C7047806C7047430903F5001303F2AC
:1012700007735B0200F01F00012202FA00F01863FE
:10128000704700BF430903F5001303F207735B02C5
:1012900000F01F00012202FA00F05863704700BFFF
:1012A000430903F5001303F207735B029A6B00F026
:1012B0001F00012101FA00F0104214BF58631863A7
:1012C000704700BF70B582B00D46440904F50014A4
:1012D00004F20774660201F0F044B4F1005F47D0F5
:1012E00009D8B4F1805F21D0B4F1C05F2FD0B4F140
:1012F000006F6FD109E0B4F1405F55D0B4F1605F89
:1013000052D0B4F1205F44D064E000F01F0001240B
:10131000844030464FF000612246304B984715F02C
:10132000010F14BF74663466012054E000F01F0002
:101330000124844030464FF080512246274B984785
:1013400015F0010F14BF74663466012043E000F00D
:101350001F000124844030464FF0C05122461F4BED
:10136000984715F0010F14BF74663466012032E00F
:1013700000F01F000124844030464FF00051224607
:10138000164B984715F0010F14BF746634660120A0
:1013900021E000F01F010124304604FA01F12A4641
:1013A0000F4B9847204616E000F01F01012405F07E
:1013B000605205EA04030093304604FA01F1B2F1E9
:1013C000605F14BF00220122C5F38003054DA847CA
:1013D000204600E0002002B070BD00BF2D1140008B
:1013E000BD114000F1114000F0B583B007460E4634
:1013F000154602F0F044B4F1005F38D009D8B4F1DA
:10140000805F1CD0B4F1C05F25D0B4F1006F50D123
:1014100009E0B4F1405F3AD0B4F1605F37D0B4F185
:10142000205F30D045E04FF000613246224B9847B4
:1014300015F0010F14BF7E663E6601203AE04FF0C2
:10144000805132461C4B984715F0010F14BF7E6641
:101450003E6601202EE04FF0C0513246164B9847B1
:1014600015F0010F14BF7E663E66012022E04FF0AA
:1014700000513246104B984715F0010F14BF7E669D
:101480003E66012016E00D4B9847012012E005F062
:10149000605205F00103009338463146B2F1605FB7
:1014A00014BF00220122C5F38003054CA047012090
:1014B00000E0002003B0F0BD2D114000BD11400040
:1014C000F11140002DE9F04104460E46104B9847BB
:1014D000054620460F4B9847054017D00E4F07F1A1
:1014E0000C046C3754F80C3CB3420AD154F8081C75
:1014F000294206D023683046984754F8083C25EA2C
:101500000305BC4202D01034002DEBD1BDE8F081C0
:101510006112400065124000300B0020F8B50B4C02
:101520002468062C10D80A4F2601BD19B9516A60EB
:10153000AB600699E960013404490C6011461A4613
:10154000044B98470020F8BD0120F8BD2C0B00206B
:10155000300B00202912400008B502480B21024B35
:10156000984708BD000E0E40C514400008B502485B
:101570000C21024B984708BD00100E40C5144000D6
:1015800008B502480D21024B984708BD00120E40D5
:10159000C5144000174B1A6B22F0700210431863F9
:1015A0009B6E13F0080F09D14FF40063114901E05D
:1015B000013B19D08A6E12F0080FF9D00D4B1A6B4F
:1015C00022F0030242F002021A63986E10F0080043
:1015D0000CD14FF40063074901E0013B08D08A6E4B
:1015E00012F0080FF9D070470120704700207047B3
:1015F0000120704700040E4038B111490B6A114AAE
:101600001A40114B13430B6270470D4A136A23F4BF
:101610005C1323F0030343F45C1343F0010309025A
:1016200089B20B431362936E13F0010FFBD0044A8F
:10163000136A43F09B7343F480331362704700BF17
:1016400000040E40FCFFC8FE02003701024B986EFA
:1016500000F48030704700BF00040E404FF000528D
:10166000014B9A62704700BF00040E40024B986E17
:1016700000F00200704700BF00040E401F280DD884
:10168000084B9A69012383401A40934208D00123F2
:1016900003FA00F0034B18610020704701207047E7
:1016A0000020704700040E40FEE700BF10B51E4B3F
:1016B0001E4A9A4203D01E4B1B4A9A4204D31D4B2A
:1016C0001D4A9A420FD31AE01C4B1D4CE41A24F019
:1016D000030404340023144814495A581A5004339C
:1016E000A342FAD1EBE7174B1749C91A21F00301BE
:1016F0001A1D1144002243F8042F8B42FBD1134AD8
:1017000022F0604323F07F0311498B6002F16042B5
:10171000B2F5C04F03D28A6842F000528A600D4B86
:1017200098470D4B9847FEE700000020AC8B400027
:10173000A80900201C0C0020A8090020040000209B
:10174000AB090020A4090020170C00200000400075
:1017500000ED00E0452A4000051B4000394B1B6BA3
:1017600003F00303012B0FD013B1022B29D051E05A
:10177000354B5B6913F0800F14BF4FF400424FF4F8
:10178000FA42324B1A6045E02E4B1B6A13F0807F01
:1017900003D02F4A2D4B1A603CE02E4A2B4B1A6087
:1017A000284B1B6A03F07003102B02D0202B04D0AF
:1017B00030E0294A254B1A602CE0254A234B1A6059
:1017C00028E0204B1B6A13F0807F03D0204A1F4B78
:1017D0001A6012E01F4A1D4B1A601A4B1B6A03F075
:1017E0007003102B02D0202B04D006E01A4A174BAE
:1017F0001A6002E0164A154B1A60124B986A996AF1
:10180000124BC0F30A401A6800FB0222C9B2B2FBB5
:10181000F1F21A600B4B1B6B03F07003702B07D1B6
:101820000A4B1A680D49A1FB020252081A60704760
:10183000044B196B054BC1F302111A68CA401A60B8
:10184000704700BF00040E4010140E40E40000205A
:10185000001BB70000093D0000127A00ABAAAAAA3B
:10186000094B1B6813B9094A074B1A60064B1B68E2
:101870001A180749914204DB1046034A10601846C3
:1018800070474FF0FF307047A00B0020201400205D
:10189000FC5F00204FF0FF30704700BF4FF4005353
:1018A0004B600020704700BF012070470020704748
:1018B0000B280CD1B1F5803F03D10122044B1A70E3
:1018C0007047B1F5806F02D10122024B1A70704748
:1018D000AC0B0020A40B0020F0B583B005460C46ED
:1018E00000230193184B984207D11F46174E3846E4
:1018F0002146B0470028FAD117E0154B984207D18E
:101900001E46124D30462146A8470028FAD118E05D
:10191000104B984209D11E460F4D304601A9A847E9
:101920000028FAD1019B23700BE00C4B9D4208D19B
:101930001E46094D304601A9A8470028FAD1019B4F
:10194000237003B0F0BD00BF00060E40D10F400071
:1019500000080E400040024019064000008002408E
:1019600070B50C461A4B984207D11E46194D3046A9
:101970002146A8470028FAD120E0174B984207D10A
:101980001E46144D30462146A8470028FAD117E0DC
:10199000124B984207D11E46114D30462146A847AA
:1019A0000028FAD10EE00F4B98420DD11E460C4D87
:1019B00030462146A8470028FAD107E0012070BD33
:1019C000012070BD012070BD002070BD012070BDE0
:1019D00000060E40BD0F400000080E4000400240CF
:1019E0000106400000800240024B1A6801321A6072
:1019F000704700BFA80B002008B5014B984708BDF1
:101A0000650B40002DE9F0410F4CB0272760DC2624
:101A100066600025A5606FF07F48C4F80C800B4B12
:101A2000984720460A4B984708200A4B98470A4B8C
:101A300098474046094B9847284629463A46334638
:101A4000074CA047BDE8F081080C0020D9094000F0
:101A5000150C40007D0940007D0B4000A10B4000AB
:101A6000190E40002DE9F04383B00B201D4B984721
:101A70001D4C20464FF480310022DFF88090C8478B
:101A800020464FF480310122DFF87480C047174FA1
:101A9000009720460B214FF480327023144EB0473C
:101AA00020464FF48031134DA84720464FF4806103
:101AB0000022C84720464FF480610122C0470097AA
:101AC00020460B214FF480627023B04720464FF42C
:101AD0008061A8474FF40062074B1A6003B0BDE86D
:101AE000F08300BF7D164000000E0E40B11840008C
:101AF0001D1540005912400000E100E0BD114000FA
:101B0000191240002DE9F04FA3B0694B9847694B7B
:101B100098470820684EB047684D694B1D60694A78
:101B2000694B1A60694A6A4B1A606A4B06934FF414
:101B3000E1330793002408940820B047284606A9FB
:101B4000654B9847654E336898682146644DA847B1
:101B5000336858682146A847624B9847624B9847BC
:101B6000624B9847624B98472046624B98470A2041
:101B70000146614A614B98476148624B9847624B06
:101B800098475820614B9847614B18605820614B2B
:101B90009847614B1860614C5C4E5D4FDFF8A48143
:101BA0002378002B3AD05820B04738605920B047EE
:101BB000DFF894A1CAF800005A20B0478146584B7C
:101BC0001860584D3868A847CDE90001DAF80000E0
:101BD000A847CDE902014846A847CDE9040109A874
:101BE0006421514A514B98476FF07F40414DA847BF
:101BF00000206E21B022DC23DFF850C1E047002036
:101C0000A8470A201E2109AA3C4B984709A83D4B2A
:101C100098471720464B984700232370454B1B7865
:101C2000002BBDD058203B4DA847DFF8ECA0CAF8E8
:101C300000005920A847DFF81891C9F800005A2081
:101C4000A84741463C4B984783463C4B1860354D6E
:101C5000DAF80000A847CDE90001D9F80000A8474C
:101C6000CDE902015846A847CDE9040109A864213D
:101C7000334A2E4B98476FF07F401E4DA8470020F7
:101C80001E21B0226E23DFF8C4C0E0470020A84721
:101C90000A201E2109AA194B984709A8194B9847F1
:101CA0002E20234B98470022224B1A7078E700BF62
:101CB000E50F4000491040007D16400000060E4030
:101CC000EC0B002061194000E80B0020D9184000FF
:101CD000E40B0020006CDC02850F4000E8000020CF
:101CE000492B4000051A400031064000D90640004B
:101CF0007D074000A10B40004C894000D10E400000
:101D00005C894000912A4000651A4000D5074000D8
:101D1000F40B002069084000F80B0020A40B002001
:101D2000FC0B00201D204000648940009D2C4000D9
:101D3000A1124000AC0B002091254000000C0020B7
:101D40008889400000A04D45040C0020190E400079
:101D5000F00B002081F0004102E000BF83F000435F
:101D600030B54FEA41044FEA430594EA050F08BF36
:101D700090EA020F1FBF54EA000C55EA020C7FEAFA
:101D8000645C7FEA655C00F0E2804FEA5454D4EB77
:101D90005555B8BF6D420CDD2C4480EA020281EA41
:101DA000030382EA000083EA010180EA020281EA79
:101DB0000303362D88BF30BD11F0004F4FEA0131CB
:101DC0004FF4801C4CEA113102D0404261EB4101DA
:101DD00013F0004F4FEA03334CEA133302D0524260
:101DE00063EB430394EA050F00F0A780A4F101041C
:101DF000D5F1200E0DDB02FA0EFC22FA05F2801856
:101E000041F1000103FA0EF2801843FA05F359413B
:101E10000EE0A5F120050EF1200E012A03FA0EFCBA
:101E200028BF4CF0020C43FA05F3C01851EBE371E4
:101E300001F0004507D54FF0000EDCF1000C7EEB01
:101E400000006EEB0101B1F5801F1BD3B1F5001F3F
:101E50000CD349085FEA30004FEA3C0C04F101045E
:101E60004FEA445212F5800F80F09A80BCF1004F87
:101E700008BF5FEA500C50F1000041EB045141EA09
:101E8000050130BD5FEA4C0C404141EB010111F40A
:101E9000801FA4F10104E9D191F0000F04BF0146B5
:101EA0000020B1FA81F308BF2033A3F10B03B3F193
:101EB00020020CDA0C3208DD02F1140CC2F10C0223
:101EC00001FA0CF021FA02F10CE002F11402D8BF81
:101ED000C2F1200C01FA02F120FA0CFCDCBF41EA4D
:101EE0000C019040E41AA2BF01EB0451294330BD1C
:101EF0006FEA04041F3C1CDA0C340EDC04F11404F9
:101F0000C4F1200220FA04F001FA02F340EA0300CF
:101F100021FA04F345EA030130BDC4F10C04C4F115
:101F2000200220FA02F001FA04F340EA03002946F5
:101F300030BD21FA04F0294630BD94F0000F83F43F
:101F4000801306BF81F480110134013D4EE77FEA22
:101F5000645C18BF7FEA655C29D094EA050F08BF6E
:101F600090EA020F05D054EA000C04BF194610464F
:101F700030BD91EA030F1EBF0021002030BD5FEA93
:101F8000545C05D14000494128BF41F0004130BDBB
:101F900014F580043CBF01F5801130BD01F000450F
:101FA00045F0FE4141F470014FF0000030BD7FEA82
:101FB000645C1ABF194610467FEA655C1CBF0B467D
:101FC000024650EA013406BF52EA033591EA030F94
:101FD00041F4002130BD00BF90F0000F04BF00218C
:101FE000704730B54FF4806404F132044FF00005BF
:101FF0004FF0000150E700BF90F0000F04BF002138
:10200000704730B54FF4806404F1320410F000459D
:1020100048BF40424FF000013EE700BF42004FEA98
:10202000E2014FEA31014FEA02701FBF12F07F4315
:1020300093F07F4F81F06051704792F0000F14BF12
:1020400093F07F4F704730B54FF4607401F0004556
:1020500021F0004120E700BF50EA010208BF7047AD
:1020600030B54FF000050AE050EA010208BF7047A2
:1020700030B511F0004502D5404261EB41014FF40B
:10208000806404F132045FEA915C3FF4DCAE4FF00F
:1020900003025FEADC0C18BF03325FEADC0C18BFF6
:1020A000033202EBDC02C2F1200300FA03FC20FA47
:1020B00002F001FA03FE40EA0E0021FA02F1144494
:1020C000C1E600BF70B54FF0FF0C4CF4E06C1CEAA9
:1020D00011541DBF1CEA135594EA0C0F95EA0C0F1E
:1020E00000F0DEF82C4481EA030621EA4C5123EA91
:1020F0004C5350EA013518BF52EA033541F48011C0
:1021000043F4801338D0A0FB02CE4FF00005E1FB72
:1021100002E506F00042E0FB03E54FF00006E1FBBC
:1021200003569CF0000F18BF4EF0010EA4F1FF04FF
:10213000B6F5007F64F5407404D25FEA4E0E6D413F
:1021400046EB060642EAC62141EA55514FEAC52050
:1021500040EA5E504FEACE2EB4F1FD0C88BFBCF5CC
:10216000E06F1ED8BEF1004F08BF5FEA500E50F17D
:10217000000041EB045170BD06F0004646EA010143
:1021800040EA020081EA0301B4EB5C04C2BFD4EB75
:102190000C0541EA045170BD41F480114FF0000E6E
:1021A000013C00F3AB8014F1360FDEBF002001F0DC
:1021B000004170BDC4F10004203C35DA0C341BDC56
:1021C00004F11404C4F1200500FA05F320FA04F028
:1021D00001FA05F240EA020001F0004221F000415C
:1021E00010EBD37021FA04F642EB06015EEA430ECF
:1021F00008BF20EAD37070BDC4F10C04C4F12005FF
:1022000000FA04F320FA05F001FA04F240EA0200B1
:1022100001F0004110EBD37041F100015EEA430E82
:1022200008BF20EAD37070BDC4F1200500FA05F2A2
:102230004EEA020E20FA04F301FA05F243EA020321
:1022400021FA04F001F0004121FA04F220EA020030
:1022500000EBD3705EEA430E08BF20EAD37070BD76
:1022600094F0000F0FD101F00046400041EB010156
:1022700011F4801F08BF013CF7D041EA060195F038
:10228000000F18BF704703F00046520043EB0303F2
:1022900013F4801F08BF013DF7D043EA06037047DF
:1022A00094EA0C0F0CEA135518BF95EA0C0F0CD0EA
:1022B00050EA410618BF52EA4306D1D181EA030130
:1022C00001F000414FF0000070BD50EA410606BF2A
:1022D0001046194652EA430619D094EA0C0F02D16F
:1022E00050EA013613D195EA0C0F05D152EA0336B4
:1022F0001CBF104619460AD181EA030101F00041D2
:1023000041F0FE4141F470014FF0000070BD41F01A
:10231000FE4141F4780170BD70B54FF0FF0C4CF4F4
:10232000E06C1CEA11541DBF1CEA135594EA0C0F13
:1023300095EA0C0F00F0A7F8A4EB050481EA030E60
:1023400052EA03354FEA013100F088804FEA033347
:102350004FF0805545EA131343EA12634FEA022215
:1023600045EA111545EA10654FEA00260EF00041D6
:102370009D4208BF964244F1FD0404F5407402D228
:102380005B084FEA3202B61A65EB03055B084FEAB9
:1023900032024FF480104FF4002CB6EB020E75EBB6
:1023A000030E22BFB61A754640EA0C005B084FEADE
:1023B0003202B6EB020E75EB030E22BFB61A75465B
:1023C00040EA5C005B084FEA3202B6EB020E75EBA6
:1023D000030E22BFB61A754640EA9C005B084FEA1E
:1023E0003202B6EB020E75EB030E22BFB61A75462B
:1023F00040EADC0055EA060E18D04FEA051545EA1A
:1024000016754FEA06164FEAC30343EA52734FEAC2
:10241000C2025FEA1C1CC0D111F4801F0BD141EA3B
:1024200000014FF000004FF0004CB6E711F4801FA0
:1024300004BF01430020B4F1FD0C88BFBCF5E06F80
:102440003FF6AFAEB5EB030C04BFB6EB020C5FEA90
:10245000500C50F1000041EB045170BD0EF0004EE5
:102460004EEA113114EB5C04C2BFD4EB0C0541EA17
:10247000045170BD41F480114FF0000E013C90E614
:1024800045EA060E8DE60CEA135594EA0C0F08BFD8
:1024900095EA0C0F3FF43BAF94EA0C0F0AD150EAD7
:1024A00001347FF434AF95EA0C0F7FF425AF10466A
:1024B00019462CE795EA0C0F06D152EA03353FF492
:1024C000FDAE1046194622E750EA410618BF52EA0F
:1024D00043067FF4C5AE50EA41047FF40DAF52EAE3
:1024E00043057FF4EBAE12E74FEA4102B2F1E0435D
:1024F00024BFB3F5001CDCF1FE5C0DD901F0004CEB
:102500004FEAC0024CEA5070B2F1004F40EB83003A
:1025100008BF20F00100704711F0804F21D113F166
:102520003872BCBF01F00040704741F480114FEA9F
:102530005252C2F11802C2F1200C10FA0CF320FA28
:1025400002F018BF40F001004FEAC1234FEAD32345
:1025500003FA0CFC40EA0C0023FA02F34FEA4303AF
:10256000CCE77FEA625307D150EA01331EBF4FF038
:10257000FE4040F44000704701F0004040F0FE4053
:1025800040F40000704700BF80F0004002E000BF50
:1025900081F0004142001FBF5FEA410392EA030F4E
:1025A0007FEA226C7FEA236C6AD04FEA1262D2EB98
:1025B0001363C1BFD218414048404140B8BF5B429D
:1025C000192B88BF704710F0004F40F4000020F036
:1025D0007F4018BF404211F0004F41F4000121F04C
:1025E0007F4118BF494292EA030F3FD0A2F1010296
:1025F00041FA03FC10EB0C00C3F1200301FA03F1D4
:1026000000F0004302D5494260EB4000B0F5000FF6
:1026100013D3B0F1807F06D340084FEA310102F1B5
:102620000102FE2A51D2B1F1004F40EBC25008BF67
:1026300020F0010040EA03007047490040EB000031
:1026400010F4000FA2F10102EDD1B0FA80FCACF160
:10265000080CB2EB0C0200FA0CF0AABF00EBC2505F
:1026600052421843BCBFD0401843704792F0000F4D
:1026700081F4000106BF80F400000132013BB5E7A0
:102680004FEA41037FEA226C18BF7FEA236C21D016
:1026900092EA030F04D092F0000F08BF084670477B
:1026A00090EA010F1CBF0020704712F07F4F04D149
:1026B000400028BF40F00040704712F100723CBF5C
:1026C00000F50000704700F0004343F0FE4040F486
:1026D000000070477FEA226216BF08467FEA236344
:1026E0000146420206BF5FEA412390EA010F40F42F
:1026F000800070474FF0000304E000BF10F000437B
:1027000048BF40425FEA000C08BF704743F0964361
:1027100001464FF000001CE050EA010208BF70477C
:102720004FF000030AE000BF50EA010208BF704703
:1027300011F0004302D5404261EB41015FEA010C18
:1027400002BF84460146002043F0B64308BFA3F110
:102750008053A3F50003BCFA8CF2083AA3EBC253F2
:1027600010DB01FA02FC634400FA02FCC2F1200211
:10277000BCF1004F20FA02F243EB020008BF20F048
:102780000100704702F1200201FA02FCC2F12002AE
:1027900050EA4C0021FA02F243EB020008BF20EAA3
:1027A000DC7070474FF0FF0C1CEAD0521EBF1CEAD1
:1027B000D15392EA0C0F93EA0C0F6FD01A4480EABF
:1027C000010C400218BF5FEA41211ED04FF00063A8
:1027D00043EA501043EA5111A0FB01310CF00040D4
:1027E000B1F5000F3EBF490041EAD3715B0040EAFA
:1027F000010062F17F02FD2A1DD8B3F1004F40EBCA
:10280000C25008BF20F00100704790F0000F0CF09C
:10281000004C08BF49024CEA502040EA51207F3A60
:10282000C2BFD2F1FF0340EAC250704740F400003B
:102830004FF00003013A5DDC12F1190FDCBF00F02C
:1028400000407047C2F10002410021FA02F1C2F1DA
:10285000200200FA02FC5FEA310040F1000053EA76
:102860004C0308BF20EADC70704792F0000F00F0C4
:10287000004C02BF400010F4000F013AF9D040EACA
:102880000C0093F0000F01F0004C02BF490011F45E
:10289000000F013BF9D041EA0C018FE70CEAD1535C
:1028A00092EA0C0F18BF93EA0C0F0AD030F0004CDC
:1028B00018BF31F0004CD8D180EA010000F0004090
:1028C000704790F0000F17BF90F0004F084691F04E
:1028D000000F91F0004F14D092EA0C0F01D1420288
:1028E0000FD193EA0C0F03D14B0218BF084608D151
:1028F00080EA010000F0004040F0FE4040F400009B
:10290000704740F0FE4040F4400070474FF0FF0C2D
:102910001CEAD0521EBF1CEAD15392EA0C0F93EA74
:102920000C0F69D0A2EB030280EA010C49024FEAC6
:10293000402037D04FF0805343EA111143EA10137F
:102940000CF000408B4238BF5B0042F17D024FF437
:10295000000C8B4224BF5B1A40EA0C00B3EB510F12
:1029600024BFA3EB510340EA5C00B3EB910F24BFFB
:10297000A3EB910340EA9C00B3EBD10F24BFA3EB80
:10298000D10340EADC001B0118BF5FEA1C1CE0D148
:10299000FD2A3FF650AF8B4240EBC25008BF20F0FB
:1029A000010070470CF0004C4CEA50207F32C2BF4F
:1029B000D2F1FF0340EAC250704740F400004FF0EC
:1029C0000003013A37E792F0000F00F0004C02BF1D
:1029D000400010F4000F013AF9D040EA0C0093F0E7
:1029E000000F01F0004C02BF490011F4000F013B41
:1029F000F9D041EA0C0195E70CEAD15392EA0C0FA9
:102A000008D142027FF47DAF93EA0C0F7FF470AFE0
:102A1000084676E793EA0C0F04D14B023FF44CAF23
:102A200008466EE730F0004C18BF31F0004CCAD1B8
:102A300030F000427FF45CAF31F000437FF43CAFF4
:102A40005FE700BF70B50E4B0E4D0024ED1AAD10C0
:102A50001E46AC4204D056F8242090470134F8E7D3
:102A600006F08EF8084D094B0024ED1AAD101E46F5
:102A7000AC4204D056F8242090470134F8E770BDEA
:102A80008C8B40008C8B4000948B40008C8B4000E2
:102A90000FB407B5064904AB086853F8042B8168E6
:102AA000019301F000F903B05DF804EB04B0704746
:102AB000E80000200EB403B503AB53F8042B816883
:102AC000019301F0F0F802B05DF804EB03B0704739
:102AD00002440346934202D003F8011BFAE7704711
:102AE00030B5044689B008460D4600F009F9114B8F
:102AF00005900693012318440793A16804AB019342
:102B0000022302938B8904959A04039006D443F41C
:102B100000538B814B6E23F400534B66204601AA71
:102B200002F0E4FE00280CBF0A204FF0FF3009B08D
:102B300030BD00BFAA894000024B01461868FFF76C
:102B4000CFBF00BFE800002000290CBF02220022F6
:102B50004FF4806300F000B82DE9F0411D46364B7C
:102B600004461F680E46904627B1BB6B13B9384622
:102B700002F06AFCB8F1020F59D8002D57DB384635
:102B8000214602F018FC00236360A361A3891B06A1
:102B900003D53846216902F0F1FDA389B8F1020F8F
:102BA00023F08303A38112D036BB002D08BF4FF45E
:102BB0008065284603F0C6F80646C8B94FF4806021
:102BC00003F0C0F8064688B94FF0FF3000E000205F
:102BD000A38943F00203A3810023A36004F143030C
:102BE0002360236101236361BDE8F0814FF48065B8
:102BF000A38943F08003A381B8F1010F05D1A38914
:102C000043F00103A3816B42A3610C4BFB63A389D7
:102C1000266003F0080080B22661656148B113F0B8
:102C2000030F18BF0025A5600020BDE8F0814FF01C
:102C3000FF30BDE8F08100BFE800002005544000EF
:102C400008B430B5141E9CB0054604DA8B2303602B
:102C50004FF0FF301DE04FF40273ADF8143014BF95
:102C600004F1FF332346049307934FF6FF73029159
:102C70000691ADF8163002A920AB1F9A019300F01F
:102C800047F8431CBCBF8B232B6014B1029B00226E
:102C90001A701CB0BDE8304001B070470CB430B5BC
:102CA000164B0C1E9DB01D6804DA8B232B604FF071
:102CB000FF301EE04FF40273ADF8143014BF04F17E
:102CC000FF332346049307934FF6FF730290069059
:102CD000ADF81630284621AB02A9209A019300F0E6
:102CE00017F8431CBCBF8B232B6014B1029B00223E
:102CF0001A701DB0BDE8304002B07047E8000020F7
:102D0000034613F8012B002AFBD1181A013870472B
:102D10002DE9F04FC3B08B4698460B92824602F0E5
:102D20009BFF00681890FFF7EBFFBBF80C3010908A
:102D3000190615D5DBF8103093B95046402103F041
:102D400011F8CBF80000CBF8100030B90C23CAF80A
:102D500000304FF0FF3000F06EBF4023CBF814304E
:102D600000240025CDE90C45002332AE259627939B
:102D7000269309931B931A930F930B9B1C4613F8EE
:102D8000012B1AB90B98251A03D11BE0252AF5D17E
:102D9000F8E7279B0B992B442793269B86E8220074
:102DA0000133072B269301DC083608E050465946CC
:102DB00025AA04F029F8002840F0358732AE0F9A92
:102DC0002A440F922378002B00F026870023013439
:102DD0008DF877304FF0FF390E931F46651C24782D
:102DE0000B950894089CA4F12002582A00F28583D0
:102DF000DFE812F06D008303830371008303830314
:102E000083038303830383035B00590083037700F9
:102E10007A0083039F00A200A200A200A200A200E9
:102E2000A200A200A200A200830383038303830302
:102E3000830383038303830383038303D300FE009D
:102E40008303FE008303830383038303B6008303AA
:102E500083036B0283038303830383038303BB0224
:102E60008303830368008303830383038303830350
:102E700083038303830383038303C9006500FE0088
:102E8000FE00FE00B900650083038303BC008303DA
:102E90004C026D028C02C60083039E028303BD02B6
:102EA00083038303D8022B2307E0D8F8005008F1EE
:102EB0000402002D0E9511DB90460B9C8EE78DF8D9
:102EC00077306EE0AB4C8DF877301B946EE2002BC0
:102ED00008BF2023F1E747F00107EEE76D420E95AA
:102EE000904647F00407E8E70B9C2578621C2A2DE2
:102EF000089502D04FF000090BE0D8F8009008F1D7
:102F00000401B9F1000F88460B92D6DA4FF0FF3971
:102F1000D3E7089DA5F13001092906D812F8014B25
:102F20000A2000FB09190894F3E749EAE9790B92B2
:102F300058E747F08007C0E700240E94089D0E9CD8
:102F4000A5F130020A2101FB04240B9A0E9412F819
:102F5000015BA5F1300109290895E8D80B92EDE74E
:102F600047F00807A9E747F04007A6E70B9C22783F
:102F70006C2A02D101340B9402E047F010079CE761
:102F800047F0200799E7D8F8003000258DF8A030E9
:102F90008DF8775008F10408BAE28DF8773047F0E1
:102FA0001007BA0608D508F1070828F0070303F14F
:102FB0000808D3E900450FE017F0100F08F10403EB
:102FC00002D0D8F8004005E0D8F8004017F0400FD4
:102FD00018BF24B2E5179846002C75F1000180F265
:102FE00010822D23644265EB45058DF8773008E2A9
:102FF000089C08F107088DF877300A9728F0070336
:103000001194D3E90045CDE90C45DDE90C0103F14C
:10301000080803F077FE0128DDE90C0114D1002235
:10302000002304F08FFD10B12D238DF87730089D1B
:10303000514B524A27F08007472DD8BF1A460792B6
:103040004FF0030900256AE203F05CFE58B94C4BCF
:103050004C4A089C27F08007472CD8BF1A46079295
:103060004FF003095AE2B9F1FF3F0AD0089D25F05D
:103070002003472B07D1B9F1000F08BF4FF001091A
:1030800001E04FF00609DDE90C23002B47F48077BF
:1030900008DA0D990C9801F100412D24129013913A
:1030A000199405E0DDE90C45CDE912450025199597
:1030B000089D25F02004462C04D0452C05D109F1AB
:1030C000010503E04D46032301E04D4602238DE850
:1030D00028001FAB029320AB039323AB049350460D
:1030E000DDE9122301F02BFB472C07900AD10A9847
:1030F000C30707D4239B079D472CC5EB0303099304
:1031000042D12DE0DDF81CC0462CAC4413D1079809
:103110000378302B0DD1DDE9120100220023CDF818
:1031200018C004F005FDDDF818C010B9C5F101059F
:103130001F951F9B9C44DDE9120100220023CDF85E
:1031400018C004F0F5FCDDF818C008B1CDF88CC04B
:10315000239B6345CED25A1C239230221A70F7E784
:103160001F9BDC1C01DB4B456EDD089C023C089478
:103170000DE000BFDC894000CC894000D0894000D0
:10318000D4894000D8894000089D652D43DC1F9BF1
:10319000089C013B002B1F93BABF5B422D222B22C0
:1031A000092B8DF884408DF885201DDD0DF19202EC
:1031B0000A2093FBF0F100FB1133092903F13003DE
:1031C000144602F801390B46F2DC01F1300304F831
:1031D000013D0DF186030DF1930294420BD214F8D8
:1031E000012B03F8012BF6E7302213448DF88730CA
:1031F0008DF8862022AB099D21AA9A1A9146012DAD
:103200001A92A94403DC0A9D15F0010437D009F194
:103210000109002433E0089C662C15D11F9B002B6C
:1032200009DDB9F1000F02D10A9DE80723D509F1A4
:1032300001094B441FE0B9F1000F02D10A9CE107DC
:1032400015D509F1020316E01F9B099DAB4204DB73
:103250000A9CE2070DD5013306E0002B099CD4BF80
:10326000C3F10203012323446725119503E00123E1
:1032700001E067241194119D1F9C08959946199DA2
:1032800015B12D238DF87730002549E117F0200F77
:103290008DF8773008F1040108D00F9CD8F80000B1
:1032A000E51722462B46C0E900230CE0FB0606D4B6
:1032B0007D0604D5D8F800300F9C1C8003E0D8F8B8
:1032C00000300F9D1D60884657E547F0100717F046
:1032D000200309D008F1070828F0070303F10808C4
:1032E000D3E90045002388E017F0100108F104023B
:1032F00007D117F0400304D0B8F8004000259046ED
:10330000F0E7D8F800400025904676E0A948302341
:103310007822D8F800408DF87830002547F0020771
:103320008DF8792008F104081B900223089264E0CC
:10333000434600251B68A945079308F104088DF84A
:1033400077500DDB184629464A4602F013FF002845
:1033500000F0E480079C001B4845B8BF8146DEE0D2
:103360000798FFF7CDFC8146D9E047F01007BC066F
:1033700008D508F1070828F0070303F10808D3E986
:1033800000450DE017F0100F08F1040304D1780692
:1033900002D5B8F8004001E0D8F800400025984672
:1033A00001232AE0834D8DF877301B95B90608D5A7
:1033B00008F1070828F0070303F10808D3E90045DE
:1033C0000DE017F0100F08F1040304D17A0602D5BE
:1033D000B8F8004001E0D8F8004000259846FB0707
:1033E0000AD554EA050007D0089930238DF87830C3
:1033F0008DF8791047F00207022300228DF877201C
:1034000000E00123B9F1000FA8BF27F0800754EABC
:10341000050202D1B9F1000F5AD0012B1FD0022BA7
:103420000DF1C70341D0E10841EA4570E90804F015
:103430000702149015913032DDE9144554EA050075
:1034400007931A7003F1FF33EDD1F80707994CD5B4
:10345000302A4AD00793302301F8013C45E0002D83
:1034600008BF0A2C05D230348DF8C7400DF1C704CF
:103470003AE00DF1C7000A900A99204607910A2206
:103480002946002304F0AEFB0A9B303203F80129E1
:103490000A93204629460A22002304F0A3FB04468F
:1034A0000D4654EA0500E7D11FE01B9904F00F0216
:1034B0008A5C079303F80129220942EA0570290969
:1034C00016901791DDE9164554EA0502EDD10CE09E
:1034D00033B9FB0707D542AC302304F8413D03E084
:1034E00032AD079501E032AC0794079C4D460DF1D3
:1034F000C809C4EB0909002412E0089D8DF8773053
:10350000002D00F089838DF8A05000258DF87750AC
:1035100028A84FF001092C46079001E005462C46EB
:103520009DF87730A945ACBF494629460A910BB1B1
:1035300001310A9117F00203119302D00A98023068
:103540000A9017F08403199341D10E980A99C1EBA0
:10355000000CBCF1000F3ADD174BBCF1100F3360CB
:103560001BDD10237360279B10332793269B0133A9
:10357000072B269301DC08360CE05046594625AA55
:10358000CDF818C003F040FCDDF818C0002840F06A
:103590004A8332AEACF1100CDEE7279BC6F804C0BC
:1035A00063442793269B0133072B269306DC0836BA
:1035B0000DE000BFED894000AC89400050465946FF
:1035C00025AA03F021FC002840F02D8332AE9DF89F
:1035D0007730BBB10DF17703336001237360279B14
:1035E00001332793269B0133072B269301DC0836F2
:1035F00008E05046594625AA03F006FC002840F092
:10360000128332AE119BB3B11EAB336002237360E1
:10361000279B02332793269B0133072B269301DC3C
:10362000083608E05046594625AA03F0EDFB00286D
:1036300040F0F98232AE199B802B3CD10E980A994A
:10364000C1EB000CBCF1000F35DD9C4BBCF1100F41
:1036500033601BDD10237360279B10332793269B59
:103660000133072B269301DC08360CE050465946FF
:1036700025AACDF818C003F0C7FBDDF818C0002854
:1036800040F0D18232AEACF1100CDEE7279BC6F8D9
:1036900004C063442793269B0133072B269301DC48
:1036A000083608E05046594625AA03F0ADFB00282D
:1036B00040F0B98232AEC9EB0505002D2EDD7F4BFF
:1036C000102D336016DD10237360279B1033279372
:1036D000269B0133072B269301DC083608E0504671
:1036E000594625AA03F090FB002840F09C8232AE98
:1036F000103DE4E7279B75601D44269B2795013309
:10370000072B269301DC083608E05046594625AAC7
:1037100003F07AFB002840F0868232AEFD0505D426
:10372000079C279B86E810024B44DAE0089D652D34
:1037300040F3A781DDE90C010022002304F0F8F931
:10374000002859D05E4B336001237360279B0133FF
:103750002793269B0133072B269301DC083608E0CC
:103760005046594625AA03F04FFB002840F05B82E3
:1037700032AE1F9B099CA34202DBFC0740F1028290
:10378000109C279B189D23442793269B356001336B
:10379000072B7460269301DC083608E05046594632
:1037A00025AA03F031FB002840F03D8232AE099D8E
:1037B0006C1E002C40F3E681404B102C336016DD6C
:1037C00010237360279B10332793269B0133072B0D
:1037D000269301DC083608E05046594625AA03F036
:1037E00013FB002840F01F8232AE103CE4E7279B19
:1037F00074601C44279434E11F9B002B73DC304B16
:10380000336001237360279B01332793269B013389
:10381000072B269301DC083608E05046594625AAB6
:1038200003F0F2FA002840F0FE8132AE1F9B23B96C
:10383000099C14B9F80740F1A581109C279B189D9D
:1038400023442793269B35600133072B746026930E
:1038500001DC083608E05046594625AA03F0D4FAA0
:10386000002840F0E08132AE1F9C6442002C32DD23
:10387000124B102C336016DD10237360279B10331E
:103880002793269B0133072B269301DC083608E09B
:103890005046594625AA03F0B7FA002840F0C381E4
:1038A00032AE103CE4E7279B74601C44269B2794AF
:1038B0000133072B269305DC08360CE0BC89400059
:1038C000FE8940005046594625AA03F09DFA00287B
:1038D00040F0A98132AE079D099C35607460279B3A
:1038E00023442793BDE00998079D8146A145A8BFC1
:1038F000A146B9F1000F054415DD279B07994B44FC
:103900002793269B86E802020133072B269301DCCE
:10391000083608E05046594625AA03F075FA0028F3
:1039200040F0818132AE29EAE979C9EB0409B9F1A5
:10393000000F31DD9A4BB9F1100F336017DD102302
:103940007360279B10332793269B0133072B269305
:1039500001DC083608E05046594625AA03F054FA1F
:10396000002840F0608132AEA9F11009E2E7279B00
:10397000C6F804904B442793269B0133072B2693CC
:1039800001DC083608E05046594625AA03F03CFA07
:10399000002840F0488132AE1F9B0998079A834265
:1039A000144401DBF90716D5109A279B1899134484
:1039B0002793269B31600133072B7260269301DC2D
:1039C000083608E05046594625AA03F01DFA00289B
:1039D00040F0298132AE1F9B09982D1BC31A9D42CE
:1039E000A8BF1D46002D14DD279B86E830002B4420
:1039F0002793269B0133072B269301DC083608E02A
:103A00005046594625AA03F0FFF9002840F00B81E3
:103A100032AE1F9B099C25EAE575E31A5D1B002D5C
:103A200040F3B0805E4B102D336016DD10237360C1
:103A3000279B10332793269B0133072B269301DC0A
:103A4000083608E05046594625AA03F0DDF900285B
:103A500040F0E98032AE103DE4E7279B75601D44DD
:103A60002795269B0133072B269340F38A805046E7
:103A7000594625AA03F0C8F9002840F0D48032AE98
:103A800080E0099D012D01DCFA076DD501237360EB
:103A9000279B079C01332793269B34600133072B18
:103AA000269301DC083608E05046594625AA03F063
:103AB000ABF9002840F0B78032AE109C279B189DD0
:103AC00023442793269B35600133072B746026938C
:103AD00001DC083608E05046594625AA03F094F95F
:103AE000002840F0A08032AEDDE90C010022002366
:103AF00004F01EF8099D6C1E40B9079D6B1C86E8FA
:103B00001800279B099C013B234433E0002C34DD43
:103B1000234B102C336015DD10237360279B10336B
:103B20002793269B0133072B269301DC083607E0F9
:103B30005046594625AA03F067F9002873D132AEE2
:103B4000103CE5E7279B74601C442794269B0133B7
:103B5000072B269310DD5046594625AA03F054F949
:103B6000002860D132AE08E00123079D7360279BD7
:103B7000356001332793E9E7083621AB33601A9C9F
:103B8000ACE608367B070DD40F9D0A980E9C279B48
:103B9000A042ACBF2D182D190F95002B37D030E067
:103BA000BC8940000E9D0A982C1A002CECDD234B9A
:103BB000102C336014DD10237360279B1033279380
:103BC000269B0133072B269301DC083606E050467E
:103BD000594625AA03F018F928BB32AE103CE6E797
:103BE000279B74601C44269B27940133072B269344
:103BF000CADD5046594625AA03F006F90028C3D06D
:103C000011E05046594625AA03F0FEF858B90023A2
:103C1000269332AEFFF7B1B8279B23B150465946E1
:103C200025AA03F0F1F8BBF80C300F9813F0400F01
:103C300018BF4FF0FF3043B0BDE8F08FAC894000B3
:103C400093682DE9F04781460F4614461BB953602F
:103C50001846BDE8F0874B6E9D041DD51568A36816
:103C60000835BBB155F8043C55F808AC4FEA930849
:103C70000026464509DA48465AF826103A4601F029
:103C8000C3FC431C0AD00136F3E7A368A3EB880307
:103C9000A360E4E7184601E001F028FE0023A360DA
:103CA0006360BDE8F0872DE9F04FADB08846029221
:103CB0001C461E46834618B1836B0BB901F0C4FB4A
:103CC000B8F80C30980409D443F40053A8F80C3029
:103CD000D8F8643023F40053C8F86430B8F80C30D6
:103CE000190709D5D8F8103033B1B8F80C3003F003
:103CF0001A030A2B14D108E05846414600F026FC6E
:103D00000028F2D04FF0FF30D9E3B8F90E30002B85
:103D100006DB58464146029A234600F0E1FBCEE31B
:103D200000231CAA0F921193109394460A930593B3
:103D3000029B1C4613F8012B1AB90298251A03D1CD
:103D40001DE0252AF5D1F8E7119B02992B44119328
:103D5000109B8CE822000133072B109302DC0CF13E
:103D6000080C09E0584641460FAAFFF769FF0028F2
:103D700040F09F830DF1700C059A2A440592237838
:103D8000002B00F08F83002201348DF837204FF094
:103D9000FF3A04921746651C23780295582B64D08D
:103DA0002DDC2E2B76D012DC2A2B66D008DC202BC3
:103DB0005FD0232B40F0008247F00107029CEAE726
:103DC0002B2B01D11A46F9E72D2B60D0F4E1392BCA
:103DD00007DC312B7FDA302B40F0EE8147F0800793
:103DE000ECE74F2B00F0E080552B00F02081442BB6
:103DF00040F0E2818DF8372047F0100794E06E2BF9
:103E000000F0B6800DDC682B76D005DC632B00F06B
:103E10008380642B26D0CFE1692B23D06C2B6ED00E
:103E2000CAE1712B75D013DC6F2B00F0BF80702BB3
:103E300040F0C2813023A0488DF8383078233468B0
:103E4000002547F002078DF8393004360A902EE13C
:103E5000752B00F0EE80782B00F00381732B40F07F
:103E6000AB81BFE08DF837205EE08DF83720934CB2
:103E7000FAE0002A08BF2022A0E7331D3668002E92
:103E8000049601DB1E4699E7754204951E4647F0ED
:103E9000040793E7029C2378611C2A2B02D04FF081
:103EA000000A0AE0D6F800A0331DBAF1000F1E4642
:103EB000029183DA4FF0FF3A80E7A3F1300009283E
:103EC00005D80A2303FB0A0A11F8013BF5E74AEA81
:103ED000EA7A029162E700250495049C303B0A21AE
:103EE00001FB04340299049411F8013BA3F1300062
:103EF0000928EED80291F0E747F040075EE7029DFF
:103F00002B786C2B02D10135029502E047F01007A7
:103F100054E747F0200751E7336800258DF8483013
:103F20008DF83750043651E1BA0607D5073626F02A
:103F3000070303F10806D3E900450DE017F0100F61
:103F400006F1040301D0346804E0346817F0400F30
:103F500018BF24B2E5171E46002C75F1000080F250
:103F6000AF802D23644265EB45058DF83730A7E01F
:103F700017F0200F8DF8372006F1040107D0059CBB
:103F80003068E51722462B46C0E900230AE0FB060D
:103F900005D47F0603D53368059C1C8002E0336896
:103FA000059D1D600E46C3E647F0100717F020037D
:103FB00008D0073626F0070303F10806D3E90045C9
:103FC000002375E017F0100106F1040206D117F086
:103FD000400303D0348800251646F1E734680025F5
:103FE000164665E0D6F8009000239A4506F10406CF
:103FF0008DF83730484611DB19465246CDF804C0DB
:1040000002F0B8F8DDF804C0002800F0E480C9EB45
:1040100000005045B8BF82460025DDE0CDF804C061
:10402000FEF76EFE00258246DDF804C0D4E047F0BE
:104030001007BD0607D5073626F0070303F108066B
:10404000D3E900450BE017F0100F06F1040303D18C
:104050007C0601D5348800E0346800251E46012323
:1040600026E0154C8DF83720B8060A9407D5073698
:1040700026F0070202F10806D2E900450BE017F02E
:10408000100F06F1040203D1790601D5348800E04F
:10409000346800251646FA0709D554EA050006D00B
:1040A00030228DF838208DF8393047F0020702238E
:1040B00000228DF8372004E0ED894000DC894000C3
:1040C0000123BAF1000FA8BF27F0800754EA0501C9
:1040D00002D1BAF1000F5ED0012B1FD0022B0DF1DF
:1040E0006F0345D0E00840EA4571E80804F0070294
:1040F000069107903032DDE9064554EA05019946FC
:104100001A7003F1FF33EDD1F80749464ED5302A36
:104110004CD09946302301F8013C47E0002D08BF00
:104120000A2C05D230348DF86F400DF16F093DE057
:104130000DF16F020392204629460A220023CDF892
:1041400004C003F04FFD039B303203F801292046E1
:104150002946DDF80C900A220393002303F042FD68
:1041600004460D4654EA0500DDF804C0E3D11DE025
:104170000A9904F00F028A5C994603F80129220982
:1041800042EA0570290908900991DDE9084554EAD9
:104190000502EDD10AE03BB9F90705D50DF1B009EB
:1041A000302309F8413D01E00DF1700955460DF14C
:1041B000700AC9EB0A0A0FE08DF83720002B00F0D7
:1041C000718100258DF848308DF837504FF0010A85
:1041D0000DF1480900E005469DF83730AA45ACBF0F
:1041E00054462C4603B1013417F00203039318BF61
:1041F000023417F084030B933BD10498031B002B6C
:1042000037DDA64A102BCCF800201BDD1022CCF89D
:104210000420119A10321192109A0132072A10923A
:1042200002DC0CF1080C0BE0584641460FAA019342
:10423000FFF706FD019B002840F03B810DF1700C5B
:10424000103BDEE7119ACCF8043013441193109B15
:104250000133072B109302DC0CF1080C09E05846DF
:1042600041460FAAFFF7ECFC002840F022810DF137
:10427000700C9DF83730DBB10DF13703CCF800300E
:104280000123CCF80430119B01331193109B0133AF
:10429000072B109302DC0CF1080C09E0584641464C
:1042A0000FAAFFF7CDFC002840F003810DF1700C40
:1042B000039BD3B10EABCCF800300223CCF8043012
:1042C000119B02331193109B0133072B109302DCD7
:1042D0000CF1080C09E0584641460FAAFFF7B0FC64
:1042E000002840F0E6800DF1700C0B9B802B3FD135
:1042F000049B1B1B002B03933ADD039B102B684B85
:10430000CCF800301BDD1023CCF80430119B1033A7
:104310001193109B0133072B109302DC0CF1080C56
:1043200009E0584641460FAAFFF78AFC002840F0F2
:10433000C0800DF1700C039B103B0393DDE7039BE2
:104340000398CCF80430119B03441193109B013364
:10435000072B109302DC0CF1080C09E0584641468B
:104360000FAAFFF76DFC002840F0A3800DF1700C40
:10437000CAEB0505002D34DD494B102DCCF800307B
:1043800019DD1023CCF80430119B10331193109BCE
:104390000133072B109302DC0CF1080C09E058469E
:1043A00041460FAAFFF74CFC002840F082800DF137
:1043B000700C103DE0E7119BCCF804501D44109B9D
:1043C00011950133072B109302DC0CF1080C08E067
:1043D000584641460FAAFFF733FC002869D10DF17A
:1043E000700C119B8CE8000653441193109B013311
:1043F000072B109302DC0CF1080307E058464146F6
:104400000FAAFFF71DFC002853D11CAB7A070AD472
:10441000059D0498119B8442ACBF2D192D1805955C
:10442000002B35D02EE004990D1B002DF0DD1B4A2A
:10443000102D1A6015DD10225A60119A1032119257
:10444000109A0132072A109201DC083307E058461F
:1044500041460FAAFFF7F4FB00282AD11CAB103D00
:10446000E5E75D60119B1D44109B11950133072BFF
:104470001093CDDD584641460FAAFFF7E1FB002817
:10448000C6D016E0584641460FAAFFF7D9FB80B9BF
:10449000002310930DF1700C4AE400BF008A400025
:1044A000108A4000119B23B1584641460FAAFFF7DE
:1044B000C7FBB8F80C305B063FF524AC05982DB06F
:1044C000BDE8F08F30B51346044A05460C46106827
:1044D00029462246BDE83040FFF7E5BBE800002052
:1044E00070B50C468989ADF58D6D21F00201ADF8EE
:1044F0000C10616E06461991E189ADF80E10E16964
:104500000791616A09911AA9009104914FF48061A1
:1045100002910591002106916946FFF7C4FB051E33
:1045200007DB3046694600F046FF002818BF4FF011
:10453000FF35BDF80C305B0603D5A38943F040037B
:10454000A38128460DF58D6D70BD00BF38B52B4B8E
:10455000054618680C4618B1836B0BB900F074FF60
:10456000A28993B2180720D4D90605D4092342F0B2
:1045700040022B60A2813BE0580712D5216B41B16C
:1045800004F14003994202D0284601F0F7F80023D5
:104590002363A38923F02403A38100236360236999
:1045A0002360A38943F00803A38123694BB9A3893E
:1045B00003F42073B3F5007F03D02846214601F0B1
:1045C0005DFBA38913F0010205D00022A26062699D
:1045D0005242A26103E0990758BF6269A260226952
:1045E0004AB903F0800080B230B143F04003A381A8
:1045F0004FF0FF3038BD002038BD00BFE80000207C
:10460000024B13B1024800F005B8704700000000EB
:10461000DD554000014600200246034603F01CB968
:104620002DE9F74F03690C698046A342C0F28380ED
:10463000013CA20001F1140700F11405914600921B
:1046400057F824602A44019255F824200136B2FB21
:10465000F6F6B944002E3BD04FF0000E3A462846FD
:10466000F34652F804CB03681FFA8CFA4FEA1C4C4D
:104670000AFB06EA0CFB06FC0CEB1A4C1FFA8AFA42
:10468000CAEB0B0B4FEA1C4E1FFA83FA1FFA8CFC85
:10469000DA44CCEB134C0CEB2A4C1FFA8AFA4AEAA8
:1046A0000C4A4A454FEA2C4B40F804ABD9D9009A42
:1046B000AB586BB9019A131FAB421A4602D8C8F81F
:1046C000104005E01268043B002AF8D1013CF3E7F2
:1046D000404601F0AEFF00282BDB01362B460020C0
:1046E00057F804CB1A681FFA8CF1411A1FFA82FAA4
:1046F0004FEA1C4C5144CCEB124202EB214289B2EE
:1047000010144F4541EA024243F8042BE8D955F80A
:10471000242005EB840362B9043BAB421A4602D85D
:10472000C8F8104005E01268043B002AF8D1013CAB
:10473000F3E7304600E0002003B0BDE8F08F2DE93C
:10474000F04F016C9BB08246279CCDE9042351B108
:10475000436C01224B6002FA03F38B6001F064FDAD
:104760000023CAF840300598002805DA012320F01C
:1047700000412360059101E000232360059F9C4ACE
:1047800027F000431B0D1B0593421DD1269A42F2D0
:104790000F731360049B43B9964B974AC7F31300FA
:1047A00000280CBF1046184600E09248289F002FB2
:1047B00000F06F85C37813B100F1080300E0C31C5B
:1047C000289F3B6000F065BDDDE9044500222046DE
:1047D0002946002303F0ACF9804658B1269F0123F7
:1047E0003B60289F002F00F05185844838600138D5
:1047F00000F04FBD19AB009318AB01935046224611
:104800002B4602F006F8C7F30A5683465EB1C5F39D
:10481000130343F07F51204641F44011A6F2FF36C6
:10482000CDF854801CE0199B189E1E446FF48263DF
:104830009E4209DB04991F3306F212409B1B21FAAA
:1048400000F09F40384304E06D48049A801B02FA50
:1048500000F0FDF7C1FB0127A1F1F871013E1597AA
:104860000022684BFDF77AFA5BA3D3E90023FDF73A
:1048700029FC5BA3D3E90023FDF772FA0446304616
:104880000D46FDF7B9FB58A3D3E90023FDF71AFC49
:1048900002460B4620462946FDF762FA04460D46BD
:1048A00003F078F92946814600222046002303F0D0
:1048B00049F958B14846FDF79FFB02460B46204692
:1048C000294603F035F908B909F1FF39B9F1160F96
:1048D0000DD84D4B03EBC903D3E90001DDE90423F7
:1048E00003F04EF930B109F1FF39002700E001274C
:1048F000149700E01490189B9E1B013E0A9604D565
:104900007742089700270A9701E000270897B9F136
:10491000000F07DB0A9FCDF844904F440A97002709
:104920000E9708E0089FC9EB07070897C9F1000731
:104930000E9700271197249F092F29D8052FC4BF50
:10494000043F2497249FC8BF0024A7F10203D8BFC7
:104950000124032B21D8DFE803F0060F020401270E
:1049600002E0012709E000270F97259F002F1EDD99
:104970000B9707973B461FE000270F97259F4F4453
:104980000B9701373B460797012BB8BF012313E074
:104990000124002724970F9401E001270F974FF07F
:1049A000FF370B97079700271223259704E001276D
:1049B0000B9707973B4625970022CAF8442004220C
:1049C00002F11401994221D8DAF844105200013161
:1049D000CAF84410F4E700BF61436F63A787D23F72
:1049E000B3C8608B288AC63FFB799F501344D33FDE
:1049F0000000F07F298A4000208A4000FF894000A3
:104A0000EEFBFFFF0000F83F488A40005046DAF80E
:104A1000441001F0E3FB079F09900E2FCAF84000F5
:104A200000F26A81002C00F06781B9F1000FDDE926
:104A30000401CDE9120131DD804A09F00F0302EBD8
:104A4000C3034FEA2914D3E90001CDE90C01E006C4
:104A50000CD5DDE912017A4B04F00F04D3E90823E9
:104A6000FDF75AFC0327CDE9040100E00227744D4D
:104A70006CB1E10708D5DDE90C01D5E90023FDF7AC
:104A800021FBCDE90C01013764100835F0E7DDE9C1
:104A90000401DDE90C23FDF73FFC1BE0C9F1000434
:104AA000DCB1664B04F00F0203EBC203DDE9120137
:104AB000D3E90023FDF706FB614D241102274CB119
:104AC000E20704D5D5E900230137FDF7FBFA6410AE
:104AD0000835F4E7CDE9040100E002271499E9B1B3
:104AE000DDE90445002220462946564B03F02AF80A
:104AF000C8B1079AE2B10B9B002B40F3F98009F192
:104B0000FF3010902946204600224F4BFDF7DAFA7D
:104B1000CDE904010B9901370C910DE0079ACDF80E
:104B200040900C9208E0079BCDF840900C9303E076
:104B30000798CDF840900C903846FDF75DFADDE916
:104B40000423FDF7BFFA0022404BFDF709F90C9F43
:104B50000446A1F15075CFB900223D4BDDE90401B7
:104B6000FDF7FCF822462B4606460F4603F008F8F0
:104B7000002840F05282224605F100433046394673
:104B800002F0E0FF002840F03E82B1E00C9F2B4B8A
:104B90007A1E0F9F03EBC203002F5DD0D3E90023E1
:104BA00000202C49FDF7B8FB22462B46FDF7D6F82E
:104BB000DDE90467DDF8248004460D4639463046B9
:104BC00002F0E8FF0290FDF717FA02460B46304666
:104BD0003946FDF7C3F8DDF808C022460CF1300372
:104BE00008F8013B2B4606460F4602F0ABFF0028B3
:104BF00040F03A8332463B4600201249FDF7AEF8BA
:104C000022462B4602F09EFF002840F0D4800998EF
:104C10000C99C0EB08038B426ADA20462946002231
:104C2000094BFDF74FFA002204460D46304639463F
:104C3000054BFDF747FA06460F46BFE7488A400096
:104C4000388B40000000F03F0000244000001C4072
:104C5000000014400000E03F2246D3E900012B464B
:104C6000FDF730FADDE90467DDF824800C9ACDE920
:104C70001601099C90443946304602F08BFF0546E8
:104C8000FDF7BAF902460B4630463946FDF766F89D
:104C9000303504F8015B444506460F4621D1002219
:104CA000874BDDE91601FDF75BF802460B463046FF
:104CB000394602F065FF00287DD1DDE9162300208A
:104CC0007F49FDF74BF802460B463046394602F065
:104CD00039FF68B1A04618F8013C013C302BF9D0EF
:104CE000C2E20022774BFDF7EDF906460F46C2E718
:104CF000DDE91201CDE90401199B002B7CDBB9F140
:104D00000E0F79DC704B259F03EBC903002FD3E90D
:104D1000004514DA079F002F11DC40F07681204611
:104D200029460022694BFDF7CDF9DDE9042302F0A5
:104D30001DFF079D2C46002840F0698171E1DDF8D8
:104D40002480DDE9046722462B4630463946FDF7CC
:104D5000E3FA02F01FFF0490FDF74EF922462B46BE
:104D6000FDF7B0F902460B4630463946FCF7F6FF30
:104D7000049F024607F13006099F08F8016BC7EB54
:104D80000806079F0B46BE4229D1FCF7E9FF2246E1
:104D90002B4606460F4602F0F3FE70B93046394600
:104DA00022462B4602F0C4FE002800F05F82049FDA
:104DB000FB0702D45AE2DDF840904346984618F8C3
:104DC000012C013B392A06D1099F9F42F6D130229E
:104DD00009F101093A701A7801321A7046E200228C
:104DE000384BFDF76FF90022002306460F4602F00C
:104DF0009FFE0028A7D039E20F9F002F30D0249FBC
:104E0000012F0ADC159F17B103F2334302E0189B10
:104E1000C3F136030E9D089E16E0079F7D1E0E9F70
:104E2000AF4201DB7D1B06E00E9F0E95EB1B119F31
:104E300000251F441197079F002F03DA08980023CD
:104E4000C61B01E0089E079B089F50461F44089719
:104E50000A9F01211F440A9701F0B8FA044602E0B4
:104E60000E9D089E0F9C6EB10A9F002F0ADD3B46E7
:104E7000089FB342A8BF3346FF1A08970A9FF61A45
:104E8000FF1A0A970E9F002F28DD0F9F07B3002DF2
:104E900010DD21462A46504601F039FB04465A46A9
:104EA0002146504601F09BFA59460746504601F00C
:104EB000BBF9BB460E9F7A1B10D0504659460AE0FC
:104EC0000000E03F00002440488A400000001440F9
:104ED0000E9A5046594601F01AFB8346504601216E
:104EE00001F074FA119F0546002F05DD2946504652
:104EF0003A4601F00CFB0546249F012F12DC049872
:104F000080B90599C1F3130373B921F000473F0D30
:104F10003F0557B1089F013708970A9F01370A9745
:104F2000012702E0002700E0049F119840B12B699F
:104F300005EB8303186901F0FCF9C0F1200000E0E3
:104F400001200A9B034413F01F030FD0C3F120027A
:104F5000042A09DD08990A9AC3F11C0319441A446A
:104F600008911E440A9209E008D0134608980A994D
:104F70001C331844194408901E440A91089A002AC8
:104F800004DD5946504601F001FB83460A9B002B85
:104F900005DD294650461A4601F0F8FA05461498F0
:104FA000E0B15846294601F044FB002816DA59467C
:104FB00050460A22002301F040F90F9909F1FF3908
:104FC000834649B121460A225046002301F035F9B3
:104FD0000B9A0446079201E00B9B07930798002861
:104FE00029DC2499022926DD88B929460522079B58
:104FF000504601F022F905462946584601F019FBB2
:1050000000280EDC03E00C9D00E000252C46259FC7
:10501000DDF824806FEA07090AE00C9DDDF8409076
:105020002C46099F312307F101083B7009F1010962
:105030002746002407E10F98002800F0BB80002ECF
:1050400005DD21465046324601F0A0FA04469FB1E4
:105050006168504601F0C2F822690646023204F146
:105060000C0192000C3001F093F8504631460122B9
:1050700001F08CFA074600E02746099E294658466B
:10508000FFF7CEFA214600F1300C80465846CDF8A5
:1050900008C001F0CEFA3A4608902946504601F081
:1050A000E5FAC3680246DDF808C04BB91146584618
:1050B000039201F0BEFA039A0346DDF808C000E04F
:1050C0000123504611460393CDF808C001F0ACF817
:1050D000039BDDF808C063B9249951B9049800F026
:1050E000010232B9BCF1390F35D0089B002B24DC0A
:1050F00025E00898002802DA002B08DC1FE023D105
:10510000249909BB049800F00102EAB9F4E7594672
:1051100001225046CDF808C001F038FA29468346EE
:1051200001F087FA0028DDF808C003DC07D11CF085
:10513000010F04D0BCF1390F0DD008F1310C06F18C
:10514000010886F800C07EE0002B06F1010809DDA9
:10515000BCF1390F03D13923337001365BE00CF118
:10516000010368E00999079AC1EB08034646934298
:1051700006F801CC3CD059460A220023504601F0E3
:105180005CF8BC428346214650464FF00A024FF07D
:10519000000304D101F051F8044607466EE701F020
:1051A0004CF8394604460A225046002301F045F8DF
:1051B000074663E70F9E58462946FFF731FA099FD5
:1051C00000F1300C07F806C0079F0136BE4207DB2E
:1051D000099E012FACBFF61901362746002407E0CF
:1051E000594650460A22002301F027F88346E2E799
:1051F000594601225046CDF808C001F0C7F92946AA
:10520000834601F016FA0028DDF808C003DC14D14B
:105210001CF0010F11D016F8013CB046392B06F1F5
:10522000FF3607D10998B042F5D1312309F10109C0
:10523000037008E00133337005E0B04618F8013C14
:10524000013E302BF9D05046294600F0EDFF6FB1FA
:105250002CB1BC4203D05046214600F0E5FF504639
:10526000394600F0E1FF01E0DDF840905046594634
:1052700000F0DAFF0023269F88F8003009F10103CF
:105280003B60289F27B1C7F8008001E0024800E09A
:1052900009981BB0BDE8F08FFE894000AFF3008095
:1052A0008A892DE9F04193B2054618070C465ED471
:1052B0004B6842F40062002B8A8102DCCB6B002B2E
:1052C00018DDA66AB6B102F48052002392B22F68AC
:1052D0002B600AB1226D10E0E16928460123B04736
:1052E000411C024609D12B683BB11D2B01D0162B66
:1052F0004AD12F600020BDE8F081A3895B0705D566
:105300006368D21A236B0BB1E36BD21AA66A2846E4
:10531000E1690023B047461CA28905D12B681BB167
:105320001D2B01D0162B1DD1002322F4006292B256
:1053300063602369D104A281236004D5421C01D19A
:105340002B6803B92065216B2F600029D2D004F1AE
:105350004003994202D0284600F010FA0020206352
:10536000BDE8F08142F04002A281BDE8F0810E6903
:10537000002EBFD09B070A680CBF4B690023C6EB09
:1053800002080E608B6012E0A3894FF0FF3043F0FB
:105390004003A381BDE8F081676A2846E16932468F
:1053A0004346B8470028EFDD0644C0EB0808B8F1D3
:1053B000000FF1DC9EE738B50C46054618B1836B4B
:1053C0000BB900F041F8B4F90C0028B12846214689
:1053D000BDE83840FFF764BF38BD014620B9044B33
:1053E0000449186800F0EABB034B1868FFF7E3BFF5
:1053F000A4894000B7534000E80000200020704717
:1054000000207047014900F0BDBB00BFE9794000B2
:1054100070B54B1E68255D430E4605F1740100F022
:10542000A1FC044640B1002180E842000C30A0609D
:1054300005F16802FDF74CFB204670BD014B186872
:10544000FFF7E0BFA48940002DE9F84F846B0646C2
:10545000002C62D1324B4568C3630323C0F8E432A9
:1054600000F53B73C0F8E832DFF8BCA00423DFF896
:10547000BC90DFF8BC802B4FC0F8E0422146AB81E6
:105480002C606C60AC606C66EC812C616C61AC6112
:1054900005F15C000822FDF71BFBED61C5F820A0BB
:1054A000C5F82490C5F82880EF62B56809234FF04D
:1054B000010BAB812C606C60AC606C66A5F80EB023
:1054C0002C616C61AC6105F15C0021460822FDF79E
:1054D000FFFAED61C5F820A0C5F82490C5F8288032
:1054E000EF62F5681223AB8102232C606C60AC6024
:1054F0006C66EB812C616C61AC6105F15C0021464E
:105500000822FDF7E5FAED61C5F820A0C5F8249062
:10551000C5F82880EF62C6F838B0BDE8F88F00BF44
:1055200005544000EB6D4000696D40008F6D4000F8
:10553000C76D4000F8B51C4B07461E68B36B13B926
:105540003046FFF781FF06F53876B4687368013B93
:1055500004D4B4F90C5075B16834F8E733682BB94A
:1055600038460421FFF754FF306008B13668ECE795
:105570000C233B60F8BD4FF6FF73E3810123A38149
:1055800065662560A560656025616561A56104F1BA
:105590005C0029460822FDF79BFA25636563656474
:1055A000A5642046F8BD00BFA4894000704770473D
:1055B00070477047024B0349186800F0E3BA00BF18
:1055C000E8000020FD534000024B0349186800F03A
:1055D000D9BA00BFE80000200154400038B5084D9A
:1055E000084C641BA41005EB840524B155F8043D58
:1055F000013C9847F9E7BDE8384003F0CBBA00BF5B
:10560000A08B4000A48B400093892DE9F3410E4606
:1056100099048046144606D443F400539381536E94
:1056200043F40053536600F00BFB012806D1731EB0
:10563000FE2B03D88DF8046007460EE03246404644
:1056400001A904F15C0302F09DF8421C074604D155
:10565000A38943F04003A3812BE00025BD4224D061
:10566000A26801AB013A002AA26016DAA1698A4257
:1056700008DB5B5D22681370236819780A2910D152
:10568000404601E0595D4046224602F029F8B0F15B
:10569000FF335842584130B109E05B5D2268137016
:1056A0002368013323600135D8E7304601E04FF02D
:1056B000FF3002B0BDE8F081084B70B51C680646AB
:1056C0000D4624B1A36B13B92046FFF7BDFE20465B
:1056D00031462A46BDE87040FFF796BFE80000203B
:1056E000F8B5234D0E46044600F076FDAB685F68C2
:1056F00027F00307BE1B06F6EF7626F47F6626F03A
:105700000F06A6F58056B6F5805F04DA204600F055
:1057100064FD0020F8BD2046002101F015FBAB68B8
:105720003B449842F2D12046714201F00DFB01301A
:1057300010D12046002101F007FBAB68C21A0F2AE6
:10574000E4DD0C4942F0010209685A60401A0A4936
:105750000860DBE7AB68BF1B47F001075F60064BE3
:1057600020461A68961B1E6000F037FD0120F8BD28
:10577000940500209C090020B40B0020F8B50646D3
:105780000D46002900F0A98000F026FD55F804CC54
:10579000524CA5F108032CF001029818A168476843
:1057A000884227F003070CF001011BD13A4439B9B4
:1057B00055F8081C5B1A98680A44D968C16088606B
:1057C00042F001015960A360454B1B689A4204D323
:1057D000444B30461968FFF783FF3046BDE8F84078
:1057E00000F0FBBC476079B955F8085C04F1080C7F
:1057F0005B1B2A449D68654508D0D3F80CC0C5F8EA
:105800000CC0CCF8085002E0002100E00121C519CD
:105810006D68ED070ED43A44856841B9324FBD42F8
:1058200005D1636123610121DD609D6002E0C068F4
:10583000E860856042F0010058609A500029CCD1A0
:10584000B2F5007F0ED2D208911001208840616825
:105850000143616004EBC204A268DC609A60A3604B
:10586000D360BAE7510A042902D89109383115E00A
:10587000142901D85B3111E0542902D8110B6E3183
:105880000CE0B1F5AA7F02D8D10B773106E040F2E7
:10589000545081429ABF910C7C317E2104EBC104AB
:1058A000A5680E48A54201D029460BE001228910C7
:1058B00002FA01F142680A434260294608E0896819
:1058C000A14204D0486820F003008242F7D3CD689B
:1058D000DD609960AB60CB607FE7F8BD9405002088
:1058E000A0090020B00B00209C05002093682DE942
:1058F000F74F80460C4691460BB900203CE18B895E
:1059000018070ED50B6963B1B4F80CA0D9F8006084
:105910000AF0020C1FFA8CF333B34FF0000A57461B
:105920001BE040462146FEF711FE0028ECD021E1A5
:10593000934B40469F4238BF3B46E1695246656AF9
:10594000A847002840F31281D9F8083082443F1A52
:10595000181AC9F808000028CFD0002FE8D1D6F8CF
:1059600000A077680836F8E71AF0010A04D09B46D1
:1059700001931F469A46BFE0554625B9D6F800A0C8
:1059800075680836F9E7A289A768910552D5BD4226
:1059900042D312F4906F3DD02169236802205B1A34
:1059A0000193636903EB430393FBF0FB019B581CDA
:1059B0002844834538BF8346530540460FD5594692
:1059C00000F0D0F90746B8B1019A216900F0E0FB78
:1059D000A28922F4906242F08002A28110E05A462D
:1059E00000F0E6FF074658B940462169FFF7C6FEBA
:1059F000A38923F08003A3810C23C8F80030B5E00D
:105A0000019B27611F44C3EB0B032760C4F814B04C
:105A10002F46A360BD4200D22F463A462068514629
:105A200000F0BFFBA368DB1BA36023681F44276053
:105A30002F462AE020682369984202D863699D4274
:105A400013D2BD4238BF2F463A46514600F0A9FB5B
:105A5000A3682268DB1B3A44A3602260ABB94046CE
:105A60002146FFF7A8FC80B180E06FF0004E75453D
:105A700038BFAE469EFBF3FE676A4046E169524678
:105A800003FB0EF3B847071E70DDD9F80830BA449F
:105A9000ED1BDF1BC9F80870002F7FF46EAF2CE7F9
:105AA000019D002D31D020682269D34534BF5B466B
:105AB00053469042A568D4F814E036D97544AB42F9
:105AC00033DD39462A4600F06CFB236840462B4400
:105AD00023602146FFF76FFC002847D1BBEB050B85
