:020000040040BA
:10000000A80D00202D0840002908400029084000C4
:10001000290840002908400029084000000000008D
:10002000000000000000000000000000290840005F
:10003000290840000000000029084000290840006D
:1000400029084000290840002908400029084000EC
:1000500029084000290840002908400029084000DC
:10006000290840002908400029084000D90640001E
:10007000ED06400001074000290840002908400023
:1000800029084000290840002908400029084000AC
:10009000290840002908400029084000290840009C
:1000A000290840002908400029084000290840008C
:1000B000290840002908400029084000290840007C
:1000C0002908400008B50548054B1B1A062B00D827
:1000D00008BD044B002BFBD09847F9E7280C4000E3
:1000E0002B0C40000000000008B50748074B1B1A06
:1000F0009B1003EBD373591000D108BD044A002AAA
:10010000FBD09047F9E700BF280C4000280C4000C6
:100110000000000010B5064C237843B9FFF7D2FF6A
:10012000044B13B10448AFF300800123237010BDCA
:100130001805002000000000280C400008B5084BFE
:100140001BB108480849AFF300800848036813B1A1
:10015000074B03B19847BDE80840FFF7C5BF00BF94
:1001600000000000280C40001C050020280C400066
:100170000000000010B50E480E4B984700203E21AD
:100180000D4B98470D4CA0470028FCD00C4B9847CE
:100190000C4A0D4B9A620D4CA0470028FCD0102051
:1001A0000B4B98470B4B98470148024B984710BDA3
:1001B000006CDC02A100002079074000CD07400060
:1001C000DD074000013F072000040E40ED0740001E
:1001D00015074000DD08400010B54FF400422C4BDD
:1001E0005A600B202B4CA0470C20A0470D20A047A5
:1001F00017204FF06051284CA0472E204FF060513F
:10020000A0470F202549A04710202549A047254891
:100210004FF4C0614FF00062234B984700204FF02D
:100220008051A04708204FF08051A0470C204FF08C
:100230000061A0470D204FF00061A0470E204FF055
:100240000061A0471F204FF00061A0471E204FF023
:100250008051A0470C204FF00061A0470D204FF0C7
:100260000061A0470E204FF00061A0471E204FF014
:100270008051A0471C204FF06051A0471D204FF037
:100280006051A0474D204FF06051A04710BD00BF06
:1002900050140E40FD07400045044000790000283E
:1002A00059000028000E0E406905400010B4426459
:1002B000B1F1C05F2ED008D8B1F1006F14D0B1F108
:1002C000805F1DD0002935D135E0B1F1205F32D0FB
:1002D00003D8B1F1005F27D02CE0B1F1405F2AD004
:1002E000B1F1605F27D025E0016F046FD343214057
:1002F00019400167416F446F21400B40436719E08B
:10030000036F13430367436F416F0B4023EA0203FC
:1003100043670FE0036F016F0B4023EA020303679B
:10032000436F1343436705E0036F13430367436F52
:100330001343436742605DF8044B7047416412F019
:10034000010F14BF4166016612F00A0F14BF01626B
:10035000416212F0020F02D0C0F8801004E012F0E7
:10036000080F18BFC0F8841041610160704700BFDA
:1003700010B44164019C0CB1416600E001660BB110
:10038000016500E041650AB1016300E0416301617C
:1003900001605DF8044B704712B1C0F894107047CB
:1003A000C0F89010704700BF12F0100F10D0C0F8C6
:1003B000B01012F0200F14BFC0F8D410C0F8D01045
:1003C00012F0400F14BFC0F8C010C0F8C41070473E
:1003D000C0F8B410704700BFC36C0164704700BF21
:1003E000C06C7047806C7047430903F5001303F23B
:1003F00007735B0200F01F00012202FA00F018638D
:10040000704700BF430903F5001303F207735B0253
:1004100000F01F00012202FA00F05863704700BF8D
:10042000430903F5001303F207735B029A6B00F0B4
:100430001F00012101FA00F0104214BF5863186335
:10044000704700BF70B582B00D46440904F5001432
:1004500004F20774660201F0F044B4F1005F47D083
:1004600009D8B4F1805F21D0B4F1C05F2FD0B4F1CE
:10047000006F6FD109E0B4F1405F55D0B4F1605F17
:1004800052D0B4F1205F44D064E000F01F0001249A
:10049000844030464FF000612246304B984715F0BB
:1004A000010F14BF74663466012054E000F01F0091
:1004B0000124844030464FF080512246274B984714
:1004C00015F0010F14BF74663466012043E000F09C
:1004D0001F000124844030464FF0C05122461F4B7C
:1004E000984715F0010F14BF74663466012032E09E
:1004F00000F01F000124844030464FF00051224696
:10050000164B984715F0010F14BF7466346601202E
:1005100021E000F01F010124304604FA01F12A46CF
:100520000F4B9847204616E000F01F01012405F00C
:10053000605205EA04030093304604FA01F1B2F177
:10054000605F14BF00220122C5F38003054DA84758
:10055000204600E0002002B070BD00BFAD024000A8
:100560003D03400071034000F0B583B007460E46DE
:10057000154602F0F044B4F1005F38D009D8B4F168
:10058000805F1CD0B4F1C05F25D0B4F1006F50D1B2
:1005900009E0B4F1405F3AD0B4F1605F37D0B4F114
:1005A000205F30D045E04FF000613246224B984743
:1005B00015F0010F14BF7E663E6601203AE04FF051
:1005C000805132461C4B984715F0010F14BF7E66D0
:1005D0003E6601202EE04FF0C0513246164B984740
:1005E00015F0010F14BF7E663E66012022E04FF039
:1005F00000513246104B984715F0010F14BF7E662C
:100600003E66012016E00D4B9847012012E005F0F0
:10061000605205F00103009338463146B2F1605F45
:1006200014BF00220122C5F38003054CA04701201E
:1006300000E0002003B0F0BDAD0240003D034000EB
:10064000710340002DE9F04104460E46104B9847D7
:10065000054620460F4B9847054017D00E4F07F12F
:100660000C046C3754F80C3CB3420AD154F8081C03
:10067000294206D023683046984754F8083C25EABA
:100680000305BC4202D01034002DEBD1BDE8F0814F
:10069000E1034000E503400038050020F8B50B4CAD
:1006A0002468062C10D80A4F2601BD19B9516A607A
:1006B000AB600699E960013404490C6011461A46A2
:1006C000044B98470020F8BD0120F8BD34050020F8
:1006D00038050020A903400008B502480B21024B51
:1006E000984708BD000E0E404506400008B5024878
:1006F0000C21024B984708BD00100E4045064000F3
:1007000008B502480D21024B984708BD00120E4063
:1007100045064000174B1A6B22F070021043186315
:100720009B6E13F0080F09D14FF40063114901E0EB
:10073000013B19D08A6E12F0080FF9D00D4B1A6BDD
:1007400022F0030242F002021A63986E10F00800D1
:100750000CD14FF40063074901E0013B08D08A6ED9
:1007600012F0080FF9D07047012070470020704741
:100770000120704700040E4038B111490B6A114A3C
:100780001A40114B13430B6270470D4A136A23F44E
:100790005C1323F0030343F45C1343F001030902E9
:1007A00089B20B431362936E13F0010FFBD0044A1E
:1007B000136A43F09B7343F480331362704700BFA6
:1007C00000040E40FCFFC8FE02003701024B986E89
:1007D00000F48030704700BF00040E404FF000521C
:1007E000014B9A62704700BF00040E40024B986EA6
:1007F00000F00200704700BF00040E401F280DD813
:10080000084B9A69012383401A40934208D0012380
:1008100003FA00F0034B1861002070470120704775
:100820000020704700040E40FEE700BF10B51E4BCD
:100830001E4A9A4203D01E4B1B4A9A4204D31D4BB8
:100840001D4A9A420FD31AE01C4B1D4CE41A24F0A7
:10085000030404340023144814495A581A5004332A
:10086000A342FAD1EBE7174B1749C91A21F003014C
:100870001A1D1144002243F8042F8B42FBD1134A66
:1008800022F0604323F07F0311498B6002F1604244
:10089000B2F5C04F03D28A6842F000528A600D4B15
:1008A00098470D4B9847FEE700000020280C4000B9
:1008B00018050020A80500201805002004000020CD
:1008C0001B05002014050020A305002000004000A7
:1008D00000ED00E0CD0A4000110A4000394B1B6BCF
:1008E00003F00303012B0FD013B1022B29D051E0E9
:1008F000354B5B6913F0800F14BF4FF400424FF487
:10090000FA42324B1A6045E02E4B1B6A13F0807F8F
:1009100003D02F4A2D4B1A603CE02E4A2B4B1A6015
:10092000284B1B6A03F07003102B02D0202B04D03D
:1009300030E0294A254B1A602CE0254A234B1A60E7
:1009400028E0204B1B6A13F0807F03D0204A1F4B06
:100950001A6012E01F4A1D4B1A601A4B1B6A03F003
:100960007003102B02D0202B04D006E01A4A174B3C
:100970001A6002E0164A154B1A60124B986A996A7F
:10098000124BC0F30A401A6800FB0222C9B2B2FB44
:10099000F1F21A600B4B1B6B03F07003702B07D145
:1009A0000A4B1A680D49A1FB020252081A607047EF
:1009B000044B196B054BC1F302111A68CA401A6047
:1009C000704700BF00040E4010140E40E4000020E9
:1009D000001BB70000093D0000127A00ABAAAAAACA
:1009E00010B50B2811D1B1F5803F0BD11720074C62
:1009F000A0472E20A04710BD1720044CA0472E2052
:100A0000A04710BDB1F5003FF6D010BD2104400055
:100A100080B582B0214B9847214B98470B20214B42
:100A20009847214C20464FF480310022DFF8949003
:100A3000C84720464FF480310122DFF88C80C04740
:100A40001A4F009720460B214FF480327023184E26
:100A5000B04720464FF48031164DA84720464FF44A
:100A600000310022C84720464FF400310122C04720
:100A7000009720460B214FF400327023B0472046E8
:100A80004FF40031A8474FF400620B4B1A60172057
:100A90000A4B98472E200A4B9847FEE77501400005
:100AA000D9014000FD074000000E0E40E109400062
:100AB0009D064000D903400000E100E0050440002D
:100AC000E90340003D0340009903400070B50E4B20
:100AD0000E4D0024ED1AAD101E46AC4204D056F85F
:100AE000242090470134F8E700F08CF8084D094BBA
:100AF0000024ED1AAD101E46AC4204D056F8242056
:100B000090470134F8E770BD100C4000100C400015
:100B1000180C4000100C4000024B13B1024800F0CA
:100B200005B8704700000000390B40000146002066
:100B30000246034600F016B838B5084D084C641B51
:100B4000A41005EB840524B155F8043D013C9847F9
:100B5000F9E7BDE8384000F05FB800BF240C400062
:100B6000280C40002DE9F8439846224B06461C68A5
:100B70000F46D4F84801914618B904F5A670C4F898
:100B8000480143681F2B16DD1B4B1BB94FF0FF308C
:100B9000BDE8F8834FF4C870AFF300800028F5D0AB
:100BA000D4F84811002545600160C4F84801C0F838
:100BB0008851C0F88C514468A6B10122A24000EBD4
:100BC0008405C5F88890D0F88811022E41EA020108
:100BD000C0F88811C5F8088104D1D0F88C311A43C7
:100BE000C0F88C21631C0234436040F8247000205C
:100BF000BDE8F883FC0B400000000000F00000207E
:100C000043000000F8B500BFF8BC08BC9E46704722
:100C1000190B40003D014000F8B500BFF8BC08BC0E
:080C20009E46704715014000DB
:100C28004FF440721F4B1A60A3F5C0631B6A13F0A0
:100C3800807F07D11C4A1D4B1A621A46936E13F027
:100C4800010FFBD01A4A194B1A621A46936E13F415
:100C5800803FFBD0154B1A6B22F0030242F00102D1
:100C68001A631A46936E13F0080FFBD0114A0F4B04
:100C78009A621A46936E13F0020FFBD011220B4BA7
:100C88001A631A46936E13F0080FFBD01222074B13
:100C98001A631A46936E13F0080FFBD0064A074BE7
:100CA8001A607047000A0E400908370000040E4019
:100CB80009083701013F0720006CDC02E40000202E
:100CC8000C4B984203D800220B4B1A6070470B4B11
:100CD800984204D84FF48072074B1A607047084B4B
:100CE800984294BF4FF400724FF44072024B1A605E
:100CF800704700BF3F6F4001000A0E40FF47E80100
:100D0800FF6BDC0200093D00F0000020000000003D
:100D180000000000DC03002044040020AC04002094
:100D280000000000000000000000000000000000BB
:100D380000000000000000000000000000000000AB
:100D480000000000000C400000000000000000004F
:100D5800000000000000000000000000000000008B
:100D6800000000000000000000000000000000007B
:100D7800000000000000000000000000000000006B
:100D8800000000000000000000000000000000005B
:100D9800000000000000000000000000000000004B
:100DA800000000000000000000000000000000003B
:100DB800000000000000000001000000000000002A
:100DC8000E33CDAB34126DE6ECDE05000B000000EF
:100DD800000000000000000000000000000000000B
:100DE80000000000000000000000000000000000FB
:100DF80000000000000000000000000000000000EB
:100E080000000000000000000000000000000000DA
:040000050040082D82
:00000001FF
