S0100000494D555F546573742E737265632A
S214400000B813002019124000151240001512400087
S2144000101512400015124000151240000000000066
S2144000200000000000000000000000001512400024
S2144000301512400000000000151240006109400003
S21440004015124000151240001512400015124000CF
S21440005015124000151240001512400015124000BF
S214400060510B40001512400015124000F1104000A0
S21440007005114000191140001512400015124000AD
S214400080151240001512400015124000151240008F
S214400090151240001512400015124000151240007F
S2144000A0151240001512400015124000151240006F
S2144000B0151240001512400015124000151240005F
S2144000C01512400008B50548054B1B1A062B00D8EC
S2144000D008BD044B002BFBD09847F9E7C499400075
S2144000E0C79940000000000008B50748074B1B1A98
S2144000F09B1003EBD373591000D108BD044A002A65
S214400100FBD09047F9E700BFC4994000C49940002F
S2144001100000000010B5064C237843B9FFF7D2FF25
S214400120044B13B10448AFF300800123237010BD85
S2144001309809002000000000C499400008B5084B0C
S2144001401BB108480849AFF300800848036813B15C
S214400150074B03B19847BDE80840FFF7C5BF00BF4F
S21440016000000000C49940009C090020C49940004B
S2144001700000000070B50E46154678B91446711951
S214400180002CC4EB010106DD064B013C1868064B0B
S2144001901B689847F3E725EAE57070BD4FF0FF30DF
S2144001A070BD00BF1C0B0020B00A002061B10129C1
S2144001B0037807DD4278022942EA03231CBF82788F
S2144001C042EA032318467047084670470D4B99424B
S2144001D016D84900B2FBF1F2043A0023FF2A04D9AC
S2144001E0072B02D001335208F8E711021B0489B2EC
S2144001F003F4E0230B43D2B21A4302610020704757
S21440020001207047801A060038B54FF0FF338362EE
S214400210036A80230360036B082303602023036084
S21440022004230D46036049682A68064B04469847EF
S214400230431E584258416B7A012B04BF402323602B
S21440024038BD00BFCD014000F8B5CD6804468E6885
S214400250002D3CD0002747604B680A7C1B0203F405
S2144002604073120402F4FE0243F480531343436087
S214400270C7601A4B084649689847012DE06005D18B
S214400280032323602B4643F698220AE0012323608B
S2144002903B46F8E7FAB1012D08D089070BD4013A5E
S2144002A085B1216A11F48070F4D012E00BB90223B4
S2144002B023602B46F1E7226B013D3270013643F650
S2144002C09822EDE7236ADB07FCD5236AF8BD0120B8
S2144002D0F8BD0520F8BD0920F8BD00BFAD014000BF
S2144002E070B5CE6804468D684EB300234360087CE4
S2144002F04A680004120200F4FE0002F44072024310
S2144003006260E3600846104B496898472E44E060B8
S214400310B54208D0236AD80513D45907FAD515F83C
S214400320013B6363F4E7236A13F4807009D15A07EC
S214400330F9D502232360236ADB07FCD570BD012074
S21440034070BD052070BD00BFAD01400043699B07EE
S21440035004D5C1F30801C1610020704701207047F1
S2144003604369DB0705D583690020C3F308030B60A8
S21440037070470120704700001FB5094B132098476F
S214400380084B01A90193084B0848029300238DF8B7
S2144003900D30074B9847C0B205B05DF804FB00BF70
S2144003A0ED114000006CDC02801A0600008001401F
S2144003B00902400000B589B08DF8071001230DF101
S2144003C007018DF80C0004930591069303A9044B8E
S2144003D004488DF81C20984709B05DF804FB00BF20
S2144003E0E10240000080014010B50B210C4C532226
S2144003F03120A0470A2153222C20A047082153220F
S2144004002D20A0470B211D223120A0470A211D2266
S2144004102C20A04708211D222D20A04710BD00BF3C
S214400420B503400030B589B0054614468DF8071030
S21440043003A800211422094B9847012304930DF189
S2144004400702069303A9064B06488DF80C50059202
S2144004508DF81C40984709B030BD00BFE52C4000E1
S214400460E10240000080014010B51E21104C682279
S2144004701620A047002168221520A0471121682297
S2144004801720A047002168223E20A0471E2169224F
S2144004901620A047002169221520A0471121692275
S2144004A01720A047002169223E20A04710BD00BF6C
S2144004B0250440007FB58DF804000120029003918A
S2144004C08DF8143001A9034B03480492984707B0AF
S2144004D05DF804FB49024000008001400000000037
S2144004E02DE9F84F424C8946834621463220042265
S2144004F04B46404DA847A04610B1C0B2BDE8F88F65
S2144005006378207803F0F002F02A4FEA03233A4F4C
S2144005103A4E3B4D3B4C40EA03000CD14042C0F3C0
S2144005200B00B847B0472EA3D3E90023A847A047FF
S21440053000F1004A07E0B847B04729A3D3E90023B3
S214400540A847A047824698F8033098F8020003F080
S214400550F002F02A4FEA032340EA03000CD140425F
S214400560C0F30B00B847B0471DA3D3E90023A84704
S214400570A04700F1004707E0B847B04718A3D3E9C3
S2144005800023A847A0470746B9F11D0F09D1DFF859
S2144005908C9050461C49C8471C4980463846C84738
S2144005A00BE0B9F1530F17D119491A4B50469847EB
S2144005B019498046194B384698470146184B08F16A
S2144005C000409847174B9847B04707A3D3E9002306
S2144005D0A847A047CBF800000020BDE8F88F00BF32
S2144005E03333333333330F4018B1531ADCA54C4002
S2144005F0BA090020B5044000C9274000F120400059
S21440060099214000BD25400000003443008023442B
S21440061000009643652640000000F54369264000EA
S214400620E1294000011A40002DE9F74F644D019042
S2144006302946322004221D23624CA047A8460028A3
S2144006404DD16B78287803F0F002F02A4FEA032366
S2144006505D4F5E4E5E4D5F4C40EA03000CD140421B
S214400660C0F30B00B847B04751A3D3E90023A847CF
S214400670A04700F1004A07E0B847B0474CA3D3E98B
S2144006800023A847A047824698F8033098F802000F
S21440069003F0F002F02A4FEA032340EA03000CD1AD
S2144006A04042C0F30B00B847B04741A3D3E900230C
S2144006B0A847A04700F1004907E0B847B0473CA329
S2144006C0D3E90023A847A0478146DFF8F4B032209C
S2144006D0594604225323DFF8ECC0E04708B1C0B2C5
S2144006E063E09BF801309BF8000003F0F002F02A2C
S2144006F04FEA032340EA03000CD14042C0F30B000C
S214400700B847B0472AA3D3E90023A847A04700F13B
S214400710004B07E0B847B04725A3D3E90023A847D6
S214400720A047834698F8033098F8020003F0F0029A
S214400730F02A4FEA032340EA03000CD14042C0F3BC
S2144007400B00B847B0471AA3D3E90023A847A047F1
S21440075000F1004307E0B847B04715A3D3E90023AC
S214400760A847A04703460093DFF87C801A495846BE
S214400770C0471A4F01465046B847009B00F1004A12
S21440078015491846C04701464846B847144B0146E7
S21440079050469847134B9847B04707A3D3E90023E2
S2144007A0A847A047019B1860002003B0BDE8F08F23
S2144007B03333333333330F4018B1531ADCA54C4030
S2144007C0BE090020B5044000C9274000F120400083
S2144007D099214000BD254000175D34406526400005
S2144007E0E1294000B917400079284000AFF3008067
S2144007F02DE9F0474C4D8A460622294653464B4E35
S21440080004463220B0476B78287803F0F002F02A8E
S2144008104FEA0323A946DFF84481454F454E464DEF
S21440082040EA03000CD14042C0F30B00C047B84733
S2144008303BA3D3E90023B047A84700F1004006E0B9
S214400840C047B84736A3D3E90023B047A84720603F
S21440085099F8033099F8020003F0F002F02A4FEAC4
S214400860032340EA03000CD14042C0F30B00C047CC
S214400870B8472BA3D3E90023B047A84700F1004070
S21440088006E0C047B84726A3D3E90023B047A847A9
S214400890606099F8053099F8040003F0F002F02AF9
S2144008A04FEA032340EA03000CD14042C0F30B005A
S2144008B0C047B8471AA3D3E90023B047A84700F17A
S2144008C0004006E0C047B84715A3D3E90023B04729
S2144008D0A847BAF11D0FA0600DD1184D20681849E1
S2144008E0A847184920606068A84717496060174BBA
S2144008F0A06898470FE0BAF1530F0DD1206814490D
S214400900124DA847134920600C4B6068984712491F
S2144009106060A068A847A060BDE8F087AFF300809D
S2144009203333333333330F40B4090020B50440002B
S214400930F120400099214000BD2540006926400036
S214400940000034430080234400C0A845652640008C
S214400950000096430000F54300409C45C9274000F0
S214400960074B1A6801321A60064A18681168411A1D
S214400970C72904D90449012008701B6813607047D2
S214400980C8090020C4090020CC090020064B41F2CB
S214400990BF225A60054AF02182F8231000229A604E
S2144009A007221A60704700BF10E000E000ED00E04C
S2144009B013B500230193164B0C46984206D11448B3
S2144009C02146144B98470028F9D11EE0124B984216
S2144009D006D1114821460F4B98470028F9D114E01C
S2144009E00E4B984206D10D4801A90D4B984700285A
S2144009F0F9D108E00B4B984207D10A4801A9084BA9
S214400A0098470028F9D1019B237002B010BD00BF63
S214400A1000060E40550C400000080E4000400240C4
S214400A206103400000800240164B10B598420C46C9
S214400A3007D114482146144B98470028F9D1012085
S214400A4010BD124B984206D1104821460E4B98478F
S214400A500028F9D1F3E70E4B984206D10C482146C0
S214400A600C4B98470028F9D1E9E70B4B984206D142
S214400A7009482146074B98470028F9D1DFE7002070
S214400A8010BD00BF00060E40450C400000080E405A
S214400A90004002404D034000008002407FB51A4DA2
S214400AA00820A847194C1A4B1A4A1C601A4B1B4E72
S214400AB01A601B4A1B4B08201A601B4B01934FF4CD
S214400AC0165302934FF400630393A84701A92046A8
S214400AD0164B98473368164D98680021A8473368E8
S214400AE000215868A847134B4FF480721021C3F872
S214400AF080202046C3F8802183F808131A6001211D
S214400B000D4B984704B070BDED11400000060E40F6
S214400B101C0B0020290A4000180B0020D80000209B
S214400B20B1094000B00A0020006CDC02090C40000D
S214400B30F52C400000E100E03D0C40000023034A55
S214400B40002199540133642BF9D17047B40A002030
S214400B5038B51248124B9847C3071DD5114D0F485C
S214400B601149124B98472C780CB9114B98470E4BAD
S214400B701B780D2B05D100232B700E4B01221A70CB
S214400B8038BD082B0C4A04D1013CE4B22C7000233B
S214400B9001E0611C2970135538BD00BF00060E40A9
S214400BA0410C4000CF090020CE090020550C4000E3
S214400BB03D0B4000CD090020B40A002003461A1A17
S214400BC08A4203D25A7803F8012BF8E770470000B0
S214400BD00138022870B50D46164601D800240BE0B1
S214400BE04FF0FF3070BD064B295D1868054B1B68FB
S214400BF098470028F4DB0134B442F4D1204670BD57
S214400C001C0B0020180B0020AC2310B5036091E8A5
S214400C100C00B2FBF3F31B095C1E4FF6FE729442C7
S214400C200AD803628B68436040F20223C0F8203142
S214400C3050230360002010BD012010BD8160704726
S214400C404069704743699B0702D5C16100207047E1
S214400C50012070474369DB0703D5836900200B708A
S214400C60704701207047000010B50E480E4CA04754
S214400C7000203E210D4B98470D4B98470028FBD04F
S214400C800C4B98470C4A0D4B9A620D4B98470028E0
S214400C90FBD00C4B102098470B4B98470148A04779
S214400CA010BD00BF006CDC028900002071114000BE
S214400CB0BD114000CD114000013F072000040E400A
S214400CC0DD1140002D11400099124000334B4FF487
S214400CD0004210B50B205A60314CA0470C20A0476C
S214400CE00D20A0472F4C4FF060511720A0474FF0E3
S214400CF060512E20A0474FF060511920A0472A4946
S214400D000F20A04729491020A0474FF00062284BEB
S214400D104FF4C061274898474FF080510020A047C5
S214400D204FF080510820A0474FF000610320A047B5
S214400D304FF000610420A0474FF000610C20A04710
S214400D404FF000610D20A0474FF000610E20A047F5
S214400D504FF000611F20A0474FF080511E20A04753
S214400D604FF000610C20A0474FF000610D20A047D7
S214400D704FF000610E20A0474FF080511E20A04744
S214400D804FF060511C20A0474FF060511D20A047F7
S214400D904FF060514D20A04710BD00BF50140E408C
S214400DA0ED114000210F400079000028590000282E
S214400DB0D50F4000000E0E40B1F1C05F10B5426442
S214400DC02DD007D8B1F1006F15D0B1F1805F1DD09E
S214400DD071BB10BDB1F1205F2BD005D8B1F1005FDB
S214400DE026D1036F13431FE0B1F1405F21D0B1F12C
S214400DF0605F1ED01CE0016F046FD3432140194052
S214400E000167416F446F21400B4010E0036F13436E
S214400E100367436F416F0B4023EA020307E0036F0B
S214400E20016F0B4023EA02030367436F1343436794
S214400E30426010BDD30741644CBF4166016612F064
S214400E400A0F14BF01624162930702D5C0F88010B2
S214400E5003E0130748BFC0F8841041610160704743
S214400E6010B5029C41640CB1416600E001660BB1CE
S214400E70016500E041650AB1016300E0416301613C
S214400E80016010BD12B1C0F894107047C0F89010C1
S214400E907047D3060ED59306C0F8B0104CBFC0F8C6
S214400EA0D410C0F8D01053064CBFC0F8C010C0F8DD
S214400EB0C4107047C0F8B4107047C36C01647047E4
S214400EC0C06C7047806C70474309012200F01F00D9
S214400ED002FA00F003F5001303F207735B0218638F
S214400EE070474309012200F01F0002FA00F003F5A4
S214400EF0001303F207735B025863704743090121EE
S214400F0000F01F0001FA00F003F5001303F2077328
S214400F105B029A6B104214BF586318637047000018
S214400F20F7B544090D4604F5001401F0F04104F20B
S214400F300774B1F1005F4FEA44241ED009D8B1F1DE
S214400F40805F1AD0B1F1C05F17D0B1F1006F37D1D2
S214400F5013E0B1F1405F1FD0B1F1605F1CD0B1F13A
S214400F60205F2DD100F01F010126204606FA01F130
S214400F702A46154B9847304623E000F01F000126CE
S214400F8006FA00F7114B3A4620469847EA0701D43E
S214400F902766F0E76766EEE7012605F0605205EA49
S214400FA006030093B2F160535A4200F01F015A41C3
S214400FB0204606FA01F1C5F38003054CA047DAE760
S214400FC0002003B0F0BD00BF350E4000B90D400014
S214400FD0610E4000F7B502F0F045B5F1005F0646F9
S214400FE00C46174617D009D8B5F1805F13D0B5F137
S214400FF0C05F10D0B5F1006F27D10CE0B5F1405F6F
S21440100013D0B5F1605F10D0B5F1205F1DD1104B05
S214401010984701201AE0224629460E4B9847FA0781
S21440102001D43466F5E77466F3E707F0605207F0DC
S21440103001030093B2F160535A4221465A4130466A
S214401040C7F38003044CA047E3E7002003B0F0BD9D
S214401050350E4000B90D4000610E4000F8B5114B0A
S21440106004460E469847104B05462046984705408E
S21440107016D00E4C04F1600754F80C3CB3420AD12B
S21440108054F8081C294206D023683046984754F83E
S214401090083C25EA0305BC4202D01034002DEBD1B3
S2144010A0F8BD00BFC10E4000C50E4000E00900205C
S2144010B0F8B50C4E3468062C12D8DFF830E027011D
S2144010C04EF8071006990EEB07056A60AB60E960BC
S2144010D0013411461A46044B346098470020F8BD48
S2144010E00120F8BDD0090020930E4000D40900200E
S2144010F008B502480B21024B984708BD000E0E402B
S2144011005D10400008B502480C21024B984708BDC8
S21440111000100E405D10400008B502480D21024BFD
S214401120984708BD00120E405D1040000F4B1A6BEA
S21440113022F070021043186340F60102986E0B4985
S214401140000703D4013AF9D1012070470A6B22F018
S214401150030242F002020A6340F60102996E090752
S21440116002D4013AFAD1EFE70020704700040E405F
S2144011700F4B1A6A28B10F4911400F4A0A431A62A8
S214401180704722F45C1222F0030242F45C12090219
S21440119042F0010289B20A431A62996E044AC907AC
S2144011A0FBD5136A43F09B7343F480331362704756
S2144011B000040E40FCFFC8FE02003701024B986E4A
S2144011C000F48030704700BF00040E40024B4FF0E2
S2144011D000529A62704700BF00040E40024B986E61
S2144011E000F00200704700BF00040E401F284FF07A
S2144011F0010309D803FA00F0054A916900EA0103A1
S214401200834203D0106101E01846704700207047C3
S21440121000040E40FEE70000164B174A10B59342F6
S2144012201C4601D0002301E0144B07E01449D018B7
S2144012308842F9D2E158D1500433F7E7114A934235
S21440124003D2002243F8042BF8E70F490F4B21F056
S214401250604201F1604122F07F02B1F5C04F9A60D2
S21440126003D29A6842F000529A60094B9847094B5D
S2144012709847FEE7C49940000000002098090020E7
S21440128098090020B80B00200000400000ED00E068
S214401290592C4000C114400010B5294A294B116B07
S2144012A001F0030101290CD002D302291AD035E0FF
S2144012B0254949690C064CBF4FF400414FF4FA41AA
S2144012C02BE0116AC8010BD420491960116A01F05D
S2144012D07001102902D0202902D01FE01C491CE0D2
S2144012E01C491AE0116AC9010BD418491960116AE1
S2144012F001F07001102902D0202902D003E01449E1
S21440130000E014491960946A1968C4F30A4404FB5F
S2144013100111906AC0B2B1FBF0F11960126B02F095
S2144013207002702A04D11A680321B2FBF1F205E07C
S214401330034A116B1A68C1F30211CA401A6010BD05
S21440134000040E40C400002010140E4000093D006A
S21440135000127A00001BB700084B1A680AB9084A00
S2144013601A601B68074A1844904203DC034A106020
S214401370184670474FF0FF30704700BF440A0020C1
S214401380B8130020FC5F00204FF0FF3070474FF44A
S21440139000534B6000207047012070470020704784
S2144013A00B2810B516D1B1F5003F07D10A4C0B49B2
S2144013B020680B4B984720602E2009E0B1F5802F1F
S2144013C008D1054C05492068064B984720601920EF
S2144013D0054B984710BD00BF600A00200000B43E91
S2144013E06526400069264000FD0E400008B5054BC6
S2144013F01B782BB11920044B98470448044B984758
S21440140008BD00BFC8000020E30E4000F096400034
S214401410A52C40002DE9F743214C224B0B20984742
S214401420DFF894902046204F4FF400310022C84702
S214401430DFF8888020464FF400310122C0471B4E1B
S21440144070234FF40032009720460B21B047184DCA
S21440145020464FF40031A84720464FF48021002212
S214401460C84720464FF480210122C0474FF48022CF
S2144014707023009720460B21B04720464FF480212A
S214401480A8470C4B4FF400621021C3F88020C3F8E5
S214401490802183F80B131A6003B0BDE8F08300BFC9
S2144014A0000E0E40ED114000A1134000B110400068
S2144014B0BB0E400000E100E0350E4000850E4000C7
S2144014C02DE9F04F884B9DB09847884B9847884BFE
S2144014D09847884B9847884B9847884B9847884BFF
S2144014E01870984660B9874B9847874C1D218748A7
S2144014F0A04753218648A047864B9847A1460EE012
S2144015008548864B98471920854B9847FBE7854B7F
S2144015101B784BB9844B1A78002A40F08F80834D55
S2144015202B78002BF6D0F2E7814ADFF884B21368B6
S214401530804F814E814C58461D213360A047384627
S2144015405321A0477E4A98F8004010461B927D499A
S21440155088477D49204388F800008847DFF844C222
S2144015607A4CDCF800A0DBF80000CDF868C0A04755
S214401570CDE90001DBF80400A047CDE90201386858
S214401580A047CDE904017868A047CDE90601704B35
S214401590704F1868A047CDE908016F4B1868A04700
S2144015A0CDE90A01594B1868A047CDE90C01584BC4
S2144015B01868A047CDE90E01684B1868A047CDE9EA
S2144015C01001674B1868A047CDE912011B9A1068B6
S2144015D0A047CDE914015046A047CDE91601396829
S2144015E0604B50469847A0473DA3D3E900235E4C46
S2144015F0A0475E4ACDE918015D4B64215D48984797
S214401600464C5C48A0475C4A136801331360DDF8DB
S21440161068C0DCF800203A60454A116832688A1A89
S2144016203260564A12689342FFF474AF002354481F
S2144016302B70A0471720534B98476BE7524C002619
S2144016401E702378672B05D0742B39D0532B7FF42C
S21440165066AF24E063786F2B7FF461AF01232B7075
S214401660304B4A491E704A4B18684A4B98474A497D
S2144016704A4B98474A4B9847404B18603E4B17207A
S2144016801E60274B9847474A00231360314A1D2166
S2144016901E481360C84753211D48C8473FE7637834
S2144016A0542B7FF43CAFA3784F2B7FF438AFE378CE
S2144016B0502B7FF434AF1720324B2E7098472EE7CE
S2144016C0394B2046642198472378303BDBB2092BC0
S2144016D03FF625AF354B204698472D4B18601EE702
S2144016E07B14AE47E17A943F690C4000CD0C400035
S2144016F08D0940009D0A40001514400079034000C3
S214401700C8000020E9034000E10440004C0A0020E5
S214401710480A002069044000F7964000A52C400087
S214401720E30E4000CC090020CD090020540A0020DA
S214401730C8090020A80B0020500A0020F1074000EE
S214401740580A002029064000ED134000F1204000D2
S214401750780A0020680A00205C0A0020640A0020FC
S2144017606C0A002065264000ED23400000974000AC
S214401770492E4000440B0020740A0020700A0020C6
S214401780F0964000C90E4000B40A002000401C46B7
S214401790CC0000207928400000004843E129400062
S2144017A0052C4000600A0020BD0B4000452C400040
S2144017B02C0B0020AFF300802DE9F04120F00045CF
S2144017C0B5F1A14F044607460DDBB5F1FF4F04DDEA
S2144017D0014600F049FFBDE8F081002840F3DF8075
S2144017E07248BDE8F081724B9D420DDCB5F1445F16
S2144017F058DA704900F038FF4FF07E5101F0F8F9A2
S214401800002840F0CF804DE000F0F6F86A4B0446E2
S2144018109D4228DCA3F5D0039D4213DC014600F030
S21440182023FF4FF07E5100F01DFF4FF080410546EC
S214401830204600F019FF0146284601F0D1F8002660
S214401840044631E04FF07E5100F00CFF4FF07E51E1
S2144018500546204600F008FF0146284601F0C0F83D
S2144018600126044620E0554B9D4214DC4FF07F5144
S21440187000F0F8FE4FF07F510546204600F0FCFF92
S2144018804FF07E5100F0F0FE0146284601F0A8F8E1
S2144018900226044608E02146494801F0A1F80326FE
S2144018A0044601E04FF0FF362146204600F0E4FFB4
S2144018B00146804600F0E0FF4249054600F0DCFF66
S2144018C0414900F0D1FE0146284600F0D5FF3F4989
S2144018D000F0CAFE0146284600F0CEFF3C4900F024
S2144018E0C3FE0146284600F0C7FF3A4900F0BCFE5A
S2144018F00146284600F0C0FF374900F0B5FE0146D5
S214401900404600F0B9FF35498046284600F0B4FF0F
S214401910334900F0A7FE0146284600F0ADFF3149A6
S21440192000F0A0FE0146284600F0A6FF2E4900F033
S21440193099FE0146284600F09FFF2C4900F092FE93
S2144019400146284600F098FF731C01460CD14046DD
S21440195000F08AFE0146204600F08EFF01462046F3
S21440196000F080FEBDE8F081404600F07DFE204D50
S2144019700146204600F080FF05EB8603196900F01B
S21440198071FE214600F06EFE014655F8260000F036
S21440199069FE002F07DA00F10040BDE8F0811548E7
S2144019A0BDE8F0812046BDE8F08100BFDB0FC93FAF
S2144019B0FFFFDF3ECAF24971FFFF973FFFFF1B4024
S2144019C0000080BFD769853C59DA4B3D356B883D72
S2144019D06E2EBA3D2549123EABAAAA3E21A215BD9F
S2144019E06BF16E3D95879D3D388EE33DCDCC4C3EAC
S2144019F044974000DB0FC9BF20F00040704700000E
S214401A0070B58AB0044600F045F81F4E054696F974
S214401A100030013335D0204600F0ECF9002830D0B5
S214401A202046FFF7E9FF4FF07E5101F0E1F840B362
S214401A3001230093154B204601930023089300F0A2
S214401A4057FBCDE90401CDE90201114800F0CCF97D
S214401A5096F90030CDE90601022B03D0684600F027
S214401A60C1F918B901F0F2F821230360089B1BB1B5
S214401A7001F0ECF8089B0360DDE9060100F09EFDEE
S214401A8000E028460AB070BDD000002064974000B1
S214401A90F69640002DE9F04720F00047B7F17E5F0C
S214401AA0054680460AD1984900F0E6FE9749044626
S214401AB0284600F0E1FE014620466BE007DD014681
S214401AC000F0D0FD014600F08BFFBDE8F087B7F18F
S214401AD07C5F63DAB7F1485F0ADA8D4900F0C4FDEF
S214401AE04FF07E5101F084F8002840F00A8155E01E
S214401AF0014600F0C1FE8749044600F0BDFE864917
S214401B0000F0B2FD0146204600F0B6FE834900F0E4
S214401B10A9FD0146204600F0AFFE814900F0A4FD35
S214401B200146204600F0A8FE7E4900F09BFD014697
S214401B30204600F0A1FE7C4900F096FD0146204676
S214401B4000F09AFE79490646204600F095FE784910
S214401B5000F088FD0146204600F08EFE754900F0F4
S214401B6083FD0146204600F087FE734900F07AFD6B
S214401B700146204600F080FE4FF07E5100F074FD96
S214401B800146304600F02CFF0146284600F074FE21
S214401B900146284600F068FDBDE8F0872846FFF776
S214401BA02BFF01464FF07E5000F05CFD4FF07C511D
S214401BB000F062FE5749044600F05EFE564900F0CB
S214401BC053FD0146204600F057FE544900F04AFDBA
S214401BD00146204600F050FE514900F045FD0146C2
S214401BE0204600F049FE4F4900F03CFD01462046A5
S214401BF000F042FE4C4900F037FD0146204600F01A
S214401C003BFE4A498246204600F036FE484900F0F0
S214401C1029FD0146204600F02FFE464900F024FDEF
S214401C200146204600F028FE434900F01BFD0146D1
S214401C30204600F021FE4FF07E5100F015FD814613
S214401C40204600F081F83D4B06469F4214DD49464B
S214401C50504600F0C5FE0146304600F00DFE0146F7
S214401C60304600F001FD014600F0FEFC344900F02D
S214401C70FBFC014624483BE0014620F47F6500F02B
S214401C80F3FC49460746504600F0AAFE0146384651
S214401C9000F0F2FD25F00F0507462946284600F0DD
S214401CA0EBFD0146204600F0DDFC29460446304662
S214401CB000F0DAFC0146204600F092FE014600F0B5
S214401CC0D3FC0146114800F0CDFC0146384600F0F2
S214401CD0C9FC29460446284600F0C6FC0146194879
S214401CE000F0C0FC0146204600F0BCFC014615480A
S214401CF000F0B8FCB8F1000F04DC00F10040BDE88D
S214401D00F0872846BDE8F087DB0FC93F2EBD3BB3C2
S214401D10CAF2497108EF1138047F4F3A4611243D04
S214401D20A80A4E3E90B0A63EABAA2A3E2EC69D3D81
S214401D306133303F2D57014039D119409999793F49
S214401D402EBD3B33DB0F493FF8B520F00043B3F1DF
S214401D50FF4F0446024606D3014600F08DFD21465D
S214401D6000F082FCF8BD002B3BD0002806DA014686
S214401D7000F078FC014600F033FEF8BDB3F5000FE6
S214401D804FEAE05008D20023110202D45200013339
S214401D90FAE7C3F1010318447F38C2F31602C307BB
S214401DA042F4000248BF520000234010520019255A
S214401DB01F464FF080717E18964202DC7718921BC1
S214401DC00B44013D4FEA42024FEA5101F3D112B1B2
S214401DD003F0010213445B1003F17C5303EBC05045
S214401DE0F8BDF8BD0020704700200149704700BF8D
S214401DF00000F87F30F000400DD0A0F50003B3F1AE
S214401E00FE4F0AD3074B421E9A4208D9B0F1FF4311
S214401E1058425841704702207047042070470320BC
S214401E20704700BFFEFF7F0081F0004102E000BF28
S214401E3083F0004330B54FEA41044FEA430594EA45
S214401E40050F08BF90EA020F1FBF54EA000C55EA80
S214401E50020C7FEA645C7FEA655C00F0E2804FEA51
S214401E605454D4EB5555B8BF6D420CDD2C4480EA33
S214401E70020281EA030382EA000083EA010180EA63
S214401E80020281EA0303362D88BF30BD11F0004FB1
S214401E904FEA01314FF4801C4CEA113102D04042E7
S214401EA061EB410113F0004F4FEA03334CEA133322
S214401EB002D0524263EB430394EA050F00F0A7803A
S214401EC0A4F10104D5F1200E0DDB02FA0EFC22FA35
S214401ED005F2801841F1000103FA0EF2801843FA29
S214401EE005F359410EE0A5F120050EF1200E012A1A
S214401EF003FA0EFC28BF4CF0020C43FA05F3C01858
S214401F0051EBE37101F0004507D54FF0000EDCF1D0
S214401F10000C7EEB00006EEB0101B1F5801F1BD379
S214401F20B1F5001F0CD349085FEA30004FEA3C0C7D
S214401F3004F101044FEA445212F5800F80F09A8073
S214401F40BCF1004F08BF5FEA500C50F1000041EB77
S214401F50045141EA050130BD5FEA4C0C404141EB7B
S214401F60010111F4801FA4F10104E9D191F0000FA2
S214401F7004BF01460020B1FA81F308BF2033A3F125
S214401F800B03B3F120020CDA0C3208DD02F1140C1C
S214401F90C2F10C0201FA0CF021FA02F10CE002F157
S214401FA01402D8BFC2F1200C01FA02F120FA0CFC50
S214401FB0DCBF41EA0C019040E41AA2BF01EB045199
S214401FC0294330BD6FEA04041F3C1CDA0C340EDC97
S214401FD004F11404C4F1200220FA04F001FA02F3DA
S214401FE040EA030021FA04F345EA030130BDC4F198
S214401FF00C04C4F1200220FA02F001FA04F340EA8D
S2144020000300294630BD21FA04F0294630BD94F03D
S214402010000F83F4801306BF81F480110134013D24
S2144020204EE77FEA645C18BF7FEA655C29D094EA95
S214402030050F08BF90EA020F05D054EA000C04BF13
S2144020401946104630BD91EA030F1EBF00210020FE
S21440205030BD5FEA545C05D14000494128BF41F09D
S214402060004130BD14F580043CBF01F5801130BD01
S21440207001F0004545F0FE4141F470014FF000008C
S21440208030BD7FEA645C1ABF194610467FEA655C3D
S2144020901CBF0B46024650EA013406BF52EA0335DF
S2144020A091EA030F41F4002130BD00BF90F0000FCD
S2144020B004BF0021704730B54FF4806404F1320409
S2144020C04FF000054FF0000150E700BF90F0000FC2
S2144020D004BF0021704730B54FF4806404F13204E9
S2144020E010F0004548BF40424FF000013EE700BFB9
S2144020F042004FEAE2014FEA31014FEA02701FBF49
S21440210012F07F4393F07F4F81F06051704792F01A
S214402110000F14BF93F07F4F704730B54FF4607494
S21440212001F0004521F0004120E700BF50EA0102DF
S21440213008BF704730B54FF000050AE050EA01028C
S21440214008BF704730B511F0004502D5404261EBFC
S21440215041014FF4806404F132045FEA915C3FF43D
S214402160DCAE4FF003025FEADC0C18BF03325FEAD6
S214402170DC0C18BF033202EBDC02C2F1200300FA8B
S21440218003FC20FA02F001FA03FE40EA0E0021FAB0
S21440219002F11444C1E600BF70B54FF0FF0C4CF49A
S2144021A0E06C1CEA11541DBF1CEA135594EA0C0F50
S2144021B095EA0C0F00F0DEF82C4481EA030621EA8B
S2144021C04C5123EA4C5350EA013518BF52EA0335C6
S2144021D041F4801143F4801338D0A0FB02CE4FF078
S2144021E00005E1FB02E506F00042E0FB03E54FF0A8
S2144021F00006E1FB03569CF0000F18BF4EF0010EA0
S214402200A4F1FF04B6F5007F64F5407404D25FEA9B
S2144022104E0E6D4146EB060642EAC62141EA55514E
S2144022204FEAC52040EA5E504FEACE2EB4F1FD0C90
S21440223088BFBCF5E06F1ED8BEF1004F08BF5FEA0E
S214402240500E50F1000041EB045170BD06F00046C0
S21440225046EA010140EA020081EA0301B4EB5C046D
S214402260C2BFD4EB0C0541EA045170BD41F4801165
S2144022704FF0000E013C00F3AB8014F1360FDEBF8A
S214402280002001F0004170BDC4F10004203C35DA66
S2144022900C341BDC04F11404C4F1200500FA05F3E9
S2144022A020FA04F001FA05F240EA020001F000428A
S2144022B021F0004110EBD37021FA04F642EB060100
S2144022C05EEA430E08BF20EAD37070BDC4F10C042A
S2144022D0C4F1200500FA04F320FA05F001FA04F2EE
S2144022E040EA020001F0004110EBD37041F10001DA
S2144022F05EEA430E08BF20EAD37070BDC4F12005E5
S21440230000FA05F24EEA020E20FA04F301FA05F24C
S21440231043EA020321FA04F001F0004121FA04F2F4
S21440232020EA020000EBD3705EEA430E08BF20EAC4
S214402330D37070BD94F0000F0FD101F000464000FE
S21440234041EB010111F4801F08BF013CF7D041EA80
S214402350060195F0000F18BF704703F00046520084
S21440236043EB030313F4801F08BF013DF7D043EA55
S2144023700603704794EA0C0F0CEA135518BF95EA0B
S2144023800C0F0CD050EA410618BF52EA4306D1D192
S21440239081EA030101F000414FF0000070BD50EAB1
S2144023A0410606BF1046194652EA430619D094EA3B
S2144023B00C0F02D150EA013613D195EA0C0F05D125
S2144023C052EA03361CBF104619460AD181EA030179
S2144023D001F0004141F0FE4141F470014FF0000031
S2144023E070BD41F0FE4141F4780170BD70B54FF0CC
S2144023F0FF0C4CF4E06C1CEA11541DBF1CEA13554C
S21440240094EA0C0F95EA0C0F00F0A7F8A4EB05042D
S21440241081EA030E52EA03354FEA013100F0888024
S2144024204FEA03334FF0805545EA131343EA1263ED
S2144024304FEA022245EA111545EA10654FEA0026A2
S2144024400EF000419D4208BF964244F1FD0404F55B
S214402450407402D25B084FEA3202B61A65EB0305B7
S2144024605B084FEA32024FF480104FF4002CB6EB74
S214402470020E75EB030E22BFB61A754640EA0C00F4
S2144024805B084FEA3202B6EB020E75EB030E22BF34
S214402490B61A754640EA5C005B084FEA3202B6EB75
S2144024A0020E75EB030E22BFB61A754640EA9C0034
S2144024B05B084FEA3202B6EB020E75EB030E22BF04
S2144024C0B61A754640EADC0055EA060E18D04FEAC2
S2144024D0051545EA16754FEA06164FEAC30343EA62
S2144024E052734FEAC2025FEA1C1CC0D111F4801F2F
S2144024F00BD141EA00014FF000004FF0004CB6E728
S21440250011F4801F04BF01430020B4F1FD0C88BFC6
S214402510BCF5E06F3FF6AFAEB5EB030C04BFB6EBD1
S214402520020C5FEA500C50F1000041EB045170BDC4
S2144025300EF0004E4EEA113114EB5C04C2BFD4EBF1
S2144025400C0541EA045170BD41F480114FF0000E75
S214402550013C90E645EA060E8DE60CEA135594EAF1
S2144025600C0F08BF95EA0C0F3FF43BAF94EA0C0FF4
S2144025700AD150EA01347FF434AF95EA0C0F7FF469
S21440258025AF104619462CE795EA0C0F06D152EABD
S21440259003353FF4FDAE1046194622E750EA4106A1
S2144025A018BF52EA43067FF4C5AE50EA41047FF4B2
S2144025B00DAF52EA43057FF4EBAE12E74FEA410215
S2144025C0B2F1E04324BFB3F5001CDCF1FE5C0DD94C
S2144025D001F0004C4FEAC0024CEA5070B2F1004F96
S2144025E040EB830008BF20F00100704711F0804F99
S2144025F021D113F13872BCBF01F00040704741F45E
S21440260080114FEA5252C2F11802C2F1200C10FA61
S2144026100CF320FA02F018BF40F001004FEAC12345
S2144026204FEAD32303FA0CFC40EA0C0023FA02F3E9
S2144026304FEA4303CCE77FEA625307D150EA0133BF
S2144026401EBF4FF0FE4040F44000704701F000408F
S21440265040F0FE4040F40000704700BF80F000406D
S21440266002E000BF81F0004142001FBF5FEA410325
S21440267092EA030F7FEA226C7FEA236C6AD04FEA25
S2144026801262D2EB1363C1BFD2184140484041406A
S214402690B8BF5B42192B88BF704710F0004F40F41C
S2144026A0000020F07F4018BF404211F0004F41F438
S2144026B0000121F07F4118BF494292EA030F3FD004
S2144026C0A2F1010241FA03FC10EB0C00C3F1200317
S2144026D001FA03F100F0004302D5494260EB4000A6
S2144026E0B0F5000F13D3B0F1807F06D340084FEA11
S2144026F0310102F10102FE2A51D2B1F1004F40EB06
S214402700C25008BF20F0010040EA0300704749006D
S21440271040EB000010F4000FA2F10102EDD1B0FA38
S21440272080FCACF1080CB2EB0C0200FA0CF0AABF2D
S21440273000EBC25052421843BCBFD04018437047CB
S21440274092F0000F81F4000106BF80F400000132D1
S214402750013BB5E74FEA41037FEA226C18BF7FEAA8
S214402760236C21D092EA030F04D092F0000F08BFEA
S2144027700846704790EA010F1CBF0020704712F0D1
S2144027807F4F04D1400028BF40F00040704712F110
S21440279000723CBF00F50000704700F0004343F075
S2144027A0FE4040F4000070477FEA226216BF0846AB
S2144027B07FEA23630146420206BF5FEA412390EA6E
S2144027C0010F40F4800070474FF0000304E000BF64
S2144027D010F0004348BF40425FEA000C08BF704715
S2144027E043F0964301464FF000001CE050EA0102D9
S2144027F008BF70474FF000030AE000BF50EA0102EE
S21440280008BF704711F0004302D5404261EB4101DA
S2144028105FEA010C02BF84460146002043F0B643FF
S21440282008BFA3F18053A3F50003BCFA8CF2083A24
S214402830A3EBC25310DB01FA02FC634400FA02FC2D
S214402840C2F12002BCF1004F20FA02F243EB020034
S21440285008BF20F00100704702F1200201FA02FC96
S214402860C2F1200250EA4C0021FA02F243EB020089
S21440287008BF20EADC7070474FF0FF0C1CEAD052CD
S2144028801EBF1CEAD15392EA0C0F93EA0C0F6FD08E
S2144028901A4480EA010C400218BF5FEA41211ED06C
S2144028A04FF0006343EA501043EA5111A0FB013158
S2144028B00CF00040B1F5000F3EBF490041EAD3712D
S2144028C05B0040EA010062F17F02FD2A1DD8B3F1A9
S2144028D0004F40EBC25008BF20F00100704790F018
S2144028E0000F0CF0004C08BF49024CEA502040EA6A
S2144028F051207F3AC2BFD2F1FF0340EAC250704730
S21440290040F400004FF00003013A5DDC12F1190F6D
S214402910DCBF00F000407047C2F10002410021FADF
S21440292002F1C2F1200200FA02FC5FEA310040F1F7
S214402930000053EA4C0308BF20EADC70704792F070
S214402940000F00F0004C02BF400010F4000F013AA8
S214402950F9D040EA0C0093F0000F01F0004C02BFA3
S214402960490011F4000F013BF9D041EA0C018FE712
S2144029700CEAD15392EA0C0F18BF93EA0C0F0AD018
S21440298030F0004C18BF31F0004CD8D180EA01003E
S21440299000F00040704790F0000F17BF90F0004FD7
S2144029A0084691F0000F91F0004F14D092EA0C0FB9
S2144029B001D142020FD193EA0C0F03D14B0218BF4C
S2144029C0084608D180EA010000F0004040F0FE4092
S2144029D040F40000704740F0FE4040F4400070472E
S2144029E04FF0FF0C1CEAD0521EBF1CEAD15392EAAD
S2144029F00C0F93EA0C0F69D0A2EB030280EA010C9D
S214402A0049024FEA402037D04FF0805343EA111135
S214402A1043EA10130CF000408B4238BF5B0042F193
S214402A207D024FF4000C8B4224BF5B1A40EA0C0038
S214402A30B3EB510F24BFA3EB510340EA5C00B3EB6A
S214402A40910F24BFA3EB910340EA9C00B3EBD10F58
S214402A5024BFA3EBD10340EADC001B0118BF5FEAAA
S214402A601C1CE0D1FD2A3FF650AF8B4240EBC250D3
S214402A7008BF20F0010070470CF0004C4CEA502094
S214402A807F32C2BFD2F1FF0340EAC250704740F4E3
S214402A9000004FF00003013A37E792F0000F00F0D5
S214402AA0004C02BF400010F4000F013AF9D040EA53
S214402AB00C0093F0000F01F0004C02BF490011F4E7
S214402AC0000F013BF9D041EA0C0195E70CEAD153DF
S214402AD092EA0C0F08D142027FF47DAF93EA0C0FC6
S214402AE07FF470AF084676E793EA0C0F04D14B02AA
S214402AF03FF44CAF08466EE730F0004C18BF31F05C
S214402B00004CCAD130F000427FF45CAF31F0004355
S214402B107FF43CAF5FE700BF4FF0FF3C06E000BFEE
S214402B204FF0010C02E000BF4FF0010C4DF804CD11
S214402B304FEA40024FEA41037FEA226C18BF7FEA21
S214402B40236C11D001B052EA530C18BF90EA010F23
S214402B5058BFB2EB030088BFC81738BF6FEAE170B2
S214402B6018BF40F0010070477FEA226C02D15FEA4E
S214402B70402C05D17FEA236CE4D15FEA412CE1D0BA
S214402B805DF8040B704700BF844608466146FFE781
S214402B900FB5FFF7C9FF002848BF10F1000F0FBD63
S214402BA04DF808EDFFF7F4FF0CBF012000205DF85C
S214402BB008FB00BF4DF808EDFFF7EAFF34BF0120E1
S214402BC000205DF808FB00BF4DF808EDFFF7E0FF7A
S214402BD094BF012000205DF808FB00BF4DF808EDCB
S214402BE0FFF7D2FF94BF012000205DF808FB00BF2E
S214402BF04DF808EDFFF7C8FF34BF012000205DF810
S214402C0008FB00BF42000ED2B2F1FE4F0BD34FF08E
S214402C109E03B3EB126209D44FEA002343F000430D
S214402C2023FA02F070474FF00000704712F1610F30
S214402C3001D1420202D14FF0FF3070474FF0000002
S214402C40704700BF002100F08DBF0000014B1868A0
S214402C50704700BFD800002070B50E4B0E4D0024C4
S214402C60ED1AAD101E46AC4204D056F824209047CC
S214402C700134F8E706F090FE084D094B0024ED1AA3
S214402C80AD101E46AC4204D056F82420904701347E
S214402C90F8E770BDA4994000A4994000AC99400064
S214402CA0A49940000FB407B5064904AB086853F82A
S214402CB0042B8168019301F03AFF03B05DF804EB02
S214402CC004B07047D80000200EB403B503AB53F8E9
S214402CD0042B8168019301F02AFF02B05DF804EBF3
S214402CE003B0704702440346934202D003F8011BE8
S214402CF0FAE7704700290CBF022200224FF4806397
S214402D0000F000B82DE9F0411D46364B04461F68DA
S214402D100E46904627B1BB6B13B9384603F0D8FA37
S214402D20B8F1020F59D8002D57DB3846214603F03C
S214402D3086FA00236360A361A3891B0603D5384641
S214402D40216903F05FFCA389B8F1020F23F08303E7
S214402D50A38112D036BB002D08BF4FF480652846AD
S214402D6004F054FA0646C8B94FF4806004F04EFAB0
S214402D70064688B94FF0FF3000E00020A38943F0B4
S214402D800203A3810023A36004F14303236023616D
S214402D9001236361BDE8F0814FF48065A38943F069
S214402DA08003A381B8F1010F05D1A38943F0010345
S214402DB0A3816B42A3610C4BFB63A389266003F09F
S214402DC0080080B22661656148B113F0030F18BF52
S214402DD00025A5600020BDE8F0814FF0FF30BDE83B
S214402DE0F08100BFD80000208D62400008B430B5A6
S214402DF0141E9CB0054604DA8B2303604FF0FF3068
S214402E001DE04FF40273ADF8143014BF04F1FF33E5
S214402E102346049307934FF6FF7302910691ADF84D
S214402E20163002A920AB1F9A019300F0B5FE431C52
S214402E30BCBF8B232B6014B1029B00221A701CB0BF
S214402E40BDE8304001B070470CB430B5164B0C1E90
S214402E509DB01D6804DA8B232B604FF0FF301EE0D8
S214402E604FF40273ADF8143014BF04F1FF33234619
S214402E70049307934FF6FF7302900690ADF8163012
S214402E80284621AB02A9209A019300F085FE431CF8
S214402E90BCBF8B232B6014B1029B00221A701DB05E
S214402EA0BDE8304002B07047D80000200000000067
S214402EB030B5026811F8015B541C5DB15378224668
S214402EC0A3F14104E4B2192C98BF2033AB42F1D0B1
S214402ED0002030BD0460012030BD2DE9F0410D4694
S214402EE0904604F086FE06460F46B8F1000F0FD017
S214402EF0C5F30A53C3F16B03002B09DD1C0504F12F
S214402F007F5303F540130022FFF746F9BDE8F081F2
S214402F1030463946BDE8F0812DE9F04F00239FB09A
S214402F208146049115921A934FF0000A4FF0000B19
S214402F301991199A13780D2B05D8092B14D2002B0A
S214402F4000F0B38113E02B2B07D02D2B02D0202B83
S214402F500DD109E00126099601E000270997531C88
S214402F60199353782BB9A0E101321992E1E7002674
S214402F700996199C2378302B5AD16378582B01D068
S214402F80782B49D1099F1AAB00930197484619A957
S214402F909D4A1BAB03F0C1FD10F00706054600F046
S214402FA0AF85062E02D10134199480E11A9A3AB1BF
S214402FB01CA8352104F022FF48461A9904F098FBD5
S214402FC01B9A062E21D8DFE806F0040D08171C0DC4
S214402FD004004FF0000BDA4617E0DDF870A0DDF88D
S214402FE074B012E01D9B02F2334223F48013DDF8E6
S214402FF070A043EA025B08E0DFF810B24FF0000A28
S21440300003E06FF0004B4FF0FF3A2B0740F1788516
S2144030104BF0004B00F074BD199B5A1C19925B781C
S214403020302BF9D0002B00F06B850123059301E08F
S21440303000260596199F4FF000080797CDF80C809C
S2144030404446199E3578A5F13003DAB2092A10D8DD
S214403050082CD8BF039F4FF00A02D8BF02FB0737A1
S21440306006F10106D4BF039702FB083801341996CF
S214403070E7E7484604F054F80768484604F050F836
S214403080006805F028F939460246304605F02BF927
S214403090064628B100232A46194625460A935FE08D
S2144030A04846199D04F03CF8006805F014F92B18C2
S2144030B019932A5C002C45D12346302A05D1199A0B
S2144030C00133511C19915278F7E7A2F131010829D2
S2144030D042D8199E1946002307961D46303A03F1FA
S2144030E0010029D001446E1C771B874210DA771EF8
S2144030F0082F06DC039F4FF00A0C0CFB07F70397DC
S21440310004E0102EDCBF0A2707FB08F80136EBE781
S214403110002BACBFEB182B1C082B03F1010505DC7C
S214403120039E0A2303FB0626039604E0102DDCBF0D
S2144031300A2303FB08280020199B5A1C19925A7828
S214403140034602E0254633463146A2F130000928C0
S214403150C4D901270A9703E00025012029460A9092
S21440316022F02006452E55D125B91BB9059E002EC6
S21440317000F09B80199F7A1C19927A7804972B2A24
S21440318004D02D2A05D000260F9608E000200F9088
S21440319001E001270F97049EB21C1992B278A2F163
S2144031A03007092F34D8302A04D1199A571C19975A
S2144031B05278F8E7A2F13107082F2BD81998A2F1D8
S2144031C030070690199A561C199652780E96A2F118
S2144031D03000C6B2092E05D84FF00A0C0CFB072764
S2144031E0303FEFE70E98069EC6EB000CBCF1080F8A
S2144031F044F61F6C02DC6745B8BFBC460F9F5FB104
S214403200CCF1000C08E000BF789740000000F07F4B
S214403210049E19964FF0000C002D4CD1002B40F028
S2144032206F84059F002F40F06B840A9800283CD19D
S2144032304E2A1BD002DC492A05D036E0692A02D045
S2144032406E2A13D031E019A8AC49FFF731FE60B3BF
S214403250199B19A8013BAA491993FFF729FE10B9F3
S214403260199B01331993DFF8B4B21AE019A8A5499F
S214403270FFF71EFEC8B1199B1B78282B0FD119A843
S214403280A1491CAA03F08BFE052808D11D9BDDF83A
S21440329070A043F0FF4B4BF4E00B00F031BCDFF87E
S2144032A080B24FF0000A00F02BBC049B1993002616
S2144032B0099600F025BCC1EB0C010398102DB4BF55
S2144032C0AC464FF0100CCDF808C00691FEF7EEFE67
S2144032D0DDF808C0002C08BF2C46BCF1090F82461A
S2144032E08B4615DD894B03EBCC0353E91223FEF7DF
S2144032F053FF064640460F46FEF7D8FE02460B46AC
S21440330030463946FEF796FDDDF808C082468B46C5
S2144033100F2D37DC069F002F00F0F28323DD162F9B
S21440332007DC7A49524601EBC701D1E900015B460A
S21440333014E0069EC5F125039E4223DC734CC5F17E
S2144033400F0504EBC503751BD3E9000152465B46E7
S21440335004EBC504FEF720FFD4E90023FEF71CFF6C
S21440336082468B46CCE3069F16370BDBDDF818C04B
S214403370664F5046A7EBCC075946D7E90023FFF7E0
S21440338035F8EDE7069ECCEB0508B044B8F1000FE3
S21440339061DD18F00F030AD05C4A02EBC303D3E9A1
S2144033A0000152465B46FEF7F7FE82468B4638F0F3
S2144033B00F0800F0C880B8F59A7F13DD4FF000087C
S2144033C0CDF80C80CDF81C80CDF81480079F2223C2
S2144033D0C9F80030DFF844B14FF0000A002F40F043
S2144033E07B838DE34FEA2818504659460026B8F1AD
S2144033F0010F0DDD18F0010F06D0454B03EBC60359
S214403400D3E90023FEF7C8FE01364FEA6808EEE728
S2144034103F4B8246A1F1547B03EBC60652465B46C1
S214403420D6E90001FEF7B8FE21F000438B461B0D9F
S21440343038491B058B428246C0D8A1F580118B4285
S21440344006D90026DFF8DCB04FF0FF3A04967CE061
S2144034500BF1547B77E076D0C8F1000818F00F03E4
S2144034600AD02A4A504602EBC3035946D3E9002302
S214403470FEF7BCFF82468B465FEA281863D0B8F159
S2144034801F0F08DD4FF00008CDF80C80CDF81C80EB
S214403490CDF814801EE118F0100F14BF6A260026DF
S2144034A004961D4E50465946B8F1000F0ADD18F0F6
S2144034B0010F03D0D6E90023FEF76EFE4FEA6808F8
S2144034C00836F1E7049F82468B469FB3C1F30A5302
S2144034D0C3F16B03002B2DDD1F2B25DD342B4FF066
S2144034E0000A02DD4FF05C7B24E0203B4FF0FF31CA
S2144034F001FA03F303EA0B0B1CE000BF679740009A
S2144035003B984000F19740008C9740006098400000
S214403510509940000000A07CA09740000000F07F3B
S2144035200000F8FFFFFFEF7F4FF0FF3202FA03F391
S21440353003EA000A504659460022002305F07EFD65
S21440354000289FD101E000270497039E4846009636
S214403550079922462B4604F00EF9079000283FF4C0
S2144035602DAF069F4FF000087B42002FA8BF0023D8
S2144035700E93CDF80C80079E4846716804F092F88A
S214403580059000283FF422AF326906F10C01023262
S21440359092000C3004F060F81BAB00931CAB019318
S2144035A0484652465B46CDE90AAB04F096FB1A9075
S2144035B000283FF40BAF4846012104F06BF9039016
S2144035C000283FF403AF1B9BDDF818C0002B2CEA05
S2144035D0EC77C0F28B800E9C3A461C44049E1C9DA1
S2144035E09B1B59196FF47F739942C5F1360580F2DB
S2144035F087805B1A1F2BC3EB05054FF0010078DC74
S2144036009840002314900F93049866191544A642D8
S214403610B4BF334623460544AB42A8BF2B46002BD7
S21440362002DDF61AED1AE41A0E9900296FD1002E23
S21440363000F38780002F40F08E80002D00F39580A9
S214403640002C00F39C8048461A99059A04F072FABA
S214403650804600283FF4BAAEC6680023C36003998C
S214403660089604F04AFA002880F29880002E40F02F
S2144036702082BAF1000F40F01C82CBF31303002BDC
S21440368040F017822BF000431B0D1B05B3F1D66F9D
S21440369040F20F82D8F81430002B7AD041460122EF
S2144036A0484604F0D7F90399804604F026FA0028E5
S2144036B040F3FF812BF00043049F1B0D1B05002F9A
S2144036C000F09C80B3F1D66F00F29880B3F15C7F37
S2144036D000F2F181079E22234FF0000A4FF0000BC4
S2144036E0C9F80030002E40F0F78109E2FA1A0E9C25
S2144036F074E7844E1490761A00FA06F60F9683E71F
S21440370000264FF0010C0F96CDF850C07CE7484697
S21440371003990E9A04F05FF9039000283FF456AEE2
S214403720484603991A9A04F0BEF8034600283FF428
S2144037304DAE48461A99029303F0DAFF029B1A935D
S21440374075E748461A99324604F084F91A900028DC
S2144037507FF470AF3AE6484605993A4604F03BF99E
S214403760059000287FF469AF30E6484605992A461A
S21440377004F070F9059000287FF462AF26E64846CC
S2144037800399224604F066F9039000287FF45BAF65
S2144037901CE6D8F81030012B80DC8AE163D1089F04
S2144037A0CBF313032FB358495A468B422FD1049E6E
S2144037B051466EB1554B0BEA0303B3F1D46F07D8AD
S2144037C01B0DC3F16B034FF0FF3000FA03F301E02B
S2144037D04FF0FF3399421AD14D4B9A4202D10131F4
S2144037E03FF4F4AD494B4FF0000A134003F5801BFD
S2144037F05FE163B9BAF1000F09D15BE7A3F5801327
S2144038006FEA135B6FEA0B5B4FF0FF3A51E10F9B99
S21440381013B113EA0B0F02E0149E16EA0A0F00F0EB
S2144038204881089F50465946049A57B1FFF755FBC2
S21440383002460B46DDE90A01FEF7FCFA82468B4655
S21440384037E1FFF74AFB02460B46DDE90A01FEF781
S214403850EFFA0022002382468B4605F0EFFB002855
S2144038607FF438AF25E14046039904F088FA0022F9
S2144038704FF0804304460D4605F0F4FB002832D056
S214403880089E26B1234F002634463D464CE0BAF10A
S214403890000F03D1CBF313033BB90BE0BAF1010F92
S2144038A003D1BBF1000F3FF415AF00261A4F00249A
S2144038B0184D39E0204629460022164B05F0C8FB35
S2144038C040B9204629460022144BFEF765FC0446C4
S2144038D00D4601E0114D002405F100471694179758
S2144038E0DDE9166720E02046294600220B4BFEF70E
S2144038F053FC089E04460D4696B901F100471090C9
S21440390011970FE0E3FBFFFFFFFF0F000000F07F83
S214403910FFFFEF7F0000F03F0000F0BF0000E03FF9
S214403920CDE91045DDE910672BF0004C4FEA1C5CF2
S214403930834B4FEA0C5C9C4531D1DDE90A01ABF183
S214403940547BCDE90C0150465946CDF808C004F0EA
S21440395050F902460B4630463946FEF71DFC0246F5
S2144039600B4650465946FEF765FA21F000431B0DBC
S214403970744A1B0593428246DDF808C00CD9724B48
S2144039800D99994203D10C9A01323FF41FADDFF8EE
S214403990B8B14FF0FF3A7BE001F1547B42E0049B24
S2144039A053B3BCF1D46F27D85DA3D3E90023204698
S2144039B02946CDF808C005F055FBDDF808C0B8B17B
S2144039C02946204605F094FB002808BF0120FEF754
S2144039D06DFB089E04460D46DDF808C026B901F189
S2144039E000471290139701E0CDE91245DDE91267D2
S2144039F007F1D663CCEB0307DDE90A01CDF808C032
S214403A0004F0F7F802460B4630463946FEF7C4FB4C
S214403A1002460B46DDE90A01FEF70CFADDF808C05F
S214403A2082468B46049F002F32D12BF000431B0D5D
S214403A301B059C452CD12946204605F031FBFEF758
S214403A4045FB02460B4620462946FEF7F1F9089FFD
S214403A5004460D462FB9BAF1000F02D1CBF3130638
S214403A6086B12046294630A3D3E9002305F0F0FA74
S214403A70002831D1204629462DA3D3E9002305F05E
S214403A8005FB04E02CA3D3E9002305F0E1FA18BBBC
S214403A9048461A9903F02CFE4846059903F028FE3E
S214403AA04846039903F024FE4846414603F020FE6C
S214403AB061E5049E86B1254F00200C900D97504638
S214403AC05946DDE90C23FEF767FB82468B4619B95B
S214403AD010B92223C9F8003048461A9903F008FE68
S214403AE04846059903F004FE4846039903F000FE55
S214403AF04846079903F0FCFD4846414603F0F8FD6A
S214403B00159E0EB1199B3360099F1FB150460BF1AD
S214403B10004101E0504659461FB0BDE8F08F00BF57
S214403B200000C0FFFFFFDF419535A094FFFFDF3F59
S214403B3035E5AF350000E03F9535A094FFFFCF3F19
S214403B400000E07FFFFF9F7CFFFFEF7F00005039C3
S214403B500A460349034608681946FFF7DDB900BF21
S214403B60D80000200A460A4938B503460868194670
S214403B70FFF7D2F904460D4604F028FB18B9BDE815
S214403B80384004F055BB20462946FEF717FD38BDA1
S214403B90D8000020AFF300802DE9F04FC3B08B462D
S214403BA098460B92824603F0BBFA0068189004F0E1
S214403BB092FBBBF80C301090190615D5DBF8103088
S214403BC093B95046402103F031FBCBF80000CBF8C8
S214403BD0100030B90C23CAF800304FF0FF3000F028
S214403BE06EBF4023CBF8143000240025CDE90C45A9
S214403BF0002332AE25962793269309931B931A9358
S214403C000F930B9B1C4613F8012B1AB90B98251AD9
S214403C1003D11BE0252AF5D1F8E7279B0B992B44C7
S214403C202793269B86E822000133072B269301DC48
S214403C30083608E05046594625AA04F06BFB002893
S214403C4040F0358732AE0F9A2A440F922378002BE5
S214403C5000F02687002301348DF877304FF0FF3987
S214403C600E931F46651C24780B950894089CA4F177
S214403C702002582A00F28583DFE812F06D008303A5
S214403C8083037100830383038303830383038303D4
S214403C905B005900830377007A0083039F00A200ED
S214403CA0A200A200A200A200A200A200A200A200BF
S214403CB0830383038303830383038303830383038F
S214403CC083038303D300FE008303FE008303830342
S214403CD083038303B600830383036B028303830358
S214403CE0830383038303BB02830383036800830346
S214403CF0830383038303830383038303830383034F
S214403D008303C9006500FE00FE00FE00B9006500A2
S214403D1083038303BC0083034C026D028C02C600FF
S214403D2083039E028303BD0283038303D8022B23AF
S214403D3007E0D8F8005008F10402002D0E9511DB7C
S214403D4090460B9C8EE78DF877306EE0AB4C8DF846
S214403D5077301B946EE2002B08BF2023F1E747F034
S214403D600107EEE76D420E95904647F00407E8E7F8
S214403D700B9C2578621C2A2D089502D04FF000092E
S214403D800BE0D8F8009008F10401B9F1000F88461E
S214403D900B92D6DA4FF0FF39D3E7089DA5F13001F4
S214403DA0092906D812F8014B0A2000FB0919089485
S214403DB0F3E749EAE9790B9258E747F08007C0E70E
S214403DC000240E94089D0E9CA5F130020A2101FBAA
S214403DD004240B9A0E9412F8015BA5F130010929D0
S214403DE00895E8D80B92EDE747F00807A9E747F0B3
S214403DF04007A6E70B9C22786C2A02D101340B942C
S214403E0002E047F010079CE747F0200799E7D8F80C
S214403E10003000258DF8A0308DF8775008F1040862
S214403E20BAE28DF8773047F01007BA0608D508F1A1
S214403E30070828F0070303F10808D3E900450FE018
S214403E4017F0100F08F1040302D0D8F8004005E040
S214403E50D8F8004017F0400F18BF24B2E517984630
S214403E60002C75F1000180F210822D23644265EB30
S214403E7045058DF8773008E2089C08F107088DF86C
S214403E8077300A9728F007031194D3E90045CDE927
S214403E900C45DDE90C0103F1080804F097F9012808
S214403EA0DDE90C0114D10022002305F0D1F810B151
S214403EB02D238DF87730089D514B524A27F08007C6
S214403EC0472DD8BF1A4607924FF0030900256AE2ED
S214403ED004F07CF958B94C4B4C4A089C27F08007B4
S214403EE0472CD8BF1A4607924FF003095AE2B9F159
S214403EF0FF3F0AD0089D25F02003472B07D1B9F194
S214403F00000F08BF4FF0010901E04FF00609DDE958
S214403F100C23002B47F4807708DA0D990C9801F1B2
S214403F2000412D2412901391199405E0DDE90C45CB
S214403F30CDE9124500251995089D25F02004462C0C
S214403F4004D0452C05D109F1010503E04D46032375
S214403F5001E04D4602238DE828001FAB029320ABBC
S214403F60039323AB04935046DDE9122301F02BFB69
S214403F70472C07900AD10A98C30707D4239B079D6E
S214403F80472CC5EB0303099342D12DE0DDF81CC056
S214403F90462CAC4413D107980378302B0DD1DDE97D
S214403FA0120100220023CDF818C005F047F8DDF8CE
S214403FB018C010B9C5F101051F951F9B9C44DDE94B
S214403FC0120100220023CDF818C005F037F8DDF8BE
S214403FD018C008B1CDF88CC0239B6345CED25A1C7E
S214403FE0239230221A70F7E71F9BDC1C01DB4B45FF
S214403FF06EDD089C023C08940DE000BFF49740003C
S214404000E897400066974000EC974000F0974000E5
S214404010089D652D43DC1F9B089C013B002B1F938E
S214404020BABF5B422D222B22092B8DF884408DF897
S21440403085201DDD0DF192020A2093FBF0F100FB76
S2144040401133092903F13003144602F801390B46AF
S214404050F2DC01F1300304F8013D0DF186030DF169
S214404060930294420BD214F8012B03F8012BF6E787
S214404070302213448DF887308DF8862022AB099D78
S21440408021AA9A1A9146012D1A92A94403DC0A9D48
S21440409015F0010437D009F10109002433E0089CEB
S2144040A0662C15D11F9B002B09DDB9F1000F02D1FC
S2144040B00A9DE80723D509F101094B441FE0B9F1F1
S2144040C0000F02D10A9CE10715D509F1020316E05C
S2144040D01F9B099DAB4204DB0A9CE2070DD50133CA
S2144040E006E0002B099CD4BFC3F1020301232344FE
S2144040F06725119503E0012301E067241194119D83
S2144041001F9C08959946199D15B12D238DF877303B
S214404110002549E117F0200F8DF8773008F10401AB
S21440412008D00F9CD8F80000E51722462B46C0E979
S21440413000230CE0FB0606D47D0604D5D8F80030F4
S2144041400F9C1C8003E0D8F800300F9D1D60884609
S21440415057E547F0100717F0200309D008F1070885
S21440416028F0070303F10808D3E90045002388E058
S21440417017F0100108F1040207D117F0400304D0ED
S214404180B8F8004000259046F0E7D8F800400025F3
S214404190904676E0A94830237822D8F800408DF83B
S2144041A07830002547F002078DF8792008F104089A
S2144041B01B900223089264E0434600251B68A945ED
S2144041C0079308F104088DF877500DDB184629460A
S2144041D04A4603F033FA002800F0E480079C001BB0
S2144041E04845B8BF8146DEE0079804F074F881463B
S2144041F0D9E047F01007BC0608D508F1070828F0B4
S214404200070303F10808D3E900450DE017F0100F47
S21440421008F1040304D1780602D5B8F8004001E05E
S214404220D8F800400025984601232AE0834D8DF8B3
S21440423077301B95B90608D508F1070828F007031C
S21440424003F10808D3E900450DE017F0100F08F118
S214404250040304D17A0602D5B8F8004001E0D8F845
S214404260004000259846FB070AD554EA050007D0CB
S214404270089930238DF878308DF8791047F002078A
S214404280022300228DF8772000E00123B9F1000FC9
S214404290A8BF27F0800754EA050202D1B9F1000F03
S2144042A05AD0012B1FD0022B0DF1C70341D0E10895
S2144042B041EA4570E90804F007021490159130323F
S2144042C0DDE9144554EA050007931A7003F1FF33FD
S2144042D0EDD1F80707994CD5302A4AD007933023BA
S2144042E001F8013C45E0002D08BF0A2C05D23034C9
S2144042F08DF8C7400DF1C7043AE00DF1C7000A90AB
S2144043000A99204607910A222946002304F010FF06
S2144043100A9B303203F801290A93204629460A228E
S214404320002304F005FF04460D4654EA0500E7D195
S2144043301FE01B9904F00F028A5C079303F80129DB
S214404340220942EA0570290916901791DDE91645BB
S21440435054EA0502EDD10CE033B9FB0707D542AC71
S214404360302304F8413D03E032AD079501E032AC1E
S2144043700794079C4D460DF1C809C4EB0909002473
S21440438012E0089D8DF87730002D00F089838DF877
S214404390A05000258DF8775028A84FF001092C46EC
S2144043A0079001E005462C469DF87730A945ACBFFE
S2144043B0494629460A910BB101310A9117F002038A
S2144043C0119302D00A9802300A9017F0840319938A
S2144043D041D10E980A99C1EB000CBCF1000F3ADDB2
S2144043E0174BBCF1100F33601BDD10237360279B07
S2144043F010332793269B0133072B269301DC083680
S2144044000CE05046594625AACDF818C003F082FF66
S214404410DDF818C0002840F04A8332AEACF1100CEC
S214404420DEE7279BC6F804C063442793269B0133E8
S214404430072B269306DC08360DE000BF05984000A3
S214404440C89740005046594625AA03F063FF002807
S21440445040F02D8332AE9DF87730BBB10DF1770337
S214404460336001237360279B01332793269B0133D8
S214404470072B269301DC083608E05046594625AA05
S21440448003F048FF002840F0128332AE119BB3B1D0
S2144044901EAB336002237360279B02332793269B11
S2144044A00133072B269301DC083608E05046594670
S2144044B025AA03F02FFF002840F0F98232AE199B60
S2144044C0802B3CD10E980A99C1EB000CBCF1000F32
S2144044D035DD9C4BBCF1100F33601BDD1023736041
S2144044E0279B10332793269B0133072B269301DC0B
S2144044F008360CE05046594625AACDF818C003F0B9
S21440450009FFDDF818C0002840F0D18232AEACF189
S214404510100CDEE7279BC6F804C063442793269B0F
S2144045200133072B269301DC083608E050465946EF
S21440453025AA03F0EFFE002840F0B98232AEC9EB60
S2144045400505002D2EDD7F4B102D336016DD102324
S2144045507360279B10332793269B0133072B2693A4
S21440456001DC083608E05046594625AA03F0D2FE3C
S214404570002840F09C8232AE103DE4E7279B7560F1
S2144045801D44269B27950133072B269301DC0836CE
S21440459008E05046594625AA03F0BCFE002840F0E5
S2144045A0868232AEFD0505D4079C279B86E810021E
S2144045B04B44DAE0089D652D40F3A781DDE90C0108
S2144045C00022002304F03AFD002859D05E4B3360A9
S2144045D001237360279B01332793269B0133072BC8
S2144045E0269301DC083608E05046594625AA03F0D3
S2144045F091FE002840F05B8232AE1F9B099CA3428E
S21440460002DBFC0740F10282109C279B189D234446
S2144046102793269B35600133072B7460269301DC75
S214404620083608E05046594625AA03F073FE00288F
S21440463040F03D8232AE099D6C1E002C40F3E68170
S214404640404B102C336016DD10237360279B1033CD
S2144046502793269B0133072B269301DC083608E078
S2144046605046594625AA03F055FE002840F01F82C2
S21440467032AE103CE4E7279B74601C44279434E138
S2144046801F9B002B73DC304B336001237360279BEA
S21440469001332793269B0133072B269301DC0836EC
S2144046A008E05046594625AA03F034FE002840F05C
S2144046B0FE8132AE1F9B23B9099C14B9F80740F11E
S2144046C0A581109C279B189D23442793269B3560E5
S2144046D00133072B7460269301DC083608E0504609
S2144046E0594625AA03F016FE002840F0E08132AE77
S2144046F01F9C6442002C32DD124B102C336016DDBA
S21440470010237360279B10332793269B0133072B78
S214404710269301DC083608E05046594625AA03F0A1
S214404720F9FD002840F0C38132AE103CE4E7279BF9
S21440473074601C44269B27940133072B269305DC84
S21440474008360CE0D8974000169840005046594628
S21440475025AA03F0DFFD002840F0A98132AE079D70
S214404760099C35607460279B23442793BDE00998D5
S214404770079D8146A145A8BFA146B9F1000F054453
S21440478015DD279B07994B442793269B86E8020214
S2144047900133072B269301DC083608E0504659467D
S2144047A025AA03F0B7FD002840F0818132AE29EA01
S2144047B0E979C9EB0409B9F1000F31DD9A4BB9F13B
S2144047C0100F336017DD10237360279B1033279339
S2144047D0269B0133072B269301DC083608E050461B
S2144047E0594625AA03F096FD002840F0608132AE77
S2144047F0A9F11009E2E7279BC6F804904B4427939B
S214404800269B0133072B269301DC083608E05046EA
S214404810594625AA03F07EFD002840F0488132AE76
S2144048201F9B0998079A8342144401DBF90716D563
S214404830109A279B189913442793269B316001337F
S214404840072B7260269301DC083608E0504659462E
S21440485025AA03F05FFD002840F0298132AE1F9B59
S21440486009982D1BC31A9D42A8BF1D46002D14DD76
S214404870279B86E830002B442793269B0133072B43
S214404880269301DC083608E05046594625AA03F030
S21440489041FD002840F00B8132AE1F9B099C25EA63
S2144048A0E575E31A5D1B002D40F3B0805E4B102D7E
S2144048B0336016DD10237360279B10332793269BA7
S2144048C00133072B269301DC083608E0504659464C
S2144048D025AA03F01FFD002840F0E98032AE103DC7
S2144048E0E4E7279B75601D442795269B0133072BDD
S2144048F0269340F38A805046594625AA03F00AFD7F
S214404900002840F0D48032AE80E0099D012D01DCC5
S214404910FA076DD501237360279B079C01332793C5
S214404920269B34600133072B269301DC083608E0CB
S2144049305046594625AA03F0EDFC002840F0B780C3
S21440494032AE109C279B189D23442793269B3560A8
S2144049500133072B7460269301DC083608E0504686
S214404960594625AA03F0D6FC002840F0A08032AE77
S214404970DDE90C010022002304F060FB099D6C1E5B
S21440498040B9079D6B1C86E81800279B099C013B95
S214404990234433E0002C34DD234B102C336015DDEC
S2144049A010237360279B10332793269B0133072BD6
S2144049B0269301DC083607E05046594625AA03F000
S2144049C0A9FC002873D132AE103CE5E7279B746003
S2144049D01C442794269B0133072B269310DD504614
S2144049E0594625AA03F096FC002860D132AE08E06E
S2144049F00123079D7360279B356001332793E9E7C2
S214404A00083621AB33601A9CACE608367B070DD4DB
S214404A100F9D0A980E9C279BA042ACBF2D182D19BF
S214404A200F95002B37D030E0D89740000E9D0A985F
S214404A302C1A002CECDD234B102C336014DD102395
S214404A407360279B10332793269B0133072B2693AF
S214404A5001DC083606E05046594625AA03F05AFCC3
S214404A6028BB32AE103CE6E7279B74601C44269B6E
S214404A7027940133072B2693CADD5046594625AA6C
S214404A8003F048FC0028C3D011E05046594625AAFA
S214404A9003F040FC58B90023269332AEFFF7B1B876
S214404AA0279B23B15046594625AA03F033FCBBF852
S214404AB00C300F9813F0400F18BF4FF0FF3043B044
S214404AC0BDE8F08FC897400093682DE9F0478146CF
S214404AD00F4614461BB953601846BDE8F0874B6E28
S214404AE09D041DD51568A3680835BBB155F8043C30
S214404AF055F808AC4FEA93080026464509DA48467A
S214404B005AF826103A4601F0C3FC431C0AD0013638
S214404B10F3E7A368A3EB8803A360E4E7184601E045
S214404B2001F028FE0023A3606360BDE8F0872DE90E
S214404B30F04FADB0884602921C461E46834618B1DA
S214404B40836B0BB901F0C4FBB8F80C30980409D459
S214404B5043F40053A8F80C30D8F8643023F40053DC
S214404B60C8F86430B8F80C30190709D5D8F81030B2
S214404B7033B1B8F80C3003F01A030A2B14D108E00E
S214404B805846414600F026FC0028F2D04FF0FF3051
S214404B90D9E3B8F90E30002B06DB58464146029A58
S214404BA0234600F0E1FBCEE300231CAA0F921193AC
S214404BB0109394460A930593029B1C4613F8012BC8
S214404BC01AB90298251A03D11DE0252AF5D1F8E72F
S214404BD0119B02992B441193109B8CE822000133C1
S214404BE0072B109302DC0CF1080C09E058464146AE
S214404BF00FAAFFF769FF002840F09F830DF1700C65
S214404C00059A2A4405922378002B00F08F830022D1
S214404C1001348DF837204FF0FF3A04921746651C52
S214404C2023780295582B64D02DDC2E2B76D012DCC0
S214404C302A2B66D008DC202B5FD0232B40F0008246
S214404C4047F00107029CEAE72B2B01D11A46F9E709
S214404C502D2B60D0F4E1392B07DC312B7FDA302B5B
S214404C6040F0EE8147F08007ECE74F2B00F0E08005
S214404C70552B00F02081442B40F0E2818DF8372000
S214404C8047F0100794E06E2B00F0B6800DDC682BE2
S214404C9076D005DC632B00F08380642B26D0CFE1F2
S214404CA0692B23D06C2B6ED0CAE1712B75D013DCE8
S214404CB06F2B00F0BF80702B40F0C2813023A0489D
S214404CC08DF8383078233468002547F002078DF891
S214404CD0393004360A902EE1752B00F0EE80782BA2
S214404CE000F00381732B40F0AB81BFE08DF8372096
S214404CF05EE08DF83720934CFAE0002A08BF202269
S214404D00A0E7331D3668002E049601DB1E4699E761
S214404D10754204951E4647F0040793E7029C2378A5
S214404D20611C2A2B02D04FF0000A0AE0D6F800A0F9
S214404D30331DBAF1000F1E46029183DA4FF0FF3A58
S214404D4080E7A3F13000092805D80A2303FB0A0AA6
S214404D5011F8013BF5E74AEAEA7A029162E7002554
S214404D600495049C303B0A2101FB043402990494C8
S214404D7011F8013BA3F130000928EED80291F0E784
S214404D8047F040075EE7029D2B786C2B02D1013539
S214404D90029502E047F0100754E747F0200751E736
S214404DA0336800258DF848308DF83750043651E189
S214404DB0BA0607D5073626F0070303F10806D3E9F7
S214404DC000450DE017F0100F06F1040301D03468DB
S214404DD004E0346817F0400F18BF24B2E5171E46AB
S214404DE0002C75F1000080F2AF802D23644265EB05
S214404DF045058DF83730A7E017F0200F8DF837209F
S214404E0006F1040107D0059C3068E51722462B467C
S214404E10C0E900230AE0FB0605D47F0603D53368C5
S214404E20059C1C8002E03368059D1D600E46C3E667
S214404E3047F0100717F0200308D0073626F0070380
S214404E4003F10806D3E90045002375E017F010018A
S214404E5006F1040206D117F0400303D0348800253B
S214404E601646F1E734680025164665E0D6F8009009
S214404E7000239A4506F104068DF83730484611DB84
S214404E8019465246CDF804C002F0D8FBDDF804C0FF
S214404E90002800F0E480C9EB00005045B8BF8246C9
S214404EA00025DDE0CDF804C003F015FA0025824663
S214404EB0DDF804C0D4E047F01007BD0607D5073636
S214404EC026F0070303F10806D3E900450BE017F088
S214404ED0100F06F1040303D17C0601D5348800E0A8
S214404EE0346800251E46012326E0154C8DF83720F1
S214404EF0B8060A9407D5073626F0070202F10806D8
S214404F00D2E900450BE017F0100F06F1040203D17A
S214404F10790601D5348800E0346800251646FA073D
S214404F2009D554EA050006D030228DF838208DF891
S214404F30393047F00207022300228DF8372004E07C
S214404F4005984000F49740000123BAF1000FA8BF2F
S214404F5027F0800754EA050102D1BAF1000F5ED06F
S214404F60012B1FD0022B0DF16F0345D0E00840EA1D
S214404F704571E80804F00702069107903032DDE9F3
S214404F80064554EA050199461A7003F1FF33EDD100
S214404F90F80749464ED5302A4CD09946302301F87A
S214404FA0013C47E0002D08BF0A2C05D230348DF86E
S214404FB06F400DF16F093DE00DF16F020392204600
S214404FC029460A220023CDF804C004F0B1F8039B1A
S214404FD0303203F8012920462946DDF80C900A2293
S214404FE00393002304F0A4F804460D4654EA050053
S214404FF0DDF804C0E3D11DE00A9904F00F028A5C94
S214405000994603F80129220942EA057029090890C1
S2144050100991DDE9084554EA0502EDD10AE03BB9BD
S214405020F90705D50DF1B009302309F8413D01E0F7
S2144050300DF1700955460DF1700AC9EB0A0A0FE0EA
S2144050408DF83720002B00F0718100258DF8483010
S2144050508DF837504FF0010A0DF1480900E005463B
S2144050609DF83730AA45ACBF54462C4603B10134B0
S21440507017F00203039318BF023417F084030B9310
S2144050803BD10498031B002B37DDA64A102BCCF8E7
S21440509000201BDD1022CCF80420119A1032119209
S2144050A0109A0132072A109202DC0CF1080C0BE031
S2144050B0584641460FAA0193FFF706FD019B00287C
S2144050C040F03B810DF1700C103BDEE7119ACCF8B6
S2144050D0043013441193109B0133072B109302DCCA
S2144050E00CF1080C09E0584641460FAAFFF7ECFCC5
S2144050F0002840F022810DF1700C9DF83730DBB16E
S2144051000DF13703CCF800300123CCF80430119B66
S21440511001331193109B0133072B109302DC0CF1E3
S214405120080C09E0584641460FAAFFF7CDFC002878
S21440513040F003810DF1700C039BD3B10EABCCF85D
S21440514000300223CCF80430119B02331193109B9D
S2144051500133072B109302DC0CF1080C09E058468B
S21440516041460FAAFFF7B0FC002840F0E6800DF15C
S214405170700C0B9B802B3FD1049B1B1B002B039377
S2144051803ADD039B102B684BCCF800301BDD102318
S214405190CCF80430119B10331193109B0133072B2E
S2144051A0109302DC0CF1080C09E0584641460FAA61
S2144051B0FFF78AFC002840F0C0800DF1700C039B7E
S2144051C0103B0393DDE7039B0398CCF80430119B18
S2144051D003441193109B0133072B109302DC0CF110
S2144051E0080C09E0584641460FAAFFF76DFC002818
S2144051F040F0A3800DF1700CCAEB0505002D34DDA0
S214405200494B102DCCF8003019DD1023CCF8043073
S214405210119B10331193109B0133072B109302DC24
S2144052200CF1080C09E0584641460FAAFFF74CFC23
S214405230002840F082800DF1700C103DE0E7119B95
S214405240CCF804501D44109B11950133072B109346
S21440525002DC0CF1080C08E0584641460FAAFFF75E
S21440526033FC002869D10DF1700C119B8CE80006C8
S21440527053441193109B0133072B109302DC0CF11F
S214405280080307E0584641460FAAFFF71DFC0028D2
S21440529053D11CAB7A070AD4059D0498119B8442CF
S2144052A0ACBF2D192D180595002B35D02EE004994E
S2144052B00D1B002DF0DD1B4A102D1A6015DD102247
S2144052C05A60119A10321192109A0132072A10929F
S2144052D001DC083307E0584641460FAAFFF7F4FBC7
S2144052E000282AD11CAB103DE5E75D60119B1D44AC
S2144052F0109B11950133072B1093CDDD5846414640
S2144053000FAAFFF7E1FB0028C6D016E058464146F4
S2144053100FAAFFF7D9FB80B9002310930DF1700C4C
S2144053204AE400BF1898400028984000119B23B1DB
S214405330584641460FAAFFF7C7FBB8F80C305B0645
S2144053403FF524AC05982DB0BDE8F08F30B5134638
S214405350044A05460C46106829462246BDE83040B9
S214405360FFF7E5BBD800002070B50C468989ADF53F
S2144053708D6D21F00201ADF80C10616E0646199154
S214405380E189ADF80E10E1690791616A09911AA9A1
S214405390009104914FF4806102910591002106919D
S2144053A06946FFF7C4FB051E07DB3046694600F03A
S2144053B046FF002818BF4FF0FF35BDF80C305B069F
S2144053C003D5A38943F04003A38128460DF58D6D90
S2144053D070BD00BF38B52B4B054618680C4618B153
S2144053E0836B0BB900F074FFA28993B2180720D4E0
S2144053F0D90605D4092342F040022B60A2813BE047
S214405400580712D5216B41B104F14003994202D0AE
S214405410284601F0F7F800232363A38923F02403EA
S214405420A3810023636023692360A38943F00803B4
S214405430A38123694BB9A38903F42073B3F5007F96
S21440544003D02846214601F07DFEA38913F00102D1
S21440545005D00022A26062695242A26103E0990729
S21440546058BF6269A26022694AB903F0800080B2E0
S21440547030B143F04003A3814FF0FF3038BD0020E9
S21440548038BD00BFD8000020024B13B1024800F0E0
S21440549005B87047000000006564400001460020E3
S2144054A00246034603F05EBC2DE9F74F03690C69DC
S2144054B08046A342C0F28380013CA20001F114075B
S2144054C000F114059146009257F824602A44019250
S2144054D055F824200136B2FBF6F6B944002E3BD0F0
S2144054E04FF0000E3A462846F34652F804CB03687F
S2144054F01FFA8CFA4FEA1C4C0AFB06EA0CFB06FC29
S2144055000CEB1A4C1FFA8AFACAEB0B0B4FEA1C4EEE
S2144055101FFA83FA1FFA8CFCDA44CCEB134C0CEBE4
S2144055202A4C1FFA8AFA4AEA0C4A4A454FEA2C4B5A
S21440553040F804ABD9D9009AAB586BB9019A131FFF
S214405540AB421A4602D8C8F8104005E01268043B41
S214405550002AF8D1013CF3E7404602F0CEFA002894
S2144055602BDB01362B46002057F804CB1A681FFA6F
S2144055708CF1411A1FFA82FA4FEA1C4C5144CCEB8C
S214405580124202EB214289B210144F4541EA0242D0
S21440559043F8042BE8D955F8242005EB840362B978
S2144055A0043BAB421A4602D8C8F8104005E01268E1
S2144055B0043B002AF8D1013CF3E7304600E00020E7
S2144055C003B0BDE8F08F2DE9F04F016C9BB08246EA
S2144055D0279CCDE9042351B1436C01224B6002FA6B
S2144055E003F38B6002F084F80023CAF84030059835
S2144055F0002805DA012320F000412360059101E0F0
S21440560000232360059F9C4A27F000431B0D1B0583
S21440561093421DD1269A42F20F731360049B43B9FE
S214405620964B974AC7F3130000280CBF10461846FF
S21440563000E09248289F002F00F06F85C37813B192
S21440564000F1080300E0C31C289F3B6000F065BDE6
S214405650DDE90445002220462946002303F0EEFCFF
S214405660804658B1269F01233B60289F002F00F0BC
S214405670518584483860013800F04FBD19AB00931F
S21440568018AB0193504622462B4602F026FBC7F342
S2144056900A5683465EB1C5F3130343F07F51204656
S2144056A041F44011A6F2FF36CDF854801CE0199B19
S2144056B0189E1E446FF482639E4209DB04991F3392
S2144056C006F212409B1B21FA00F09F40384304E04C
S2144056D06D48049A801B02FA00F0FCF7E7FC0127AD
S2144056E0A1F1F871013E15970022684BFCF7A0FB2C
S2144056F05BA3D3E90023FCF74FFD5BA3D3E900236C
S214405700FCF798FB044630460D46FCF7DFFC58A3F2
S214405710D3E90023FCF740FD02460B4620462946C7
S214405720FCF788FB04460D4603F0BAFC2946814642
S21440573000222046002303F08BFC58B14846FCF775
S214405740C5FC02460B462046294603F077FC08B9BE
S21440575009F1FF39B9F1160F0DD84D4B03EBC903CC
S214405760D3E90001DDE9042303F090FC30B109F1F0
S214405770FF39002700E00127149700E01490189B9B
S2144057809E1B013E0A9604D57742089700270A9743
S21440579001E000270897B9F1000F07DB0A9FCDF814
S2144057A044904F440A9700270E9708E0089FC9EB9D
S2144057B007070897C9F100070E9700271197249FFF
S2144057C0092F29D8052FC4BF043F2497249FC8BF5C
S2144057D00024A7F10203D8BF0124032B21D8DFE819
S2144057E003F0060F0204012702E0012709E0002724
S2144057F00F97259F002F1EDD0B9707973B461FE010
S21440580000270F97259F4F440B9701373B46079736
S214405810012BB8BF012313E00124002724970F94DF
S21440582001E001270F974FF0FF370B9707970027A8
S2144058301223259704E001270B9707973B462597A9
S2144058400022CAF84420042202F11401994221D8C9
S214405850DAF8441052000131CAF84410F4E700BFA9
S21440586061436F63A787D23FB3C8608B288AC63F21
S214405870FB799F501344D33F0000F07F419840008F
S2144058803898400017984000EEFBFFFF0000F83FB6
S214405890609840005046DAF8441001F003FF079F36
S2144058A009900E2FCAF8400000F26A81002C00F0E2
S2144058B06781B9F1000FDDE90401CDE9120131DD60
S2144058C0804A09F00F0302EBC3034FEA2914D3E9D9
