S01F0000494D555F436F6D706C656D656E7461727946696C7465722E73726563F5
S21440000090140020B11B4000AD1B4000AD1B4000CB
S214400010AD1B4000AD1B4000AD1B40000000000083
S214400020000000000000000000000000AD1B400083
S214400030AD1B400000000000AD1B4000C51E400048
S214400040AD1B4000AD1B4000AD1B4000AD1B40004B
S214400050AD1B4000AD1B4000AD1B4000AD1B40003B
S214400060AD1B4000AD1B4000AD1B40005D1A40007C
S214400070711A4000851A4000AD1B4000AD1B400081
S214400080AD1B4000AD1B4000AD1B4000AD1B40000B
S214400090AD1B4000F51E4000AD1B4000AD1B4000B0
S2144000A0AD1B4000AD1B4000AD1B4000AD1B4000EB
S2144000B0AD1B4000AD1B4000AD1B4000AD1B4000DB
S2144000C0AD1B400010B5054C237833B9044B13B133
S2144000D00448AFF300800123237010BD8C09002034
S2144000E000000000209C400008B5064B1BB10648A7
S2144000F00649AFF300800648036813B1054B03B1C9
S214400100984708BD00000000209C40009009002051
S214400110209C40000000000010B50446104B984755
S21440012080232360636843F001036360636843F0A1
S21440013010036360636823F08003636020460021F9
S214400140084B9847636823F002036360636823F0B4
S2144001500403636020460021034B984710BD00BF50
S214400160590240006902400081024000F8B5054649
S2144001700C46164618461449144B984707462846D8
S214400180216800221346DFF85CC0E0472846216815
S21440019008220F4B984728462168FAB20D4B9847DD
S2144001A02846216808220C4B984728462168720842
S2144001B00A4B984786F001022846216802F0010261
S2144001C0074B9847F8BD00BF006CDC026503400053
S2144001D0510340007D0340000D034000CD02400027
S2144001E0ED0240009503400008B5436813F0040F45
S2144001F005D009680F290BD8064B984708BD0B68F1
S214400200032B05D8012202FA03F1C943014B984754
S21440021008BD00BF690240002DE9F0410C469046FB
S21440022060B9002A0EDD8F18094E0A4D3068214607
S2144002302B6898470134BC42F8D106E04FF0FF30B7
S214400240BDE8F0810020BDE8F0814046BDE8F08181
S214400250100C0020080C002008B51520014B9847CC
S21440026008BD00BF811B4000436823F470234360F1
S2144002704368090401F470210B434360704700BF94
S214400280436823F07F434360436843EA016141602B
S214400290704700BF30B443F6992401E0013C11D0CA
S2144002A0056915F0020FF9D0446814F0020F06D025
S2144002B0120402F4702211430BB141F08071C16008
S2144002C0002000E0012030BC704700BF32B100EB98
S2144002D08100036B43F001030363704700EB81002A
S2144002E0036B23F001030363704700BF32B100EB9A
S2144002F08100036B43F002030363704700EB810009
S214400300036B23F002030363704700BF042A0AD13D
S21440031000EB8100036B23F008030363036B43F099
S21440032004030363704752B900EB8100036B23F06C
S21440033008030363036B23F0040303637047082A30
S21440034005D100EB8100036B43F00803036370475D
S21440035000EB81010B6B23F0F0030B630B6B1A432E
S2144003600A637047431E1944B1FBF0F0431EFE2B50
S21440037094BF80B24FF6FF7000B2704700EB810129
S2144003800B6B23F47F430B630B6B43EA02220A6337
S214400390704700BF00EB8101086B80B20863086BB2
S2144003A040EA036343EA02420A6370470F4B9942AE
S2144003B019D84900B2FBF1F2043AFF2A07D90023C4
S2144003C001335208FF2A03D9072BF9D100E0002356
S2144003D0110289B21B0403F4E0230B43D2B21A4342
S2144003E00261002070470120704700BF801A060057
S2144003F038B504460D464FF0FF338362036A8023C8
S2144004000360036B08230360202303600423036018
S21440041049682A68054B9847012814BF00200120E8
S2144004206B7A012B04BF4023236038BDAD034000E8
S2144004302DE9F0030446CB688E68002B49D0002295
S21440044042604868000200F4407040F480500D7CE2
S2144004502D0405F4FE0528436060E2604A685AB100
S2144004600878012AC4BF4D7845EA0020022A04DDF8
S2144004708A7842EA002000E00020E060012B04D1A8
S214400480032222604FF0010C2BE0012222604FF045
S214400490000C26E0216A11F4807F1CD1551EE2B183
S2144004A02A46012B05D1BCF1000F02D1C4F80090BA
S2144004B0C44611F0020F04D0226B3270013B013665
S2144004C03A46002BE6D1236A13F0010FFBD0236A8D
S2144004D014E0012012E0052010E009200EE005207F
S2144004E00CE0216A11F48070F9D143F697224FF060
S2144004F002094FF0010843F69827D2E7BDE8F0031B
S214400500704700BF70B40346CA688868002A3FD068
S21440051000245C600E7C360406F4FE064D682D0210
S21440052005F4407535435D60DC604C685CB10D7821
S214400530012CC4BF4E7846EA0525022C04DD897896
S21440054041EA052500E00025DD600BE0196A11F45C
S214400550807F1FD111F0040FF8D010F8011B5963AB
S214400560013A07D0196A11F4807F15D111F0040FB3
S214400570F3D1EBE71A6A12F480700FD112F0040F31
S214400580F8D002221A601A6A12F0010FFBD006E079
S214400590012004E0052002E0052000E0052070BCB4
S2144005A0704700BF436913F0020F1DBFC1F3080137
S2144005B0C161002001207047436913F0010F05D048
S2144005C08369C3F308030B6000207047012070471F
S2144005D000B585B01320084B9847084B0193084B4D
S2144005E0029300238DF80D30064801A9064B984724
S2144005F0C0B205B05DF804FB811B4000006CDC0215
S214400600801A060000800140F103400000B589B022
S2144006108DF807108DF80C00012304930DF10701A7
S214400620059106938DF81C20034803A9034B984771
S21440063009B05DF804FB00BF00800140050540009E
S21440064010B531200B2153220B4CA0472C200A21F9
S2144006505322A0472D2008215322A04731200B21AA
S2144006601D22A0472C200A211D22A0472D2008210C
S2144006701D22A04710BD00BF0D06400000B589B042
S2144006808DF807100023039307938DF80C00012381
S21440069004930DF10701059106938DF81C2003483D
S2144006A003A9034B984709B05DF804FB008001405E
S2144006B00505400010B516201E2168220F4CA047A5
S2144006C0152000216822A047172011216822A04744
S2144006D03E2000216822A04716201E216922A047FE
S2144006E0152000216922A047172011216922A04722
S2144006F03E2000216922A04710BD00BF7D06400075
S21440070000B587B00023019305938DF804000123BC
S2144007100293039104938DF81420034801A9034BD8
S214400720984707B05DF804FB008001403104400064
S21440073000B587B08DF80400012002900391049222
S2144007408DF81430034801A9034B984707B05DF86D
S21440075004FB00BF008001403104400000B587B074
S2144007608DF8040001200290039104928DF8143015
S214400770034801A9034B984707B05DF804FB00BF48
S2144007800080014031044000F8B504460D46464E10
S2144007901D20314606222B46444FB847337813F087
S2144007A0800F0ED0707840EA03235842C0F30E0004
S2144007B03F4B98473F49404B984700F100402060E8
S2144007C009E0394A507840EA0320394B984739497E
S2144007D0394B98472060344B9B7813F0800F0FD0EE
S2144007E0314AD07840EA03235842C0F30E00304BDB
S2144007F098473049304B984700F10040606009E028
S214400800294AD07840EA0320294B984729492A4B61
S21440081098476060244B1B7913F0800F0FD0224A14
S214400820507940EA03235842C0F30E00204B9847C5
S2144008302049214B984700F10040A06009E01A4A41
S214400840507940EA03201A4B98471A491A4B984762
S214400850A060692D0DD1194D20680021A847206061
S21440086060680021A8476060A0680021A847A06093
S214400870F8BD682D13D1114D20680021A84720608F
S21440088060680021A8476060A0680D4B984704A3A5
S214400890D3E900230B4DA8470B4B9847A060F8BD03
S2144008A0EC51B81E85EBE13FB40900205D074000DF
S2144008B06D30400000006641853240000D2F4000FC
S2144008C095294000D5264000612E4000AFF30080B9
S2144008D02DE9F04106460C4632204B490422234679
S2144008E04A4DA84710B1C0B2BDE8F081464B5B7890
S2144008F003F0F002F02A14D1434A107840EA03236A
S2144009005842C0F30B00424B9847424B98473AA395
S214400910D3E90023404DA847404B984700F1004795
S2144009200FE0394A107840EA0320394B9847394B54
S214400930984731A3D3E90023374DA847374B98470C
S2144009400746314BDB7803F0F002F02A14D12E4AEA
S214400950907840EA03235842C0F30B002C4B98474C
S2144009602C4B984724A3D3E900232B4DA8472B4B69
S214400970984700F100450FE0234A907840EA03206C
S214400980234B9847234B98471BA3D3E90023224D7C
S214400990A847224B984705461D2C0AD1DFF894807D
S2144009A038461F49C047044628461E49C0470146A8
S2144009B00BE0532C1CD138461B491C4B9847044629
S2144009C028461B491B4B9847014604F100401A4BEA
S2144009D098471A4B98470F4B984709A3D3E90023EB
S2144009E00D4CA0470D4B984730600020BDE8F08185
S2144009F00020BDE8F08100BF3333333333330F403C
S214400A0018B1531ADCA54C40BC0900203107400001
S214400A106D304000952940003D2A4000612E400040
S214400A20000034430080234400009643092F4000D2
S214400A300000F5430D2F400085324000A1224000C3
S214400A40F8B504460D46584E3220314606222B460F
S214400A50564FB847737803F0F002F02A14D1307836
S214400A6040EA03235842C0F30B00514B9847514B82
S214400A7098474BA3D3E900234F4EB0474F4B984778
S214400A8000F1004020600FE0474A107840EA03201B
S214400A90474B9847474B984741A3D3E90023464ED8
S214400AA0B047464B984720603F4BDB7803F0F00258
S214400AB0F02A15D13C4A907840EA03235842C0F3C6
S214400AC00B003B4B98473B4B984735A3D3E9002355
S214400AD0394EB047394B984700F1004060600FE010
S214400AE0314A907840EA0320314B9847314B98473B
S214400AF02BA3D3E90023304EB047304B9847606075
S214400B00294B5B7903F0F002F02A15D1264A10797A
S214400B1040EA03235842C0F30B00254B9847254B29
S214400B2098471FA3D3E90023234EB047234B98474B
S214400B3000F10040A0600FE01B4A107940EA032015
S214400B401B4B98471B4B984715A3D3E900231A4ED7
S214400B50B0471A4B9847A0601D2D0ED1184D2068FF
S214400B601849A847206060681749A8476060A06891
S214400B701649174B9847A060F8BD532D0DD1144D1C
S214400B8020681449A8472060606813490C4B984772
S214400B906060A0681149A847A060F8BDAFF3008028
S214400BA03333333333330F40A80900203107400036
S214400BB06D304000952940003D2A4000612E40009F
S214400BC00D2F4000000034430080234400C0A84559
S214400BD0092F4000000096430000F54300409C4526
S214400BE02DE9F04104460D46592810D05A281BD00E
S214400BF0582826D12E4F1E2039462A46DFF8D08068
S214400C00C0473E781D2039462A46C0471AE0284F3E
S214400C10202039462A46DFF8B880C0473E781F2055
S214400C2039462A46C0470DE0214F222039462A46FB
S214400C30DFF89C80C0473E78212039462A46C04788
S214400C4000E000261A4B187810F0800F0CD046EAC9
S214400C5000235842C0F30E00164B98471649174BD0
S214400C60984700F1004006E046EA0020114B9847BE
S214400C701149124B98475A2C11D1682D0AD1104B66
S214400C80984709A3D3E900230E4CA0470E4B98473C
S214400C90BDE8F081692D02D100210C4B9847BDE894
S214400CA0F08100BFAFF30080EC51B81E85EBE13F0A
S214400CB0B00900206D30400000006641853240009B
S214400CC095294000D5264000612E40000D2F40005B
S214400CD001074000AFF300802DE9F04706460F4677
S214400CE0144698463220584904222346574DA84772
S214400CF010B1C0B2BDE8F087534B5A7802F0F0030B
S214400D00F02B14D1504B187840EA02225042C0F3E0
S214400D100B004F4B98474F4B984747A3D3E90023C8
S214400D204D4DA8474D4B984700F100450FE0464BC8
S214400D30187840EA0220464B9847464B98473EA3D1
S214400D40D3E90023444DA847444B984705463E4BBD
S214400D50DA7802F0F003F02B15D13B4B987840EA56
S214400D6002225042C0F30B00394B9847394B984704
S214400D7031A3D3E90023DFF8E0C0E047374B98477C
S214400D8000F1004910E0304B987840EA0220304BA2
S214400D909847304B984728A3D3E90023DFF8B8C0DC
S214400DA0E0472E4B984781461D2C0AD1DFF8C4A059
S214400DB028462B49D047044648462A49D04701464C
S214400DC00BE0532C32D128462749284B98470446F7
S214400DD048462749274B9847014604F10040264B92
S214400DE09847264B984781465A204146244B984779
S214400DF03860244C0021A0471E4D3168A847224940
S214400E00A04707464846134B98470DA3D3E900230F
S214400E10DFF844C0E047114B98471C49A0470146BD
S214400E203846A84730600020BDE8F0870020BDE87F
S214400E30F08700BFAFF300803333333333330F4094
S214400E4018B1531ADCA54C40C009002031074000B9
S214400E506D304000952940003D2A4000612E4000FC
S214400E60000034430080234400009643092F40008E
S214400E700000F5430D2F400085324000A12240007F
S214400E80E10B40001D3140002653553F68B32A3ED3
S214400E902DE9F0410E461546013802280FD892B18A
S214400EA00024DFF83C800D4FD8F80000315D3B68E9
S214400EB0984700280ADB0134A542F5D10AE04FF0F6
S214400EC0FF30BDE8F0810020BDE8F0814FF0FF30F4
S214400ED0BDE8F0812046BDE8F08100BF0C0C002044
S214400EE0100C002070B483B0C0F11100102834BF3D
S214400EF006461026002E08BF012600210F4D4FF44F
S214400F00005418206C630190019B5A1E0192002BDE
S214400F10FAD12C630190019B5A1E0192002BFAD104
S214400F2001318E42EED84FF400330193019B5A1E96
S214400F300192002BFAD103B070BC704700120E40ED
S214400F4082B04FF40052064B5A634FF4003301937D
S214400F50019B5A1E0192002BFAD102B0704700BF87
S214400F6000120E4082B000230193019B984211D993
S214400F700021094A0191019B934205D8019B013308
S214400F800193019B9342F9D9019B01330193019B45
S214400F908342EFD302B070479F86010030B40468A6
S214400FA0AF2C84BFAF2404601468AF2C84BFAF243A
S214400FB014600C68DB2C84BFDB240C601C68DB2CC4
S214400FC084BFDB241C6004681568AC4284BF05609F
S214400FD014600A681868824284BF08601A6030BC91
S214400FE0704700BF70B506460B4C204602210022D3
S214400FF00A4DA847012323601C20094B98472046EA
S214401000314602220023074EB04702212160204687
S2144010108022A84770BD00BF0080004051034000BA
S214401020C51740009502400038B50546074C0123D9
S21440103023601C20064B9847204629460222002360
S214401040044DA8470223236038BD00BF00800040FF
S214401050A91740009502400010B50C46024B984731
S2144010602046024B984710BDE50F4000291040002F
S2144010702DE9F04182B005460C46F1B10122104BF5
S2144010801A601C200F4B984700230193019B9C42FB
S21440109010D9DFF82C8002270B4E019B404635F8CE
S2144010A013103A460023B047019B01330193019B3E
S2144010B09C42F2D80222024B1A6002B0BDE8F08190
S2144010C000800040A917400095024000034BDA69B3
S2144010D09A610122024B1A70704700BF00800040A0
S2144010E0240B002008B5072041F21701014B984712
S2144010F008BD00BF5910400008B507200021014B2D
S214401100984708BD5910400000F47C4100F478032D
S2144011101B0A43EA5111C0F3C4000143044A931E1C
S21440112002F5AF7223F8021F9342FBD1704700BF0F
S214401130C4090020F8B506460D461F46013A111868
S2144011403620C9B2064CA0473720F1B2A047013F2F
S21440115079193820C9B2A0473920E9B2A047F8BD6E
S2144011605910400038B50D46C1B22020024CA04769
S2144011702120E9B2A04738BD591040002DE9F04380
S21440118085B081464FF0020804AF47F8048D1D2015
S2144011905E4CA04740465E4EB0471D205D4B98478C
S2144011A01420B0471D20A0473220B0475A4CC4F800
S2144011B00080802323604FF080732360574B4FF4AA
S2144011C00012C3F88020C3F88021002583F8155309
S2144011D01A602046524B98470095204639462A4684
S2144011E0504BDFF85CC1E047204639464E4B9847A7
S2144011F00127276067614D4B984738464FF48E71FC
S2144012004B4CA04740464FF48071A047032041F224
S2144012103001A047082040F60801A0470C20394678
S214401220A0470F2040F60121A0472020B021A0472C
S2144012302120DC21A04710204FF42061A047112038
S21440124041F23801A0473220B047122041F2211126
S214401250A04713204E21A047142046F26F71A047A6
S21440126030202946A0473120DB21A047322029469E
S214401270A04733202946A0473420DB21A04735200D
S2144012802946A0473620B021A04737202946A04708
S2144012903820DC21A04739202946A047502029463F
S2144012A0A047512040F20A61A047522040F60A511A
S2144012B0A047532040F20331A047542040F60D216A
S2144012C0A047552040F60621A04756202946A0476D
S2144012D0572040F20331A04758202946A0475920BE
S2144012E02946A04728462946D9F80020D9F8043090
S2144012F0104CA047D9F808000F4B98472846294677
S2144013000E4B9847284605B0BDE8F083A917400025
S214401310650F4000C51740000080004000E100E037
S2144013201901400020BCBE00E9014000F910400011
S2144013305910400035114000091140006511400029
S2144013406D01400008B5AF280ED8DB290ED880B214
S21440135089B2074B98472220064B9847064B188879
S214401360064B9847002008BD012008BD012008BD57
S21440137065114000E50F4000C409002029104000D8
S2144013802DE9F04184B0039002910192009303A8A6
S21440139002A901AA6B46214CA047039A029B0199D9
S2144013A04D1C00994C1C10461946AA1AE31A1C4CB0
S2144013B0A047BDF80C00BDF808101A4B98472220ED
S2144013C0194B9847029B009AD21A019B03F10108D9
S2144013D0039BC3EB080802FB0888144CA4FB0834A4
S2144013E0E40907D0124FB026124D38463146A8477A
S2144013F0013CFAD10D49A1FB0831C909B0240C487B
S21440140004FB11810B4B9847002001462246DC2303
S214401410034CA04704B0BDE8F08100BF9D0F4000DC
S2144014203511400065114000E50F4000A38B2EBAF1
S214401430C4090020711040002DE9F04F87B0049099
S2144014408B461378002B4AD003920290254AA2F28C
S2144014506B220592DFF890900A2B04D10BF1100B0B
S214401460049B029335E003EB83039B00A3F27F26A5
S2144014701C4A1644059A1A440192DDF8088007244F
S21440148037460BEB040A3D4616F8013C234113F061
S214401490010F03D04046C4EB0A01C847013CB4F1F3
S2144014A0FF3FF0D107240BF10F072B78234113F0B1
S2144014B0010F02D04046391BC847013C012CF4D1ED
S2144014C0023608F10108019B9E42D8D1029A0C329E
S2144014D00292039A12F8013F0392002BBCD107B048
S2144014E0BDE8F08F289240004513400010B4AC236E
S2144014F003600A684B68B2FBF3F31B095C1E4FF6A9
S214401500FE7294420AD803628B68436040F202231C
S214401510C0F8203150230360002000E001205DF831
S214401520044B7047436913F0020F1ABFC161002095
S21440153001207047436913F0010F1DBF83690B708C
S21440154000200120704700BF10B50E480E4B98474C
S21440155000203E210D4B98470D4CA0470028FCD05C
S2144015600C4B98470C4A0D4B9A620D4CA0470028EE
S214401570FCD010200B4B98470B4B98470148024B2A
S214401580984710BD006CDC02A1000020FD1A400008
S214401590511B4000611B4000013F072000040E40E5
S2144015A0711B4000991A4000611C400010B54FF472
S2144015B00042324B5A600B20314CA0470C20A047CB
S2144015C00D20A04717204FF060512E4CA0472E20EC
S2144015D04FF06051A04719204FF06051A0470F20B0
S2144015E02949A04710202949A04729484FF4C061FF
S2144015F04FF00062274B984700204FF08051A0479D
S21440160008204FF08051A04703204FF00061A047CC
S21440161004204FF00061A0470C204FF00061A04727
S2144016200D204FF00061A0470E204FF00061A0470C
S2144016301F204FF00061A0471E204FF08051A0476A
S2144016400C204FF00061A0470D204FF00061A047EE
S2144016500E204FF00061A0471E204FF08051A0475B
S2144016601C204FF06051A0471D204FF06051A0470E
S2144016704D204FF06051A04710BD00BF50140E40A3
S214401680811B4000051840007900002859000028BA
S214401690000E0E402919400010B44264B1F1C05FFC
S2144016A02ED008D8B1F1006F14D0B1F1805F1DD0B4
S2144016B0002935D135E0B1F1205F32D003D8B1F101
S2144016C0005F27D02CE0B1F1405F2AD0B1F1605FD7
S2144016D027D025E0016F046FD343214019400167AE
S2144016E0416F446F21400B40436719E0036F13433B
S2144016F00367436F416F0B4023EA020343670FE0E3
S214401700036F016F0B4023EA02030367436F1343E3
S214401710436705E0036F13430367436F1343436711
S21440172042605DF8044B7047416412F0010F14BFED
S2144017304166016612F00A0F14BF0162416212F060
S214401740020F02D0C0F8801004E012F0080F18BF55
S214401750C0F8841041610160704700BF10B4416416
S214401760019C0CB1416600E001660BB1016500E0EA
S21440177041650AB1016300E04163016101605DF8C3
S214401780044B7047C06C7047806C7047430903F544
S214401790001303F207735B02DB6B00F01F0023FAB3
S2144017A000F000F001007047430903F5001303F210
S2144017B007735B0200F01F00012202FA00F0186374
S2144017C0704700BF430903F5001303F207735B023B
S2144017D000F01F00012202FA00F05863704700BF75
S2144017E0430903F5001303F207735B029A6B00F09C
S2144017F01F00012101FA00F0104214BF586318631D
S214401800704700BF70B582B00D46440904F5001419
S21440181004F20774660201F0F044B4F1005F47D06A
S21440182009D8B4F1805F21D0B4F1C05F2FD0B4F1B5
S214401830006F6FD109E0B4F1405F55D0B4F1605FFE
S21440184052D0B4F1205F44D064E000F01F00012481
S214401850844030464FF000612246304B984715F0A2
S214401860010F14BF74663466012054E000F01F0078
S2144018700124844030464FF080512246274B9847FB
S21440188015F0010F14BF74663466012043E000F083
S2144018901F000124844030464FF0C05122461F4B63
S2144018A0984715F0010F14BF74663466012032E085
S2144018B000F01F000124844030464FF0005122467D
S2144018C0164B984715F0010F14BF74663466012016
S2144018D021E000F01F010124304604FA01F12A46B7
S2144018E00F4B9847204616E000F01F01012405F0F4
S2144018F0605205EA04030093304604FA01F1B2F15F
S214401900605F14BF00220122C5F38003054DA8473F
S214401910204600E0002002B070BD00BF991640008F
S214401920291740005D174000F0B583B007460E46C5
S214401930154602F0F044B4F1005F38D009D8B4F14F
S214401940805F1CD0B4F1C05F25D0B4F1006F50D199
S21440195009E0B4F1405F3AD0B4F1605F37D0B4F1FB
S214401960205F30D045E04FF000613246224B98472A
S21440197015F0010F14BF7E663E6601203AE04FF038
S214401980805132461C4B984715F0010F14BF7E66B7
S2144019903E6601202EE04FF0C0513246164B984727
S2144019A015F0010F14BF7E663E66012022E04FF020
S2144019B000513246104B984715F0010F14BF7E6613
S2144019C03E66012016E00D4B9847012012E005F0D8
S2144019D0605205F00103009338463146B2F1605F2D
S2144019E014BF00220122C5F38003054CA047012006
S2144019F000E0002003B0F0BD9916400029174000D3
S214401A005D1740002DE9F04104460E46104B9847BE
S214401A10054620460F4B9847054017D00E4F07F116
S214401A200C046C3754F80C3CB3420AD154F8081CEA
S214401A30294206D023683046984754F8083C25EAA1
S214401A400305BC4202D01034002DEBD1BDE8F08136
S214401A508517400089174000280B002008B502482B
S214401A600B21024B984708BD000E0E40051A400059
S214401A7008B502480C21024B984708BD00100E409E
S214401A80051A400008B502480D21024B984708BD8C
S214401A9000120E40051A4000174B1A6B22F07002D7
S214401AA0104318639B6E13F0080F09D14FF4006380
S214401AB0114901E0013B19D08A6E12F0080FF9D0A7
S214401AC00D4B1A6B22F0030242F002021A63986E24
S214401AD010F008000CD14FF40063074901E0013BC9
S214401AE008D08A6E12F0080FF9D070470120704770
S214401AF0002070470120704700040E4038B111495D
S214401B000B6A114A1A40114B13430B6270470D4A39
S214401B10136A23F45C1323F0030343F45C1343F08B
S214401B200103090289B20B431362936E13F0010F4F
S214401B30FBD0044A136A43F09B7343F4803313622A
S214401B40704700BF00040E40FCFFC8FE020037018D
S214401B50024B986E00F48030704700BF00040E4081
S214401B604FF00052014B9A62704700BF00040E408F
S214401B70024B986E00F00200704700BF00040E4013
S214401B801F280DD8084B9A69012383401A40934278
S214401B9008D0012303FA00F0034B18610020704779
S214401BA0012070470020704700040E40FEE700BF4B
S214401BB010B51E4B1E4A9A4203D01E4B1B4A9A42F1
S214401BC004D31D4B1D4A9A420FD31AE01C4B1D4CA2
S214401BD0E41A24F0030404340023144814495A58E1
S214401BE01A500433A342FAD1EBE7174B1749C91AE8
S214401BF021F003011A1D1144002243F8042F8B42A2
S214401C00FBD1134A22F0604323F07F0311498B60D7
S214401C1002F16042B2F5C04F03D28A6842F00052E9
S214401C208A600D4B98470D4B9847FEE70000002012
S214401C30209C40008C0900208C0C00208C09002041
S214401C40040000208F09002088090020870C00200F
S214401C500000400000ED00E0B534400001204000A8
S214401C60394B1B6B03F00303012B0FD013B1022B30
S214401C7029D051E0354B5B6913F0800F14BF4FF409
S214401C8000424FF4FA42324B1A6045E02E4B1B6A34
S214401C9013F0807F03D02F4A2D4B1A603CE02E4A2B
S214401CA02B4B1A60284B1B6A03F07003102B02D094
S214401CB0202B04D030E0294A254B1A602CE0254AD8
S214401CC0234B1A6028E0204B1B6A13F0807F03D01A
S214401CD0204A1F4B1A6012E01F4A1D4B1A601A4BCF
S214401CE01B6A03F07003102B02D0202B04D006E0B2
S214401CF01A4A174B1A6002E0164A154B1A60124BE6
S214401D00986A996A124BC0F30A401A6800FB02228E
S214401D10C9B2B2FBF1F21A600B4B1B6B03F07003B7
S214401D20702B07D10A4B1A680D49A1FB02025208D4
S214401D301A607047044B196B054BC1F302111A68C1
S214401D40CA401A60704700BF00040E4010140E4090
S214401D50E4000020001BB70000093D0000127A0096
S214401D60ABAAAAAA094B1B6813B9094A074B1A60C3
S214401D70064B1B681A180749914204DB1046034A73
S214401D801060184670474FF0FF307047980B0020A1
S214401D9090140020FC5F00204FF0FF30704700BFDB
S214401DA04FF400534B600020704700BF012070473F
S214401DB000207047F0B583B005460C4600230193DB
S214401DC0184B984207D11F46174E38462146B04713
S214401DD00028FAD117E0154B984207D11E46124DFF
S214401DE030462146A8470028FAD118E0104B9842C2
S214401DF009D11E460F4D304601A9A8470028FAD102
S214401E00019B23700BE00C4B9D4208D11E46094DAA
S214401E10304601A9A8470028FAD1019B237003B099
S214401E20F0BD00BF00060E403515400000080E40CD
S214401E3000400240B90540000080024070B50C46A4
S214401E401A4B984207D11E46194D30462146A847A0
S214401E500028FAD120E0174B984207D11E46144D71
S214401E6030462146A8470028FAD117E0124B984240
S214401E7007D11E46114D30462146A8470028FAD1C4
S214401E800EE00F4B98420DD11E460C4D3046214673
S214401E90A8470028FAD107E0012070BD012070BD98
S214401EA0012070BD002070BD012070BD00060E40B0
S214401EB02515400000080E4000400240A5054000A1
S214401EC000800240084B1A6801321A601A68074BB5
S214401ED01B68D31A132B06D90122054B1A70024BE6
S214401EE01A68024B1A607047AC0B0020A80B002003
S214401EF09C0B002008B5014B984708BDCD1040000C
S214401F002DE9F0410F4CB0272760DC26666000259F
S214401F10A5606FF07F48C4F80C800B4B984720466E
S214401F200A4B984708200A4B98470A4B9847404622
S214401F30094B9847284629463A463346074CA04719
S214401F40BDE8F081780C0020410F40007D11400034
S214401F50E50E4000E51040000911400081134000A6
S214401F6038B510201D4B9847002835D11C4B1968B2
S214401F701A4613685B1A312BFBD91020174B98472B
S214401F80002829D1154D164C04E0226823689B1A78
S214401F90312BFBD91020A8470028F6D0114B1B68E0
S214401FA04BB901220F4B1A602E200F4B9847002248
S214401FB00E4B1A6038BD0E4B0E4A92E8030018606E
S214401FC09980090C997118460B4B98470022054B8F
S214401FD01A602E20094B984738BD00BF8D17400029
S214401FE0AC0B0020B40B0020C5174000B00B0020FF
S214401FF0140C0020A899400005354000A917400061
S2144020002DE9F04395B0774B9847774B9847082093
S214402010764DA847764C774B1C60774A774B1A60CC
S214402020774A784B1A60784B11934FF416531293B5
S2144020304FF4006313930820A847204611A9734B1A
S2144020409847734D2B6898680021724CA0472B68C0
S21440205058680021A047704B984700206F4B984720
S2144020600A2001466E4A6F4B98476F4B9847D8B93F
S2144020706E4B98476E481D216E4B98476E4B98475F
S2144020806E4B4BF67F325A60F0216D4A82F8231031
S21440209000249C6007221A606A4B1A686A4B1A60D2
S2144020A06A4E6B4D6B4F07E06B486C4B9847192553
S2144020B06B4C2846A047FCE73378002B43D00023E0
S2144020C0337028461D21B847594866491D22692362
S2144020D0DFF8C0C1E04710B11920614B984762480D
S2144020E01D21544B984761486921614B9847614B85
S2144020F01B68002B26D0DFF8A091DFF88C814C4B74
S2144021001868C047CDE90001564B1868C047CDE96E
S21440211002012868C047CDE904016868C047CDE998
S2144021200601514B1868C047CDE90801484664216E
S214402130514A524B98474846484B9847504B1A6826
S21440214001321A60013404EB84039B00B3F57A7FB6
S21440215045D317204B4B9847DFF83C814A4C2868BC
S214402160A047CDE900016868A047CDE90201A8680C
S214402170A047CDE904013C4B1868A047CDE90601CD
S214402180DFF8E890D9F80000A047CDE90801D9F873
S2144021900400A047CDE90A01324B1868A047CDE9B4
S2144021A00C01374B1B6803EB83039B000E934046A2
S2144021B06421364A314B98476FF07F40174CA04712
S2144021C000201E21B022DC23DFF8D0C0E0470020EC
S2144021D0A0470A201E214246124B984700242C4B0B
S2144021E0984769E749154000AD154000811B4000FF
S2144021F000060E40100C00203D1E40000C0C002037
S214402200B51D4000080C0020006CDC02ED144000B8
S21440221018050020C1354000011F4000091140004C
S214402220B099400039144000D105400041064000B6
S214402230D00B0020D1084000B506400010E000E07A
S21440224000ED00E0AC0B0020A80B00209C0B00200B
S214402250B80B0020410A4000C499400005354000B4
S214402260C5174000A00B0020A40B0020C40B002084
S21440227089074000B40B0020D0994000D13640007A
S214402280B00B0020E117400095294000EC99400033
S214402290611F4000D90C4000140C00208113400000
S2144022A070B58AB0054600F04BF8224C064694F9C5
S2144022B00030013303D0284600F0EEF910B930461E
S2144022C00AB070BD284600F0E3F94FF07E5101F0A9
S2144022D0E1F80028F3D0184901220023284600924E
S2144022E00893019100F056FB02460B461348CDE991
S2144022F00423CDE9022300F0C5F994F90030CDE976
S2144023000601022B0BD0684600F0BAF938B1089B9C
S21440231053B9DDE9060100F0A3FD0AB070BD01F037
S214402320C3F821230360F2E701F0BEF8089B036080
S214402330EFE700BFE8000020489A4000889A400037
S2144023402DE9F04720F00045B5F17E5F044606468D
S21440235000F0C78011DCB5F17C5F16DAB5F1485F56
S21440236080F2CD808C4900F0D1FD4FF07E5101F0D7
S21440237091F850B12046BDE8F087014600F0C4FD14
S214402380014600F07FFFBDE8F087204600F080F968
S21440239001464FF07E5000F0B7FD4FF07C5100F004
S2144023A0BDFE7E49044600F0B9FE7D4900F0AEFD14
S2144023B0214600F0B3FE7B4900F0A6FD214600F022
S2144023C0ADFE794900F0A2FD214600F0A7FE774910
S2144023D000F09AFD214600F0A1FE754900F096FDFA
S2144023E0214600F09BFE73498146204600F096FE4B
S2144023F0714900F089FD214600F090FE6F4900F0DB
S21440240085FD214600F08AFE6D4900F07DFD21469F
S21440241000F084FE4FF07E5100F078FD8046204666
S21440242000F0DAF8674B07469D4244DC014600F070
S2144024306DFD41468246484600F024FF0146504620
S21440244000F06CFE27F47F6525F00F058046294690
S214402450284600F063FE0146204600F055FD29461A
S2144024600446384600F052FD0146204600F00AFF7A
S214402470014600F04BFD0146534800F045FD01463D
S214402480404600F041FD29460446284600F03EFD01
S21440249001464E4800F038FD0146204600F034FD27
S2144024A001464A4800F030FD002E3FF764AF00F189
S2144024B00040BDE8F0874146484600F0E3FE01464E
S2144024C0384600F02BFE394600F020FD014600F06D
S2144024D01DFD3F4900F01AFD01463E4800F014FD40
S2144024E0E2E73C4900F01AFE37490546204600F030
S2144024F015FE0146284600F009FDBDE8F087014676
S21440250000F00CFE2549054600F008FE244900F080
S214402510FDFC294600F002FE224900F0F5FC294663
S21440252000F0FCFD204900F0F1FC294600F0F6FDE5
S2144025301E4900F0E9FC294600F0F0FD1C4900F079
S214402540E5FC294600F0EAFD1A490646284600F012
S214402550E5FD194900F0D8FC294600F0DFFD174993
S21440256000F0D4FC294600F0D9FD154900F0CCFC1B
S214402570294600F0D3FD4FF07E5100F0C7FC0146DF
S214402580304600F07FFE0146204600F0C7FD21465B
S21440259000F0BCFCBDE8F087CAF2497108EF11387C
S2144025A0047F4F3A4611243DA80A4E3E90B0A63EC0
S2144025B0ABAA2A3E2EC69D3D6133303F2D57014083
S2144025C039D119409999793F2EBD3BB3DB0F493F2E
S2144025D02EBD3B33DB0FC93F20F00042B2F1FF4F28
S2144025E0F8B5044603462DD25AB300283DDBB2F573
S2144025F0000F4FEAE0502CD37F38C3F31603C207D0
S21440260043F4000348BF5B00002740105B003E4693
S21440261019244FF08072B5189D4202DC5B1BAE1841
S2144026201744013C4FEA43034FEA5202F3D113B139
S21440263007F001031F447F1007F17C5707EBC0509B
S214402640F8BDF8BD014600F069FD214600F05EFC8D
S214402650F8BD14F400020FD15B00190202F101022A
S214402660FAD5C2F101021044C6E7014600F04CFC20
S214402670014600F007FEF8BD01221044BCE700BF4B
S2144026800020704700200149704700BF0000F87FD7
S21440269020F00040704700BF30F0004001D10220DB
S2144026A07047A0F50003B3F1FE4F01D204207047F7
S2144026B0054B421E9A4201D803207047B0F1FF43B3
S2144026C058425841704700BFFEFF7F0081F00041EE
S2144026D002E000BF83F0004330B54FEA41044FEAC2
S2144026E0430594EA050F08BF90EA020F1FBF54EA5D
S2144026F0000C55EA020C7FEA645C7FEA655C00F0F9
S214402700E2804FEA5454D4EB5555B8BF6D420CDDC9
S2144027102C4480EA020281EA030382EA000083EA4C
S214402720010180EA020281EA0303362D88BF30BDEC
S21440273011F0004F4FEA01314FF4801C4CEA113142
S21440274002D0404261EB410113F0004F4FEA0333A1
S2144027504CEA133302D0524263EB430394EA050F2C
S21440276000F0A780A4F10104D5F1200E0DDB02FA9B
S2144027700EFC22FA05F2801841F1000103FA0EF22F
S214402780801843FA05F359410EE0A5F120050EF1F5
S214402790200E012A03FA0EFC28BF4CF0020C43FA26
S2144027A005F3C01851EBE37101F0004507D54FF033
S2144027B0000EDCF1000C7EEB00006EEB0101B1F583
S2144027C0801F1BD3B1F5001F0CD349085FEA3000C9
S2144027D04FEA3C0C04F101044FEA445212F5800FD4
S2144027E080F09A80BCF1004F08BF5FEA500C50F171
S2144027F0000041EB045141EA050130BD5FEA4C0C54
S214402800404141EB010111F4801FA4F10104E9D1DC
S21440281091F0000F04BF01460020B1FA81F308BFD3
S2144028202033A3F10B03B3F120020CDA0C3208DD9F
S21440283002F1140CC2F10C0201FA0CF021FA02F17A
S2144028400CE002F11402D8BFC2F1200C01FA02F1EA
S21440285020FA0CFCDCBF41EA0C019040E41AA2BF0F
S21440286001EB0451294330BD6FEA04041F3C1CDAD7
S2144028700C340EDC04F11404C4F1200220FA04F0F7
S21440288001FA02F340EA030021FA04F345EA0301A1
S21440289030BDC4F10C04C4F1200220FA02F001FA63
S2144028A004F340EA0300294630BD21FA04F02946E5
S2144028B030BD94F0000F83F4801306BF81F480117E
S2144028C00134013D4EE77FEA645C18BF7FEA655CF1
S2144028D029D094EA050F08BF90EA020F05D054EAC3
S2144028E0000C04BF1946104630BD91EA030F1EBFC8
S2144028F00021002030BD5FEA545C05D140004941CC
S21440290028BF41F0004130BD14F580043CBF01F5BE
S214402910801130BD01F0004545F0FE4141F47001A4
S2144029204FF0000030BD7FEA645C1ABF194610467F
S2144029307FEA655C1CBF0B46024650EA013406BF80
S21440294052EA033591EA030F41F4002130BD00BF3F
S21440295090F0000F04BF0021704730B54FF48064FC
S21440296004F132044FF000054FF0000150E700BF7D
S21440297090F0000F04BF0021704730B54FF48064DC
S21440298004F1320410F0004548BF40424FF00001C9
S2144029903EE700BF42004FEAE2014FEA31014FEA0C
S2144029A002701FBF12F07F4393F07F4F81F060515B
S2144029B0704792F0000F14BF93F07F4F704730B5CA
S2144029C04FF4607401F0004521F0004120E700BF5D
S2144029D050EA010208BF704730B54FF000050AE0E4
S2144029E050EA010208BF704730B511F0004502D5E5
S2144029F0404261EB41014FF4806404F132045FEAE7
S214402A00915C3FF4DCAE4FF003025FEADC0C18BF8B
S214402A1003325FEADC0C18BF033202EBDC02C2F181
S214402A20200300FA03FC20FA02F001FA03FE40EA13
S214402A300E0021FA02F11444C1E600BF70B54FF013
S214402A40FF0C4CF4E06C1CEA11541DBF1CEA1355F5
S214402A5094EA0C0F95EA0C0F00F0DEF82C4481EA5D
S214402A60030621EA4C5123EA4C5350EA013518BF7D
S214402A7052EA033541F4801143F4801338D0A0FB6A
S214402A8002CE4FF00005E1FB02E506F00042E0FB17
S214402A9003E54FF00006E1FB03569CF0000F18BF1D
S214402AA04EF0010EA4F1FF04B6F5007F64F54074C5
S214402AB004D25FEA4E0E6D4146EB060642EAC62158
S214402AC041EA55514FEAC52040EA5E504FEACE2EC5
S214402AD0B4F1FD0C88BFBCF5E06F1ED8BEF1004FC8
S214402AE008BF5FEA500E50F1000041EB045170BD44
S214402AF006F0004646EA010140EA020081EA030188
S214402B00B4EB5C04C2BFD4EB0C0541EA045170BD83
S214402B1041F480114FF0000E013C00F3AB8014F1FD
S214402B20360FDEBF002001F0004170BDC4F1000446
S214402B30203C35DA0C341BDC04F11404C4F12005C7
S214402B4000FA05F320FA04F001FA05F240EA020022
S214402B5001F0004221F0004110EBD37021FA04F658
S214402B6042EB06015EEA430E08BF20EAD37070BD12
S214402B70C4F10C04C4F1200500FA04F320FA05F071
S214402B8001FA04F240EA020001F0004110EBD37073
S214402B9041F100015EEA430E08BF20EAD37070BDE3
S214402BA0C4F1200500FA05F24EEA020E20FA04F3BC
S214402BB001FA05F243EA020321FA04F001F000416B
S214402BC021FA04F220EA020000EBD3705EEA430EDC
S214402BD008BF20EAD37070BD94F0000F0FD101F00B
S214402BE00046400041EB010111F4801F08BF013C44
S214402BF0F7D041EA060195F0000F18BF704703F082
S214402C000046520043EB030313F4801F08BF013D08
S214402C10F7D043EA0603704794EA0C0F0CEA1355C4
S214402C2018BF95EA0C0F0CD050EA410618BF52EA7E
S214402C304306D1D181EA030101F000414FF0000084
S214402C4070BD50EA410606BF1046194652EA430692
S214402C5019D094EA0C0F02D150EA013613D195EA06
S214402C600C0F05D152EA03361CBF104619460AD14E
S214402C7081EA030101F0004141F0FE4141F4700158
S214402C804FF0000070BD41F0FE4141F4780170BD48
S214402C9070B54FF0FF0C4CF4E06C1CEA11541DBFAD
S214402CA01CEA135594EA0C0F95EA0C0F00F0A7F8AF
S214402CB0A4EB050481EA030E52EA03354FEA0131DC
S214402CC000F088804FEA03334FF0805545EA1313EF
S214402CD043EA12634FEA022245EA111545EA1065B7
S214402CE04FEA00260EF000419D4208BF964244F14E
S214402CF0FD0404F5407402D25B084FEA3202B61A6D
S214402D0065EB03055B084FEA32024FF480104FF440
S214402D10002CB6EB020E75EB030E22BFB61A7546B4
S214402D2040EA0C005B084FEA3202B6EB020E75EB47
S214402D30030E22BFB61A754640EA5C005B084FEAAF
S214402D403202B6EB020E75EB030E22BFB61A75467C
S214402D5040EA9C005B084FEA3202B6EB020E75EB87
S214402D60030E22BFB61A754640EADC0055EA060E48
S214402D7018D04FEA051545EA16754FEA06164FEA8B
S214402D80C30343EA52734FEAC2025FEA1C1CC0D137
S214402D9011F4801F0BD141EA00014FF000004FF0C4
S214402DA0004CB6E711F4801F04BF01430020B4F185
S214402DB0FD0C88BFBCF5E06F3FF6AFAEB5EB030C3D
S214402DC004BFB6EB020C5FEA500C50F1000041EB3A
S214402DD0045170BD0EF0004E4EEA113114EB5C0407
S214402DE0C2BFD4EB0C0541EA045170BD41F48011DA
S214402DF04FF0000E013C90E645EA060E8DE60CEAE2
S214402E00135594EA0C0F08BF95EA0C0F3FF43BAFFE
S214402E1094EA0C0F0AD150EA01347FF434AF95EAB5
S214402E200C0F7FF425AF104619462CE795EA0C0F99
S214402E3006D152EA03353FF4FDAE1046194622E766
S214402E4050EA410618BF52EA43067FF4C5AE50EA40
S214402E5041047FF40DAF52EA43057FF4EBAE12E730
S214402E604FEA4102B2F1E04324BFB3F5001CDCF167
S214402E70FE5C0DD901F0004C4FEAC0024CEA50709F
S214402E80B2F1004F40EB830008BF20F001007047CE
S214402E9011F0804F21D113F13872BCBF01F00040D1
S214402EA0704741F480114FEA5252C2F11802C2F103
S214402EB0200C10FA0CF320FA02F018BF40F0010084
S214402EC04FEAC1234FEAD32303FA0CFC40EA0C0036
S214402ED023FA02F34FEA4303CCE77FEA625307D173
S214402EE050EA01331EBF4FF0FE4040F440007047AA
S214402EF001F0004040F0FE4040F40000704700BF44
S214402F0080F0004002E000BF81F0004142001FBF59
S214402F105FEA410392EA030F7FEA226C7FEA236C62
S214402F206AD04FEA1262D2EB1363C1BFD218414057
S214402F3048404140B8BF5B42192B88BF704710F0ED
S214402F40004F40F4000020F07F4018BF404211F090
S214402F50004F41F4000121F07F4118BF494292EAF8
S214402F60030F3FD0A2F1010241FA03FC10EB0C0024
S214402F70C3F1200301FA03F100F0004302D54942B1
S214402F8060EB4000B0F5000F13D3B0F1807F06D35E
S214402F9040084FEA310102F10102FE2A51D2B1F156
S214402FA0004F40EBC25008BF20F0010040EA03004B
S214402FB07047490040EB000010F4000FA2F10102F8
S214402FC0EDD1B0FA80FCACF1080CB2EB0C0200FA82
S214402FD00CF0AABF00EBC25052421843BCBFD040D0
S214402FE01843704792F0000F81F4000106BF80F44A
S214402FF000000132013BB5E74FEA41037FEA226C0D
S21440300018BF7FEA236C21D092EA030F04D092F0D7
S214403010000F08BF0846704790EA010F1CBF00200B
S214403020704712F07F4F04D1400028BF40F0004068
S214403030704712F100723CBF00F50000704700F088
S214403040004343F0FE4040F4000070477FEA2262AF
S21440305016BF08467FEA23630146420206BF5FEA80
S214403060412390EA010F40F4800070474FF0000380
S21440307004E000BF10F0004348BF40425FEA000C47
S21440308008BF704743F0964301464FF000001CE0EF
S21440309050EA010208BF70474FF000030AE000BF45
S2144030A050EA010208BF704711F0004302D5404283
S2144030B061EB41015FEA010C02BF844601460020F5
S2144030C043F0B64308BFA3F18053A3F50003BCFA10
S2144030D08CF2083AA3EBC25310DB01FA02FC6344BD
S2144030E000FA02FCC2F12002BCF1004F20FA02F2C4
S2144030F043EB020008BF20F00100704702F12002B7
S21440310001FA02FCC2F1200250EA4C0021FA02F217
S21440311043EB020008BF20EADC7070474FF0FF0C1C
S2144031201CEAD0521EBF1CEAD15392EA0C0F93EA17
S2144031300C0F6FD01A4480EA010C400218BF5FEAB9
S21440314041211ED04FF0006343EA501043EA51112C
S214403150A0FB01310CF00040B1F5000F3EBF490026
S21440316041EAD3715B0040EA010062F17F02FD2A2A
S2144031701DD8B3F1004F40EBC25008BF20F001000D
S214403180704790F0000F0CF0004C08BF49024CEA24
S214403190502040EA51207F3AC2BFD2F1FF0340EAB6
S2144031A0C250704740F400004FF00003013A5DDC27
S2144031B012F1190FDCBF00F000407047C2F1000268
S2144031C0410021FA02F1C2F1200200FA02FC5FEA55
S2144031D0310040F1000053EA4C0308BF20EADC709F
S2144031E0704792F0000F00F0004C02BF400010F411
S2144031F0000F013AF9D040EA0C0093F0000F01F0BE
S214403200004C02BF490011F4000F013BF9D041EADF
S2144032100C018FE70CEAD15392EA0C0F18BF93EAE1
S2144032200C0F0AD030F0004C18BF31F0004CD8D10B
S21440323080EA010000F00040704790F0000F17BF92
S21440324090F0004F084691F0000F91F0004F14D0D8
S21440325092EA0C0F01D142020FD193EA0C0F03D130
S2144032604B0218BF084608D180EA010000F0004033
S21440327040F0FE4040F40000704740F0FE4040F40E
S214403280400070474FF0FF0C1CEAD0521EBF1CEAAD
S214403290D15392EA0C0F93EA0C0F69D0A2EB0302CB
S2144032A080EA010C49024FEA402037D04FF0805365
S2144032B043EA111143EA10130CF000408B4238BF2A
S2144032C05B0042F17D024FF4000C8B4224BF5B1A38
S2144032D040EA0C00B3EB510F24BFA3EB510340EA86
S2144032E05C00B3EB910F24BFA3EB910340EA9C0034
S2144032F0B3EBD10F24BFA3EBD10340EADC001B01A4
S21440330018BF5FEA1C1CE0D1FD2A3FF650AF8B4247
S21440331040EBC25008BF20F0010070470CF0004C54
S2144033204CEA50207F32C2BFD2F1FF0340EAC2507F
S214403330704740F400004FF00003013A37E792F040
S214403340000F00F0004C02BF400010F4000F013A9E
S214403350F9D040EA0C0093F0000F01F0004C02BF99
S214403360490011F4000F013BF9D041EA0C0195E702
S2144033700CEAD15392EA0C0F08D142027FF47DAF9B
S21440338093EA0C0F7FF470AF084676E793EA0C0F8B
S21440339004D14B023FF44CAF08466EE730F0004C89
S2144033A018BF31F0004CCAD130F000427FF45CAF19
S2144033B031F000437FF43CAF5FE700BF4FF0FF3C87
S2144033C006E000BF4FF0010C02E000BF4FF0010CDA
S2144033D04DF804CD4FEA40024FEA41037FEA226CA3
S2144033E018BF7FEA236C11D001B052EA530C18BFC5
S2144033F090EA010F58BFB2EB030088BFC81738BF2A
S2144034006FEAE17018BF40F0010070477FEA226C17
S21440341002D15FEA402C05D17FEA236CE4D15FEA13
S214403420412CE1D05DF8040B704700BF8446084647
S2144034306146FFE70FB5FFF7C9FF002848BF10F108
S214403440000F0FBD4DF808EDFFF7F4FF0CBF01204D
S21440345000205DF808FB00BF4DF808EDFFF7EAFFD7
S21440346034BF012000205DF808FB00BF4DF808ED92
S214403470FFF7E0FF94BF012000205DF808FB00BF87
S2144034804DF808EDFFF7D2FF94BF012000205DF80D
S21440349008FB00BF4DF808EDFFF7C8FF34BF01201A
S2144034A000205DF808FB00BF014B1868704700BF5E
S2144034B01805002070B50F4E0F4D761BB61007D07E
S2144034C0043D0024013455F8043F9847A642F9D1FC
S2144034D00A4E0B4D06F08EFB761BB61008D0043D08
S2144034E00024013455F8043F9847A642F9D170BDF0
S2144034F070BD00BF009C4000009C4000089C4000FF
S214403500009C40000FB410B5074B82B004AC54F892
S214403510042B186823468168019401F0B9FB02B079
S214403520BDE8104004B0704718050020F0B484078A
S21440353043D0541E002A3ED0CDB2034603E0621E5E
S214403540002C38D0144603F8015B9A07F7D1032CB9
S2144035502AD9CDB245EA05250F2C45EA054515D9A9
S214403560A4F110073F0903F1100606EB07161A46AA
S214403570156055609560D5601032B242F8D104F0BF
S2144035800F040137032C03EB07130DD91E462246C2
S214403590043A032A46F8045BFAD8221F22F00302B4
S2144035A00432134404F003042CB1C9B21C4403F89B
S2144035B0011BA342FBD1F0BC704714460346C6E746
S2144035C000290CBF022200224FF4806300F000B8AE
S2144035D02DE9F0413C4D04462D68884616461F4668
S2144035E015B1AB6B002B4FD0022E30D8002F2EDB00
S2144035F02846214603F080FAA38900226260A26131
S2144036001A0628D423F083039BB2022EA3812DD022
S214403610B8F1000F3CD0012E13D09BB203F0080047
S2144036202A4A80B2EA63C4F80080C4F81080676112
S21440363078B113F0030F18BF0027A7600020BDE83D
S214403640F08143F001037A42A381A261E5E74FF09F
S214403650FF30BDE8F0812846216903F0ADFBA38921
S214403660022E23F083039BB2A381D1D1002004F124
S214403670430243F0020300250121A381A560226096
S21440368022616161BDE8F081284603F051FAABE75C
S214403690002F08BF4FF48067384603F087FE804609
S2144036A028B1A38943F080039BB2A381B3E74FF4CC
S2144036B0806003F07BFE804618B9A3894FF0FF3048
S2144036C0D5E74FF48067ECE718050020256B4000EF
S2144036D00CB4F0B5174B0C1E9DB01F6824DB4FF49E
S2144036E0027323AD14BF04F1FF36264602900690BF
S2144036F0ADF814304FF6FF7E2B46384602A9229A84
S214403700049607960195ADF816E000F015F8431CB0
S214403710BCBF8B233B6014B1029B00221A701DB0C5
S214403720BDE8F04002B070478B233B604FF0FF305F
S214403730F5E700BF180500202DE9F04FC9B01093FB
S2144037400C9191460D9003F0BDFD0068159004F075
S21440375061FF0C9C1890A3891E0603D52369002B95
S21440376001F0818038ACA44608942B9400250024B0
S214403770CDE91645002311932D932C931A93199354
S2144037800E93664699F80030002B00F0F880252B03
S21440379000F0F58009F1010201E0252B04D01378F2
S2144037A014460132002BF8D1C9EB04057DB12C9BA1
S2144037B02D9A01332A44072BC6F8009075602D9247
S2144037C02C9300F3C28008360E9828440E90237837
S2144037D0002B00F0C280002394F801801A468DF832
S2144037E08F300F93099304F101094FF0FF340A9488
S2144037F009F10109A8F12003582B00F2C583DFE840
S21440380013F06A02C303C3037102C303C303C303B3
S214403810C303C303C30314036603C3039D00C0006E
S214403820C30378027F027F027F027F027F027F020D
S2144038307F027F027F02C303C303C303C303C303E2
S214403840C303C303C303C303C30390027103C30389
S2144038507103C303C303C303C3036A03C303C3039E
S2144038607800C303C303C303C303C3035900C3039E
S214403870C303AF02C303C303C303C303C303C303E8
S214403880C303C303C303C30337034803710371036E
S2144038907103FF024803C303C3030803C303C502FF
S2144038A07C002003A303C303D902C3035F00C30302
S2144038B0C303DE00DDF824C04CF0100CCDF824C065
S2144038C0099CA20600F15483099CE30600F1BD85DD
S2144038D0DDF824C01CF0400F00F0B785DDF840C08E
S2144038E00025BCF800400CF1040C0123CDF840C084
S2144038F08CE0099D45F010050995DDF824C01CF0C4
S214403900200340F02A83DDF824C01CF0100240F06B
S214403910A485DDF824C01CF0400300F09E85DDF849
S21440392040C01346BCF800400CF1040C0025CDF80E
S21440393040C06BE00F9C109364420F94099D45F085
S2144039400405099599F8008052E70D980C992BAA22
S21440395004F090FE40B938AE36E72D9B23B10D9863
S2144039600C992BAA04F086FE0C9C0E98A38913F0A3
S214403970400F18BF4FF0FF3049B0BDE8F08F4C46BF
S21440398025E799F8008009F10100B8F12A0F01F007
S2144039900C81A8F13003092B98BF002101F26B80FF
S2144039A010F8018B01EB810103EB4101A8F13003D4
S2144039B0092BF5D941EAE1710A9181461AE7099D3A
S2144039C0A14CAF061A948DF88F2040F1D181DDF8D6
S2144039D040C00CF1070323F0070303F108041094DA
S2144039E0D3E90045DDF824C01CF0010F00F06284E6
S2144039F054EA050000F05E8430234CF0020C8DF84B
S214403A0090308DF89180CDF824C002234FF0000A04
S214403A108DF88FA00A99002905DBDDF824C02CF02C
S214403A20800CCDF824C054EA050040F0C5820A99BF
S214403A30002940F0C182002B40F03884DDF824C0D5
S214403A401CF0010F00F0328448AF3023089D07F881
S214403A50413DEC1BDDF828C000256445A8BFA446C0
S214403A60CDF82CC01495BAF1000F02D00B9D01354D
S214403A700B95099B13F00203129302D00B9D02355F
S214403A800B95DDF824C01CF0840CCDF84CC040F0FB
S214403A9090820F9DDDF82CC0CCEB050BBBF1000FE0
S214403AA040F38782BBF1100F2D992C9ADFF8A0A126
S214403AB02CDD1B97304657461025CA460C9EA1461D
S214403AC00D9C06E0ABF1100BBBF1100F00F10800A7
S214403AD017DD01321031072A2D912C920760456080
S214403AE0F0DD204631462BAA04F0C4FD00287FF4C2
S214403AF03BAFABF1100BBBF1100F2D992C9A38A8A9
S214403B00E7DC4C46D146BA461B9F064601320BEBD5
S214403B10010C072ACDF8B4C02C9286E8000C00F3BE
S214403B201A849DF88FA00836BAF1000F0FD02C9B50
S214403B300CF1010C01330DF18F010122072BCDF85A
S214403B40B4C02C9386E8060000F3A4830836129B84
S214403B5073B12C9B0CF1020C013324A90222072BD3
S214403B60CDF8B4C02C9386E8060000F38783083669
S214403B70139D802D00F0CA820A9DC4EB050ABAF157
S214403B80000F3BDDBAF1100F2C9B304D2BDD0A9415
S214403B9032464FF0100B2E4661460D9C0C9D06E0BB
S214403BA0AAF1100ABAF1100F02F1080217DD01332C
S214403BB01031072B2D912C9382E84008F0DD2046EB
S214403BC029462BAA04F056FD00287FF4CDAEAAF174
S214403BD0100ABAF1100F2D992C9B38AAE7DC0A9CE4
S214403BE035468C4616460133D444072BCDF8B4C030
S214403BF02C9386E8200400F335830836099DED05AE
S214403C0000F124822C9BA4440133072BCDF8B4C08A
S214403C10376074602C9300F30F830836099C630763
S214403C2049D50F9D0B982C1A002C44DD102C2C9B4C
S214403C30DFF81CA02BDD574610256246DDF83080A5
S214403C40DDF834A00BE000BF8C9A4000589A400044
S214403C50AC9A4000103C102C06F1080615DD0133E6
S214403C601032072B2D922C9337607560F2DD50464C
S214403C7041462BAA04F0FEFC00287FF475AE103CAB
S214403C80102C2D9A2C9B38AEE9DC9446BA4601336C
S214403C90A444072BCDF8B4C02C93C6F800A074609B
S214403CA009DD0D980C992BAA04F0E4FC00287FF45B
S214403CB05BAEDDF8B4C00E9C0B980F9DA842ACBF1F
S214403CC0241864190E94BCF1000F40F0C182002302
S214403CD02C9338AE56E599F80080002A7FF488ADDC
S214403CE0202285E5099D45F00105099599F8008053
S214403CF07EE5099D45F08005099599F8008077E5B1
S214403D000024A8F130030F94214619F8018B01EBEB
S214403D10810103EB4101A8F13003092BF5D90F913E
S214403D2068E5DDF824C08DF88F204CF0100CCDF8F7
S214403D3024C0099CA50640F1B280109DE91D21F0E3
S214403D400701D1E900230831109114461D46002A88
S214403D5073F1000CC0F294839DF88FA0012359E6BE
S214403D60099DB64CAF068DF88F201A943FF52FAEBE
S214403D70099DED0640F14384DDF840C00025DCF89F
S214403D8000400CF1040CCDF840C02BE6DDF824C012
S214403D908DF88F201CF0200F00F04084109C216886
S214403DA00E9CE5172B46109D224604351095C1E91A
S214403DB00023E7E4109C4FF0000A27688DF88FA098
S214403DC0251D002F00F0E9850A9C3846002CC0F2DD
S214403DD09B855146224603F08DFD002800F0138651
S214403DE00A9CC01BA042B8BF0446109524EAE4755E
S214403DF0CDF828A0CDF850A00B959DF88FA032E6C0
S214403E00DDF824C04CF0400CCDF824C099F8008072
S214403E10EEE499F800804B46B8F16C0F00F07F84D2
S214403E20099D45F010050995E2E4109C109D246814
S214403E302B1D002C0F94FFF67DAD109399F8008053
S214403E40D6E4109BDDF824C0109D7D4804351C68E0
S214403E504FF0780830234CF0020C10958DF89030D7
S214403E60CDF824C000258DF891801A900223CDE528
S214403E70109B109D1A680124002304359A460B9423
S214403E808DF8B82010958DF88F300A9314932EAF86
S214403E90EFE5099C8DF88F20A5063FF54EAFDDF87F
S214403EA024C01CF0100F40F0DF82DDF824C01CF068
S214403EB0400F00F0D982DDF840C0BCF900400CF15C
S214403EC0040CE51722462B46CDF840C03FE799F84C
S214403ED000802B228CE4099D45F00805099599F849
S214403EE0008085E4109D8DF88F20EB1D23F007039E
S214403EF003F1080CCDF840C0D3E90045CDE916459E
S214403F00DDE9160104F00AFB0128DDE9160140F060
S214403F105C830022002304F057FE002840F06385AF
S214403F209DF88FA003250B95099D464F25F08005EB
S214403F30454B0024099500250A94B8F1470FD8BF91
S214403F401F46032414958EE5DDF824C04CF0200C63
S214403F50CDF824C099F800804AE4109CE31D23F075
S214403F60070303F108051095D3E9004500234DE506
S214403F70109DEB1D23F0070303F1080CD3E9004521
S214403F80CDF840C0012341E58DF88F20B8F1000FF1
S214403F903FF4E3AC00234FF0010C9A46CDF82CC01A
S214403FA08DF8B8808DF88F300A93149364462EAF00
S214403FB05FE5DDF8B4C0B7E5012B00F0EC80022BDE
S214403FC00DF1DF0318D1DDF868C0194604F00F0084
S214403FD022091CF8000042EA05722B09087052EAD2
S214403FE003000F4614461D4601F1FF31EED1089DF1
S214403FF0CDE91E23EC1B2DE5E00840EA457004F0B1
S2144040000702E908303250EA010C1F461A7004468F
S2144040100D4603F1FF33EFD1099CCDE91C01E007C3
S214404020394640F1C180302A00F0BE80089D1F46C8
S2144040303023EC1B01F8013C0CE500BF789A4000A9
S2144040408C9A40006C9A4000689A4000B8F1650F20
S21440405040F3AD80DDE9160100220023CDF81CC0F8
S21440406004F0A8FDDDF81CC0002800F026812C9B3B
S214404070AA4901330CF1010C0122072BCDF8B4C03C
S2144040802C9386E8060000F3ED820836259B119CAB
S214404090A34203DB099DEC077FF5C0AD2C9B189C23
S2144040A00133159DA444072BCDF8B4C03560746029
S2144040B02C9300F33E830836119D6C1E002C7FF730
S2144040C0ADAD102C2C9B964D40F397811027624641
S2144040D0DDF83480DDF830A004E00836103C102CC3
S2144040E040F38A8101331032072B2D922C9386E8B9
S2144040F0A000F2DD404651462BAA04F0BBFA002849
S2144041007FF432AC2D9A2C9B38AEE7E70F9D0B9888
S214404110C0EB050ABAF1000F7FF72EADBAF1100FCB
S2144041202C9B7F4D2BDD129432464FF0100B2E46C3
S21440413061460D9C0C9D06E0AAF1100ABAF1100FDC
S21440414002F1080217DD01331031072B2D912C9315
S21440415082E84008F0DD204629462BAA04F08AFA79
S21440416000287FF401ACAAF1100ABAF1100F2D997D
S2144041702C9B38AAE7DC129C35468C461646013303
S214404180D444072BCDF8B4C02C9386E8200400F323
S2144041900F820836F0E4002D08BF0A2C80F03881E4
S2144041A0303448AF07F8414D089DEC1B52E4119C53
S2144041B0012C2C9C40F3D28101340CF101030122E6
S2144041C0072C2D9337602C94726000F3D881083604
S2144041D0159DDDF8608001343560189D9844072CA5
S2144041E0CDF8B4802C94756000F3D5810836DDE9AF
S2144041F016010022002304F0DDFC119D002840F04B
S214404200B9806B1E013401379844072C2C94CDF8A6
S214404210B4803760736000F3E2800836DDF864C02F
S2144042200134199DC44427AB072CCDF8B4C02C9458
S21440423086E828007FF7F1AC0D980C992BAA04F07D
S21440424019FA00287FF490ABDDF8B4C038AEE5E448
S2144042500D980C992BAA04F00DFA00283FF437ADC0
S214404260FFF782BB0D980C992BAA04F003FA00289E
S2144042707FF47AABDDF8B4C038AEBFE40D980C9945
S2144042802BAA04F0F7F900287FF46EABDDF8B4C033
S21440429038AE6DE40D980C992BAA04F0EBF9002883
S2144042A07FF462ABDDF8B4C038AE50E40A9C38AF59
S2144042B0FFF7D0BB0223FFF7A9BB259B002B40F39B
S2144042C0DD81119C149DDDF844A0AC42A8BF2C466D
S2144042D0002CBA440BDD2C9BA4440133072BCDF8AD
S2144042E0B4C0376074602C9300F31E830836149D68
S2144042F024EAE4742C1B002C40F3D780102C2C9B13
S214404300074D40F3A3810A974FF010082F466246A8
S2144043102546DDF834B00C9C09E000BFA89A400062
S214404320589A40000836103D102D40F38B810133DB
S2144043301032072B2D922C9386E88001F2DD5846EA
S21440434021462BAA04F096F900287FF40DAB2D9A4F
S2144043502C9B38AEE7E70D980C992BAA04F08AF907
S21440436000287FF401AB9DF88FA0DDF8B4C038AECE
S214404370FFF7DABB6F1E002F7FF750AF102FAE4D02
S21440438023DD43464FF0100ADDF83480DDF830B0C8
S21440439004E0103F102F06F1080615DD01341033F7
S2144043A0072C2D932C9486E82004F2DD404659468F
S2144043B02BAA04F05FF900287FF4D6AA103F102FEE
S2144043C02D9B2C9C38AEE9DC98460134B844072C2B
S2144043D0CDF8B4802C9486E8A0007FF71EAF0D98E9
S2144043E00C992BAA04F046F900287FF4BDAADDF804
S2144043F0B4802C9C38AE11E794460133A444072B76
S214404400CDF8B4C02C93356074607FF706AC13E7E4
S2144044100DF1DF0B204629460A22002304F024FC37
S21440442030328BF80020204629460A22002304F02A
S2144044301BFC04460D4654EA050C5F460BF1FF3B59
S214404440E8D1089DEC1BFFF705BB109D01232C68A7
S214404450043510950025FFF7D9BA109D2C68043511
S21440446010950025FFF7D2BA109D2C68043510959C
S214404470E51722462B46002A73F1000CBFF66CACBB
S2144044804FF02D0A644265EB45058DF88FA0012359
S214404490FFF7C0BA0D980C992BAA04F0EBF8002849
S2144044A07FF462AADDF8B4C038AE149D259C2F4434
S2144044B0119DAC4242DB099DE9073FD41198C7EBFA
S2144044C00A05041BAC42B8BF2546002D0BDD2C9BCD
S2144044D0AC440133072BCDF8B4C0376075602C93DD
S2144044E000F34C82083625EAE575641B002C7FF7FE
S2144044F095AB102C2C9B504D7FF77FAF1027624614
S214404500DDF83480DDF830A004E00836103C102C8E
S2144045107FF772AF01331032072B2D922C9386E82B
S214404520A000F2DD404651462BAA04F0A3F800282E
S2144045307FF41AAA2D9A2C9B38AEE7E7189D2C9B41
S214404540AC44159D01333560189D072BCDF8B4C09B
S21440455075602C9300F3F4810836AFE7099DEA07AF
S2144045603FF52AAE01340CF101080123072CCDF8A3
S214404570B4802C94376073607FF74FAE2FE70D986A
S2144045800C992BAA04F076F800287FF4EDA92D9B11
S2144045902C9C38AE1CE60D980C992BAA04F06AF8B1
S2144045A000287FF4E1A9DDF8B4802C9C38AE1EE6E6
S2144045B00D980C992BAA04F05DF800287FF4D4A936
S2144045C0DDF8B4C038AEFFF7D7BA03F0A7FF00282F
S2144045D040F0BB80099C194F194B4FF0030C24F058
S2144045E0800409940A90CDF82CC01490B8F1470F77
S2144045F0D8BF1F4664469DF88FA0FFF734BA099C83
S214404600640640F15081DDF840C00025BCF800400B
S2144046100CF1040CCDF840C0FFF7E4B9DDF824C037
S2144046201CF0100F00F04681109C0E9D2368043449
S21440463010941D60FFF7A6B8589A4000749A400040
S214404640709A40002C463D460A9F94460133A44447
S214404650072BCDF8B4C02C93356074603FF71AAF83
S214404660083622E70D980C992BAA04F003F8002888
S2144046707FF47AA9DDF8B4C038AE07E52C9AB7497E
S21440468001320CF1010C0120072ACDF8B4C02C925F
S2144046903160706000F3F78008361C462CB9119DD7
S2144046A01DB9099DE8077FF5B9AA2C9B159D189959
S2144046B001333560189D6144072B2D9175602C930E
S2144046C000F3DE8106F108026442002C40F30B81C1
S2144046D0102CA34D40F34881A34610260C46DDF827
S2144046E03480DDF830A006E00832ABF1100BBBF1A9
S2144046F0100F40F3378101331034072B2D942C9341
S21440470082E86000F0DD404651462BAA03F0B2FF37
S21440471000287FF429A92D9C2C9B38AAE5E7099C04
S21440472009F1010944F02004099493F80180FFF749
S2144047305FB80D980C992BAA03F09CFF00287FF4D5
S21440474013A9DDF8B4C038AEB6E40A9D28F0200AB6
S214404750013500F0A580BAF1470F04D10A9D002D1F
S21440476008BF01250A95DDF824C0DDE916234CF480
S214404770807C002BCDF848C0C0F29C81DDE9164510
S214404780CDE920454FF0000BB8F1660F00F09B8155
S214404790B8F1460F00F0A981BAF1450F0ABF0A9C4E
S2144047A00A9D651C022025A926AA29AB8DE8210072
S2144047B00392049302910D98DDE9202301F0DCF981
S2144047C0B8F1670F074602D0B8F1470F05D1DDF8BC
S2144047D024C01CF0010F00F09C81BAF1460F07EB95
S2144047E0050400F01C81DDE920010022002304F0CE
S2144047F0E1F9002840F00581299B9C4206D93021EA
S2144048005A1C29921970299B9C42F9D8DB1BBAF195
S214404810470F119300F0ED80B8F1650F40F3F28139
S214404820B8F1660F00F06881259C1494119C149D85
S214404830AC4200F33281DDF824C01CF0010F40F09A
S214404840AD8125EAE5732C464FF06708BBF1000FB3
S21440485040F0B280129D0B930995CDF828B09DF894
S2144048608FA0FFF700B90D98402102F0A7FD206009
S2144048702061002800F0BF81DDF830C04023CCF82E
S2144048801430FEF76FBF0D980C992BAA03F0F2FE7A
S21440489000287FF469A8259CDDF8B4C038AEFDE654
S2144048A006240A945FE7109D2C6804351095002571
S2144048B0FFF798B8DDF824C01CF0400F00F0878062
S2144048C0109C0E9D2368043410941D80FEF75ABF3A
S2144048D00D980C992BAA03F0CDFE00287FF444A82F
S2144048E02D992C9B38AADDF844C00133119C8C448A
S2144048F0072BCDF8B4C02C93176054603FF79CACA0
S21440490002F10806FFF78AB9CDF828A003F082FE28
S21440491010950A9D20EAE07C0446CDF82CC01495FC
S2144049209DF88FA0FFF79FB80D980C992BAA03F01F
S214404930A1FE00287FF418A8DDF8B4C038AED6E44F
S2144049400D980C992BAA03F095FE00287FF40CA82E
S214404950259CDDF8B4C038AEB0E500BFA89A40004C
S214404960589A400021465C4601332144072B2D913E
S2144049702C9315605460ABDC0832B4E70D980C9964
S2144049802BAA03F077FE00287EF4EEAF259C119903
S214404990DDF8B4C00C1B38AEA5E50A9CBA46062C1A
S2144049A028BF062424EAE47C0A9714971095CDF88D
S2144049B02CC0974FFFF757B8129D4FF02D0A099518
S2144049C000250B938DF88FA00A95FFF74FB8DDF8BA
S2144049D040C00E9CDCF800300CF1040CCDF840C012
S2144049E01C60FEF7CFBE4FF02D0A8DF88FA0FFF764
S2144049F099BA259BDC1C19DB0A9C9C4216DB149357
S214404A0014E7234602E724EAE47CCDF82CC00A9C4F
S214404A1010950A9014909DF88FA0FFF724B83B7825
S214404A20302B00F0AD80259D2C44DCE6A8F1020832
S214404A30591E00292591BABF49422D232B23092907
S214404A408DF89C808DF89D3065DC302330318DF8B4
S214404A509E308DF89F1028AB119D27AA119C9A1A5C
S214404A60012D1992144440F3B7800134002524EAFE
S214404A70E4731495EAE6002481460A94FEF7BABE2B
S214404A800D980C992BAA03F0F5FD00287EF46CAF28
S214404A90259C2D992C9B38AA16E6149C119D002C1B
S214404AA0D4BFC4F1020401242C4424EAE4734FF03A
S214404AB06708CBE61799169801F10041209021919E
S214404AC04FF02D0B60E60A9D032025A926AA29ABA8
S214404AD0019500900392049302910D98DDE92023FE
S214404AE001F04AF80A9D074677E60A9C032025A966
S214404AF026AA29AB0194ECE7259D0A9C002D149527
S214404B0063DDB4BB099DE80733D4149C24EAE47300
S214404B109CE6299B7AE60DF1AA023E4DCB1785FB13
S214404B200150C3EBA00000EB8003A1EB4301092832
S214404B30134601F130021A70014603F1FF32ECDCF5
S214404B4000F130010DF1AB04C9B2944203F8011CE8
S214404B505AD90DF19D001A4601E012F8011BA242F7
S214404B6000F8011FF9D10DF5907CC3EB4C03F63BE2
S214404B7072E70A9D6C1C149D2C4424EAE47365E697
S214404B80DDE920010022002304F014F800287FF419
S214404B904AAFC5F1010525952C4424E6149D4FF0F7
S214404BA067086C1C24EAE47350E6109DDDF840C0AC
S214404BB02D680CF10403002D99F801800A95109396
S214404BC08146BEF615AEFEF710BE7CB9099DE907D4
S214404BD00CD401231C4639E6DDF824C01CF0010342
S214404BE07FF443AF149324EAE4732FE60A9DAC1C8B
S214404BF024EAE4732AE60D9D0C232B604FF0FF3029
S214404C00FEF7BABE259B13E70DF19E0324E700BFCF
S214404C10A09A4000676666664B6E2DE9F0479C0496
S214404C200E46804691462AD59368126802F1080AD5
S214404C301BB31AE9A000BF0817D0043D002401E0CA
S214404C40A74210D0404655F8041F324602F006F8F8
S214404C50431C04F10104F3D10023C9F80830C9F815
S214404C600430BDE8F087D9F80830A3EB8703C9F8CD
S214404C7008300AF1080A002BDBD10020ECE702F0EE
S214404C8067F90023C9F80830C9F80430BDE8F08752
S214404C902DE9F04FB1B01C4602919046089306901D
S214404CA018B1836B002B00F0E880029DAB899AB266
S214404CB0900407D46A6E43F4005322F40051AB814B
S214404CC09AB26966110740F1B780DDF808B0DBF8A4
S214404CD01030002B00F0B08002F01A020A2A00F0D2
S214404CE0B78000230DF180090A9315931493099316
S214404CF0CDF84C904E4698F80030002B00F0C88413
S214404D00252B00F0C58408F1010201E0252B04D0D4
S214404D10137814460132002BF8D1C8EB040595B140
S214404D20149B159A01332A44072BC6F800807560F9
S214404D30159214937BDD002A40F0D584099814928E
S214404D4028444E4609902378002B00F0ED8300213E
S214404D504FF000024FF0FF3C63788DF847200491F7
S214404D608A4604F101080846654608F10108A3F1A1
S214404D702002582A00F2D982DFE812F0CB02D7028E
S214404D80D702D202D702D702D702D702D702D7021B
S214404D9082028F02D70284009302D7022B0196012B
S214404DA09601960196019601960196019601960106
S214404DB0D702D702D702D702D702D702D702D702E6
S214404DC0D702D7023001D702D702D702D702D7027E
S214404DD0D702D702D702D702D7027B01D702D70223
S214404DE0D702D702D702A401D702D702BF01D70203
S214404DF0D702D702D702D702D702D702D702D702A6
S214404E00D702E401FA01D702D702D7021602FA0106
S214404E10D702D7021B02D7022802890066027D020B
S214404E20D7023A02D7021901D702D702AF02083694
S214404E3009982844099086E70698029900F090FD64
S214404E40B0B9029DAA8902F01A020A2A7FF449AF35
S214404E50DDF808B0BBF90E30002BFFF642AF0698DF
S214404E6059464246234600F03DFD31B0BDE8F08F3E
S214404E704FF0FF3031B0BDE8F08F01F059FE14E737
S214404E80404208934AF0040A98F800306DE71AF05A
S214404E9020030490AC4600F0F480DDF820B00BF11F
S214404EA0070323F0070303F108040894D3E90045F9
S214404EB000234FF0000000218DF84700CDF814C0C5
S214404EC00791BCF1000FA8BF2AF0800A54EA0502F9
S214404ED040F0AD80BCF1000F40F0A980002B40F0C0
S214404EE0C0831AF0010F00F0BC83302330AF07F8C0
S214404EF0413DC7EB09040594DDF814B0079CE34533
S214404F00B8BFE346CDF80CB01CB10BF1010BCDF8A1
S214404F100CB01AF00205079505D0DDF80CB00BF181
S214404F20020BCDF80CB01AF084030B9340F01B82B2
S214404F30049DDDF80CB0CBEB0504002C40F3138247
S214404F40102C40F38984BE4D159A2B46149825465E
S214404F504FF0100B6446B4461E4606E0831C0CF128
S214404F60080C0846103D102D11DD411C1032072953
S214404F7015928CE840081491F0DD002A40F0E68156
S214404F80103D102D4FF001031046CC46EDDC314667
S214404F906646A4462C460D462244072B159235609D
S214404FA07460149300F36D830836591CDEE11AF0E2
S214404FB0200F0490AC4600F08D80089DEB1D23F03A
S214404FC0070303F1080BD3E90045CDF820B00123D1
S214404FD06FE74AF0800A98F80030C6E64AF0100AB2
S214404FE01AF0200F0490AC468DF8471000F0C880A9
S214404FF0089CE11D21F00701D1E900230831089102
S21440500014461D46002A73F1000BC0F2CE83BCF155
S214405010000F9DF84700A8BF2AF0800A54EA050210
S2144050200790CDF814C04FF001033FF453AF012B67
S21440503000F01983022B0DF17F0340F04C82DDF81F
S21440504028B0194604F00F0022091BF8000042EA77
S21440505005722B09087052EA03000F4614461D4697
S21440506001F1FF31EED1CDE90E23C7EB09030593DD
S21440507042E74AF0100A1AF020030490AC467FF448
S2144050800CAF1AF0100240F011831AF0400300F003
S2144050900D83DDF820B01346BBF800400BF1040B3F
S2144050A00025CDF820B004E7A3F13002002018F820
S2144050B0013B00EB800002EB4000A3F13002092ADE
S2144050C0F5D954E64AF0100A1AF0200F0490AC4680
S2144050D07FF473AF1AF0100F40F0EF821AF0400FD3
S2144050E000F0EB82DDF820B00025BBF800400BF165
S2144050F0040B0123CDF820B0DBE6AC46514D1AF048
S214405100200F04908DF847100A9500F0F080089D17
S214405110EA1D22F0070202F1080BCDF820B0D2E9D2
S21440512000451AF0010F00F0AA8254EA050B00F081
S214405130A68230228DF849304AF0020A8DF848207F
S2144051400223B6E6089BDDF820B01B6801244FF02A
S21440515000050BF1040B049003948DF847508DF82E
S2144051605830CDF820B0059416AF4FF0000CD0E67E
S2144051701AF0200F0490AC468DF847107FF438AFF5
S2144051801AF0100F40F0A7821AF0400F00F0A382EA
S214405190DDF820B0BBF900400BF1040BE5172246C2
S2144051A02B46CDF820B02DE74AF0400A98F800305C
S2144051B0DBE598F8003042466C2B03BF08F1010847
S2144051C04AF0200A53784AF0100ACEE51AF0200F2B
S2144051D08DF8471000F0F782089C2168099CE51777
S2144051E02B46089D224604350895C1E9002382E5F2
S2144051F0089CAC4627684FF0000504908DF8475051
S2144052000434002F00F03283BCF1000F3846C0F261
S214405210078362460021CDF804C002F06BFBDDF840
S21440522004C0002800F03A83C01B9DF847506045F4
S214405230A8BF60460590089407954FF0000C5BE6C3
S214405240CC9A4000789A4000089BDDF820B0049045
S214405250B2481C68302278230BF1040BAC468DF81C
S21440526049304AF0020ACDF820B000258DF8482093
S2144052700A9002231DE64AF0200A98F8003074E5AA
S214405280DDF820B0DBF800000BF104030028FFF641
S214405290F7AD089398F8003067E598F800302B2172
S2144052A063E598F8003008F101042A2B00F00583E6
S2144052B0A3F13002092A98BF002500F2FA8214F8BA
S2144052C0013B05EB850502EB4505A3F13002092AB3
S2144052D0F5D945EAE575A04649E5904C1AF0200F09
S2144052E00490AC460A948DF847107FF410AF1AF03D
S2144052F0100F40F0EA811AF0400F00F0E681DDF82A
S21440530020B00025BBF800400BF1040BCDF820B0D0
S21440531007E798F8003000297FF427AD202124E5E0
S2144053204AF0010A98F800301FE504908DF84710BF
S214405330002B00F0F98001254FF0000B03958DF807
S21440534058308DF847B0059516AF0EE70698029987
S21440535013AAFFF761FC002840F0ED801498159AD8
S214405360431CCC46FEE5149B159A591C9DF84700F5
S21440537068B101320DF147000123072915921491B7
S21440538086E8090000F360810B4608360131079C29
S21440539064B1023212A8022307291592149186E8B6
S2144053A0090000F357810B46083601310B9D802DCE
S2144053B000F00181059DC5EB0C04002C2FDD102C60
S2144053C0574D22DD30464FF0100B2E462546069CA4
S2144053D006E003F1020C08300B46103D102D10DDA0
S2144053E0591C10320729159280E840081491F0DDC8
S2144053F0002A63D1103D102D4FF0010C134648464D
S214405400EEDC2C4661463546064622440729159270
S21440541035607460149100F3C18008360131059DF3
S21440542007292A44159237607560149140F3C1806D
S214405430002A40F0308114924E461AF0040F00F0D5
S2144054408B80049DDDF80CB0CBEB0504002C40F3BC
S2144054508380102C40F31E821499324D1027DDF8BD
S21440546018A0DDF808B005E0881C08361946103C40
S214405470102C10DD4B1C1032072B159286E8A0002E
S2144054801493F1DD002A7DD1103C102C4FF0010022
S21440549011464E46EEDC224407281592356074606D
S2144054A0149059DD002A4FD1099CDDF80CB0049DBC
S2144054B0AB45ACBF5C44641909945EE02046029953
S2144054C013AAFFF7A9FB002835D1149B159A03F1C0
S2144054D0010C484681E7E00840EA457004F00702C0
S2144054E0E908303250EA010B1F461A7004460D4652
S2144054F003F1FF33EFD11AF0010FCDE90C01394625
S21440550000F0B980302A3FF4F4AC1F46C7EB0905DB
S2144055103023059501F8013CEEE400BF8C9A40002C
S214405520BC9A4000CC9A4000159B23B1069802993D
S21440553013AAFFF771FB029CA3895B063FF598AC64
S214405540099831B0BDE8F08F0698029913AAFFF784
S21440555063FB0028EFD1159A099CDDF80CB0049D3A
S214405560AB45ACBF5C446419099432B106980299C5
S21440557013AAFFF751FB0028DDD1002014904E46B9
S214405580FFF7B9BB5046594613AAFFF745FB00281C
S214405590D1D11499159A481C4E4668E7002A40F027
S2144055A0F780059C01232097219415942246149356
S2144055B04E46083641E7049DDDF80CB0CBEB0504BB
S2144055C0002C7FF7F7AE102CA64D40F3708129468D
S2144055D04FF0100B25466446B4460E4606E0981C2F
S2144055E00CF1080C0B46103D102D0FDD591C1032E7
S2144055F0072915928CE840081491F0DDBAB9103DA1
S214405600102D4FF001001346CC46EFDC334666467D
S214405610A4462C461D4622440728159235607460E1
S214405620149000F3AF800836411C0346C2E6069845
S214405630029913AAFFF7F0FA00287FF47CAF149B78
S214405640159A581CCC46CEE7002A79D119464E46C4
S21440565013469CE6002A40F08480012113464E46BD
S214405660A4E64F4648E4002D08BF0A2C46D2303404
S21440567030AF07F8414DC7EB090305933CE40223DE
S21440568017E4002A40F0AF80134601214E466DE6EF
S2144056904446FFF758BB0698029913AAFFF7BCFA90
S2144056A000287FF448AF159A4E46C6E6089D2C68FB
S2144056B0043508950025FFF7FCBB089D01232C68A0
S2144056C0043508950025FFF7F4BB089D2C68043583
S2144056D00895002525E5089D2C6804350895E517AE
S2144056E022462B468EE40698029913AAFFF794FAB0
S2144056F000287FF420AF4E46FFF79ABB0DF17F0B94
S21440570003965E46E346204629460A22002303F0D7
S214405710ABFA30323270204629460A22002303F084
S214405720A3FA04460D4654EA0500374606F1FF360E
S214405730E9D1C7EB0903DC46039E0593FFF7DCBBC4
S2144057400698029913AACDF804C0FFF765FADDF86B
S21440575004C000287FF4EFAE149B159A591C4E46A1
S21440576015E60698029913AACDF804C0FFF754FA36
S214405770DDF804C000287FF4DEAE149B159A591C51
S2144057804E4613E6002A56D1012113464E4611E6F0
S2144057900698029913AAFFF73FFA00287FF4CBAE8B
S2144057A01499159A01314E4639E64FF02D0B644256
S2144057B065EB45058DF847B0CDF81CB0CDF814C064
S2144057C00123FFF77EBB1AF0100F1DD11AF0400FD1
S2144057D058D0089DDDF824B02B6804350895A3F80A
S2144057E000B0FFF788BA0698029913AACDF804C00D
S2144057F0FFF712FADDF804C000287FF49CAE149B35
S214405800159A591C4E46B1E5DDF820B0099CDBF8E8
S21440581000300BF1040BCDF820B01C60FFF76BBADC
S214405820089402F0F7FE9DF84740059007944FF025
S214405830000CFFF761BB0698029913AACDF804C086
S214405840FFF7EAF9DDF804C000287FF474AE149B35
S214405850159A591C4E46ADE5149B159A0133024DD8
S214405860FFF79ABBBC9A4000CC9A4000BCF1060FAA
S21440587034BF63460623089423EAE37405930394EF
S214405880164F72E4089C099D2368043408941D60F2
S214405890FFF731BA1498124D0130FCE59DF8475099
S2144058A0CDF814C0079508948446FFF725BB0846F4
S2144058B0B1E6A0460025FFF75ABADDF820B098F8C2
