:020000040040BA
:1000000028140020391540003515400035154000F2
:100010003515400035154000351540000000000042
:100020000000000000000000000000003515400046
:10003000351540000000000035154000E90A400079
:100040003515400035154000351540003515400088
:100050003515400035154000351540003515400078
:10006000090D40003515400035154000E5134000EE
:10007000F91340000D1440003515400035154000BF
:100080003515400035154000351540003515400048
:100090003515400035154000351540003515400038
:1000A0003515400035154000351540003515400028
:1000B0003515400035154000351540003515400018
:1000C0003515400010B5054C237833B9044B13B1F6
:1000D0000448AFF300800123237010BD9409002071
:1000E0000000000038AC400008B5064B1BB10648C4
:1000F0000649AFF300800648036813B1054B03B10E
:10010000984708BD0000000038AC40009809002066
:1001100038AC4000000000002DE9F0410C4690464C
:1001200060B9002A0EDD8F18094E0A4D306821464D
:100130002B6898470134BC42F8D106E04FF0FF30FD
:10014000BDE8F0810020BDE8F0814046BDE8F081C7
:10015000200B0020AC0A00200F4B994219D849000F
:10016000B2FBF1F2043AFF2A07D900230133520807
:10017000FF2A03D9072BF9D100E00023110289B22D
:100180001B0403F4E0230B43D2B21A4302610020A4
:1001900070470120704700BF801A060038B504463A
:1001A0000D464FF0FF338362036A80230360036BC5
:1001B00008230360202303600423036049682A683E
:1001C000054B9847012814BF002001206B7A012BB2
:1001D00004BF4023236038BD590140002DE9F003DE
:1001E0000446CB688E68002B49D0002242604868E4
:1001F000000200F4407040F480500D7C2D0405F4A2
:10020000FE0528436060E2604A685AB10878012A16
:10021000C4BF4D7845EA0020022A04DD8A7842EA0C
:10022000002000E00020E060012B04D103222260C6
:100230004FF0010C2BE0012222604FF0000C26E071
:10024000216A11F4807F1CD1551EE2B12A46012B90
:1002500005D1BCF1000F02D1C4F80090C44611F0E2
:10026000020F04D0226B3270013B01363A46002B5C
:10027000E6D1236A13F0010FFBD0236A14E00120BA
:1002800012E0052010E009200EE005200CE0216AB4
:1002900011F48070F9D143F697224FF002094FF024
:1002A000010843F69827D2E7BDE8F003704700BF86
:1002B00070B40346CA688868002A3FD000245C6096
:1002C0000E7C360406F4FE064D682D0205F44075DA
:1002D00035435D60DC604C685CB10D78012CC4BFB7
:1002E0004E7846EA0525022C04DD897841EA052589
:1002F00000E00025DD600BE0196A11F4807F1FD15A
:1003000011F0040FF8D010F8011B5963013A07D01F
:10031000196A11F4807F15D111F0040FF3D1EBE7C6
:100320001A6A12F480700FD112F0040FF8D0022272
:100330001A601A6A12F0010FFBD006E0012004E0F7
:10034000052002E0052000E0052070BC704700BFDA
:10035000436913F0020F1DBFC1F30801C161002002
:1003600001207047436913F0010F05D08369C3F37F
:1003700008030B60002070470120704710B584B05F
:1003800003204FF000610B4CA04704204FF00061A8
:10039000A0471320084B9847084B0193084B029342
:1003A00000238DF80D30074801A9074B9847C0B2CC
:1003B00004B010BD5111400009154000006CDC0272
:1003C000801A0600008001409D01400000B589B000
:1003D0008DF807108DF80C00012304930DF107012F
:1003E000059106938DF81C20034803A9034B9847F9
:1003F00009B05DF804FB00BF00800140B10240007D
:1004000010B531200B2153220B4CA0472C20092181
:100410005322A0472D2008215322A04731200B2131
:100420001D22A0472C2009215322A0472D2008215E
:100430001D22A04710BD00BFCD03400000B589B00C
:100440008DF807100023039307938DF80C00012308
:1004500004930DF10701059106938DF81C200348C4
:1004600003A9034B984709B05DF804FB00800140E5
:10047000B102400010B516201E2168220F4CA04783
:10048000152000216822A047172011216822A047CB
:100490003E2000216822A04716201E216922A04785
:1004A000152000216922A047172011216922A047A9
:1004B0003E2000216922A04710BD00BF3D0440003E
:1004C00000B587B08DF804000120029003910492DA
:1004D0008DF81430034801A9034B984707B05DF825
:1004E00004FB00BF00800140DD014000000000006F
:1004F0002DE9F04106460C4632204B4904222346A2
:100500004A4DA84710B1C0B2BDE8F081464B5B78B8
:1005100003F0F002F02A14D1434A107840EA032392
:100520005842C0F30B00424B9847424B98473AA3BE
:10053000D3E90023404DA847404B984700F10047BE
:100540000FE0394A107840EA0320394B9847394B7D
:10055000984731A3D3E90023374DA847374B984735
:100560000746314BDB7803F0F002F02A14D12E4A13
:10057000907840EA03235842C0F30B002C4B984775
:100580002C4B984724A3D3E900232B4DA8472B4B92
:10059000984700F100450FE0234A907840EA032095
:1005A000234B9847234B98471BA3D3E90023224DA5
:1005B000A847224B984705461D2C0AD1DFF89480A6
:1005C00038461F49C047044628461E49C0470146D1
:1005D0000BE0532C1CD138461B491C4B9847044652
:1005E00028461B491B4B9847014604F100401A4B13
:1005F00098471A4B98470F4B984709A3D3E9002314
:100600000D4CA0470D4B984730600020BDE8F081AD
:100610000020BDE8F08100BF3333333333330F4064
:1006200018B1531ADCA54C40B4090020C1044000A5
:10063000E12B400009254000B1254000D5294000AC
:100640000000344300802344000096437D2A40008C
:100650000000F543812A4000F92D40001D1E400096
:10066000044B03F12001002243F8042F8B42FBD1FD
:10067000704700BFAC0A00204B1E07D000EB810082
:1006800050F8082C40F8042D013BF9D1704700BF09
:100690002DE9F04706463220974904221D23974C46
:1006A000A04710B1C0B2BDE8F087934B5B7803F070
:1006B000F002F02A14D1904A107840EA03235842FD
:1006C000C0F30B008E4B98478E4B984784A3D3E919
:1006D00000238D4CA0478D4B984700F100450FE05B
:1006E000854A107840EA0320854B9847854B984708
:1006F0007BA3D3E90023844CA047844B984705464D
:100700007D4BDB7803F0F002F02A14D17A4A90781E
:1007100040EA03235842C0F30B00794B9847794BCA
:1007200098476FA3D3E90023774CA047774B9847AE
:1007300000F100480FE0704A907840EA0320704BC7
:100740009847704B984766A3D3E900236E4CA047A7
:100750006E4B984780463220674904225323674CEA
:10076000A04710B1C0B2BDE8F087634B5B7803F0DF
:10077000F002F02A14D1604A107840EA032358426C
:10078000C0F30B005E4B98475E4B984754A3D3E9E8
:1007900000235D4CA0475D4B984700F100470FE0F8
:1007A000554A107840EA0320554B9847554B9847D7
:1007B0004BA3D3E90023544CA047544B984707461A
:1007C0004D4BDB7803F0F002F02A14D14A4A9078BE
:1007D00040EA03235842C0F30B00494B9847494B6A
:1007E00098473FA3D3E90023474CA047474B98477E
:1007F00000F1004A0FE0404A907840EA0320404B65
:100800009847404B984736A3D3E900233E4CA04776
:100810003E4B984782463E4C28463E49A04781467B
:100820003D4D38463D49A8473D4F3E49B8470146F2
:100830004846A847814640463B49A0478046504627
:100840003A49A0473749B84701464046A8470746B6
:10085000DFF8E8A050460221354DA8473046022176
:10086000A84709F100403946324B9847324B984728
:10087000DFF89080C047244F1BA3D3E90023B8477B
:10088000DFF88890C8474FF07E51A047CAF80000B3
:10089000C04717A3D3E90023B84704460D46DAF84A
:1008A0000400C04712A3D3E90023B84702460B4611
:1008B000DFF88CA020462946D04704460D467068D4
:1008C000C0470BA3D3E90023B84702460B46204696
:1008D0002946D047C84730600020BDE8F08700BFF8
:1008E0003333333333330F4018B1531ADCA54C4044
:1008F00036CD3B4ED191BC3FB0090020C104400031
:10090000E12B400009254000B1254000D5294000D9
:10091000812A4000000034437D2A400000009643B5
:10092000912C4000175D3440008023440000F543C3
:1009300079064000F92D4000E91B4000B00A002074
:100940004D224000AFF30080F8B504460D46584EE6
:100950003220314606222B46564FB847737803F0B3
:10096000F002F02A14D1307840EA03235842C0F351
:100970000B00514B9847514B98474BA3D3E90023A9
:100980004F4EB0474F4B984700F1004020600FE0BA
:10099000474A107840EA0320474B9847474B98470F
:1009A00041A3D3E90023464EB047464B9847206009
:1009B0003F4BDB7803F0F002F02A15D13C4A9078E7
:1009C00040EA03235842C0F30B003B4B98473B4B94
:1009D000984735A3D3E90023394EB047394B9847A0
:1009E00000F1004060600FE0314A907840EA032057
:1009F000314B9847314B98472BA3D3E90023304E16
:100A0000B047304B98476060294B5B7903F0F002A8
:100A1000F02A15D1264A107940EA03235842C0F340
:100A20000B00254B9847254B98471FA3D3E900237C
:100A3000234EB047234B984700F10040A0600FE0E1
:100A40001B4A107940EA03201B4B98471B4B9847E1
:100A500015A3D3E900231A4EB0471A4B9847A0605C
:100A60001D2D0ED1184D20681849A84720606068D8
:100A70001749A8476060A0681649174B9847A060BF
:100A8000F8BD532D0DD1144D20681449A84720609E
:100A9000606813490C4B98476060A0681149A847EB
:100AA000A060F8BDAFF300803333333333330F40EE
:100AB000B8090020C1044000E12B40000925400096
:100AC000B1254000D5294000812A40000000344370
:100AD0000080234400C0A8457D2A400000009643C2
:100AE0000000F54300409C45084B1A6801321A602B
:100AF0001A68074B1B68D31A632B06D90122054BD2
:100B00001A70024B1A68024B1A607047C409002021
:100B1000C0090020C8090020064B41F2BF225A60DC
:100B2000F021054A82F8231000229A6007221A60F9
:100B3000704700BF10E000E000ED00E0F0B583B0CA
:100B400005460C4600230193184B984207D11F46D7
:100B5000174E38462146B0470028FAD117E0154B0A
:100B6000984207D11E46124D30462146A84700281C
:100B7000FAD118E0104B984209D11E460F4D30466D
:100B800001A9A8470028FAD1019B23700BE00C4B68
:100B90009D4208D11E46094D304601A9A8470028AC
:100BA000FAD1019B237003B0F0BD00BF00060E40D8
:100BB000410E400000080E40004002406503400026
:100BC0000080024070B50C461A4B984207D11E4671
:100BD000194D30462146A8470028FAD120E0174B8E
:100BE000984207D11E46144D30462146A84700289A
:100BF000FAD117E0124B984207D11E46114D3046EC
:100C00002146A8470028FAD10EE00F4B98420DD19B
:100C10001E460C4D30462146A8470028FAD107E071
:100C2000012070BD012070BD012070BD002070BD8D
:100C3000012070BD00060E40310E400000080E403D
:100C400000400240510340000080024070B584B073
:100C500008201A4DA8471A4C1A4B1C601A4A1B4B05
:100C60001A601B4A1B4B1A601B4B01934FF4E13374
:100C700002934FF4006303930820A847204601A97C
:100C8000164B9847164E336898680021154DA847B3
:100C9000336858680021A847134B4FF48072C3F89B
:100CA0008020C3F88021102183F808131A602046A1
:100CB00001210E4B984704B070BD00BF09154000DC
:100CC00000060E40200B0020C50B40001C0B00202E
:100CD0003D0B4000AC0A0020006CDC02F10D40002E
:100CE000200500207D31400000E100E0290E400099
:100CF000044B03F16401002203F8012F8B42FBD166
:100D0000704700BFB70A002010B51548154B98472B
:100D100010F0010F22D012481349144B9847144B7E
:100D20001C780CB9134B98470F4B1B780D2B06D131
:100D300000220F4B1A7001220F4B1A7010BD082BA6
:100D400007D1013CE4B20A4B1C7000220B4B1A5530
:100D500010BD611C064A1170084A135510BD00BF32
:100D600000060E402D0E4000CA090020410E400032
:100D7000CB090020F10C4000C9090020B80A00206E
:100D800010B40C4631B100230133427800F8012B36
:100D9000A342F9D35DF8044B704700BF2DE9F04141
:100DA0000E461546013802280FD892B10024DFF80C
:100DB0003C800D4FD8F80000315D3B689847002813
:100DC0000ADB0134A542F5D10AE04FF0FF30BDE85F
:100DD000F0810020BDE8F0814FF0FF30BDE8F081E8
:100DE0002046BDE8F08100BF1C0B0020200B002036
:100DF00010B4AC2303600A684B68B2FBF3F31B0921
:100E00005C1E4FF6FE7294420AD803628B68436000
:100E100040F20223C0F8203150230360002000E09C
:100E200001205DF8044B704781607047406970474E
:100E3000436913F0020F1ABFC161002001207047FF
:100E4000436913F0010F1DBF83690B70002001205F
:100E5000704700BF10B50E480E4B984700203E214A
:100E60000D4B98470D4CA0470028FCD00C4B9847E1
:100E70000C4A0D4B9A620D4CA0470028FCD0102064
:100E80000B4B98470B4B98470148024B984710BDB6
:100E9000006CDC02A100002085144000D914400041
:100EA000E9144000013F072000040E40F9144000FF
:100EB00021144000E915400038B505460C460846A7
:100EC0004FF02051034B9847284621460122024B00
:100ED000984738BD51114000A510400038B54FF477
:100EE00000422F4B5A600B202E4CA0470C20A047ED
:100EF0000D20A04717204FF060512B4CA0472E200B
:100F00004FF06051A047294D28464FF4C0614FF083
:100F10000062274B984728460121264CA0472846C7
:100F20000221A04728462021A04728464021A0476B
:100F300028464FF40011A04728464FF08051A047A3
:100F400028464FF00051A04728464FF08041A04767
:100F500028464FF00041A04705F5007528460221BC
:100F6000A04728460421A04728460821A04705F5A8
:100F7000007528460121A04728460221A04728469F
:100F80000421A04728460821A04728461021A04751
:100F900028462021A04728464021A04738BD00BF51
:100FA00050140E400915400051114000000E0E4033
:100FB00075124000B90E400010B44264B1F1C05F38
:100FC0002ED008D8B1F1006F14D0B1F1805F1DD0E0
:100FD000002935D135E0B1F1205F32D003D8B1F12D
:100FE000005F27D02CE0B1F1405F2AD0B1F1605F03
:100FF00027D025E0016F046FD343214019400167DA
:10100000416F446F21400B40436719E0036F134366
:101010000367436F416F0B4023EA020343670FE00E
:10102000036F016F0B4023EA02030367436F13430F
:10103000436705E0036F13430367436F134343673D
:1010400042605DF8044B7047416412F0010F14BF19
:101050004166016612F00A0F14BF0162416212F08C
:10106000020F02D0C0F8801004E012F0080F18BF81
:10107000C0F8841041610160704700BF10B4416442
:10108000019C0CB1416600E001660BB1016500E016
:1010900041650AB1016300E04163016101605DF8EF
:1010A000044B704712B1C0F894107047C0F890100C
:1010B000704700BF12F0100F10D0C0F8B01012F03F
:1010C000200F14BFC0F8D410C0F8D01012F0400F99
:1010D00014BFC0F8C010C0F8C4107047C0F8B410F6
:1010E000704700BFC36C0164704700BFC06C70479D
:1010F000806C7047430903F5001303F207735B022A
:1011000000F01F00012202FA00F01863704700BFD0
:10111000430903F5001303F207735B0200F01F009D
:10112000012202FA00F05863704700BF430903F53B
:10113000001303F207735B029A6B00F01F0001219A
:1011400001FA00F0104214BF58631863704700BFE3
:1011500070B582B00D46440904F5001404F207741A
:10116000660201F0F044B4F1005F47D009D8B4F151
:10117000805F21D0B4F1C05F2FD0B4F1006F6FD188
:1011800009E0B4F1405F55D0B4F1605F52D0B4F1E2
:10119000205F44D064E000F01F000124844030460A
:1011A0004FF000612246304B984715F0010F14BFF5
:1011B00074663466012054E000F01F00012484406E
:1011C00030464FF080512246274B984715F0010FCB
:1011D00014BF74663466012043E000F01F00012450
:1011E000844030464FF0C05122461F4B984715F0BF
:1011F000010F14BF74663466012032E000F01F0056
:101200000124844030464FF000512246164B984747
:1012100015F0010F14BF74663466012021E000F060
:101220001F010124304604FA01F12A460F4B98476A
:10123000204616E000F01F01012405F0605205EA87
:1012400004030093304604FA01F1B2F1605F14BF69
:1012500000220122C5F38003054DA847204600E087
:10126000002002B070BD00BFB90F4000491040001F
:101270007D104000F0B583B007460E46154602F0DB
:10128000F044B4F1005F38D009D8B4F1805F1CD0CD
:10129000B4F1C05F25D0B4F1006F50D109E0B4F1D2
:1012A000405F3AD0B4F1605F37D0B4F1205F30D006
:1012B00045E04FF000613246224B984715F0010F90
:1012C00014BF7E663E6601203AE04FF08051324600
:1012D0001C4B984715F0010F14BF7E663E66012037
:1012E0002EE04FF0C0513246164B984715F0010FD3
:1012F00014BF7E663E66012022E04FF00051324668
:10130000104B984715F0010F14BF7E663E66012012
:1013100016E00D4B9847012012E005F0605205F0F1
:101320000103009338463146B2F1605F14BF0022DA
:101330000122C5F38003054CA047012000E00020F6
:1013400003B0F0BDB90F4000491040007D104000CF
:101350002DE9F04104460E46104B984705462046BD
:101360000F4B9847054017D00E4F07F10C046C3710
:1013700054F80C3CB3420AD154F8081C294206D058
:1013800023683046984754F8083C25EA0305BC42D8
:1013900002D01034002DEBD1BDE8F081ED104000FB
:1013A000F1104000D0090020F8B50B4C2468062C41
:1013B00010D80A4F2601BD19B9516A60AB60069971
:1013C000E960013404490C6011461A46044B984701
:1013D0000020F8BD0120F8BDCC090020D009002074
:1013E000B510400008B502480B21024B984708BDD4
:1013F000000E0E405113400008B502480C21024B6C
:10140000984708BD00100E405113400008B502482F
:101410000D21024B984708BD00120E4051134000A9
:10142000174B1A6B22F07002104318639B6E13F077
:10143000080F09D14FF40063114901E0013B19D0B5
:101440008A6E12F0080FF9D00D4B1A6B22F00302CE
:1014500042F002021A63986E10F008000CD14FF4AB
:101460000063074901E0013B08D08A6E12F0080FC3
:10147000F9D0704701207047002070470120704765
:1014800000040E4038B111490B6A114A1A40114B41
:1014900013430B6270470D4A136A23F45C1323F065
:1014A000030343F45C1343F00103090289B20B43C5
:1014B0001362936E13F0010FFBD0044A136A43F0DA
:1014C0009B7343F480331362704700BF00040E40E7
:1014D000FCFFC8FE02003701024B986E00F480301A
:1014E000704700BF00040E404FF00052014B9A625B
:1014F000704700BF00040E40024B986E00F00200DF
:10150000704700BF00040E401F280DD8084B9A6991
:10151000012383401A40934208D0012303FA00F0CC
:10152000034B18610020704701207047002070476E
:1015300000040E40FEE700BF10B51E4B1E4A9A4243
:1015400003D01E4B1B4A9A4204D31D4B1D4A9A429C
:101550000FD31AE01C4B1D4CE41A24F0030404348E
:101560000023144814495A581A500433A342FAD19C
:10157000EBE7174B1749C91A21F003011A1D114453
:10158000002243F8042F8B42FBD1134A22F0604320
:1015900023F07F0311498B6002F16042B2F5C04F26
:1015A00003D28A6842F000528A600D4B98470D4B77
:1015B0009847FEE70000002038AC40009409002066
:1015C000280C002094090020040000209709002026
:1015D00090090020230C00200000400000ED00E0F6
:1015E0007130400061184000394B1B6B03F003035E
:1015F000012B0FD013B1022B29D051E0354B5B6981
:1016000013F0800F14BF4FF400424FF4FA42324BF4
:101610001A6045E02E4B1B6A13F0807F03D02F4ADF
:101620002D4B1A603CE02E4A2B4B1A60284B1B6A4C
:1016300003F07003102B02D0202B04D030E0294A95
:10164000254B1A602CE0254A234B1A6028E0204BDA
:101650001B6A13F0807F03D0204A1F4B1A6012E0F0
:101660001F4A1D4B1A601A4B1B6A03F07003102BA4
:1016700002D0202B04D006E01A4A174B1A6002E071
:10168000164A154B1A60124B986A996A124BC0F3AE
:101690000A401A6800FB0222C9B2B2FBF1F21A60DA
:1016A0000B4B1B6B03F07003702B07D10A4B1A68AE
:1016B0000D49A1FB020252081A607047044B196BD6
:1016C000054BC1F302111A68CA401A60704700BF87
:1016D00000040E4010140E40E4000020001BB70070
:1016E00000093D0000127A00ABAAAAAA094B1B68A8
:1016F00013B9094A074B1A60064B1B681A180749A9
:10170000914204DB1046034A1060184670474FF0C0
:10171000FF307047400A002028140020FC5F0020A2
:101720004FF0FF30704700BF4FF400534B60002074
:10173000704700BF012070470020704710B50B288C
:1017400018D1B1F5003F09D10B4C20680B490C4B67
:10175000984720602E200B4B984710BDB1F5802F85
:1017600008D1054C20680549074B9847206019208F
:10177000044B984710BD00BF580A00200000B43E3B
:101780007D2A40002D114000812A400008B5054BFC
:101790001B782BB11920044B98470448044B9847F9
:1017A00008BD00BFE8000020111140007CA84000E7
:1017B000C13040002DE9F04383B00B20204B984707
:1017C000204C20464FF400310022DFF88C90C847AF
:1017D00020464FF400310122DFF88080C0471A4FC5
:1017E000009720460B214FF400327023174EB0476C
:1017F00020464FF40031164DA84720464FF4802173
:101800000022C84720464FF480210122C04700979C
:1018100020460B214FF480227023B04720464FF41E
:101820008021A8470B4B4FF40062C3F88020C3F817
:101830008021102183F80B131A6003B0BDE8F083F8
:1018400009154000000E0E403D174000A91340004E
:10185000E510400000E100E049104000A510400004
:101860002DE9F04F9DB0904B9847904B9847904B87
:101870009847904B9847904B9847904B9847904B80
:101880001870A0B98F4B98478F481D218F4CA047E7
:101890008F485321A0478F4B98478F488F4B9847CD
:1018A0008F4B1A688F4B1A60DFF834A207E08E481E
:1018B0008A4B984719258D4C2846A047FCE7DFF84E
:1018C0002492DAF80020D9F80030D31A41F2873296
:1018D000934206D91720864B9847DAF80030C9F8AA
:1018E0000030844B1B78002B00F08980824B1B78E2
:1018F00013F0FF0F00F0838000227F4B1A70DAF89C
:1019000000307E4D2B607E4F38461D217D4CA04718
:101910007D4E30465321A0477C487D4B9847684B0D
:101920001A78104318707B4B9847DFF84882D8F834
:1019300000B0794C3868A047CDE900017868A0472D
:10194000CDE902013068A047CDE904017068A047E5
:10195000CDE90601714B1868A047CDE90801704B2D
:101960001868A047CDE90A01574B1868A047CDE990
:101970000C01574B1868A047CDE90E01694B186858
:10198000A047CDE91001684B1868A047CDE91201C6
:101990005E4A1068A047CDE914015846A047CDE93A
:1019A0001601624E58463168614B9847A0473CA3E8
:1019B000D3E900235F4CA047CDE918015E48C82158
:1019C0005E4A5F4B98475C48444B98475D4A1368B2
:1019D00001331360D8F800203260DAF800102A686A
:1019E0008A1A2A60584A1268934208D30022414B4F
:1019F0001A705648394B98471720554B9847554B06
:101A00001B7813F0FF0F3FF45CAF0022514B1A70AC
:101A1000514B1B78672B06D0742B00F0C780532BDB
:101A20007FF44DAFACE04C4B5B786F2B7FF447AF4E
:101A30000122304B1A7000242F4B1C70474D484B2D
:101A400018684849A8474849484B9847484B984721
:101A50003D4B18603B4B1C601720244B9847454B6F
:101A600000221A60314B1A6017481D21174CA047FD
:101A700017485321A0471AA81D21A0471BA81D21C4
:101A8000A0471A981B993C4B98474FF07C51A847A8
:101A90001E4B1860394B984711E700BFAFF3008029
:101AA0007B14AE47E17A943F550E4000DD0E4000B6
:101AB000190B40004D0C4000B51740007D0340005D
:101AC000E800002001044000480A0020F104400022
:101AD000440A00207504400084A84000C130400042
:101AE000C40900206C0A00208CA84000111140009D
:101AF0002D114000500A0020C80900204C0A002087
:101B0000300B002049094000180C00203C0B00203D
:101B1000910640008D17400009254000740A0020FE
:101B2000540A00205C0A0020640A0020600A002099
:101B30007D2A400005284000500B002098A8400056
:101B40008D324000700A0020680A00207CA8400006
:101B5000F5104000C9090020B80A0020912C40006F
:101B6000EC00002000401C460000C842F92D400057
:101B70001D304000580A0020812A400061064000C4
:101B8000134B5B78542B7FF49AAE114B9B784F2B01
:101B90007FF495AE0E4BDB78502B7FF490AE002295
:101BA0000C4B1A7017200C4B984788E6084C2046BF
:101BB00064210A4B98472378303BDBB2092B3FF670
:101BC0007EAE2046064B9847064B186077E600BF6E
:101BD000B80A0020500A0020F5104000810D400096
:101BE0005D304000EC0000202DE9F04120F0004580
:101BF000B5F1A14F0446064608DBB5F1FF4F6FDC97
:101C0000002840F3A0806F48BDE8F0816E4B9D42F4
:101C100077DCB5F1445F68DB4FF0FF3721462046A3
:101C200001F036F80146804601F032F86749054672
:101C300001F02EF8664900F023FF294601F028F84C
:101C4000644900F01DFF294601F022F8624900F0C6
:101C500017FF294601F01CF8604900F011FF2946E2
:101C600001F016F85E4900F00BFF414601F010F854
:101C70005C498046284601F00BF85B4900F0FEFE07
:101C8000294601F005F8594900F0F8FE294600F010
:101C9000FFFF574900F0F2FE294600F0F9FF5549D1
:101CA00000F0ECFE294600F0F3FF7B1C01464046A5
:101CB0004CD000F0E5FE214600F0EAFF4E4B4F4DC0
:101CC00053F8271000F0DAFE214600F0D7FE014657
:101CD00055F8270000F0D2FE002E30DBBDE8F08181
:101CE000014600F0CDFEBDE8F081454900F0C8FE98
:101CF0004FF07E5101F088F900288DD02046BDE8D4
:101D0000F08100F087F83F4B04469D4229DCA3F5A3
:101D1000D0039D4244DC014600F0B2FE4FF07E51FC
:101D200000F0ACFE4FF080410546204600F0A8FED2
:101D30000146284601F060F8002704466EE700F1EE
:101D40000040BDE8F0813048BDE8F08100F098FE29
:101D5000214600F09DFF0146204600F08FFEBDE8C1
:101D6000F0812A4B9D4214DC4FF07F5100F086FE3B
:101D70004FF07F510546204600F08AFF4FF07E511C
:101D800000F07EFE0146284601F036F802270446A0
:101D900044E701461E4801F02FF8032704463DE7BB
:101DA0004FF07E5100F06AFE4FF07E51054620460E
:101DB00000F066FE0146284601F01EF801270446A1
:101DC0002CE700BFDB0FC93FFFFFDF3ED769853C33
:101DD00059DA4B3D356B883D6E2EBA3D2549123E92
:101DE000ABAAAA3E21A215BD6BF16E3D95879D3D24
:101DF000388EE33DCDCC4C3EDCA84000ECA8400042
:101E0000CAF24971FFFF973FDB0FC9BFFFFF1B40BD
:101E1000000080BF20F00040704700BF70B58AB05E
:101E2000054600F04BF8224C064694F90030013389
:101E300003D0284600F0EAF910B930460AB070BD68
:101E40002846FFF7E7FF4FF07E5101F0DDF800284C
:101E5000F3D01849012200232846009208930191EB
:101E600000F052FB02460B461348CDE90423CDE9AE
:101E7000022300F0C5F994F90030CDE90601022BE8
:101E80000BD0684600F0BAF938B1089B53B9DDE9C8
:101E9000060100F09FFD0AB070BD01F0E3F82123B8
:101EA0000360F2E701F0DEF8089B0360EFE700BF94
:101EB000F0000020FCA84000A0A940002DE9F04758
:101EC00020F00045B5F17E5F0446064600F0C7806D
:101ED00011DCB5F17C5F16DAB5F1485F80F2CD8098
:101EE0008C4900F0CDFD4FF07E5101F08DF850B1DE
:101EF0002046BDE8F087014600F0C0FD014600F035
:101F00007BFFBDE8F0872046FFF784FF01464FF0D6
:101F10007E5000F0B3FD4FF07C5100F0B9FE7E49D9
:101F2000044600F0B5FE7D4900F0AAFD214600F010
:101F3000AFFE7B4900F0A2FD214600F0A9FE7949E1
:101F400000F09EFD214600F0A3FE774900F096FDCB
:101F5000214600F09DFE754900F092FD214600F0FB
:101F600097FE73498146204600F092FE714900F0C9
:101F700085FD214600F08CFE6F4900F081FD214671
:101F800000F086FE6D4900F079FD214600F080FEEC
:101F90004FF07E5100F074FD8046204600F0DAF8E4
:101FA000674B07469D4244DC014600F069FD41460F
:101FB0008246484600F020FF0146504600F068FE89
:101FC00027F47F6525F00F0580462946284600F056
:101FD0005FFE0146204600F051FD29460446384682
:101FE00000F04EFD0146204600F006FF014600F0DD
:101FF00047FD0146534800F041FD0146404600F0D0
:102000003DFD29460446284600F03AFD01464E486B
:1020100000F034FD0146204600F030FD01464A48FC
:1020200000F02CFD002E3FF764AF00F10040BDE84A
:10203000F0874146484600F0DFFE0146384600F092
:1020400027FE394600F01CFD014600F019FD3F490E
:1020500000F016FD01463E4800F010FDE2E73C4965
:1020600000F016FE37490546204600F011FE0146F5
:10207000284600F005FDBDE8F087014600F008FEA7
:102080002549054600F004FE244900F0F9FC2946E4
:1020900000F0FEFD224900F0F1FC294600F0F8FDB9
:1020A000204900F0EDFC294600F0F2FD1E4900F049
:1020B000E5FC294600F0ECFD1C4900F0E1FC294656
:1020C00000F0E6FD1A490646284600F0E1FD1949F0
:1020D00000F0D4FC294600F0DBFD174900F0D0FCED
:1020E000294600F0D5FD154900F0C8FC294600F04E
:1020F000CFFD4FF07E5100F0C3FC0146304600F0AA
:102100007BFE0146204600F0C3FD214600F0B8FCEE
:10211000BDE8F087CAF2497108EF1138047F4F3AE1
:102120004611243DA80A4E3E90B0A63EABAA2A3ED8
:102130002EC69D3D6133303F2D57014039D11940A6
:102140009999793F2EBD3BB3DB0F493F2EBD3B3301
:10215000DB0FC93F20F00042B2F1FF4FF8B5044653
:1021600003462DD25AB300283DDBB2F5000F4FEAEB
:10217000E0502CD37F38C3F31603C20743F40003A7
:1021800048BF5B00002740105B003E4619244FF01B
:102190008072B5189D4202DC5B1BAE181744013CEF
:1021A0004FEA43034FEA5202F3D113B107F00103A0
:1021B0001F447F1007F17C5707EBC050F8BDF8BDF6
:1021C000014600F065FD214600F05AFCF8BD14F40C
:1021D00000020FD15B00190202F10102FAD5C2F12F
:1021E00001021044C6E7014600F048FC014600F039
:1021F00003FEF8BD01221044BCE700BF0020704779
:1022000000200149704700BF0000F87F30F0004017
:1022100001D102207047A0F50003B3F1FE4F01D2B7
:1022200004207047054B421E9A4201D80320704794
:10223000B0F1FF4358425841704700BFFEFF7F0096
:1022400081F0004102E000BF83F0004330B54FEA67
:1022500041044FEA430594EA050F08BF90EA020FD4
:102260001FBF54EA000C55EA020C7FEA645C7FEA67
:10227000655C00F0E2804FEA5454D4EB5555B8BF8A
:102280006D420CDD2C4480EA020281EA030382EAFB
:10229000000083EA010180EA020281EA0303362D8D
:1022A00088BF30BD11F0004F4FEA01314FF4801C60
:1022B0004CEA113102D0404261EB410113F0004F72
:1022C0004FEA03334CEA133302D0524263EB430329
:1022D00094EA050F00F0A780A4F10104D5F1200EC7
:1022E0000DDB02FA0EFC22FA05F2801841F1000122
:1022F00003FA0EF2801843FA05F359410EE0A5F1F6
:1023000020050EF1200E012A03FA0EFC28BF4CF026
:10231000020C43FA05F3C01851EBE37101F00045DC
:1023200007D54FF0000EDCF1000C7EEB00006EEBE9
:102330000101B1F5801F1BD3B1F5001F0CD3490873
:102340005FEA30004FEA3C0C04F101044FEA4452CA
:1023500012F5800F80F09A80BCF1004F08BF5FEA51
:10236000500C50F1000041EB045141EA050130BD31
:102370005FEA4C0C404141EB010111F4801FA4F1D4
:102380000104E9D191F0000F04BF01460020B1FA29
:1023900081F308BF2033A3F10B03B3F120020CDA61
:1023A0000C3208DD02F1140CC2F10C0201FA0CF03F
:1023B00021FA02F10CE002F11402D8BFC2F1200CA4
:1023C00001FA02F120FA0CFCDCBF41EA0C0190405A
:1023D000E41AA2BF01EB0451294330BD6FEA0404A3
:1023E0001F3C1CDA0C340EDC04F11404C4F120028E
:1023F00020FA04F001FA02F340EA030021FA04F3A0
:1024000045EA030130BDC4F10C04C4F1200220FAF6
:1024100002F001FA04F340EA0300294630BD21FA34
:1024200004F0294630BD94F0000F83F4801306BFFA
:1024300081F480110134013D4EE77FEA645C18BFEE
:102440007FEA655C29D094EA050F08BF90EA020F85
:1024500005D054EA000C04BF1946104630BD91EA7D
:10246000030F1EBF0021002030BD5FEA545C05D180
:102470004000494128BF41F0004130BD14F58004BF
:102480003CBF01F5801130BD01F0004545F0FE4133
:1024900041F470014FF0000030BD7FEA645C1ABF68
:1024A000194610467FEA655C1CBF0B46024650EA9F
:1024B000013406BF52EA033591EA030F41F40021CB
:1024C00030BD00BF90F0000F04BF0021704730B551
:1024D0004FF4806404F132044FF000054FF0000126
:1024E00050E700BF90F0000F04BF0021704730B5E7
:1024F0004FF4806404F1320410F0004548BF4042BC
:102500004FF000013EE700BF42004FEAE2014FEA10
:1025100031014FEA02701FBF12F07F4393F07F4FEB
:1025200081F06051704792F0000F14BF93F07F4F1D
:10253000704730B54FF4607401F0004521F0004160
:1025400020E700BF50EA010208BF704730B54FF0E6
:1025500000050AE050EA010208BF704730B511F0EB
:10256000004502D5404261EB41014FF4806404F123
:1025700032045FEA915C3FF4DCAE4FF003025FEAA5
:10258000DC0C18BF03325FEADC0C18BF033202EB2D
:10259000DC02C2F1200300FA03FC20FA02F001FA87
:1025A00003FE40EA0E0021FA02F11444C1E600BF26
:1025B00070B54FF0FF0C4CF4E06C1CEA11541DBFD9
:1025C0001CEA135594EA0C0F95EA0C0F00F0DEF8A4
:1025D0002C4481EA030621EA4C5123EA4C5350EA89
:1025E000013518BF52EA033541F4801143F48013DA
:1025F00038D0A0FB02CE4FF00005E1FB02E506F06B
:102600000042E0FB03E54FF00006E1FB03569CF0BF
:10261000000F18BF4EF0010EA4F1FF04B6F5007FC5
:1026200064F5407404D25FEA4E0E6D4146EB060637
:1026300042EAC62141EA55514FEAC52040EA5E50C0
:102640004FEACE2EB4F1FD0C88BFBCF5E06F1ED86A
:10265000BEF1004F08BF5FEA500E50F1000041EBA1
:10266000045170BD06F0004646EA010140EA02004E
:1026700081EA0301B4EB5C04C2BFD4EB0C0541EA70
:10268000045170BD41F480114FF0000E013C00F385
:10269000AB8014F1360FDEBF002001F0004170BDA9
:1026A000C4F10004203C35DA0C341BDC04F11404C2
:1026B000C4F1200500FA05F320FA04F001FA05F24E
:1026C00040EA020001F0004221F0004110EBD3701B
:1026D00021FA04F642EB06015EEA430E08BF20EA47
:1026E000D37070BDC4F10C04C4F1200500FA04F3EA
:1026F00020FA05F001FA04F240EA020001F000417C
:1027000010EBD37041F100015EEA430E08BF20EAEE
:10271000D37070BDC4F1200500FA05F24EEA020E36
:1027200020FA04F301FA05F243EA020321FA04F065
:1027300001F0004121FA04F220EA020000EBD3701C
:102740005EEA430E08BF20EAD37070BD94F0000F1C
:102750000FD101F00046400041EB010111F4801F50
:1027600008BF013CF7D041EA060195F0000F18BF01
:10277000704703F00046520043EB030313F4801F3D
:1027800008BF013DF7D043EA0603704794EA0C0FF7
:102790000CEA135518BF95EA0C0F0CD050EA41060D
:1027A00018BF52EA4306D1D181EA030101F000418A
:1027B0004FF0000070BD50EA410606BF10461946B2
:1027C00052EA430619D094EA0C0F02D150EA0136BE
:1027D00013D195EA0C0F05D152EA03361CBF1046FF
:1027E00019460AD181EA030101F0004141F0FE419E
:1027F00041F470014FF0000070BD41F0FE4141F422
:10280000780170BD70B54FF0FF0C4CF4E06C1CEA21
:1028100011541DBF1CEA135594EA0C0F95EA0C0FD6
:1028200000F0A7F8A4EB050481EA030E52EA033591
:102830004FEA013100F088804FEA03334FF08055B2
:1028400045EA131343EA12634FEA022245EA1115DF
:1028500045EA10654FEA00260EF000419D4208BF90
:10286000964244F1FD0404F5407402D25B084FEA3D
:102870003202B61A65EB03055B084FEA32024FF4E9
:1028800080104FF4002CB6EB020E75EB030E22BF46
:10289000B61A754640EA0C005B084FEA3202B6EB06
:1028A000020E75EB030E22BFB61A754640EA5C00B5
:1028B0005B084FEA3202B6EB020E75EB030E22BF45
:1028C000B61A754640EA9C005B084FEA3202B6EB46
:1028D000020E75EB030E22BFB61A754640EADC0005
:1028E00055EA060E18D04FEA051545EA16754FEA67
:1028F00006164FEAC30343EA52734FEAC2025FEA85
:102900001C1CC0D111F4801F0BD141EA00014FF013
:1029100000004FF0004CB6E711F4801F04BF0143E4
:102920000020B4F1FD0C88BFBCF5E06F3FF6AFAE00
:10293000B5EB030C04BFB6EB020C5FEA500C50F190
:10294000000041EB045170BD0EF0004E4EEA113113
:1029500014EB5C04C2BFD4EB0C0541EA045170BD1A
:1029600041F480114FF0000E013C90E645EA060E5E
:102970008DE60CEA135594EA0C0F08BF95EA0C0F8C
:102980003FF43BAF94EA0C0F0AD150EA01347FF4D4
:1029900034AF95EA0C0F7FF425AF104619462CE7AB
:1029A00095EA0C0F06D152EA03353FF4FDAE10460E
:1029B000194622E750EA410618BF52EA43067FF45F
:1029C000C5AE50EA41047FF40DAF52EA43057FF4EF
:1029D000EBAE12E74FEA4102B2F1E04324BFB3F598
:1029E000001CDCF1FE5C0DD901F0004C4FEAC00286
:1029F0004CEA5070B2F1004F40EB830008BF20F06A
:102A00000100704711F0804F21D113F13872BCBF23
:102A100001F00040704741F480114FEA5252C2F178
:102A20001802C2F1200C10FA0CF320FA02F018BFC1
:102A300040F001004FEAC1234FEAD32303FA0CFC14
:102A400040EA0C0023FA02F34FEA4303CCE77FEAA3
:102A5000625307D150EA01331EBF4FF0FE4040F4ED
:102A60004000704701F0004040F0FE4040F400009C
:102A7000704700BF80F0004002E000BF81F00041DD
:102A800042001FBF5FEA410392EA030F7FEA226C14
:102A90007FEA236C6AD04FEA1262D2EB1363C1BFA4
:102AA000D218414048404140B8BF5B42192B88BF13
:102AB000704710F0004F40F4000020F07F4018BF36
:102AC000404211F0004F41F4000121F07F4118BF56
:102AD000494292EA030F3FD0A2F1010241FA03FCFE
:102AE00010EB0C00C3F1200301FA03F100F00043E6
:102AF00002D5494260EB4000B0F5000F13D3B0F1AE
:102B0000807F06D340084FEA310102F10102FE2A1C
:102B100051D2B1F1004F40EBC25008BF20F001008C
:102B200040EA03007047490040EB000010F4000F3A
:102B3000A2F10102EDD1B0FA80FCACF1080CB2EBCD
:102B40000C0200FA0CF0AABF00EBC250524218432C
:102B5000BCBFD0401843704792F0000F81F40001D1
:102B600006BF80F400000132013BB5E74FEA4103A4
:102B70007FEA226C18BF7FEA236C21D092EA030F10
:102B800004D092F0000F08BF0846704790EA010F8A
:102B90001CBF0020704712F07F4F04D1400028BFB7
:102BA00040F00040704712F100723CBF00F5000099
:102BB000704700F0004343F0FE4040F400007047CF
:102BC0007FEA226216BF08467FEA2363014642027B
:102BD00006BF5FEA412390EA010F40F4800070478E
:102BE0004FF0000304E000BF10F0004348BF404234
:102BF0005FEA000C08BF704743F0964301464FF070
:102C000000001CE050EA010208BF70474FF00003CB
:102C10000AE000BF50EA010208BF704711F000430C
:102C200002D5404261EB41015FEA010C02BF8446DC
:102C30000146002043F0B64308BFA3F18053A3F53B
:102C40000003BCFA8CF2083AA3EBC25310DB01FA82
:102C500002FC634400FA02FCC2F12002BCF1004F06
:102C600020FA02F243EB020008BF20F00100704797
:102C700002F1200201FA02FCC2F1200250EA4C00EB
:102C800021FA02F243EB020008BF20EADC70704731
:102C90004FF0FF0C1CEAD0521EBF1CEAD15392EA3F
:102CA0000C0F93EA0C0F6FD01A4480EA010C40021B
:102CB00018BF5FEA41211ED04FF0006343EA501075
:102CC00043EA5111A0FB01310CF00040B1F5000FB7
:102CD0003EBF490041EAD3715B0040EA010062F166
:102CE0007F02FD2A1DD8B3F1004F40EBC25008BF50
:102CF00020F00100704790F0000F0CF0004C08BF6E
:102D000049024CEA502040EA51207F3AC2BFD2F13A
:102D1000FF0340EAC250704740F400004FF0000348
:102D2000013A5DDC12F1190FDCBF00F00040704782
:102D3000C2F10002410021FA02F1C2F1200200FAC0
:102D400002FC5FEA310040F1000053EA4C0308BF87
:102D500020EADC70704792F0000F00F0004C02BFD8
:102D6000400010F4000F013AF9D040EA0C0093F053
:102D7000000F01F0004C02BF490011F4000F013BAD
:102D8000F9D041EA0C018FE70CEAD15392EA0C0F1B
:102D900018BF93EA0C0F0AD030F0004C18BF31F086
:102DA000004CD8D180EA010000F00040704790F05C
:102DB000000F17BF90F0004F084691F0000F91F000
:102DC000004F14D092EA0C0F01D142020FD193EAC6
:102DD0000C0F03D14B0218BF084608D180EA01004E
:102DE00000F0004040F0FE4040F40000704740F02A
:102DF000FE4040F4400070474FF0FF0C1CEAD052F8
:102E00001EBF1CEAD15392EA0C0F93EA0C0F69D053
:102E1000A2EB030280EA010C49024FEA402037D0BE
:102E20004FF0805343EA111143EA10130CF00040B5
:102E30008B4238BF5B0042F17D024FF4000C8B42A5
:102E400024BF5B1A40EA0C00B3EB510F24BFA3EB85
:102E5000510340EA5C00B3EB910F24BFA3EB910355
:102E600040EA9C00B3EBD10F24BFA3EBD10340EAAF
:102E7000DC001B0118BF5FEA1C1CE0D1FD2A3FF6F5
:102E800050AF8B4240EBC25008BF20F001007047AA
:102E90000CF0004C4CEA50207F32C2BFD2F1FF034D
:102EA00040EAC250704740F400004FF00003013A7E
:102EB00037E792F0000F00F0004C02BF400010F422
:102EC000000F013AF9D040EA0C0093F0000F01F036
:102ED000004C02BF490011F4000F013BF9D041EA58
:102EE0000C0195E70CEAD15392EA0C0F08D142028B
:102EF0007FF47DAF93EA0C0F7FF470AF084676E75E
:102F000093EA0C0F04D14B023FF44CAF08466EE736
:102F100030F0004C18BF31F0004CCAD130F0004204
:102F20007FF45CAF31F000437FF43CAF5FE700BF5C
:102F30004FF0FF3C06E000BF4FF0010C02E000BF85
:102F40004FF0010C4DF804CD4FEA40024FEA410327
:102F50007FEA226C18BF7FEA236C11D001B052EADD
:102F6000530C18BF90EA010F58BFB2EB030088BFA3
:102F7000C81738BF6FEAE17018BF40F00100704712
:102F80007FEA226C02D15FEA402C05D17FEA236CF4
:102F9000E4D15FEA412CE1D05DF8040B704700BF3B
:102FA000844608466146FFE70FB5FFF7C9FF0028D2
:102FB00048BF10F1000F0FBD4DF808EDFFF7F4FF0B
:102FC0000CBF012000205DF808FB00BF4DF808EDA4
:102FD000FFF7EAFF34BF012000205DF808FB00BFC7
:102FE0004DF808EDFFF7E0FF94BF012000205DF8E9
:102FF00008FB00BF4DF808EDFFF7D2FF94BF01209A
:1030000000205DF808FB00BF4DF808EDFFF7C8FF92
:1030100034BF012000205DF808FB00BF42000ED243
:10302000B2F1FE4F0BD34FF09E03B3EB126209D403
:103030004FEA002343F0004323FA02F070474FF0B9
:103040000000704712F1610F01D1420202D14FF02E
:10305000FF3070474FF00000704700BF002101F0C3
:103060000BB900BF014B1868704700BF2005002056
:1030700070B50F4E0F4D761BB61007D0043D0024DF
:10308000013455F8043F9847A642F9D10A4E0B4D3A
:1030900007F0BCFD761BB61008D0043D00240134B7
:1030A00055F8043F9847A642F9D170BD70BD00BFE6
:1030B00018AC400018AC400020AC400018AC4000F8
:1030C0000FB410B5074B82B004AC54F8042B186849
:1030D00023468168019402F093FB02B0BDE81040E2
:1030E00004B0704720050020F0B4840743D0541E7C
:1030F000002A3ED0CDB2034603E0621E002C38D039
:10310000144603F8015B9A07F7D1032C2AD9CDB2F4
:1031100045EA05250F2C45EA054515D9A4F1100708
:103120003F0903F1100606EB07161A4615605560B5
:103130009560D5601032B242F8D104F00F04013727
:10314000032C03EB07130DD91E462246043A032A2B
:1031500046F8045BFAD8221F22F00302043213441B
:1031600004F003042CB1C9B21C4403F8011BA342B0
:10317000FBD1F0BC704714460346C6E700290CBFDC
:10318000022200224FF4806300F000B82DE9F041E4
:103190003C4D04462D68884616461F4615B1AB6B5C
:1031A000002B4FD0022E30D8002F2EDB2846214690
:1031B00004F05AFAA38900226260A2611A0628D498
:1031C00023F083039BB2022EA3812DD0B8F1000F10
:1031D0003CD0012E13D09BB203F008002A4A80B2E3
:1031E000EA63C4F80080C4F81080676178B113F016
:1031F000030F18BF0027A7600020BDE8F08143F04F
:1032000001037A42A381A261E5E74FF0FF30BDE8F8
:10321000F0812846216904F087FBA389022E23F060
:1032200083039BB2A381D1D1002004F1430243F078
:10323000020300250121A381A56022602261616152
:10324000BDE8F081284604F02BFAABE7002F08BF59
:103250004FF48067384605F011FA804628B1A389FB
:1032600043F080039BB2A381B3E74FF4806005F085
:1032700005FA804618B9A3894FF0FF30D5E74FF41F
:103280008067ECE720050020957640000CB4F0B58F
:10329000174B0C1E9DB01F6824DB4FF4027323AD47
:1032A00014BF04F1FF36264602900690ADF81430A4
:1032B0004FF6FF7E2B46384602A9229A04960796BF
:1032C0000195ADF816E000F0EFFF431CBCBF8B2367
:1032D0003B6014B1029B00221A701DB0BDE8F040A3
:1032E00002B070478B233B604FF0FF30F5E700BF23
:1032F000200500202DE9F0410D46904606F084F8A7
:1033000006460F46B8F1000F0FD0C5F30A53C3F1BC
:103310006B03002B09DD1C0504F17F5303F54013FB
:103320000022FFF745F9BDE8F08130463946BDE897
:10333000F08100BF000000002DE9F04F9FB00D4666
:1033400019918346059200200A460021CDE9020129
:1033500000231A93164612F8014B2D2C00F25881C7
:10336000DFE814F0390056015601560156015601A6
:103370005601560156017C007C007C007C007C00DC
:103380005601560156015601560156015601560185
:103390005601560156015601560156015601560175
:1033A000560156017C005601560156015601560140
:1033B000560156015601560156014D0056017E0038
:1033C000002301219A460B91002840F051810A9A6E
:1033D000002A40F04D8100204FF000084FF0000916
:1033E00019950790059909B1199B0B60079A002A56
:1033F00040F09E80404649461FB0BDE8F08F002354
:103400000793731C19937478002CE4D0302C1E465B
:1034100000F00381002306960A93A4F130030027ED
:10342000092BB9463E461ED80698431C0EE009EB10
:10343000890904EB4909A9F130091993984613F851
:10344000014B0136A4F13002092A0ED8082EEEDD18
:1034500007EB870704EB4707303FEEE7199279E760
:1034600001220792CDE7DDF81880584605F092F862
:10347000D0F800A0584605F08DF8006806F07AFBF9
:1034800051460246404606F0A5FB8046002800F063
:103490004681002003460B90B24624F02002452AC4
:1034A00000F0E2800021BAF1000F55D0CB1A484657
:1034B0000893FFF707F8BAF1100FB4BFD0464FF0EA
:1034C0001008002E08BF5646B8F1090FCDE90201D9
:1034D00013DDA04B03EBC80353E91223FFF768F891
:1034E000044638460D46FEF7EDFF02460B462046E1
:1034F0002946FEF7ABFECDE90201BAF10F0F00F34A
:103500002B810899002900F0AC8040F38185089A4E
:10351000162A00F3F184DDE902238E49089801EBB5
:10352000C00ADAE90001FFF743F88046894659E707
:10353000404609F100411FB0BDE8F08F3346A4F1C9
:103540003102082A40F23D8324F02002452A184621
:103550003FF436AF01210B91002871D10A9B002B5B
:103560006ED10B9800287FF436AF493C252C3FF6EE
:1035700032AF01A151F824F03D3C4000D733400068
:10358000D7334000D7334000D7334000053C4000DC
:10359000D7334000D7334000D7334000D733400003
:1035A000D7334000D7334000D7334000D7334000F3
:1035B000D7334000D7334000D7334000D7334000E3
:1035C000D7334000D7334000D7334000D7334000D3
:1035D000D7334000D7334000D7334000D7334000C3
:1035E000D7334000D7334000D7334000D7334000B3
:1035F000D7334000D73340003D3C4000D733400034
:10360000D7334000D7334000D7334000053C40005B
:103610000020302C07907FF4FDAE7378582B00F01B
:103620003783782B00F0348301361996334616F829
:10363000014B302CF9D01CB1069301230A93ECE620
:103640004FF000084FF00009CCE66FF000434FF058
:10365000FF3003930290220742BF039941F00041DB
:103660000391DDE90289BDE6BAF1000F3FF4ACAE8B
:10367000199D6A1C19926C782B2C00F04B822D2C12
:1036800040F0458201210891AA1C1992AC78A4F15E
:103690003002092A00F2E581302C06D1199A013254
:1036A000199212F8014B302CFAD0A4F13102082AF9
:1036B0003FF6F8AE199AA4F1300102F10108CDF8F5
:1036C000648054780E92A4F13002092A11D80E9A1F
:1036D00002F1020C624601EB8101199204EB4101F7
:1036E000904612F8014B3039A4F1300CBCF1090FAF
:1036F000F1D90E9AC2EB0808B8F1080F00F3F48371
:1037000044F61F629142A8BF1146089A002A3FF46E
:10371000CAAE4942BAF1000F7FF4C8AE1CE7584662
:10372000199C04F037FF006806F024FA2318199357
:10373000245C002E40F0C481302C7FF4FFAE1A468A
:10374000334600E00A46511C199154780133302C5D
:10375000F8D0F4E610AB4000089BC8EB0A08984488
:10376000B8F1000F40F36B8318F00F010AD0DDE9C8
:103770000223A74800EBC101D1E90001FEF718FFC1
:10378000CDE9020138F00F0440F0CA8100200A9010
:10379000CDF80090069932465346584605F0B6FBE0
:1037A0000B90002800F0D782089B08990020002B7E
:1037B000C3F10003A8BF034621EAE17106900E930E
:1037C0000F9107460B9A5846516805F025FB0646AF
:1037D000002800F0CE820B98036906F10C009A1CB9
:1037E0000B9B920003F10C0105F036FADDE90201B2
:1037F000CDE90801DDE908231BA81CA98DE8030019
:10380000584605F07DFE1A90002800F013845846B3
:10381000012105F015FC0746002800F0AA821B9B39
:10382000002BC0F21181DDF838900F9D99440A9A5F
:103830001C999B1A0B446FF47F729342C1F1360AB4
:1038400080F2DA80D21A1F2AC2EB0A0A00F3018141
:103850004FF0010808FA02F800230C930A98554427
:10386000CA44CA45B4BF53464B460544AB42A8BF01
:103870002B46002B04DDC3EB0A0AED1AC3EB090942
:103880000E99B1B1394658460E9A05F081FC0746AB
:10389000002800F06E82584639461A9A05F0DAFB85
:1038A0000446002800F0658258461A9905F0DAFAB5
:1038B0001A94BAF1000F08DD524658461A9905F0DD
:1038C000B5FC1A90002800F0B5830F9A42B131463A
:1038D00058460F9A05F05CFC0646002800F0498225
:1038E000002D08DD31462A46584605F09FFC064665
:1038F000002800F03E82B9F1000F08DD39464A4643
:10390000584605F093FC0746002800F032825846DE
:103910001A99324605F00CFD0690002800F0298225
:1039200006990023D1F80CA0CB60394605F0DCFCE9
:103930000028C0F2CC8300F089830698394605F050
:103940003DFE00224FF0804304460D4606F050FC39
:10395000002865D0BAF1000F00F08F802D4D0024B3
:1039600022462B46CDE90C23DDF80C90DFF8AC8025
:10397000294B09EA0808984500F0C0810A9A82B1EB
:10398000B8F1D46F0DD820A3D3E90023DDE90C01F1
:1039900006F02EFC002840F01D8105F1D663C8EB2F
:1039A0000305DDE9080105F02FFD02460B46204620
:1039B0002946FEF7FDFD02460B46DDE90801FEF74C
:1039C00045FCCDE90201039C0A9921B9134B234020
:1039D000984500F0EE8158461A9905F043FA58468A
:1039E000314605F03FFA5846394605F03BFA58464D
:1039F000069905F037FAE5E600230C934FF001082D
:103A00002CE700BFAFF300800000C0FFFFFFDF41E5
:103A100010AB40000000F03F0000E07F0000F07FAE
:103A2000204629460022A84BFEF7C2FDCDE90C0135
:103A3000BAF1000F1CD101F1004110901191DDE9A4
:103A40001045DDF80C9091E70F99DDF83890CD1A0C
:103A5000EDE69E4C4FF00108E41A08FA04F40C94C9
:103A6000FCE619950021BAF1000F7FF41FAD73E554
:103A7000DDE90C23CDE91023E1E7029B002B40F0A8
:103A800093800398C0F313038146002B40F092808B
:103A90002046294600228E4B06F0A0FB002840F06D
:103AA0005683204629460022874BFEF781FDCDE94B
:103AB0000C0101F1004116901791DDE9164555E71B
:103AC00040464346B246A4F13002092A25D8199C43
:103AD0000130002A00F0AF810128034400F0A081EA
:103AE0005044013806E009EB89094FEA490982454B
:103AF00000F097810AF1010A0AF1FF310829F2DD8D
:103B0000BAF1100FDCBF07EB87077F00EFE7002259
:103B10000892BCE500210891B6E501220B92BCE4B5
:103B2000B4F59A7F00F317812411012CDFF8C881C6
:103B300040F32A83DDE902014546002714F0010F16
:103B400007F101074FEA640403D0D5E90023FEF72B
:103B50002FFD012C05F10805F0DCCDE902010399E8
:103B600008EBC707A1F154710391DDE90223D7E9FE
:103B70000001FEF71DFDCDE90201039A039922F031
:103B800000431B0D534A1B05934200F2E480A2F54B
:103B90008012934240F2D4824F4B00204FF0FF310D
:103BA00003930A900291F3E50299DDF80C90012944
:103BB00000F0C981464900200024484DCDE90C01A0
:103BC000D4E61999A4F1300206910C464FF0000A90
:103BD00001207EE7DDE90C0106F050FB002800F033
:103BE000AD81FEF76FFCCDE90C01BAF1000F40F09A
:103BF000A0810D9A0C9902F1004214911592DDE911
:103C00001445CAE63648199909E011F8013FA3F1B5
:103C10004104192C98BF203393427FF4DCAB10F899
:103C2000012F002AF1D14B1C19934B78282B00F05F
:103C3000E1822C4A00230392029312E52A48199943
:103C400009E011F8013FA3F14104192C98BF20337A
:103C500093427FF4C0AB10F8012F002AF1D11991E3
:103C6000224C084609E010F8013FA3F14105192D47
:103C700098BF2033934240F0848214F8012F002A29
:103C8000F1D1013019901A4A002303920293E8E41B
:103C900007991AAB01910093584619A9154A1BAB15
:103CA00004F00EF910F0070504463FF4C9AC062DE8
:103CB00040F057810136002219964FF000084FF06E
:103CC00000090792FFF78EBB0000E03FE3FBFFFF18
:103CD0000000F03F0000A07CFFFFEF7F0000F0BF7E
:103CE0002BA940000000F8FF1FA9400023A94000B5
:103CF0000000F07F0CA94000D8AB4000A9F1547936
:103D0000CDF80C90DDE9020105F07EFB02460B4682
:103D100020462946FEF74CFC02460B46DDE902012F
:103D2000FEF794FACDE902010399AD4A21F0004370
:103D30001B0D1B059342DDE90801CDE9120140F29C
:103D4000D680A84B1399994210D0A64B4FF0FF3064
:103D5000039302903FE6A44B00200393029022239A
:103D6000DDE90289CBF80030FFF73CBB129A013243
:103D7000EBD1B2461A999C4A22230020039202906A
:103D8000CBF80030DDE90289584605F06BF858465B
:103D9000514605F067F85846394605F063F858462D
:103DA0000B9905F05FF85846069905F05BF8FFF7A8
:103DB00019BBDDE90C0106F039FAFEF793FB024668
:103DC0000B46DDE90C01FEF73FFA80468946BAF161
:103DD000000F11D1029A7AB9C4F3130464B97AA31B
:103DE000D3E9002306F0FAF900283FF4F4ADB24617
:103DF000DDE902891A99C7E74046494674A3D3E929
:103E0000002306F0EBF90028F1D14046494672A3A1
:103E1000D3E9002306F000FA00283FF4DCADE6E722
:103E20005046082800F1010A00F3078109EB8909CF
:103E300002EB49090020621C1992647843E63FF4C2
:103E4000A5ACC8F1000414F00F030AD0DDE90201AB
:103E5000664A02EBC303D3E90023FEF7D3FCCDE9A6
:103E6000020124113FF492AC1F2C34DC14F0100F2B
:103E700014BF6A230023002C0A930EDDDDE9020142
:103E80005B4DE30703D5D5E90023FEF791FB6410F2
:103E900005F10805F5D1CDE902010A9890B1039921
:103EA000C1F30A53C3F16B03002B0A460ADD1F2B33
:103EB00040F3BC810020342B029040F3BF814FF0CF
:103EC0005C710391DDE902010022002306F07CF918
:103ED00000283FF45DAC2223CBF800304FF00008FF
:103EE0004FF00009FFF77EBA44F61F610DE4039915
:103EF00001F15474039467E50899CAF125039942C6
:103F00003FF72AACDDE90223384CCAF10F0504EB78
:103F1000C501D1E90001FEF74BFB089A551B04EBE4
:103F2000C504D4E90023FEF743FB80468946FFF72A
:103F300059BADDE90C01CDE9140160E62D490020F4
:103F4000CDE90C0151E64A46002A7FF433AEB24671
:103F50002223CBF800301A994FF000084FF00009E7
:103F600012E71A9A3AB11CA8352105F04FFB5846C2
:103F70001A9904F077FF1B9B062D3FF66CAB01A04E
:103F800050F825F0B93F4000F93F4000AD3F4000F8
:103F9000A13F40004B364000F93F4000B93F400090
:103FA0001149002203910292FFF755BB1C9A1D9BF9
:103FB00002920393FFF74FBB002103910291FFF799
:103FC0004ABB00BFAFF300809535A094FFFFCF3F01
:103FD0009535A094FFFFDF3F35E5AF350000E03FAA
:103FE000FFFF9F7CFFFFEF7F0000F07F10AB4000E2
:103FF00048A940000000F03F1D9A1C9803F233438B
:1040000022F4801242EA035202900392FFF723BB8C
:10401000089B1633FFF6A0ABDDE902018D4B089A31
:10402000A3EBC20ADAE90023FEF7ECFB80468946DF
:10403000FFF7D8B9B24601469DE6BAF1100FDCBFD2
:1040400007EB870702EB47070020F4E65546C44616
:10405000B246DDE90889002D00F08280039A7E4B8C
:10406000C2F31301994200F0A3800C9B002B00F0D7
:104070008380039803420FD0DDE902010A9A002DE4
:1040800000F08480FFF736F902460B464046494669
:10409000FEF7DCF8804689460A9BB3B16F480022E0
:1040A0001390129240464946DDE91223FEF780FA4A
:1040B00080468946CDE90289039B33B9029820B92D
:1040C00022231A99CBF800305EE61A995CE6554631
:1040D000DDE90889B246002DDED1029A002ADBD143
:1040E0000398C0F313030446002BD5D120F00043FE
:1040F0001B0D1B05B3F1D66FCED906994B6913B9C9
:104100000B69012BC8DD06990122584605F08EF88F
:104110003946069005F0E8F80028BDDD0A9B002B23
:104120007AD14F4B2340A3F580136FEA13536FEA04
:1041300003504FF0FF3103900291DDE90289ABE7B4
:1041400001F15471002203910A92FFF721BB454B04
:10415000454900220020CDE91623CDE90C01ACE44D
:104160000399C1F313030C46002B7FF47EAF029A30
:10417000002A7FF47AAFD1E702991CEA010F8BD0B5
:104180007AE7013119917EE50027E8E4FFF7B2F8FC
:1041900002460B4640464946FEF756F800220023E9
:1041A0008046894606F010F800287FF4D1AE73E708
:1041B0000A9B0299DBB12A4B1340B3F1D46F16D896
:1041C0001B0DC3F16B034FF0FF3000FA03F399426C
:1041D0007FF44BAF254B9A4238D0214B002013403F
:1041E00003F5801303930290DDE9028954E74FF051
:1041F000FF33ECE719A81E491CAA04F0F7F80528BC
:104200007FF417AD1D9B1C9943F0FF4343F4E0007E
:1042100003900291FFF725BA114B2340B3F1D66FFB
:1042200081D8B3F15C7F3FF639AF91E64FF0FF32B2
:1042300002FA03F3029A1340029343E6203B4FF045
:10424000FF3101FA03F3134003933BE60131C4D17C
:1042500090E500BF10AB4000FFFF0F000000503999
:104260000000F07F0000E0BF0000E03FFFFFEF7FB5
:1042700030A94000AFF3008038B50A4B0A4601462A
:104280001868FFF759F804460D4605F0F3FB20B116
:1042900020462946FEF79EFB38BDBDE8384005F0B4
:1042A00023BC00BF200500202DE9F04FC9B01093BA
:1042B0000C9191460D9004F06DF90068159005F091
:1042C00059FC0C9C1890A3891E0603D52369002B6A
:1042D00001F0818038ACA44608942B94002500247A
:1042E000CDE91645002311932D932C931A9319931E
:1042F0000E93664699F80030002B00F0F880252BCD
:1043000000F0F58009F1010201E0252B04D01378BB
:1043100014460132002BF8D1C9EB04057DB12C9B6A
:104320002D9A01332A44072BC6F8009075602D9210
:104330002C9300F3C28008360E9828440E90237800
:10434000002B00F0C280002394F801801A468DF8FB
:104350008F300F93099304F101094FF0FF340A9451
:1043600009F10109A8F12003582B00F2C583DFE809
:1043700013F06A02C303C3037102C303C303C3037D
:10438000C303C303C30314036603C3039D00C00038
:10439000C30378027F027F027F027F027F027F02D7
:1043A0007F027F027F02C303C303C303C303C303AC
:1043B000C303C303C303C303C30390027103C30353
:1043C0007103C303C303C303C3036A03C303C30368
:1043D0007800C303C303C303C303C3035900C30368
:1043E000C303AF02C303C303C303C303C303C303B2
:1043F000C303C303C303C303370348037103710338
:104400007103FF024803C303C3030803C303C502C8
:104410007C002003A303C303D902C3035F00C303CB
:10442000C303DE00DDF824C04CF0100CCDF824C02E
:10443000099CA20600F15483099CE30600F1BD85A6
:10444000DDF824C01CF0400F00F0B785DDF840C057
:104450000025BCF800400CF1040C0123CDF840C04D
:104460008CE0099D45F010050995DDF824C01CF08D
:10447000200340F02A83DDF824C01CF0100240F035
:10448000A485DDF824C01CF0400300F09E85DDF813
:1044900040C01346BCF800400CF1040C0025CDF8D8
:1044A00040C06BE00F9C109364420F94099D45F04F
:1044B0000405099599F8008052E70D980C992BAAEC
:1044C00005F0E2FB40B938AE36E72D9B23B10D98DD
:1044D0000C992BAA05F0D8FB0C9C0E98A38913F01D
:1044E000400F18BF4FF0FF3049B0BDE8F08F4C4689
:1044F00025E799F8008009F10100B8F12A0F01F0D1
:104500000C81A8F13003092B98BF002101F26B80C8
:1045100010F8018B01EB810103EB4101A8F130039D
:10452000092BF5D941EAE1710A9181461AE7099D03
:10453000A14CAF061A948DF88F2040F1D181DDF89F
:1045400040C00CF1070323F0070303F108041094A3
:10455000D3E90045DDF824C01CF0010F00F06284AF
:1045600054EA050000F05E8430234CF0020C8DF814
:1045700090308DF89180CDF824C002234FF0000ACE
:104580008DF88FA00A99002905DBDDF824C02CF0F6
:10459000800CCDF824C054EA050040F0C5820A9989
:1045A000002940F0C182002B40F03884DDF824C09F
:1045B0001CF0010F00F0328448AF3023089D07F84B
:1045C000413DEC1BDDF828C000256445A8BFA4468A
:1045D000CDF82CC01495BAF1000F02D00B9D013517
:1045E0000B95099B13F00203129302D00B9D023529
:1045F0000B95DDF824C01CF0840CCDF84CC040F0C5
:1046000090820F9DDDF82CC0CCEB050BBBF1000FA9
:1046100040F38782BBF1100F2D992C9ADFF8A0A1EF
:104620002CDD1B97304657461025CA460C9EA146E6
:104630000D9C06E0ABF1100BBBF1100F00F1080070
:1046400017DD01321031072A2D912C920760456049
:10465000F0DD204631462BAA05F016FB00287FF43A
:104660003BAFABF1100BBBF1100F2D992C9A38A872
:10467000E7DC4C46D146BA461B9F064601320BEB9F
:10468000010C072ACDF8B4C02C9286E8000C00F388
:104690001A849DF88FA00836BAF1000F0FD02C9B1A
:1046A0000CF1010C01330DF18F010122072BCDF824
:1046B000B4C02C9386E8060000F3A4830836129B4E
:1046C00073B12C9B0CF1020C013324A90222072B9D
:1046D000CDF8B4C02C9386E8060000F38783083633
:1046E000139D802D00F0CA820A9DC4EB050ABAF121
:1046F000000F3BDDBAF1100F2C9B304D2BDD0A94DF
:1047000032464FF0100B2E4661460D9C0C9D06E084
:10471000AAF1100ABAF1100F02F1080217DD0133F5
:104720001031072B2D912C9382E84008F0DD2046B4
:1047300029462BAA05F0A8FA00287FF4CDAEAAF1ED
:10474000100ABAF1100F2D992C9B38AAE7DC0A9CAD
:1047500035468C4616460133D444072BCDF8B4C0F9
:104760002C9386E8200400F335830836099DED0577
:1047700000F124822C9BA4440133072BCDF8B4C054
:10478000376074602C9300F30F830836099C63072D
:1047900049D50F9D0B982C1A002C44DD102C2C9B16
:1047A000DFF81CA02BDD574610256246DDF830806F
:1047B000DDF834A00BE000BFA4A9400070A94000C0
:1047C000C4A94000103C102C06F1080615DD013389
:1047D0001032072B2D922C9337607560F2DD504616
:1047E00041462BAA05F050FA00287FF475AE103C24
:1047F000102C2D9A2C9B38AEE9DC9446BA46013336
:10480000A444072BCDF8B4C02C93C6F800A0746064
:1048100009DD0D980C992BAA05F036FA00287FF4D3
:104820005BAEDDF8B4C00E9C0B980F9DA842ACBFE8
:10483000241864190E94BCF1000F40F0C1820023CB
:104840002C9338AE56E599F80080002A7FF488ADA5
:10485000202285E5099D45F00105099599F800801C
:104860007EE5099D45F08005099599F8008077E57A
:104870000024A8F130030F94214619F8018B01EBB5
:10488000810103EB4101A8F13003092BF5D90F9108
:1048900068E5DDF824C08DF88F204CF0100CCDF8C1
:1048A00024C0099CA50640F1B280109DE91D21F0AD
:1048B0000701D1E900230831109114461D46002A52
:1048C00073F1000CC0F294839DF88FA0012359E688
:1048D000099DB64CAF068DF88F201A943FF52FAE88
:1048E000099DED0640F14384DDF840C00025DCF869
:1048F00000400CF1040CCDF840C02BE6DDF824C0DC
:104900008DF88F201CF0200F00F04084109C21684F
:104910000E9CE5172B46109D224604351095C1E9E3
:104920000023E7E4109C4FF0000A27688DF88FA061
:10493000251D002F00F0E9850A9C3846002CC0F2A6
:104940009B855146224604F03DF9002800F013866D
:104950000A9CC01BA042B8BF0446109524EAE47527
:10496000CDF828A0CDF850A00B959DF88FA032E689
:10497000DDF824C04CF0400CCDF824C099F800803C
:10498000EEE499F800804B46B8F16C0F00F07F849C
:10499000099D45F010050995E2E4109C109D2468DE
:1049A0002B1D002C0F94FFF67DAD109399F800801D
:1049B000D6E4109BDDF824C0109D7D4804351C68AA
:1049C0004FF0780830234CF0020C10958DF89030A1
:1049D000CDF824C000258DF891801A900223CDE5F2
:1049E000109B109D1A680124002304359A460B94ED
:1049F0008DF8B82010958DF88F300A9314932EAF50
:104A0000EFE5099C8DF88F20A5063FF54EAFDDF848
:104A100024C01CF0100F40F0DF82DDF824C01CF031
:104A2000400F00F0D982DDF840C0BCF900400CF125
:104A3000040CE51722462B46CDF840C03FE799F815
:104A400000802B228CE4099D45F00805099599F812
:104A5000008085E4109D8DF88F20EB1D23F0070367
:104A600003F1080CCDF840C0D3E90045CDE9164567
:104A7000DDE9160104F0FEFF0128DDE9160140F032
:104A80005C830022002305F0A9FB002840F0638529
:104A90009DF88FA003250B95099D464F25F08005B5
:104AA000454B0024099500250A94B8F1470FD8BF5B
:104AB0001F46032414958EE5DDF824C04CF0200C2D
:104AC000CDF824C099F800804AE4109CE31D23F03F
:104AD000070303F108051095D3E9004500234DE5D0
:104AE000109DEB1D23F0070303F1080CD3E90045EB
:104AF000CDF840C0012341E58DF88F20B8F1000FBB
:104B00003FF4E3AC00234FF0010C9A46CDF82CC0E3
:104B10008DF8B8808DF88F300A93149364462EAFC9
:104B20005FE5DDF8B4C0B7E5012B00F0EC80022BA7
:104B30000DF1DF0318D1DDF868C0194604F00F004D
:104B400022091CF8000042EA05722B09087052EA9B
:104B500003000F4614461D4601F1FF31EED1089DBA
:104B6000CDE91E23EC1B2DE5E00840EA457004F07A
:104B70000702E908303250EA010C1F461A70044659
:104B80000D4603F1FF33EFD1099CCDE91C01E0078D
:104B9000394640F1C180302A00F0BE80089D1F4692
:104BA0003023EC1B01F8013C0CE500BF90A940004C
:104BB000A4A9400084A9400080A94000B8F1650F75
:104BC00040F3AD80DDE9160100220023CDF81CC0C2
:104BD00005F0FAFADDF81CC0002800F026812C9BB5
:104BE000AA4901330CF1010C0122072BCDF8B4C006
:104BF0002C9386E8060000F3ED820836259B119C75
:104C0000A34203DB099DEC077FF5C0AD2C9B189CEC
:104C10000133159DA444072BCDF8B4C035607460F2
:104C20002C9300F33E830836119D6C1E002C7FF7F9
:104C3000ADAD102C2C9B964D40F39781102762460A
:104C4000DDF83480DDF830A004E00836103C102C8C
:104C500040F38A8101331032072B2D922C9386E882
:104C6000A000F2DD404651462BAA05F00DF80028C1
:104C70007FF432AC2D9A2C9B38AEE7E70F9D0B9852
:104C8000C0EB050ABAF1000F7FF72EADBAF1100F95
:104C90002C9B7F4D2BDD129432464FF0100B2E468D
:104CA00061460D9C0C9D06E0AAF1100ABAF1100FA6
:104CB00002F1080217DD01331031072B2D912C93DF
:104CC00082E84008F0DD204629462BAA04F0DCFFEC
:104CD00000287FF401ACAAF1100ABAF1100F2D9947
:104CE0002C9B38AAE7DC129C35468C4616460133CD
:104CF000D444072BCDF8B4C02C9386E8200400F3ED
:104D00000F820836F0E4002D08BF0A2C80F03881AD
:104D1000303448AF07F8414D089DEC1B52E4119C1C
:104D2000012C2C9C40F3D28101340CF101030122AF
:104D3000072C2D9337602C94726000F3D8810836CD
:104D4000159DDDF8608001343560189D9844072C6E
:104D5000CDF8B4802C94756000F3D5810836DDE978
:104D600016010022002305F02FFA119D002840F0C3
:104D7000B9806B1E013401379844072C2C94CDF870
:104D8000B4803760736000F3E2800836DDF864C0F9
:104D90000134199DC44427AB072CCDF8B4C02C9422
:104DA00086E828007FF7F1AC0D980C992BAA04F047
:104DB0006BFF00287FF490ABDDF8B4C038AEE5E4BB
:104DC0000D980C992BAA04F05FFF00283FF437AD33
:104DD000FFF782BB0D980C992BAA04F055FF002811
:104DE0007FF47AABDDF8B4C038AEBFE40D980C990F
:104DF0002BAA04F049FF00287FF46EABDDF8B4C0A5
:104E000038AE6DE40D980C992BAA04F03DFF0028F4
:104E10007FF462ABDDF8B4C038AE50E40A9C38AF22
:104E2000FFF7D0BB0223FFF7A9BB259B002B40F364
:104E3000DD81119C149DDDF844A0AC42A8BF2C4636
:104E4000002CBA440BDD2C9BA4440133072BCDF876
:104E5000B4C0376074602C9300F31E830836149D31
:104E600024EAE4742C1B002C40F3D780102C2C9BDC
:104E7000074D40F3A3810A974FF010082F46624672
:104E80002546DDF834B00C9C09E000BFC0A9400005
:104E900070A940000836103D102D40F38B8101337E
:104EA0001032072B2D922C9386E88001F2DD5846B4
:104EB00021462BAA04F0E8FE00287FF40DAB2D9AC2
:104EC0002C9B38AEE7E70D980C992BAA04F0DCFE7A
:104ED00000287FF401AB9DF88FA0DDF8B4C038AE98
:104EE000FFF7DABB6F1E002F7FF750AF102FAE4DCC
:104EF00023DD43464FF0100ADDF83480DDF830B092
:104F000004E0103F102F06F1080615DD01341033C0
:104F1000072C2D932C9486E82004F2DD4046594658
:104F20002BAA04F0B1FE00287FF4D6AA103F102F60
:104F30002D9B2C9C38AEE9DC98460134B844072CF4
:104F4000CDF8B4802C9486E8A0007FF71EAF0D98B2
:104F50000C992BAA04F098FE00287FF4BDAADDF876
:104F6000B4802C9C38AE11E794460133A444072B3F
:104F7000CDF8B4C02C93356074607FF706AC13E7AE
:104F80000DF1DF0B204629460A22002305F096F991
:104F900030328BF80020204629460A22002305F0F3
:104FA0008DF904460D4654EA050C5F460BF1FF3BB4
:104FB000E8D1089DEC1BFFF705BB109D01232C6871
:104FC000043510950025FFF7D9BA109D2C680435DB
:104FD00010950025FFF7D2BA109D2C680435109566
:104FE000E51722462B46002A73F1000CBFF66CAC85
:104FF0004FF02D0A644265EB45058DF88FA0012323
:10500000FFF7C0BA0D980C992BAA04F03DFE0028BA
:105010007FF462AADDF8B4C038AE149D259C2F44FD
:10502000119DAC4242DB099DE9073FD41198C7EBC3
:105030000A05041BAC42B8BF2546002D0BDD2C9B96
:10504000AC440133072BCDF8B4C0376075602C93A6
:1050500000F34C82083625EAE575641B002C7FF7C7
:1050600095AB102C2C9B504D7FF77FAF10276246DD
:10507000DDF83480DDF830A004E00836103C102C58
:105080007FF772AF01331032072B2D922C9386E8F5
:10509000A000F2DD404651462BAA04F0F5FD0028A1
:1050A0007FF41AAA2D9A2C9B38AEE7E7189D2C9B0B
:1050B000AC44159D01333560189D072BCDF8B4C065
:1050C00075602C9300F3F4810836AFE7099DEA0779
:1050D0003FF52AAE01340CF101080123072CCDF86D
:1050E000B4802C94376073607FF74FAE2FE70D9834
:1050F0000C992BAA04F0C8FD00287FF4EDA92D9B84
:105100002C9C38AE1CE60D980C992BAA04F0BCFD23
:1051100000287FF4E1A9DDF8B4802C9C38AE1EE6AF
:105120000D980C992BAA04F0AFFD00287FF4D4A9A8
:10513000DDF8B4C038AEFFF7D7BA04F09BFC002806
:1051400040F0BB80099C194F194B4FF0030C24F021
:10515000800409940A90CDF82CC01490B8F1470F40
:10516000D8BF1F4664469DF88FA0FFF734BA099C4C
:10517000640640F15081DDF840C00025BCF80040D5
:105180000CF1040CCDF840C0FFF7E4B9DDF824C001
:105190001CF0100F00F04681109C0E9D2368043413
:1051A00010941D60FFF7A6B870A940008CA94000BC
:1051B00088A940002C463D460A9F94460133A444EA
:1051C000072BCDF8B4C02C93356074603FF71AAF4D
:1051D000083622E70D980C992BAA04F055FD0028FB
:1051E0007FF47AA9DDF8B4C038AE07E52C9AB74948
:1051F00001320CF1010C0120072ACDF8B4C02C9229
:105200003160706000F3F78008361C462CB9119DA0
:105210001DB9099DE8077FF5B9AA2C9B159D189922
:1052200001333560189D6144072B2D9175602C93D7
:1052300000F3DE8106F108026442002C40F30B818A
:10524000102CA34D40F34881A34610260C46DDF8F0
:105250003480DDF830A006E00832ABF1100BBBF172
:10526000100F40F3378101331034072B2D942C930A
:1052700082E86000F0DD404651462BAA04F004FDB0
:1052800000287FF429A92D9C2C9B38AAE5E7099CCE
:1052900009F1010944F02004099493F80180FFF713
:1052A0005FB80D980C992BAA04F0EEFC00287FF44F
:1052B00013A9DDF8B4C038AEB6E40A9D28F0200A80
:1052C000013500F0A580BAF1470F04D10A9D002DE9
:1052D00008BF01250A95DDF824C0DDE916234CF44A
:1052E000807C002BCDF848C0C0F29C81DDE91645DA
:1052F000CDE920454FF0000BB8F1660F00F09B811F
:10530000B8F1460F00F0A981BAF1450F0ABF0A9C17
:105310000A9D651C022025A926AA29AB8DE821003B
:105320000392049302910D98DDE9202301F0DCF94A
:10533000B8F1670F074602D0B8F1470F05D1DDF885
:1053400024C01CF0010F00F09C81BAF1460F07EB5E
:10535000050400F01C81DDE920010022002304F097
:1053600033FF002840F00581299B9C4206D930215B
:105370005A1C29921970299B9C42F9D8DB1BBAF15F
:10538000470F119300F0ED80B8F1650F40F3F28103
:10539000B8F1660F00F06881259C1494119C149D4F
:1053A000AC4200F33281DDF824C01CF0010F40F064
:1053B000AD8125EAE5732C464FF06708BBF1000F7D
:1053C00040F0B280129D0B930995CDF828B09DF85E
:1053D0008FA0FFF700B90D98402103F057F9206026
:1053E0002061002800F0BF81DDF830C04023CCF8F8
:1053F0001430FEF76FBF0D980C992BAA04F044FCF3
:1054000000287FF469A8259CDDF8B4C038AEFDE61D
:1054100006240A945FE7109D2C680435109500253A
:10542000FFF798B8DDF824C01CF0400F00F087802B
:10543000109C0E9D2368043410941D80FEF75ABF03
:105440000D980C992BAA04F01FFC00287FF444A8A7
:105450002D992C9B38AADDF844C00133119C8C4453
:10546000072BCDF8B4C02C93176054603FF79CAC69
:1054700002F10806FFF78AB9CDF828A004F07AFBFC
:1054800010950A9D20EAE07C0446CDF82CC01495C6
:105490009DF88FA0FFF79FB80D980C992BAA04F0E8
:1054A000F3FB00287FF418A8DDF8B4C038AED6E4CA
:1054B0000D980C992BAA04F0E7FB00287FF40CA8A8
:1054C000259CDDF8B4C038AEB0E500BFC0A94000EF
:1054D00070A9400021465C4601332144072B2D91E1
:1054E0002C9315605460ABDC0832B4E70D980C992E
:1054F0002BAA04F0C9FB00287EF4EEAF259C11997D
:10550000DDF8B4C00C1B38AEA5E50A9CBA46062CE3
:1055100028BF062424EAE47C0A9714971095CDF856
:105520002CC0974FFFF757B8129D4FF02D0A0995E1
:1055300000250B938DF88FA00A95FFF74FB8DDF883
:1055400040C00E9CDCF800300CF1040CCDF840C0DB
:105550001C60FEF7CFBE4FF02D0A8DF88FA0FFF72D
:1055600099BA259BDC1C19DB0A9C9C4216DB149320
:1055700014E7234602E724EAE47CCDF82CC00A9C19
:1055800010950A9014909DF88FA0FFF724B83B78EF
:10559000302B00F0AD80259D2C44DCE6A8F10208FC
:1055A000591E00292591BABF49422D232B230929D1
:1055B0008DF89C808DF89D3065DC302330318DF87E
:1055C0009E308DF89F1028AB119D27AA119C9A1A26
:1055D000012D1992144440F3B7800134002524EAC8
:1055E000E4731495EAE6002481460A94FEF7BABEF5
:1055F0000D980C992BAA04F047FB00287EF46CAFA1
:10560000259C2D992C9B38AA16E6149C119D002CE4
:10561000D4BFC4F1020401242C4424EAE4734FF003
:105620006708CBE61799169801F100412090219167
:105630004FF02D0B60E60A9D032025A926AA29AB71
:10564000019500900392049302910D98DDE92023C7
:1056500001F04AF80A9D074677E60A9C032025A92F
:1056600026AA29AB0194ECE7259D0A9C002D1495F0
:1056700063DDB4BB099DE80733D4149C24EAE473CA
:105680009CE6299B7AE60DF1AA023E4DCB1785FBDD
:105690000150C3EBA00000EB8003A1EB43010928FC
:1056A000134601F130021A70014603F1FF32ECDCBF
:1056B00000F130010DF1AB04C9B2944203F8011CB2
:1056C0005AD90DF19D001A4601E012F8011BA242C1
:1056D00000F8011FF9D10DF5907CC3EB4C03F63BAC
:1056E00072E70A9D6C1C149D2C4424EAE47365E661
:1056F000DDE920010022002304F066FD00287FF48C
:105700004AAFC5F1010525952C4424E6149D4FF0C0
:1057100067086C1C24EAE47350E6109DDDF840C075
:105720002D680CF10403002D99F801800A9510935F
:105730008146BEF615AEFEF710BE7CB9099DE9079D
:105740000CD401231C4639E6DDF824C01CF001030B
:105750007FF443AF149324EAE4732FE60A9DAC1C54
:1057600024EAE4732AE60D9D0C232B604FF0FF30F2
:10577000FEF7BABE259B13E70DF19E0324E700BF99
:10578000B8A94000676666664B6E2DE9F0479C0439
:105790000E46804691462AD59368126802F1080A9F
:1057A0001BB31AE9A000BF0817D0043D002401E094
:1057B000A74210D0404655F8041F324602F006F8C2
:1057C000431C04F10104F3D10023C9F80830C9F8DF
:1057D0000430BDE8F087D9F80830A3EB8703C9F897
:1057E00008300AF1080A002BDBD10020ECE702F0B8
:1057F00067F90023C9F80830C9F80430BDE8F0871C
:105800002DE9F04FB1B01C460291904608930690E6
:1058100018B1836B002B00F0E880029DAB899AB22F
:10582000900407D46A6E43F4005322F40051AB8114
:105830009AB26966110740F1B780DDF808B0DBF86D
:105840001030002B00F0B08002F01A020A2A00F09B
:10585000B78000230DF180090A93159314930993DF
:10586000CDF84C904E4698F80030002B00F0C884DC
:10587000252B00F0C58408F1010201E0252B04D09E
:10588000137814460132002BF8D1C8EB040595B10A
:10589000149B159A01332A44072BC6F800807560C3
:1058A000159214937BDD002A40F0D5840998149258
:1058B00028444E4609902378002B00F0ED83002108
:1058C0004FF000024FF0FF3C63788DF847200491C1
:1058D0008A4604F101080846654608F10108A3F16B
:1058E0002002582A00F2D982DFE812F0CB02D70258
:1058F000D702D202D702D702D702D702D702D702E5
:1059000082028F02D70284009302D7022B019601F4
:1059100096019601960196019601960196019601CF
:10592000D702D702D702D702D702D702D702D702AF
:10593000D702D7023001D702D702D702D702D70247
:10594000D702D702D702D702D7027B01D702D702EC
:10595000D702D702D702A401D702D702BF01D702CC
:10596000D702D702D702D702D702D702D702D7026F
:10597000D702E401FA01D702D702D7021602FA01D0
:10598000D702D7021B02D7022802890066027D02D5
:10599000D7023A02D7021901D702D702AF0208365E
:1059A00009982844099086E70698029900F090FD2E
:1059B000B0B9029DAA8902F01A020A2A7FF449AFFF
:1059C000DDF808B0BBF90E30002BFFF642AF0698A9
:1059D00059464246234600F03DFD31B0BDE8F08F08
:1059E0004FF0FF3031B0BDE8F08F01F059FE14E701
:1059F000404208934AF0040A98F800306DE71AF024
:105A000020030490AC4600F0F480DDF820B00BF1E8
:105A1000070323F0070303F108040894D3E90045C2
:105A200000234FF0000000218DF84700CDF814C08E
:105A30000791BCF1000FA8BF2AF0800A54EA0502C2
:105A400040F0AD80BCF1000F40F0A980002B40F089
:105A5000C0831AF0010F00F0BC83302330AF07F889
:105A6000413DC7EB09040594DDF814B0079CE345FC
:105A7000B8BFE346CDF80CB01CB10BF1010BCDF86B
:105A80000CB01AF00205079505D0DDF80CB00BF14B
:105A9000020BCDF80CB01AF084030B9340F01B827C
:105AA000049DDDF80CB0CBEB0504002C40F3138211
:105AB000102C40F38984BE4D159A2B461498254628
:105AC0004FF0100B6446B4461E4606E0831C0CF1F2
:105AD000080C0846103D102D11DD411C103207291D
