S02300004D6F746F725F4D6F64656C5F4964656E74696669636174696F6E342E7372656363
S214400000D0140020911640008D1640008D164000FA
S2144000108D1640008D1640008D16400000000000F2
S2144000200000000000000000000000008D164000A8
S2144000308D164000000000008D1640006D0B4000FD
S2144000408D1640008D1640008D1640008D164000DF
S2144000508D1640008D1640008D1640008D164000CF
S214400060A50D40008D1640008D1640003D15400001
S21440007051154000651540008D1640008D16400015
S2144000808D1640008D1640008D1640008D1640009F
S2144000908D1640008D1640008D1640008D1640008F
S2144000A08D164000DD0A4000290B40008D164000AA
S2144000B08D1640008D1640008D1640008D1640006F
S2144000C08D16400010B5054C237833B9044B13B158
S2144000D00448AFF300800123237010BDA809002018
S2144000E00000000070B2400008B5064B1BB1064841
S2144000F00649AFF300800648036813B1054B03B1C9
S214400100984708BD0000000070B24000AC090020CF
S21440011070B24000000000002DE9F0410C469046C9
S21440012060B9002A0EDD8F18094E0A4D3068214608
S2144001302B6898470134BC42F8D106E04FF0FF30B8
S214400140BDE8F0810020BDE8F0814046BDE8F08182
S214400150480B0020DC0A00202DE9F0030446CB685B
S2144001608E68002B49D0002242604868000200F4A6
S214400170407040F480500D7C2D0405F4FE05284365
S2144001806060E2604A685AB10878012AC4BF4D7878
S21440019045EA0020022A04DD8A7842EA002000E090
S2144001A00020E060012B04D1032222604FF0010CB6
S2144001B02BE0012222604FF0000C26E0216A11F469
S2144001C0807F1CD1551EE2B12A46012B05D1BCF1D9
S2144001D0000F02D1C4F80090C44611F0020F04D0BC
S2144001E0226B3270013B01363A46002BE6D1236A39
S2144001F013F0010FFBD0236A14E0012012E0052023
S21440020010E009200EE005200CE0216A11F4807011
S214400210F9D143F697224FF002094FF0010843F612
S2144002209827D2E7BDE8F003704700BF00B587B017
S2144002308DF8040001200290039104928DF814304A
S214400240034801A9034B984707B05DF804FB00BF7D
S21440025000800140590140002DE9F84F05460F4601
S21440026032207F4904221D237E4CA04710B1C0B2E5
S214400270BDE8F88F7A4B5B7803F0F002F02A14D191
S214400280774A107840EA03235842C0F30B00764B77
S2144002909847764B98476EA3D3E90023744CA04703
S2144002A0744B984700F100480FE06D4A107840EADA
S2144002B003206D4B98476D4B984765A3D3E90023C1
S2144002C06B4CA0476B4B98478046654BDB7803F0FA
S2144002D0F002F02A14D1624A907840EA032358424A
S2144002E0C0F30B00604B9847604B984758A3D3E940
S2144002F000235F4CA0475F4B984700F100490FE052
S214400300574A907840EA0320574B9847574B9847B0
S2144003104FA3D3E90023564CA047564B98478146F7
S21440032032204F49042253234E4CA04710B1C0B24E
S214400330BDE8F88F4A4B5B7803F0F002F02A14D100
S214400340474A107840EA03235842C0F30B00464B16
S2144003509847464B98473EA3D3E90023444CA047D2
S214400360444B984700F1004B0FE03D4A107840EA76
S21440037003203D4B98473D4B984735A3D3E9002390
S2144003803B4CA0473B4B98478346354BDB7803F0C6
S214400390F002F02A14D1324A907840EA03235842B9
S2144003A0C0F30B00304B9847304B984728A3D3E90F
S2144003B000232F4CA0472F4B984700F1004A0FE0F0
S2144003C0274A907840EA0320274B9847274B984780
S2144003D01FA3D3E90023264CA047264B98478246C6
S2144003E0254E40462549B0478046254C5846254927
S2144003F0A047DFF8B0B02449D84701464046A0475A
S214400400804648462149B047814650462049B04735
S2144004101D49D84701464846A0470446284639461F
S2144004201C4B984708F1004021461B4B98471B4BF6
S21440043098470E4B984708A3D3E90023184CA0478B
S2144004400C4B984728600020BDE8F88FAFF300803B
S2144004503333333333330F409CC420B07268913FFC
S214400460C40900202D024000792F4000412740005B
S214400470E92740006D2D4000192E4000000034430F
S214400480152E400000009643175D344000802344FC
S2144004900000F543C10B400091314000452240002A
S2144004A081244000293040002DE9F04106460F46A1
S2144004B039B1034600EB8101002243F8042B8B42FE
S2144004C0FBD10022094B1A7064251C46DFF82080B9
S2144004D0237813F0FF0FFBD030463946C047002341
S2144004E02370013DF4D1BDE8F08100BFE40900204F
S2144004F059024000436913F0020F1DBFC1F30801C3
S214400500C161002001207047436913F0010F05D0F8
S2144005108369C3F308030B600020704701207047CF
S2144005200B2814D1B1F5801F0ED10122084B1A704A
S214400530084B1B785BB1084B1A7070470023054A7E
S2144005401370034A13707047B1F5001FF6D070471A
S214400550D9090020D8090020DA0900200000000050
S21440056070B504460021364B984798B10220354B6B
S214400570984778B90220344B9847344B1A78D2F1D2
S214400580010238BF00221A700023314A1370314AE4
S21440059013701CE0204600212F4B984790B1022054
S2144005A0284B984770B102202C4B9847274B1A7817
S2144005B0D2F1010238BF00221A700023244A137079
S2144005C0244A1370204600211D4B984718B104F169
S2144005D00044012600E000262046214B984714A3FD
S2144005E0D3E900231F4DA84700B11F4C20461C4BA3
S2144005F0984711A3D3E900231C4CA04700220023B0
S2144006001B4CA0471B4B98471B4B18601B4D1C4C64
S2144006102846A04710F0010FFAD0174B1968174824
S214400620184B98471EB1144B1A6852421A6070BD58
S2144006305DDC4603788BBD40EC51B81E85EBC13F70
S21440064065334000311240004D124000E400002067
S214400650D8090020D9090020A13340006912400083
S21440066041274000092D4000C05BEC45E92740008B
S214400670852440001D2D4000C809002000C00340CE
S214400680B90E4000BD0E400070B5044600212B4B0D
S214400690984798B102202A4B984778B90220294BB0
S2144006A09847294B1A78D2F1010238BF00221A70B7
S2144006B00023264A1370264A13701CE02046002169
S2144006C0244B984790B102201D4B984770B10220AA
S2144006D0214B98471C4B1A78D2F1010238BF0022B2
S2144006E01A700023194A1370194A137020460021C5
S2144006F0124B984718B104F10044012600E000264A
S21440070020461649134B984700B1144C2046144BCC
S2144007109847144B1860144D144C2846A04710F0C8
S214400720010FFAD00F4B19680F48114B98471EB16E
S2144007300C4B1A6852421A6070BD00BF65334000C9
S214400740311240004D124000E4000020D80900203D
S214400750D9090020A13340006912400000C07F4400
S214400760B5334000C809002000C00340B90E400021
S214400770BD0E400010B50C461146054B9847214625
S214400780044B98470446044B9847204610BD00BF8C
S21440079029304000192E40006105400038B5044617
S2144007A00E4B1868B0B10E4B984701460D480E4B9D
S2144007B098470E4D0E49A8474FF07851A8472060FD
S2144007C00022064B1A600B4B1B782BB100F1004001
S2144007D0206038BD0023236038BD00BFCC09002010
S2144007E0792F4000001BB749913140002930400026
S2144007F000007042DA090020F8B50546144B1C6824
S21440080014B3144B1868F8B1134EB0470746204649
S214400810B04701463846114B984701464FF07E5048
S2144008200F4B98470F4C1049A0471049A0472860E7
S2144008300023074A1360074A13600D4B1B782BB101
S21440084000F100402860F8BD00232B60F8BD00BFD3
S214400850D0090020D4090020792F40009131400073
S214400860152E4000293040000000C8420000A0423B
S214400870DA0900202DE9F04383B00B20204B98473F
S214400880204C20464FF480110022DFF88C90C84759
S21440089020464FF480110122DFF88080C0471A4F6F
S2144008A0009720460B214FF480127023174EB04716
S2144008B020464FF48011164DA84720464FF40011AD
S2144008C00022C84720464FF400110122C047009737
S2144008D020460B214FF400125023B04720464FF4D9
S2144008E00011A8470B4B4FF40062C3F88020C3F8B2
S2144008F08021102183F80B131A6003B0BDE8F08303
S21440090061164000000E0E402105400001154000D3
S2144009102112400000E100E085114000E111400056
S21440092038B51E20104B9847104C2046104B984721
S214400930204600210F4B98472046102160220E4B40
S214400940984720460D4B984720460D4B98472546DE
S2144009500C4C2846A04710F0010FFAD0034800215F
S214400960094B984738BD00BF6116400000C00340A1
S2144009708D0E4000A10E4000CD0E4000950E40006A
S214400980C10E4000B90E4000BD0E400010B5184BD9
S2144009904FF080621A66C3F890205A655A62C3F8D0
S2144009A08020196F11431967596F21F0806159678C
S2144009B05A6019200F4B98470F4C204602210F4A89
S2144009C00F4B98470F4B4FF00072C3F88020C3F888
S2144009D08021102183F819131A60204602214022F4
S2144009E0094B984720460221084B984710BD00BF48
S2144009F0000E0E406116400000000140020609004D
S214400A00E10E400000E100E0150F4000FD0E400002
S214400A1010B5184B4FF400021A66C3F890205A657A
S214400A205A62C3F88020196F11431967596F21F431
S214400A30000159675A601A200F4B98470F4C2046C2
S214400A4000210F4A0F4B98470F4B4FF08062C3F878
S214400A508020C3F88021102183F81A131A6020469C
S214400A6000214022094B984720460021084B9847D2
S214400A7010BD00BF00120E4061164000004001400D
S214400A8002060900E10E400000E100E0150F4000BC
S214400A90FD0E400008B5094B98470020084B984784
S214400AA0084B9847084B9847084B984702200849F8
S214400AB0084B98470220084B984708BD210940003C
S214400AC0610540008D094000110A4000750840004D
S214400AD004000038A91240006912400008B50B48CF
S214400AE002210B4B984710F0400F0ED007480221CA
S214400AF0084B9847084B18600122084B1A70084B61
S214400B001B7813B10022074B1A7008BD0000014045
S214400B101D0F40000D0F4000CC090020D8090020D2
S214400B20D9090020DA09002010B50A4800210A4BEE
S214400B30984710F0400F0CD0064C20460021074B3B
S214400B409847074B186020460021064B9847064BAF
S214400B50186010BD004001401D0F4000050F4000CA
S214400B60D40900200D0F4000D0090020084B1A6819
S214400B7001321A601A68074B1B68D31A632B06D9D2
S214400B800122054B1A70024B1A68024B1A607047D6
S214400B90E0090020DC090020E4090020064B41F271
S214400BA0BF225A60F021054A82F8231000229A603C
S214400BB007221A60704700BF10E000E000ED00E03A
S214400BC04B1E07D000EB810050F8082C40F8042D4F
S214400BD0013BF9D1704700BFF0B583B005460C46DF
S214400BE000230193184B984207D11F46174E3846AC
S214400BF02146B0470028FAD117E0154B984207D156
S214400C001E46124D30462146A8470028FAD118E025
S214400C10104B984209D11E460F4D304601A9A847B1
S214400C200028FAD1019B23700BE00C4B9D4208D163
S214400C301E46094D304601A9A8470028FAD1019B17
S214400C40237003B0F0BD00BF00060E40750F400095
S214400C5000080E4000400240090540000080024067
S214400C6070B50C461A4B984207D11E46194D304671
S214400C702146A8470028FAD120E0174B984207D1D2
S214400C801E46144D30462146A8470028FAD117E0A4
S214400C90124B984207D11E46114D30462146A84772
S214400CA00028FAD10EE00F4B98420DD11E460C4D4F
S214400CB030462146A8470028FAD107E0012070BDFB
S214400CC0012070BD012070BD002070BD012070BDA8
S214400CD000060E40650F400000080E4000400240EF
S214400CE0F50440000080024070B584B008201A4DDC
S214400CF0A8471A4C1A4B1C601A4A1B4B1A601B4AD0
S214400D001B4B1A601B4B01934FF4E13302934FF495
S214400D10006303930820A847204601A9164B98472E
S214400D20164E336898680021154DA84733685868B2
S214400D300021A847134B4FF48072C3F88020C3F8B5
S214400D408021202183F808131A60204601210E4B8B
S214400D50984704B070BD00BF6116400000060E40C4
S214400D60480B0020610C4000440B0020D90B40008B
S214400D70DC0A0020006CDC02250F40003005002015
S214400D805D35400000E100E05D0F4000044B03F19C
S214400D906401002203F8012F8B42FBD1704700BF4D
S214400DA0DF0A002010B51548154B984710F0010F84
S214400DB022D012481349144B9847144B1C780CB950
S214400DC0134B98470F4B1B780D2B06D100220F4B29
S214400DD01A7001220F4B1A7010BD082B07D1013C28
S214400DE0E4B20A4B1C7000220B4B1A5510BD611C16
S214400DF0064A1170084A135510BD00BF00060E4043
S214400E00610F4000E6090020750F4000E70900200A
S214400E108D0D4000E5090020E00A002010B40C4685
S214400E2031B100230133427800F8012BA342F9D3B5
S214400E305DF8044B704700BF2DE9F0410E4615465D
S214400E40013802280FD892B10024DFF83C800D4FBD
S214400E50D8F80000315D3B68984700280ADB01342B
S214400E60A542F5D10AE04FF0FF30BDE8F081002002
S214400E70BDE8F0814FF0FF30BDE8F0812046BDE888
S214400E80F08100BF440B0020480B00200123036084
S214400E90704700BF436823F001034360704700BFBC
S214400EA021B1436843F02003436003E0436823F0E6
S214400EB02003436000207047806970478160704718
S214400EC0436843F010034360704700BF4368DBB29B
S214400ED043EA024209028BB21A434260002070473E
S214400EE010B489014318022444504FF0FF319962F0
S214400EF0196A5A605DF8044B704700BF89010523A4
S214400F004350704700EB81114869704700EB8111F0
S214400F108869704700EB81114A62704700EB811187
S214400F20086A704710B4AC2303600A684B68B2FB8B
S214400F30F3F31B095C1E4FF6FE7294420AD8036216
S214400F408B68436040F20223C0F820315023036090
S214400F50002000E001205DF8044B70478160704738
S214400F6040697047436913F0020F1ABFC161002001
S214400F7001207047436913F0010F1DBF83690B7052
S214400F8000200120704700BF10B50E480E4B984712
S214400F9000203E210D4B98470D4CA0470028FCD022
S214400FA00C4B98470C4A0D4B9A620D4CA0470028B4
S214400FB0FCD010200B4B98470B4B98470148024BF0
S214400FC0984710BD006CDC02A1000020DD154000F3
S214400FD03116400041164000013F072000040E40F5
S214400FE051164000791540004117400038B5054677
S214400FF00C4608464FF02051034B9847284621465A
S2144010000122024B984738BDA9124000E11140002A
S21440101038B54FF40042314B5A600B20304CA04755
S2144010200C20A0470D20A04717204FF060512D4CB4
S214401030A0472E204FF06051A04719204FF0605136
S214401040A047294D28464FF4C0614FF00062274B19
S214401050984728460121264CA04728460221A0470B
S21440106028462021A04728464021A04728464FF43E
S2144010700011A04728464FF08051A04728464FF021
S2144010800051A04728464FF08041A04728464FF0E1
S2144010900041A04705F5007528460221A04728468E
S2144010A00421A04728460821A04705F50075284694
S2144010B00121A04728460221A04728460421A047F0
S2144010C028460821A04728461021A0472846202128
S2144010D0A04728464021A04738BD00BF50140E40C8
S2144010E061164000A9124000000E0E40CD1340008D
S2144010F0ED0F400010B44264B1F1C05F2ED008D866
S214401100B1F1006F14D0B1F1805F1DD0002935D108
S21440111035E0B1F1205F32D003D8B1F1005F27D07F
S2144011202CE0B1F1405F2AD0B1F1605F27D025E0D6
S214401130016F046FD343214019400167416F446FEC
S21440114021400B40436719E0036F13430367436F27
S214401150416F0B4023EA020343670FE0036F016FC2
S2144011600B4023EA02030367436F1343436705E0DC
S214401170036F13430367436F1343436742605DF84F
S214401180044B7047416412F0010F14BF416601667C
S21440119012F00A0F14BF0162416212F0020F02D031
S2144011A0C0F8801004E012F0080F18BFC0F8841092
S2144011B041610160704700BF10B44164019C0CB1AE
S2144011C0416600E001660BB1016500E041650AB189
S2144011D0016300E04163016101605DF8044B7047C4
S2144011E012B1C0F894107047C0F89010704700BF16
S2144011F012F0100F10D0C0F8B01012F0200F14BF2D
S214401200C0F8D410C0F8D01012F0400F14BFC0F889
S214401210C010C0F8C4107047C0F8B410704700BF84
S214401220C36C0164704700BFC06C7047806C7047E9
S214401230430903F5001303F207735B02DB6B00F010
S2144012401F0023FA00F000F001007047430903F541
S214401250001303F207735B0200F01F00012202FA3C
S21440126000F01863704700BF430903F5001303F20C
S21440127007735B0200F01F00012202FA00F0586379
S214401280704700BF430903F5001303F207735B0280
S2144012909A6B00F01F00012101FA00F0104214BFC3
S2144012A058631863704700BF70B582B00D46440956
S2144012B004F5001404F20774660201F0F044B4F139
S2144012C0005F47D009D8B4F1805F21D0B4F1C05F49
S2144012D02FD0B4F1006F6FD109E0B4F1405F55D024
S2144012E0B4F1605F52D0B4F1205F44D064E000F0C7
S2144012F01F000124844030464FF000612246304BA8
S214401300984715F0010F14BF74663466012054E008
S21440131000F01F000124844030464FF080512246A2
S214401320274B984715F0010F14BF746634660120AA
S21440133043E000F01F000124844030464FF0C05187
S21440134022461F4B984715F0010F14BF746634664B
S214401350012032E000F01F000124844030464FF068
S21440136000512246164B984715F0010F14BF74667D
S2144013703466012021E000F01F010124304604FAC3
S21440138001F12A460F4B9847204616E000F01F0111
S214401390012405F0605205EA04030093304604FA3F
S2144013A001F1B2F1605F14BF00220122C5F3800351
S2144013B0054DA847204600E0002002B070BD00BFA3
S2144013C0F510400085114000B9114000F0B583B0DB
S2144013D007460E46154602F0F044B4F1005F38D09A
S2144013E009D8B4F1805F1CD0B4F1C05F25D0B4F109
S2144013F0006F50D109E0B4F1405F3AD0B4F1605F7D
S21440140037D0B4F1205F30D045E04FF0006132462F
S214401410224B984715F0010F14BF7E663E660120AA
S2144014203AE04FF0805132461C4B984715F0010F7A
S21440143014BF7E663E6601202EE04FF0C051324615
S214401440164B984715F0010F14BF7E663E66012086
S21440145022E04FF000513246104B984715F0010FEE
S21440146014BF7E663E66012016E00D4B984701206D
S21440147012E005F0605205F001030093384631460D
S214401480B2F1605F14BF00220122C5F38003054C11
S214401490A047012000E0002003B0F0BDF51040005A
S2144014A085114000B91140002DE9F04104460E4632
S2144014B0104B9847054620460F4B9847054017D097
S2144014C00E4F07F10C046C3754F80C3CB3420AD16B
S2144014D054F8081C294206D023683046984754F8EA
S2144014E0083C25EA0305BC4202D01034002DEBD15F
S2144014F0BDE8F081291240002D124000EC09002082
S214401500F8B50B4C2468062C10D80A4F2601BD1996
S214401510B9516A60AB600699E960013404490C60D1
S21440152011461A46044B98470020F8BD0120F8BDE6
S214401530E8090020EC090020F111400008B50248F7
S2144015400B21024B984708BD000E0E40A9144000E0
S21440155008B502480C21024B984708BD00100E40C3
S214401560A914400008B502480D21024B984708BD13
S21440157000120E40A9144000174B1A6B22F070025E
S214401580104318639B6E13F0080F09D14FF40063A5
S214401590114901E0013B19D08A6E12F0080FF9D0CC
S2144015A00D4B1A6B22F0030242F002021A63986E49
S2144015B010F008000CD14FF40063074901E0013BEE
S2144015C008D08A6E12F0080FF9D070470120704795
S2144015D0002070470120704700040E4038B1114982
S2144015E00B6A114A1A40114B13430B6270470D4A5F
S2144015F0136A23F45C1323F0030343F45C1343F0B1
S2144016000103090289B20B431362936E13F0010F74
S214401610FBD0044A136A43F09B7343F4803313624F
S214401620704700BF00040E40FCFFC8FE02003701B2
S214401630024B986E00F48030704700BF00040E40A6
S2144016404FF00052014B9A62704700BF00040E40B4
S214401650024B986E00F00200704700BF00040E4038
S2144016601F280DD8084B9A69012383401A4093429D
S21440167008D0012303FA00F0034B1861002070479E
S214401680012070470020704700040E40FEE700BF70
S21440169010B51E4B1E4A9A4203D01E4B1B4A9A4216
S2144016A004D31D4B1D4A9A420FD31AE01C4B1D4CC7
S2144016B0E41A24F0030404340023144814495A5806
S2144016C01A500433A342FAD1EBE7174B1749C91A0D
S2144016D021F003011A1D1144002243F8042F8B42C7
S2144016E0FBD1134A22F0604323F07F0311498B60FD
S2144016F002F16042B2F5C04F03D28A6842F000520F
S2144017008A600D4B98470D4B9847FEE70000002037
S21440171070B24000A8090020CC0C0020A809002088
S21440172004000020AB090020A4090020C70C0020BC
S2144017300000400000ED00E051344000091D40002C
S214401740394B1B6B03F00303012B0FD013B1022B55
S21440175029D051E0354B5B6913F0800F14BF4FF42E
S21440176000424FF4FA42324B1A6045E02E4B1B6A59
S21440177013F0807F03D02F4A2D4B1A603CE02E4A50
S2144017802B4B1A60284B1B6A03F07003102B02D0B9
S214401790202B04D030E0294A254B1A602CE0254AFD
S2144017A0234B1A6028E0204B1B6A13F0807F03D03F
S2144017B0204A1F4B1A6012E01F4A1D4B1A601A4BF4
S2144017C01B6A03F07003102B02D0202B04D006E0D7
S2144017D01A4A174B1A6002E0164A154B1A60124B0B
S2144017E0986A996A124BC0F30A401A6800FB0222B4
S2144017F0C9B2B2FBF1F21A600B4B1B6B03F07003DD
S214401800702B07D10A4B1A680D49A1FB02025208F9
S2144018101A607047044B196B054BC1F302111A68E6
S214401820CA401A60704700BF00040E4010140E40B5
S214401830E8000020001BB70000093D0000127A00B7
S214401840ABAAAAAA094B1B6813B9094A074B1A60E8
S214401850064B1B681A180749914204DB1046034A98
S2144018601060184670474FF0FF3070475C0A002003
S214401870D0140020FC5F00204FF0FF30704700BFC0
S2144018804FF400534B600020704700BF0120704764
S2144018900020704770B588B0334B1B68013B032B64
S2144018A060D8DFE803F0021C394E304D304C314BE7
S2144018B01868A047CDE900012F4B1868A047CDE92E
S2144018C002012E4B1868A047CDE904012846C821DE
S2144018D02B4A2C4B984728462B4B984742E0234DA3
S2144018E0234C254B1868A047CDE90001274B1B68C1
S2144018F00293224B1868A047CDE90401244B186890
S214401900A047CDE906012846C821224A1D4B9847E4
S21440191028461D4B984725E0144C154D164B186825
S214401920A847CDE90001154B1868A847CDE9020144
S2144019302046C821184A134B98472046124B9847D2
S21440194010E00A4E3446154D0FCD0FC40FCD0FC4D0
S2144019500FCD0FC495E8030044F8040B21703046C1
S214401960094B984708B070BDF8000020500B002087
S21440197041274000F4000020F0000020FC0000203A
S2144019802CAC40006D364000A134400000010020E1
S214401990EC00002094AC400020AD400078AD400004
S2144019A010B5374B1A68374B1B689A4208D9364CE5
S2144019B0364B18682168364A364B9847206010BD2B
S2144019C09A420CD13449096811448A420CD22E4BB3
S2144019D01868324B98471720314B984710BD2E4910
S2144019E009680A44934211D32E4A126893420DD294
S2144019F017202D4B9847254B186800F10040224C85
S214401A002168234A234B9847206010BD254A126818
S214401A1093420BD1254A126893420BD21720204B93
S214401A209847194B18681D4B984710BD1F4A1268B7
S214401A30934223D31E4A126893421DD217201A4B54
S214401A409847114C114B18682168114A114B98471A
S214401A50206010BD00240C4B1C6020460F4B98475E
S214401A600022144B1A70094B1C601348134B9847BE
S214401A702E200D4B984710BD9342EBD910BD00BFAA
S214401A80840A0020980A0020A40A0020880A002021
S214401A900AD7233C75074000600A002061054000D5
S214401AA069124000940A00204D1240009C0A002013
S214401AB0680A00208C0A0020B0AD4000A1344000E7
S214401AC010B5374B1868374B1A6802FB00F2364B96
S214401AD01B689A4262D120B9344B1A68344B1A605C
S214401AE03EE010F0010F1FD10138324B98470022DC
S214401AF0314B324CA047324B98474FF07C51314BDC
S214401B009847314B1968314B98470146274B186820
S214401B102F4B9847264B18602E4B1A6801321A6096
S214401B2017202D4B98471BE0224B98470022224B0C
S214401B30224CA047224B9847224C4FF07C51A0475E
S214401B40214B1968214B9847184B1968A047184BEA
S214401B501860224B1A6801321A6017201E4B9847AD
S214401B601F4B1A68520001320D4B1B689A420DD823
S214401B7000221C4B1A7000220D4B1A601A481B4B51
S214401B8098472E201A4CA0471720A047084B1868A5
S214401B90184B9847024B1A6801321A6010BD00BFB6
S214401BA0640A00207C0A0020980A0020FC000020DE
S214401BB0A40A0020FD2640000000E03FE927400040
S214401BC06D2D4000192E4000EC00002029304000CA
S214401BD0152E4000A00A002085124000900A0020E2
S214401BE0000100208C0A0020B0AD4000A134400027
S214401BF04D1240006105400008B50E4B1B6833B9D6
S214401C000D4B18680D4B18600D4B984708BD0D4A94
S214401C10126893420DD100220B4B1A700020074BDE
S214401C201860074B98470948094B98472E20094BA0
S214401C30984708BD980A0020FC000020A40A00200F
S214401C40610540007C0A00208C0A0020B0AD4000B0
S214401C50A13440004D1240002DE9F04387B01B4BA5
S214401C601B78012B2FD11A4B18681A4B9847002225
S214401C70164B1A70184F3846184B9847DFF8848032
S214401C804046174B9847174E3046B021164B98475C
S214401C90164BD3F80090164D164CD8F80000A047C7
S214401CA0CDE900013868A047CDE902013068A04779
S214401CB0CDE904012846C8210F4A4B460F4CA047A1
S214401CC028460F4B984707B0BDE8F0836C0A0020C3
S214401CD0800A002089064000700A0020F90740006C
S214401CE09D074000180C002059024000C8090020FB
S214401CF0500B002041274000B8AD40006D364000F4
S214401D00A13440004C0B00202DE9F04F85B0A54B88
S214401D109847A54B9847A54B9847A54B9847A54B42
S214401D209847A548A54B9847A54B98472E20A54CC5
S214401D30A0471720A0471920A047A34D4FF0000BFF
S214401D40A24C2B7813F0FF0F52D02378002B4DD0A7
S214401D509F4B1B68022B06D0032B16D0012B16D1A7
S214401D609C4B984713E09C4B984723787BB99B4BFA
S214401D701E68304659469A4B984740B106F1004691
S214401D80964B1E600123237001E0964B9847964B76
S214401D901A6801321A608E4B1A682378042A0CBFE0
S214401DA0002303F001030BB3DFF8808240468F4BDD
S214401DB09847DFF87C9248468D4B98478D4BD3F832
S214401DC000A08D4E8D4FD9F80000B847CDE90001F0
S214401DD0D8F80000B847CDE902013046C821884A05
S214401DE05346884FB8473046744B984700232B706D
S214401DF0774B1A682378042A14BF002303F00103A4
S214401E000BB1814B9847814B1B7813F0FF0F98D04E
S214401E1000227E4B1A707E4B1B78443B322B8FD869
S214401E2001A252F823F000BF57204000411D400059
S214401E30411D4000411D4000411D4000411D4000E5
S214401E40411D4000411D4000411D4000411D4000D5
S214401E50411D4000411D4000411D4000411D4000C5
S214401E60411D400093204000411D4000411D400060
S214401E70411D4000411D4000411D4000411D4000A5
S214401E80411D4000411D4000411D4000411D400095
S214401E90411D4000411D4000411D4000411D400085
S214401EA0411D40003F1F4000831F4000411D400031
S214401EB0411D4000C9204000411D4000411D4000DA
S214401EC0411D4000411D4000411D4000411D400055
S214401ED0411D4000411D400035204000411D40004E
S214401EE01D1F4000FB1E4000611F4000411D40007A
S214401EF0F51E4000324B984722E7454C2046642169
S214401F00444B984723782D3BDBB20C2B3FF618AF5B
S214401F102046414B9847314B186011E73C4C2046D1
S214401F2064213C4B98472378303BDBB2092B3FF685
S214401F3007AF2046384B9847384B186000E7344C7C
S214401F4020466421334B98472378303BDBB2092B3D
S214401F503FF6F6AE2046304B9847314B1860EFE6DA
S214401F602B4C204664212B4B98472378313BDBB2E1
S214401F70032B3FF6E5AE20462A4B9847144B186095
S214401F80DEE6234C20466421224B98472378303B9C
S214401F90DBB2092B3FF6D4AE2046224B9847224B65
S214401FA01860CDE6890F400011104000E90C400053
S214401FB09D0B4000950A4000CCAD4000A134400047
S214401FC09518400069124000E40900208C0A002061
S214401FD0F8000020A1194000C11A4000FC00002073
S214401FE0A1334000F91B4000980A0020F907400042
S214401FF09D074000C8090020500B002041274000A4
S21440200000AE40006D364000591C4000E5090020F7
S214402010E00A00201D0E400041344000F40000203D
S214402020F00000204934400000010020700A0020E3
S2144020304C0B0020604C20466421604B9847237828
S2144020402D3BDBB20C2B3FF67BAE20465C4B9847D5
S2144020505C4B186074E65C4B1B68042B7FF470AED8
S2144020605A4B1B78002B3FF46BAE534C20466421F2
S214402070524B984723782D3BDBB20C2B3FF660AE95
S21440208020464F4B9847524B18600122514B1A70CE
S21440209056E6494B5B78542B7FF452AE464B9B78C2
S2144020A04F2B7FF44DAE444BDB78502B7FF448AE3D
S2144020B0454B1B68042B7FF443AE0022434B1A70FB
S2144020C02E20454B98473BE63B4B5B786F2B7FF487
S2144020D037AE3D4B1B68012B2AD1404B1F68DFF8BB
S2144020E02C8138463E49C0473E4E3F49B047DFF810
S2144020F02091C84704463D4B18603D4B1868384908
S214402100C0473949B047C8473A4B186004EB4403C8
S2144021100344394A13601844384B18602044384BFF
S2144021201860384B18683946B047374B186031E06E
S214402130022B14D12E4B18682949344B98472A490C
S214402140284B9847324B9847324B18600022324B08
S2144021501A600223314A1360314A13601AE0032B97
S2144021600CD1234B18681E49284B98471E491D4BD7
S2144021709847274B9847274B18600BE0042B09D10C
S214402180284B00221A602848B021284B98472848F8
S214402190284B984701220D4B1A7000232B70264A75
S2144021A01360204B00221A605846244B98472E2036
S2144021B0234B9847C4E500BFE00A00201D0E4000B0
S2144021C041344000EC000020F80000208C0A00203B
S2144021D0800A00206C0A00204D124000F4000020C7
S2144021E000401C46913140000000C842840A00204E
S2144021F0F0000020600A0020940A00209C0A00207C
S214402200680A0020FC000020880A00202930400090
S214402210013440007C0A0020640A0020A00A002006
S214402220900A0020A40A0020180C0020A9044000B0
S21440223010AE4000A1344000980A002061054000DE
S214402240691240002DE9F04120F00045B5F1A14F5C
S2144022500446064608DBB5F1FF4F6FDC002840F326
S214402260A0806F48BDE8F0816E4B9D4277DCB5F1AB
S214402270445F68DB4FF0FF372146204600F0D4FE2F
S2144022800146804600F0D0FE6749054600F0CCFE89
S214402290664900F0C1FD294600F0C6FE644900F0DC
S2144022A0BBFD294600F0C0FE624900F0B5FD294658
S2144022B000F0BAFE604900F0AFFD294600F0B4FEDB
S2144022C05E4900F0A9FD414600F0AEFE5C498046FE
S2144022D0284600F0A9FE5B4900F09CFD294600F028
S2144022E0A3FE594900F096FD294600F09DFE574949
S2144022F000F090FD294600F097FE554900F08AFD13
S214402300294600F091FE7B1C014640464CD000F02A
S21440231083FD214600F088FE4E4B4F4D53F8271064
S21440232000F078FD214600F075FD014655F827007F
S21440233000F070FD002E30DBBDE8F081014600F075
S2144023406BFDBDE8F081454900F066FD4FF07E51DB
S21440235001F026F800288DD02046BDE8F08100F038
S21440236087F83F4B04469D4229DCA3F5D0039D42A7
S21440237044DC014600F050FD4FF07E5100F04AFD2F
S2144023804FF080410546204600F046FD014628466F
S21440239000F0FEFE002704466EE700F10040BDE870
S2144023A0F0813048BDE8F08100F036FD214600F06F
S2144023B03BFE0146204600F02DFDBDE8F0812A4B4D
S2144023C09D4214DC4FF07F5100F024FD4FF07F51CA
S2144023D00546204600F028FE4FF07E5100F01CFDDA
S2144023E00146284600F0D4FE0227044644E701464C
S2144023F01E4800F0CDFE032704463DE74FF07E51D1
S21440240000F008FD4FF07E510546204600F004FDE2
S2144024100146284600F0BCFE012704462CE700BFD4
S214402420DB0FC93FFFFFDF3ED769853C59DA4B3D9E
S214402430356B883D6E2EBA3D2549123EABAAAA3E64
S21440244021A215BD6BF16E3D95879D3D388EE33DCF
S214402450CDCC4C3E18AE400028AE4000CAF2497182
S214402460FFFF973FDB0FC9BFFFFF1B40000080BF49
S21440247020F00040704700BF81F0004102E000BFFE
S21440248083F0004330B54FEA41044FEA430594EAEF
S214402490050F08BF90EA020F1FBF54EA000C55EA2A
S2144024A0020C7FEA645C7FEA655C00F0E2804FEAFB
S2144024B05454D4EB5555B8BF6D420CDD2C4480EADD
S2144024C0020281EA030382EA000083EA010180EA0D
S2144024D0020281EA0303362D88BF30BD11F0004F5B
S2144024E04FEA01314FF4801C4CEA113102D0404291
S2144024F061EB410113F0004F4FEA03334CEA1333CC
S21440250002D0524263EB430394EA050F00F0A780E3
S214402510A4F10104D5F1200E0DDB02FA0EFC22FADE
S21440252005F2801841F1000103FA0EF2801843FAD2
S21440253005F359410EE0A5F120050EF1200E012AC3
S21440254003FA0EFC28BF4CF0020C43FA05F3C01801
S21440255051EBE37101F0004507D54FF0000EDCF17A
S214402560000C7EEB00006EEB0101B1F5801F1BD323
S214402570B1F5001F0CD349085FEA30004FEA3C0C27
S21440258004F101044FEA445212F5800F80F09A801D
S214402590BCF1004F08BF5FEA500C50F1000041EB21
S2144025A0045141EA050130BD5FEA4C0C404141EB25
S2144025B0010111F4801FA4F10104E9D191F0000F4C
S2144025C004BF01460020B1FA81F308BF2033A3F1CF
S2144025D00B03B3F120020CDA0C3208DD02F1140CC6
S2144025E0C2F10C0201FA0CF021FA02F10CE002F101
S2144025F01402D8BFC2F1200C01FA02F120FA0CFCFA
S214402600DCBF41EA0C019040E41AA2BF01EB045142
S214402610294330BD6FEA04041F3C1CDA0C340EDC40
S21440262004F11404C4F1200220FA04F001FA02F383
S21440263040EA030021FA04F345EA030130BDC4F141
S2144026400C04C4F1200220FA02F001FA04F340EA36
S2144026500300294630BD21FA04F0294630BD94F0E7
S214402660000F83F4801306BF81F480110134013DCE
S2144026704EE77FEA645C18BF7FEA655C29D094EA3F
S214402680050F08BF90EA020F05D054EA000C04BFBD
S2144026901946104630BD91EA030F1EBF00210020A8
S2144026A030BD5FEA545C05D14000494128BF41F047
S2144026B0004130BD14F580043CBF01F5801130BDAB
S2144026C001F0004545F0FE4141F470014FF0000036
S2144026D030BD7FEA645C1ABF194610467FEA655CE7
S2144026E01CBF0B46024650EA013406BF52EA033589
S2144026F091EA030F41F4002130BD00BF90F0000F77
S21440270004BF0021704730B54FF4806404F13204B2
S2144027104FF000054FF0000150E700BF90F0000F6B
S21440272004BF0021704730B54FF4806404F1320492
S21440273010F0004548BF40424FF000013EE700BF62
S21440274042004FEAE2014FEA31014FEA02701FBFF2
S21440275012F07F4393F07F4F81F06051704792F0C4
S214402760000F14BF93F07F4F704730B54FF460743E
S21440277001F0004521F0004120E700BF50EA010289
S21440278008BF704730B54FF000050AE050EA010236
S21440279008BF704730B511F0004502D5404261EBA6
S2144027A041014FF4806404F132045FEA915C3FF4E7
S2144027B0DCAE4FF003025FEADC0C18BF03325FEA80
S2144027C0DC0C18BF033202EBDC02C2F1200300FA35
S2144027D003FC20FA02F001FA03FE40EA0E0021FA5A
S2144027E002F11444C1E600BF70B54FF0FF0C4CF444
S2144027F0E06C1CEA11541DBF1CEA135594EA0C0FFA
S21440280095EA0C0F00F0DEF82C4481EA030621EA34
S2144028104C5123EA4C5350EA013518BF52EA03356F
S21440282041F4801143F4801338D0A0FB02CE4FF021
S2144028300005E1FB02E506F00042E0FB03E54FF051
S2144028400006E1FB03569CF0000F18BF4EF0010E49
S214402850A4F1FF04B6F5007F64F5407404D25FEA45
S2144028604E0E6D4146EB060642EAC62141EA5551F8
S2144028704FEAC52040EA5E504FEACE2EB4F1FD0C3A
S21440288088BFBCF5E06F1ED8BEF1004F08BF5FEAB8
S214402890500E50F1000041EB045170BD06F000466A
S2144028A046EA010140EA020081EA0301B4EB5C0417
S2144028B0C2BFD4EB0C0541EA045170BD41F480110F
S2144028C04FF0000E013C00F3AB8014F1360FDEBF34
S2144028D0002001F0004170BDC4F10004203C35DA10
S2144028E00C341BDC04F11404C4F1200500FA05F393
S2144028F020FA04F001FA05F240EA020001F0004234
S21440290021F0004110EBD37021FA04F642EB0601A9
S2144029105EEA430E08BF20EAD37070BDC4F10C04D3
S214402920C4F1200500FA04F320FA05F001FA04F297
S21440293040EA020001F0004110EBD37041F1000183
S2144029405EEA430E08BF20EAD37070BDC4F120058E
S21440295000FA05F24EEA020E20FA04F301FA05F2F6
S21440296043EA020321FA04F001F0004121FA04F29E
S21440297020EA020000EBD3705EEA430E08BF20EA6E
S214402980D37070BD94F0000F0FD101F000464000A8
S21440299041EB010111F4801F08BF013CF7D041EA2A
S2144029A0060195F0000F18BF704703F0004652002E
S2144029B043EB030313F4801F08BF013DF7D043EAFF
S2144029C00603704794EA0C0F0CEA135518BF95EAB5
S2144029D00C0F0CD050EA410618BF52EA4306D1D13C
S2144029E081EA030101F000414FF0000070BD50EA5B
S2144029F0410606BF1046194652EA430619D094EAE5
S214402A000C0F02D150EA013613D195EA0C0F05D1CE
S214402A1052EA03361CBF104619460AD181EA030122
S214402A2001F0004141F0FE4141F470014FF00000DA
S214402A3070BD41F0FE4141F4780170BD70B54FF075
S214402A40FF0C4CF4E06C1CEA11541DBF1CEA1355F5
S214402A5094EA0C0F95EA0C0F00F0A7F8A4EB0504D7
S214402A6081EA030E52EA03354FEA013100F08880CE
S214402A704FEA03334FF0805545EA131343EA126397
S214402A804FEA022245EA111545EA10654FEA00264C
S214402A900EF000419D4208BF964244F1FD0404F505
S214402AA0407402D25B084FEA3202B61A65EB030561
S214402AB05B084FEA32024FF480104FF4002CB6EB1E
S214402AC0020E75EB030E22BFB61A754640EA0C009E
S214402AD05B084FEA3202B6EB020E75EB030E22BFDE
S214402AE0B61A754640EA5C005B084FEA3202B6EB1F
S214402AF0020E75EB030E22BFB61A754640EA9C00DE
S214402B005B084FEA3202B6EB020E75EB030E22BFAD
S214402B10B61A754640EADC0055EA060E18D04FEA6B
S214402B20051545EA16754FEA06164FEAC30343EA0B
S214402B3052734FEAC2025FEA1C1CC0D111F4801FD8
S214402B400BD141EA00014FF000004FF0004CB6E7D1
S214402B5011F4801F04BF01430020B4F1FD0C88BF70
S214402B60BCF5E06F3FF6AFAEB5EB030C04BFB6EB7B
S214402B70020C5FEA500C50F1000041EB045170BD6E
S214402B800EF0004E4EEA113114EB5C04C2BFD4EB9B
S214402B900C0541EA045170BD41F480114FF0000E1F
S214402BA0013C90E645EA060E8DE60CEA135594EA9B
S214402BB00C0F08BF95EA0C0F3FF43BAF94EA0C0F9E
S214402BC00AD150EA01347FF434AF95EA0C0F7FF413
S214402BD025AF104619462CE795EA0C0F06D152EA67
S214402BE003353FF4FDAE1046194622E750EA41064B
S214402BF018BF52EA43067FF4C5AE50EA41047FF45C
S214402C000DAF52EA43057FF4EBAE12E74FF0FF3CC0
S214402C1006E000BF4FF0010C02E000BF4FF0010C91
S214402C204DF804CD4FEA410C7FEA6C5C4FEA430C0A
S214402C3018BF7FEA6C5C1BD001B050EA410C0CBF59
S214402C4052EA430C91EA030F02BF90EA020F0020BB
S214402C50704710F1000F91EA030F58BF994208BF22
S214402C6090422CBFD8176FEAE37040F001007047DF
S214402C704FEA410C7FEA6C5C02D150EA013C07D136
S214402C804FEA430C7FEA6C5CD6D152EA033CD3D081
S214402C905DF8040B704700BF8446104662468C467B
S214402CA01946634600E000BF01B5FFF7B7FF0028AE
S214402CB048BF10F1000F01BD4DF808EDFFF7F4FFD7
S214402CC00CBF012000205DF808FB00BF4DF808ED62
S214402CD0FFF7EAFF34BF012000205DF808FB00BF85
S214402CE04DF808EDFFF7E0FF94BF012000205DF8A7
S214402CF008FB00BF4DF808EDFFF7CEFF94BF01205C
S214402D0000205DF808FB00BF4DF808EDFFF7C4FF54
S214402D1034BF012000205DF808FB00BF4FEA4102A7
S214402D2012F5001215D211D56FF47873B3EB6252D8
S214402D3012D94FEAC12343F0004343EA505311F0FF
S214402D40004F23FA02F018BF404270474FF0000091
S214402D50704750EA013005D111F0004008BF6FF0CF
S214402D60004070474FF00000704700BF4FEA4102F6
S214402D70B2F1E04324BFB3F5001CDCF1FE5C0DD994
S214402D8001F0004C4FEAC0024CEA5070B2F1004FDE
S214402D9040EB830008BF20F00100704711F0804FE1
S214402DA021D113F13872BCBF01F00040704741F4A6
S214402DB080114FEA5252C2F11802C2F1200C10FAAA
S214402DC00CF320FA02F018BF40F001004FEAC1238E
S214402DD04FEAD32303FA0CFC40EA0C0023FA02F332
S214402DE04FEA4303CCE77FEA625307D150EA013308
S214402DF01EBF4FF0FE4040F44000704701F00040D8
S214402E0040F0FE4040F40000704700BF80F00040B5
S214402E1002E000BF81F0004142001FBF5FEA41036D
S214402E2092EA030F7FEA226C7FEA236C6AD04FEA6D
S214402E301262D2EB1363C1BFD218414048404140B2
S214402E40B8BF5B42192B88BF704710F0004F40F464
S214402E50000020F07F4018BF404211F0004F41F480
S214402E60000121F07F4118BF494292EA030F3FD04C
S214402E70A2F1010241FA03FC10EB0C00C3F120035F
S214402E8001FA03F100F0004302D5494260EB4000EE
S214402E90B0F5000F13D3B0F1807F06D340084FEA59
S214402EA0310102F10102FE2A51D2B1F1004F40EB4E
S214402EB0C25008BF20F0010040EA030070474900B6
S214402EC040EB000010F4000FA2F10102EDD1B0FA81
S214402ED080FCACF1080CB2EB0C0200FA0CF0AABF76
S214402EE000EBC25052421843BCBFD0401843704714
S214402EF092F0000F81F4000106BF80F4000001321A
S214402F00013BB5E74FEA41037FEA226C18BF7FEAF0
S214402F10236C21D092EA030F04D092F0000F08BF32
S214402F200846704790EA010F1CBF0020704712F019
S214402F307F4F04D1400028BF40F00040704712F158
S214402F4000723CBF00F50000704700F0004343F0BD
S214402F50FE4040F4000070477FEA226216BF0846F3
S214402F607FEA23630146420206BF5FEA412390EAB6
S214402F70010F40F4800070474FF0000304E000BFAC
S214402F8010F0004348BF40425FEA000C08BF70475D
S214402F9043F0964301464FF000001CE050EA010221
S214402FA008BF70474FF000030AE000BF50EA010236
S214402FB008BF704711F0004302D5404261EB410123
S214402FC05FEA010C02BF84460146002043F0B64348
S214402FD008BFA3F18053A3F50003BCFA8CF2083A6D
S214402FE0A3EBC25310DB01FA02FC634400FA02FC76
S214402FF0C2F12002BCF1004F20FA02F243EB02007D
S21440300008BF20F00100704702F1200201FA02FCDE
S214403010C2F1200250EA4C0021FA02F243EB0200D1
S21440302008BF20EADC7070474FF0FF0C1CEAD05215
S2144030301EBF1CEAD15392EA0C0F93EA0C0F6FD0D6
S2144030401A4480EA010C400218BF5FEA41211ED0B4
S2144030504FF0006343EA501043EA5111A0FB0131A0
S2144030600CF00040B1F5000F3EBF490041EAD37175
S2144030705B0040EA010062F17F02FD2A1DD8B3F1F1
S214403080004F40EBC25008BF20F00100704790F060
S214403090000F0CF0004C08BF49024CEA502040EAB2
S2144030A051207F3AC2BFD2F1FF0340EAC250704778
S2144030B040F400004FF00003013A5DDC12F1190FB6
S2144030C0DCBF00F000407047C2F10002410021FA28
S2144030D002F1C2F1200200FA02FC5FEA310040F140
S2144030E0000053EA4C0308BF20EADC70704792F0B9
S2144030F0000F00F0004C02BF400010F4000F013AF1
S214403100F9D040EA0C0093F0000F01F0004C02BFEB
S214403110490011F4000F013BF9D041EA0C018FE75A
S2144031200CEAD15392EA0C0F18BF93EA0C0F0AD060
S21440313030F0004C18BF31F0004CD8D180EA010086
S21440314000F00040704790F0000F17BF90F0004F1F
S214403150084691F0000F91F0004F14D092EA0C0F01
S21440316001D142020FD193EA0C0F03D14B0218BF94
S214403170084608D180EA010000F0004040F0FE40DA
S21440318040F40000704740F0FE4040F44000704776
S2144031904FF0FF0C1CEAD0521EBF1CEAD15392EAF5
S2144031A00C0F93EA0C0F69D0A2EB030280EA010CE5
S2144031B049024FEA402037D04FF0805343EA11117E
S2144031C043EA10130CF000408B4238BF5B0042F1DC
S2144031D07D024FF4000C8B4224BF5B1A40EA0C0081
S2144031E0B3EB510F24BFA3EB510340EA5C00B3EBB3
S2144031F0910F24BFA3EB910340EA9C00B3EBD10FA1
S21440320024BFA3EBD10340EADC001B0118BF5FEAF2
S2144032101C1CE0D1FD2A3FF650AF8B4240EBC2501B
S21440322008BF20F0010070470CF0004C4CEA5020DC
S2144032307F32C2BFD2F1FF0340EAC250704740F42B
S21440324000004FF00003013A37E792F0000F00F01D
S214403250004C02BF400010F4000F013AF9D040EA9B
S2144032600C0093F0000F01F0004C02BF490011F42F
S214403270000F013BF9D041EA0C0195E70CEAD15327
S21440328092EA0C0F08D142027FF47DAF93EA0C0F0E
S2144032907FF470AF084676E793EA0C0F04D14B02F2
S2144032A03FF44CAF08466EE730F0004C18BF31F0A4
S2144032B0004CCAD130F000427FF45CAF31F000439E
S2144032C07FF43CAF5FE700BF4FF0FF3C06E000BF37
S2144032D04FF0010C02E000BF4FF0010C4DF804CD5A
S2144032E04FEA40024FEA41037FEA226C18BF7FEA6A
S2144032F0236C11D001B052EA530C18BF90EA010F6C
S21440330058BFB2EB030088BFC81738BF6FEAE170FA
S21440331018BF40F0010070477FEA226C02D15FEA96
S214403320402C05D17FEA236CE4D15FEA412CE1D002
S2144033305DF8040B704700BF844608466146FFE7C9
S2144033400FB5FFF7C9FF002848BF10F1000F0FBDAB
S2144033504DF808EDFFF7F4FF0CBF012000205DF8A4
S21440336008FB00BF4DF808EDFFF7EAFF34BF012029
S21440337000205DF808FB00BF4DF808EDFFF7E0FFC2
S21440338094BF012000205DF808FB00BF4DF808ED13
S214403390FFF7D2FF94BF012000205DF808FB00BF76
S2144033A04DF808EDFFF7C8FF34BF012000205DF858
S2144033B008FB00BF4FEA4002B2F1FE4F0FD34FF07A
S2144033C09E03B3EB12620DD94FEA002343F000434D
S2144033D010F0004F23FA02F018BF404270474FF0FB
S2144033E00000704712F1610F01D1420205D110F082
S2144033F0004008BF6FF0004070474FF00000704735
S21440340042000ED2B2F1FE4F0BD34FF09E03B3EB09
S214403410126209D44FEA002343F0004323FA02F035
S21440342070474FF00000704712F1610F01D1420221
S21440343002D14FF0FF3070474FF00000704700BF9A
S214403440002101F009B900BF00210A2201F0A6B907
S21440345070B50F4E0F4D761BB61007D0043D0024B6
S214403460013455F8043F9847A642F9D10A4E0B4D11
S21440347007F0E8FE761BB61008D0043D0024013461
S21440348055F8043F9847A642F9D170BD70BD00BFBD
S21440349050B2400050B2400058B2400050B24000D7
S2144034A00FB410B5074B82B004AC54F8042B186820
S2144034B023468168019402F029FC02B0BDE8104022
S2144034C004B0704730050020F0B4840743D0541E43
S2144034D0002A3ED0CDB2034603E0621E002C38D010
S2144034E0144603F8015B9A07F7D1032C2AD9CDB2CC
S2144034F045EA05250F2C45EA054515D9A4F11007E0
S2144035003F0903F1100606EB07161A46156055608C
S2144035109560D5601032B242F8D104F00F040137FE
S214403520032C03EB07130DD91E462246043A032A02
S21440353046F8045BFAD8221F22F0030204321344F2
S21440354004F003042CB1C9B21C4403F8011BA34287
S214403550FBD1F0BC704714460346C6E700290CBFB3
S214403560022200224FF4806300F000B82DE9F041BB
S2144035703C4D04462D68884616461F4615B1AB6B33
S214403580002B4FD0022E30D8002F2EDB2846214667
S21440359004F0F2FAA38900226260A2611A0628D4D7
S2144035A023F083039BB2022EA3812DD0B8F1000FE7
S2144035B03CD0012E13D09BB203F008002A4A80B2BA
S2144035C0EA63C4F80080C4F81080676178B113F0ED
S2144035D0030F18BF0027A7600020BDE8F08143F026
S2144035E001037A42A381A261E5E74FF0FF30BDE8D0
S2144035F0F0812846216904F01FFCA389022E23F09F
S21440360083039BB2A381D1D1002004F1430243F04F
S214403610020300250121A381A56022602261616129
S214403620BDE8F081284604F0C3FAABE7002F08BF98
S2144036304FF48067384605F0A9FA804628B1A3893A
S21440364043F080039BB2A381B3E74FF4806005F05C
S2144036509DFA804618B9A3894FF0FF30D5E74FF45E
S2144036608067ECE730050020A57B40000CB4F0B541
S214403670174B0C1E9DB01F6824DB4FF4027323AD1E
S21440368014BF04F1FF36264602900690ADF814307B
S2144036904FF6FF7E2B46384602A9229A0496079696
S2144036A00195ADF816E001F085F8431CBCBF8B23AE
S2144036B03B6014B1029B00221A701DB0BDE8F0407A
S2144036C002B070478B233B604FF0FF30F5E700BFFA
S2144036D0300500202DE9F0410D46904606F01CF9D5
S2144036E006460F46B8F1000F0FD0C5F30A53C3F194
S2144036F06B03002B09DD1C0504F17F5303F54013D3
S2144037000022FFF771F8BDE8F08130463946BDE843
S214403710F08100BF000000002DE9F04F9FB00D463D
S21440372019918346059200200A460021CDE9020100
S21440373000231A93164612F8014B2D2C00F258819E
S214403740DFE814F03900560156015601560156017D
S2144037505601560156017C007C007C007C007C00B3
S214403760560156015601560156015601560156015C
S214403770560156015601560156015601560156014C
S214403780560156017C005601560156015601560117
S214403790560156015601560156014D0056017E000F
S2144037A0002301219A460B91002840F051810A9A45
S2144037B0002A40F04D8100204FF000084FF00009ED
S2144037C019950790059909B1199B0B60079A002A2D
S2144037D040F09E80404649461FB0BDE8F08F00232B
S2144037E00793731C19937478002CE4D0302C1E4633
S2144037F000F00381002306960A93A4F130030027C5
S214403800092BB9463E461ED80698431C0EE009EBE7
S214403810890904EB4909A9F130091993984613F828
S214403820014B0136A4F13002092A0ED8082EEEDDEF
S21440383007EB870704EB4707303FEEE7199279E737
S21440384001220792CDE7DDF81880584605F02AF9A0
S214403850D0F800A0584605F025F9006806F012FC9E
S21440386051460246404606F03DFC8046002800F0A1
S2144038704681002003460B90B24624F02002452A9B
S21440388000F0E2800021BAF1000F55D0CB1A48462E
S2144038900893FEF733FFBAF1100FB4BFD0464FF08F
S2144038A01008002E08BF5646B8F1090FCDE90201B0
S2144038B013DDA04B03EBC80353E91223FEF794FF36
S2144038C0044638460D46FEF719FF02460B4620468C
S2144038D02946FEF7D7FDCDE90201BAF10F0F00F3F6
S2144038E02B810899002900F0AC8040F38185089A26
S2144038F0162A00F3F184DDE902238E49089801EB8D
S214403900C00ADAE90001FEF76FFF8046894659E7AC
S214403910404609F100411FB0BDE8F08F3346A4F1A0
S2144039203102082A40F23D8324F02002452A1846F8
S2144039303FF436AF01210B91002871D10A9B002B32
S2144039406ED10B9800287FF436AF493C252C3FF6C5
S21440395032AF01A151F824F01D404000B737400077
S214403960B7374000B7374000B7374000E53F400024
S214403970B7374000B7374000B7374000B73740004A
S214403980B7374000B7374000B7374000B73740003A
S214403990B7374000B7374000B7374000B73740002A
S2144039A0B7374000B7374000B7374000B73740001A
S2144039B0B7374000B7374000B7374000B73740000A
S2144039C0B7374000B7374000B7374000B7374000FA
S2144039D0B7374000B73740001D404000B73740007B
S2144039E0B7374000B7374000B7374000E53F4000A4
S2144039F00020302C07907FF4FDAE7378582B00F0F3
S214403A003783782B00F0348301361996334616F800
S214403A10014B302CF9D01CB1069301230A93ECE6F7
S214403A204FF000084FF00009CCE66FF000434FF02F
S214403A30FF3003930290220742BF039941F00041B2
S214403A400391DDE90289BDE6BAF1000F3FF4ACAE62
S214403A50199D6A1C19926C782B2C00F04B822D2CE9
S214403A6040F0458201210891AA1C1992AC78A4F135
S214403A703002092A00F2E581302C06D1199A01322B
S214403A80199212F8014B302CFAD0A4F13102082AD0
S214403A903FF6F8AE199AA4F1300102F10108CDF8CC
S214403AA0648054780E92A4F13002092A11D80E9AF6
S214403AB002F1020C624601EB8101199204EB4101CE
S214403AC0904612F8014B3039A4F1300CBCF1090F86
S214403AD0F1D90E9AC2EB0808B8F1080F00F3F48348
S214403AE044F61F629142A8BF1146089A002A3FF446
S214403AF0CAAE4942BAF1000F7FF4C8AE1CE758463A
S214403B00199C04F0CFFF006806F0BCFA23181993FE
S214403B10245C002E40F0C481302C7FF4FFAE1A4661
S214403B20334600E00A46511C199154780133302C34
S214403B30F8D0F4E648B14000089BC8EB0A08984421
S214403B40B8F1000F40F36B8318F00F010AD0DDE99F
S214403B500223A74800EBC101D1E90001FEF744FE6D
S214403B60CDE9020138F00F0440F0CA8100200A90E7
S214403B70CDF80090069932465346584605F04EFC1E
S214403B800B90002800F0D782089B08990020002B55
S214403B90C3F10003A8BF034621EAE17106900E93E5
S214403BA00F9107460B9A5846516805F0BDFB0646EE
S214403BB0002800F0CE820B98036906F10C009A1C90
S214403BC00B9B920003F10C0105F0CEFADDE90201F1
S214403BD0CDE90801DDE908231BA81CA98DE80300F0
S214403BE0584605F015FF1A90002800F013845846F2
S214403BF0012105F0ADFC0746002800F0AA821B9B79
S214403C00002BC0F21181DDF838900F9D99440A9A36
S214403C101C999B1A0B446FF47F729342C1F1360A8B
S214403C2080F2DA80D21A1F2AC2EB0A0A00F3018118
S214403C304FF0010808FA02F800230C930A985544FE
S214403C40CA44CA45B4BF53464B460544AB42A8BFD8
S214403C502B46002B04DDC3EB0A0AED1AC3EB090919
S214403C600E99B1B1394658460E9A05F019FD0746E9
S214403C70002800F06E82584639461A9A05F072FCC3
S214403C800446002800F0658258461A9905F072FBF3
S214403C901A94BAF1000F08DD524658461A9905F0B4
S214403CA04DFD1A90002800F0B5830F9A42B1314678
S214403CB058460F9A05F0F4FC0646002800F0498264
S214403CC0002D08DD31462A46584605F037FD0646A3
S214403CD0002800F03E82B9F1000F08DD39464A461A
S214403CE0584605F02BFD0746002800F0328258461D
S214403CF01A99324605F0A4FD0690002800F0298265
S214403D0006990023D1F80CA0CB60394605F074FD27
S214403D100028C0F2CC8300F089830698394605F027
S214403D20D5FE00224FF0804304460D46FEF7D8FFEE
S214403D30002865D0BAF1000F00F08F802D4D00248A
S214403D4022462B46CDE90C23DDF80C90DFF8AC80FC
S214403D50294B09EA0808984500F0C0810A9A82B1C2
S214403D60B8F1D46F0DD820A3D3E90023DDE90C01C8
S214403D70FEF7B6FF002840F01D8105F1D663C8EB7C
S214403D800305DDE9080105F0C7FD02460B4620465F
S214403D902946FEF729FD02460B46DDE90801FEF7F7
S214403DA071FBCDE90201039C0A9921B9134B2340CC
S214403DB0984500F0EE8158461A9905F0DBFA5846C9
S214403DC0314605F0D7FA5846394605F0D3FA5846F4
S214403DD0069905F0CFFAE5E600230C934FF001086C
S214403DE02CE700BFAFF300800000C0FFFFFFDF41BD
S214403DF048B140000000F03F0000E07F0000F07F48
S214403E00204629460022A84BFEF7EEFCCDE90C01E1
S214403E10BAF1000F1CD101F1004110901191DDE97B
S214403E201045DDF80C9091E70F99DDF83890CD1AE3
S214403E30EDE69E4C4FF00108E41A08FA04F40C94A0
S214403E40FCE619950021BAF1000F7FF41FAD73E52B
S214403E50DDE90C23CDE91023E1E7029B002B40F07F
S214403E6093800398C0F313038146002B40F0928062
S214403E702046294600228E4BFEF728FF002840F0B9
S214403E805683204629460022874BFEF7ADFCCDE9F7
S214403E900C0101F1004116901791DDE9164555E7F2
S214403EA040464346B246A4F13002092A25D8199C1A
S214403EB00130002A00F0AF810128034400F0A081C1
S214403EC05044013806E009EB89094FEA4909824522
S214403ED000F097810AF1010A0AF1FF310829F2DD64
S214403EE0BAF1100FDCBF07EB87077F00EFE7002231
S214403EF00892BCE500210891B6E501220B92BCE48D
S214403F00B4F59A7F00F317812411012CDFF8C8819D
S214403F1040F32A83DDE902014546002714F0010FED
S214403F2007F101074FEA640403D0D5E90023FEF702
S214403F305BFC012C05F10805F0DCCDE90201039994
S214403F4008EBC707A1F154710391DDE90223D7E9D5
S214403F500001FEF749FCCDE90201039A039922F0DD
S214403F6000431B0D534A1B05934200F2E480A2F522
S214403F708012934240F2D4824F4B00204FF0FF31E4
S214403F8003930A900291F3E50299DDF80C9001291B
S214403F9000F0C981464900200024484DCDE90C0177
S214403FA0D4E61999A4F1300206910C464FF0000A67
S214403FB001207EE7DDE90C0106F038FB002800F022
S214403FC0AD81FEF79BFBCDE90C01BAF1000F40F046
S214403FD0A0810D9A0C9902F1004214911592DDE9E8
S214403FE01445CAE63648199909E011F8013FA3F18D
S214403FF04104192C98BF203393427FF4DCAB10F871
S214404000012F002AF1D14B1C19934B78282B00F036
S214404010E1822C4A00230392029312E52A4819991A
S21440402009E011F8013FA3F14104192C98BF203351
S21440403093427FF4C0AB10F8012F002AF1D11991BA
S214404040224C084609E010F8013FA3F14105192D1E
S21440405098BF2033934240F0848214F8012F002A00
S214404060F1D1013019901A4A002303920293E8E4F2
S21440407007991AAB01910093584619A9154A1BABEC
S21440408004F0A6F910F0070504463FF4C9AC062D27
S21440409040F057810136002219964FF000084FF045
S2144040A000090792FFF78EBB0000E03FE3FBFFFFEF
S2144040B00000F03F0000A07CFFFFEF7F0000F0BF55
S2144040C05FAE40000000F8FF53AE400057AE4000E1
S2144040D00000F07F40AE400010B24000A9F1547995
S2144040E0CDF80C90DDE9020105F016FC02460B46C1
S2144040F020462946FEF778FB02460B46DDE90201DC
S214404100FEF7C0F9CDE902010399AD4A21F000431C
S2144041101B0D1B059342DDE90801CDE9120140F273
S214404120D680A84B1399994210D0A64B4FF0FF303B
S214404130039302903FE6A44B002003930290222371
S214404140DDE90289CBF80030FFF73CBB129A01321A
S214404150EBD1B2461A999C4A222300200392029041
S214404160CBF80030DDE90289584605F003F9584699
S214404170514605F0FFF85846394605F0FBF85846D4
S2144041800B9905F0F7F85846069905F0F3F8FFF74F
S21440419019BBDDE90C01FEF7C1FDFEF7BFFA02468A
S2144041A00B46DDE90C01FEF76BF980468946BAF10D
S2144041B0000F11D1029A7AB9C4F3130464B97AA3F2
S2144041C0D3E90023FEF782FD00283FF4F4ADB24663
S2144041D0DDE902891A99C7E74046494674A3D3E900
S2144041E00023FEF773FD0028F1D14046494672A3EE
S2144041F0D3E90023FEF788FD00283FF4DCADE6E770
S2144042005046082800F1010A00F3078109EB8909A6
S21440421002EB49090020621C1992647843E63FF499
S214404220A5ACC8F1000414F00F030AD0DDE9020182
S214404230664A02EBC303D3E90023FEF7FFFBCDE952
S214404240020124113FF492AC1F2C34DC14F0100F02
S21440425014BF6A230023002C0A930EDDDDE9020119
S2144042605B4DE30703D5D5E90023FEF7BDFA64109E
S21440427005F10805F5D1CDE902010A9890B10399F8
S214404280C1F30A53C3F16B03002B0A460ADD1F2B0A
S21440429040F3BC810020342B029040F3BF814FF0A6
S2144042A05C710391DDE9020100220023FEF704FD64
S2144042B000283FF45DAC2223CBF800304FF00008D6
S2144042C04FF00009FFF77EBA44F61F610DE40399EC
S2144042D001F15474039467E50899CAF1250399429D
S2144042E03FF72AACDDE90223384CCAF10F0504EB50
S2144042F0C501D1E90001FEF777FA089A551B04EB91
S214404300C504D4E90023FEF76FFA80468946FFF7D6
S21440431059BADDE90C01CDE9140160E62D490020CB
S214404320CDE90C0151E64A46002A7FF433AEB24648
S2144043302223CBF800301A994FF000084FF00009BE
S21440434012E71A9A3AB11CA8352105F0E7FB584601
S2144043501A9905F00FF81B9B062D3FF66CAB01A093
S21440436050F825F099434000D94340008D43400023
S214404370814340002B3A4000D943400099434000D7
S2144043801149002203910292FFF755BB1C9A1D9BD0
S21440439002920393FFF74FBB002103910291FFF770
S2144043A04ABB00BFAFF300809535A094FFFFCF3FD8
S2144043B09535A094FFFFDF3F35E5AF350000E03F81
S2144043C0FFFF9F7CFFFFEF7F0000F07F48B140007B
S2144043D078AE40000000F03F1D9A1C9803F233432D
S2144043E022F4801242EA035202900392FFF723BB64
S2144043F0089B1633FFF6A0ABDDE902018D4B089A09
S214404400A3EBC20ADAE90023FEF718FB804689468A
S214404410FFF7D8B9B24601469DE6BAF1100FDCBFA9
S21440442007EB870702EB47070020F4E65546C446ED
S214404430B246DDE90889002D00F08280039A7E4B63
S214404440C2F31301994200F0A3800C9B002B00F0AE
S2144044508380039803420FD0DDE902010A9A002DBB
S21440446000F08480FFF736F902460B464046494640
S214404470FEF708F8804689460A9BB3B16F4800228B
S2144044801390129240464946DDE91223FEF7ACF9F6
S21440449080468946CDE90289039B33B9029820B904
S2144044A022231A99CBF800305EE61A995CE6554608
S2144044B0DDE90889B246002DDED1029A002ADBD11A
S2144044C00398C0F313030446002BD5D120F00043D5
S2144044D01B0D1B05B3F1D66FCED906994B6913B9A0
S2144044E00B69012BC8DD06990122584605F026F9CE
S2144044F03946069005F080F90028BDDD0A9B002B62
S2144045007AD14F4B2340A3F580136FEA13536FEADB
S21440451003504FF0FF3103900291DDE90289ABE78B
S21440452001F15471002203910A92FFF721BB454BDB
S214404530454900220020CDE91623CDE90C01ACE424
S2144045400399C1F313030C46002B7FF47EAF029A07
S214404550002A7FF47AAFD1E702991CEA010F8BD08C
S2144045607AE7013119917EE50027E8E4FFF7B2F8D3
S21440457002460B4640464946FDF782FF002200238E
S21440458080468946FEF798FB00287FF4D1AE73E755
S2144045900A9B0299DBB12A4B1340B3F1D46F16D86D
S2144045A01B0DC3F16B034FF0FF3000FA03F3994243
S2144045B07FF44BAF254B9A4238D0214B0020134016
S2144045C003F5801303930290DDE9028954E74FF028
S2144045D0FF33ECE719A81E491CAA04F08FF90528FA
S2144045E07FF417AD1D9B1C9943F0FF4343F4E00056
S2144045F003900291FFF725BA114B2340B3F1D66FD3
S21440460081D8B3F15C7F3FF639AF91E64FF0FF3289
S21440461002FA03F3029A1340029343E6203B4FF01C
S214404620FF3101FA03F3134003933BE60131C4D153
S21440463090E500BF48B14000FFFF0F000000503932
S2144046400000F07F0000E0BF0000E03FFFFFEF7F8C
S21440465064AE4000AFF3008038B50A4B0A460146C8
S2144046601868FFF759F804460D4605F08BFC20B154
S21440467020462946FEF77AFB38BDBDE8384005F0AF
S214404680BBBC00BF300500202DE9F00F424C82B085
S214404690D4F800C001900E4600E02646344614F892
S2144046A0015B0CEB0500407800F0080000F0FF0AC4
S2144046B00028F2D12D2D5BD02B2D04BF7578B41C6D
S2144046C033F010003CD09946BAF1000F0CBF6FF0A3
S2144046D0004B4FF0004BBBFBF9F8002709FB18BB1B
S2144046E038460CE0303DAB4219DD7E1C05D04045D7
S2144046F023D820D009FB0050012714F8015B0CEBAF
S2144047000506767816F0040FECD116F0030606D0B0
S214404710012E14BF57263726AD1BAB42E5DC7B1C6B
S21440472015D0BAF1000F21D10AB1EFB9116002B02D
S214404730BDE8F00F70475D45DCDD4FF0FF37DCE746
S214404740302D1AD0002BBED10A239946BCE70199DA
S214404750BAF1000F4FF022030CBF6FF000404FF04D
S21440476000400B60002AE2D0611EDFE74042DBE7F4
S214404770B41C75784FF0010AA2E7207800F0DF00FD
S214404780582803D0002B9ED108239CE71023657839
S2144047909946023498E700BF3405002030B4044CF4
S2144047A00D46134601462A46206830BCFFF76CBFCC
S2144047B0300500202DE9F04FC9B010930C9191467A
S2144047C00D9004F06FF90068159005F05BFC0C9CAA
S2144047D01890A3891E0603D52369002B01F081801B
S2144047E038ACA44608942B9400250024CDE9164501
S2144047F0002311932D932C931A9319930E93664688
S21440480099F80030002B00F0F880252B00F0F5805A
S21440481009F1010201E0252B04D013781446013239
S214404820002BF8D1C9EB04057DB12C9B2D9A0133A2
S2144048302A44072BC6F8009075602D922C9300F3FF
S214404840C28008360E9828440E902378002B00F03D
S214404850C280002394F801801A468DF88F300F935B
S214404860099304F101094FF0FF340A9409F1010954
S214404870A8F12003582B00F2C583DFE813F06A0244
S214404880C303C3037102C303C303C303C303C30306
S214404890C30314036603C3039D00C000C30378022A
S2144048A07F027F027F027F027F027F027F027F02BB
S2144048B07F02C303C303C303C303C303C303C303C8
S2144048C0C303C303C30390027103C3037103C3034B
S2144048D0C303C303C3036A03C303C3037800C3030A
S2144048E0C303C303C303C3035900C303C303AF02D5
S2144048F0C303C303C303C303C303C303C303C30343
S214404900C303C30337034803710371037103FF02F4
S2144049104803C303C3030803C303C5027C00200344
S214404920A303C303D902C3035F00C303C303DE006C
S214404930DDF824C04CF0100CCDF824C0099CA2062B
S21440494000F15483099CE30600F1BD85DDF824C0E0
S2144049501CF0400F00F0B785DDF840C00025BCF8DD
S21440496000400CF1040C0123CDF840C08CE0099DBA
S21440497045F010050995DDF824C01CF0200340F0F2
S2144049802A83DDF824C01CF0100240F0A485DDF830
S21440499024C01CF0400300F09E85DDF840C013465E
S2144049A0BCF800400CF1040C0025CDF840C06BE08C
S2144049B00F9C109364420F94099D45F00405099599
S2144049C099F8008052E70D980C992BAA05F0E4FB65
S2144049D040B938AE36E72D9B23B10D980C992BAADB
S2144049E005F0DAFB0C9C0E98A38913F0400F18BF15
S2144049F04FF0FF3049B0BDE8F08F4C4625E799F8B8
S214404A00008009F10100B8F12A0F01F00C81A8F1ED
S214404A103003092B98BF002101F26B8010F8018B00
S214404A2001EB810103EB4101A8F13003092BF5D9D5
S214404A3041EAE1710A9181461AE7099DA14CAF0609
S214404A401A948DF88F2040F1D181DDF840C00CF1EA
S214404A50070323F0070303F108041094D3E9004545
S214404A60DDF824C01CF0010F00F0628454EA050013
S214404A7000F05E8430234CF0020C8DF890308DF8B8
S214404A809180CDF824C002234FF0000A8DF88FA005
S214404A900A99002905DBDDF824C02CF0800CCDF8FF
S214404AA024C054EA050040F0C5820A99002940F027
S214404AB0C182002B40F03884DDF824C01CF0010F82
S214404AC000F0328448AF3023089D07F8413DEC1B88
S214404AD0DDF828C000256445A8BFA446CDF82CC004
S214404AE01495BAF1000F02D00B9D01350B95099B2A
S214404AF013F00203129302D00B9D02350B95DDF89E
S214404B0024C01CF0840CCDF84CC040F090820F9D21
S214404B10DDF82CC0CCEB050BBBF1000F40F38782D1
S214404B20BBF1100F2D992C9ADFF8A0A12CDD1B9716
S214404B30304657461025CA460C9EA1460D9C06E0B8
S214404B40ABF1100BBBF1100F00F1080017DD01327E
S214404B501031072A2D912C9207604560F0DD2046E3
S214404B6031462BAA05F018FB00287FF43BAFABF18B
S214404B70100BBBF1100F2D992C9A38A8E7DC4C4649
S214404B80D146BA461B9F064601320BEB010C072A5C
S214404B90CDF8B4C02C9286E8000C00F31A849DF839
S214404BA08FA00836BAF1000F0FD02C9B0CF1010CE9
S214404BB001330DF18F010122072BCDF8B4C02C93A1
S214404BC086E8060000F3A4830836129B73B12C9B3C
S214404BD00CF1020C013324A90222072BCDF8B4C0F5
S214404BE02C9386E8060000F387830836139D802DB5
S214404BF000F0CA820A9DC4EB050ABAF1000F3BDDFD
S214404C00BAF1100F2C9B304D2BDD0A9432464FF0F4
S214404C10100B2E4661460D9C0C9D06E0AAF1100A2C
S214404C20BAF1100F02F1080217DD01331031072BDD
S214404C302D912C9382E84008F0DD204629462BAA89
S214404C4005F0AAFA00287FF4CDAEAAF1100ABAF110
S214404C50100F2D992C9B38AAE7DC0A9C35468C46CB
S214404C6016460133D444072BCDF8B4C02C9386E8BF
S214404C70200400F335830836099DED0500F12482B3
S214404C802C9BA4440133072BCDF8B4C03760746026
S214404C902C9300F30F830836099C630749D50F9D74
S214404CA00B982C1A002C44DD102C2C9BDFF81CA0F3
S214404CB02BDD574610256246DDF83080DDF834A0FF
S214404CC00BE000BFD4AE4000A0AE4000F4AE4000C3
S214404CD0103C102C06F1080615DD01331032072B68
S214404CE02D922C9337607560F2DD504641462BAAD4
S214404CF005F052FA00287FF475AE103C102C2D9A21
S214404D002C9B38AEE9DC9446BA460133A444072BC4
S214404D10CDF8B4C02C93C6F800A0746009DD0D9899
S214404D200C992BAA05F038FA00287FF45BAEDDF824
S214404D30B4C00E9C0B980F9DA842ACBF24186419B3
S214404D400E94BCF1000F40F0C18200232C9338AE85
S214404D5056E599F80080002A7FF488AD202285E544
S214404D60099D45F00105099599F800807EE5099D65
S214404D7045F08005099599F8008077E50024A8F16C
S214404D8030030F94214619F8018B01EB810103EBA8
S214404D904101A8F13003092BF5D90F9168E5DDF8FC
S214404DA024C08DF88F204CF0100CCDF824C0099C00
S214404DB0A50640F1B280109DE91D21F00701D1E91A
S214404DC000230831109114461D46002A73F1000C4A
S214404DD0C0F294839DF88FA0012359E6099DB64CF6
S214404DE0AF068DF88F201A943FF52FAE099DED063D
S214404DF040F14384DDF840C00025DCF800400CF16B
S214404E00040CCDF840C02BE6DDF824C08DF88F208A
S214404E101CF0200F00F04084109C21680E9CE51783
S214404E202B46109D224604351095C1E90023E7E441
S214404E30109C4FF0000A27688DF88FA0251D002F84
S214404E4000F0E9850A9C3846002CC0F29B85514606
S214404E50224604F03FF9002800F013860A9CC01B47
S214404E60A042B8BF0446109524EAE475CDF828A0C1
S214404E70CDF850A00B959DF88FA032E6DDF824C003
S214404E804CF0400CCDF824C099F80080EEE499F838
S214404E9000804B46B8F16C0F00F07F84099D45F0CA
S214404EA010050995E2E4109C109D24682B1D002CEB
S214404EB00F94FFF67DAD109399F80080D6E4109BD2
S214404EC0DDF824C0109D7D4804351C684FF07808F6
S214404ED030234CF0020C10958DF89030CDF824C05D
S214404EE000258DF891801A900223CDE5109B109DE9
S214404EF01A680124002304359A460B948DF8B8208E
S214404F0010958DF88F300A9314932EAFEFE5099CD9
S214404F108DF88F20A5063FF54EAFDDF824C01CF077
S214404F20100F40F0DF82DDF824C01CF0400F00F088
S214404F30D982DDF840C0BCF900400CF1040CE517FE
S214404F4022462B46CDF840C03FE799F800802B22FA
S214404F508CE4099D45F00805099599F8008085E49C
S214404F60109D8DF88F20EB1D23F0070303F1080CEE
S214404F70CDF840C0D3E90045CDE91645DDE9160138
S214404F8005F000F80128DDE9160140F05C830022B8
S214404F900023FDF79BFE002840F063859DF88FA018
S214404FA003250B95099D464F25F08005454B00246B
S214404FB0099500250A94B8F1470FD8BF1F46032429
S214404FC014958EE5DDF824C04CF0200CCDF824C0B6
S214404FD099F800804AE4109CE31D23F0070303F190
S214404FE008051095D3E9004500234DE5109DEB1DBF
S214404FF023F0070303F1080CD3E90045CDF840C081
S214405000012341E58DF88F20B8F1000F3FF4E3AC63
S21440501000234FF0010C9A46CDF82CC08DF8B8808E
S2144050208DF88F300A93149364462EAF5FE5DDF813
S214405030B4C0B7E5012B00F0EC80022B0DF1DF0386
S21440504018D1DDF868C0194604F00F0022091CF894
S214405050000042EA05722B09087052EA03000F4628
S21440506014461D4601F1FF31EED1089DCDE91E23C1
S214405070EC1B2DE5E00840EA457004F00702E9081D
S214405080303250EA010C1F461A7004460D4603F1B2
S214405090FF33EFD1099CCDE91C01E007394640F1CA
S2144050A0C180302A00F0BE80089D1F463023EC1B8E
S2144050B001F8013C0CE500BFC0AE4000D4AE400055
S2144050C0B4AE4000B0AE4000B8F1650F40F3AD80DE
S2144050D0DDE9160100220023CDF81CC0FDF7ECFDEB
S2144050E0DDF81CC0002800F026812C9BAA4901331D
S2144050F00CF1010C0122072BCDF8B4C02C9386E8A6
S214405100060000F3ED820836259B119CA34203DB84
S214405110099DEC077FF5C0AD2C9B189C0133159D6F
S214405120A444072BCDF8B4C0356074602C9300F3CC
S2144051303E830836119D6C1E002C7FF7ADAD102CBB
S2144051402C9B964D40F3978110276246DDF83480BD
S214405150DDF830A004E00836103C102C40F38A817D
S21440516001331032072B2D922C9386E8A000F2DDF7
S214405170404651462BAA05F00FF800287FF432AC83
S2144051802D9A2C9B38AEE7E70F9D0B98C0EB050A8F
S214405190BAF1000F7FF72EADBAF1100F2C9B7F4D62
S2144051A02BDD129432464FF0100B2E4661460D9C76
S2144051B00C9D06E0AAF1100ABAF1100F02F108029F
S2144051C017DD01331031072B2D912C9382E84008D0
S2144051D0F0DD204629462BAA04F0DEFF00287FF4A7
S2144051E001ACAAF1100ABAF1100F2D992C9B38AADF
S2144051F0E7DC129C35468C4616460133D444072BD2
S214405200CDF8B4C02C9386E8200400F30F8208360D
S214405210F0E4002D08BF0A2C80F03881303448AFC7
S21440522007F8414D089DEC1B52E4119C012C2C9C28
S21440523040F3D28101340CF101030122072C2D9357
S21440524037602C94726000F3D8810836159DDDF8DF
S214405250608001343560189D9844072CCDF8B480A2
S2144052602C94756000F3D5810836DDE916010022DE
S2144052700023FDF721FD119D002840F0B9806B1EEC
S214405280013401379844072C2C94CDF8B48037600D
S214405290736000F3E2800836DDF864C00134199D7F
S2144052A0C44427AB072CCDF8B4C02C9486E828001D
S2144052B07FF7F1AC0D980C992BAA04F06DFF0028EF
S2144052C07FF490ABDDF8B4C038AEE5E40D980C99A9
S2144052D02BAA04F061FF00283FF437ADFFF782BBEE
S2144052E00D980C992BAA04F057FF00287FF47AAB50
S2144052F0DDF8B4C038AEBFE40D980C992BAA04F084
S2144053004BFF00287FF46EABDDF8B4C038AE6DE4DA
S2144053100D980C992BAA04F03FFF00287FF462AB4F
S214405320DDF8B4C038AE50E40A9C38AFFFF7D0BBC7
S2144053300223FFF7A9BB259B002B40F3DD81119C80
S214405340149DDDF844A0AC42A8BF2C46002CBA44BD
S2144053500BDD2C9BA4440133072BCDF8B4C037603B
S21440536074602C9300F31E830836149D24EAE4747C
S2144053702C1B002C40F3D780102C2C9B074D40F361
S214405380A3810A974FF010082F4662462546DDF85F
S21440539034B00C9C09E000BFF0AE4000A0AE400028
S2144053A00836103D102D40F38B8101331032072B09
S2144053B02D922C9386E88001F2DD584621462BAA92
S2144053C004F0EAFE00287FF40DAB2D9A2C9B38AEF5
S2144053D0E7E70D980C992BAA04F0DEFE00287FF430
S2144053E001AB9DF88FA0DDF8B4C038AEFFF7DABB4E
S2144053F06F1E002F7FF750AF102FAE4D23DD434674
S2144054004FF0100ADDF83480DDF830B004E0103F8D
S214405410102F06F1080615DD01341033072C2D93A6
S2144054202C9486E82004F2DD404659462BAA04F028
S214405430B3FE00287FF4D6AA103F102F2D9B2C9C3D
S21440544038AEE9DC98460134B844072CCDF8B48031
S2144054502C9486E8A0007FF71EAF0D980C992BAAD7
S21440546004F09AFE00287FF4BDAADDF8B4802C9C98
S21440547038AE11E794460133A444072BCDF8B4C0A8
S2144054802C93356074607FF706AC13E70DF1DF0BA5
S214405490204629460A22002305F0E8F830328BF8E9
S2144054A00020204629460A22002305F0DFF804465D
S2144054B00D4654EA050C5F460BF1FF3BE8D1089DCC
S2144054C0EC1BFFF705BB109D01232C680435109597
S2144054D00025FFF7D9BA109D2C6804351095002595
S2144054E0FFF7D2BA109D2C6804351095E517224672
S2144054F02B46002A73F1000CBFF66CAC4FF02D0A19
S214405500644265EB45058DF88FA00123FFF7C0BACE
S2144055100D980C992BAA04F03FFE00287FF462AA4F
S214405520DDF8B4C038AE149D259C2F44119DAC4286
S21440553042DB099DE9073FD41198C7EB0A05041BD7
S214405540AC42B8BF2546002D0BDD2C9BAC44013346
S214405550072BCDF8B4C0376075602C9300F34C82AF
S214405560083625EAE575641B002C7FF795AB102CB2
S2144055702C9B504D7FF77FAF10276246DDF8348076
S214405580DDF830A004E00836103C102C7FF772AFF0
S21440559001331032072B2D922C9386E8A000F2DDC3
S2144055A0404651462BAA04F0F7FD00287FF41AAA7D
S2144055B02D9A2C9B38AEE7E7189D2C9BAC44159D46
S2144055C001333560189D072BCDF8B4C075602C9319
S2144055D000F3F4810836AFE7099DEA073FF52AAEA7
S2144055E001340CF101080123072CCDF8B4802C942B
S2144055F0376073607FF74FAE2FE70D980C992BAA54
S21440560004F0CAFD00287FF4EDA92D9B2C9C38AEF3
S2144056101CE60D980C992BAA04F0BEFD00287FF4DA
S214405620E1A9DDF8B4802C9C38AE1EE60D980C99A6
S2144056302BAA04F0B1FD00287FF4D4A9DDF8B4C04D
S21440564038AEFFF7D7BA04F09DFC002840F0BB8088
S214405650099C194F194B4FF0030C24F08004099411
S2144056600A90CDF82CC01490B8F1470FD8BF1F460B
S21440567064469DF88FA0FFF734BA099C640640F153
S2144056805081DDF840C00025BCF800400CF1040C09
S214405690CDF840C0FFF7E4B9DDF824C01CF0100F89
S2144056A000F04681109C0E9D2368043410941D60C3
S2144056B0FFF7A6B8A0AE4000BCAE4000B8AE400073
S2144056C02C463D460A9F94460133A444072BCDF80A
S2144056D0B4C02C93356074603FF71AAF083622E7A3
S2144056E00D980C992BAA04F057FD00287FF47AA950
S2144056F0DDF8B4C038AE07E52C9AB74901320CF154
S214405700010C0120072ACDF8B4C02C92316070609D
S21440571000F3F78008361C462CB9119D1DB9099D2B
S214405720E8077FF5B9AA2C9B159D1899013335607B
S214405730189D6144072B2D9175602C9300F3DE81F4
S21440574006F108026442002C40F30B81102CA34D56
S21440575040F34881A34610260C46DDF83480DDF839
S21440576030A006E00832ABF1100BBBF1100F40F34F
S214405770378101331034072B2D942C9382E8600038
S214405780F0DD404651462BAA04F006FD00287FF483
S21440579029A92D9C2C9B38AAE5E7099C09F101090B
S2144057A044F02004099493F80180FFF75FB80D9801
S2144057B00C992BAA04F0F0FC00287FF413A9DDF81E
S2144057C0B4C038AEB6E40A9D28F0200A013500F091
S2144057D0A580BAF1470F04D10A9D002D08BF0125C8
S2144057E00A95DDF824C0DDE916234CF4807C002BB6
S2144057F0CDF848C0C0F29C81DDE91645CDE920458C
S2144058004FF0000BB8F1660F00F09B81B8F1460FE1
S21440581000F0A981BAF1450F0ABF0A9C0A9D651C93
S214405820022025A926AA29AB8DE8210003920493DD
S21440583002910D98DDE9202301F0DEF9B8F1670FFB
S214405840074602D0B8F1470F05D1DDF824C01CF05A
S214405850010F00F09C81BAF1460F07EB050400F0FB
S2144058601C81DDE9200100220023FDF725FA0028EF
S21440587040F00581299B9C4206D930215A1C29922A
S2144058801970299B9C42F9D8DB1BBAF1470F11933C
S21440589000F0ED80B8F1650F40F3F281B8F1660F85
S2144058A000F06881259C1494119C149DAC4200F332
S2144058B03281DDF824C01CF0010F40F0AD8125EAAE
